:020000040800F2
:10000000582600209D0100088F3A0008DD2C0008CA
:100010008D3A000879110008454F000800000000E3
:1000200000000000000000000000000005010008C2
:100030005912000800000000490100083D4800086E
:10004000B7010008B7010008B7010008B7010008B0
:10005000B7010008B7010008B7010008B7010008A0
:10006000B7010008B7010008B7010008B701000890
:10007000B7010008B7010008B7010008B701000880
:10008000B7010008B7010008B7010008B701000870
:10009000B7010008B7010008B7010008B701000860
:1000A000B7010008B7010008B7010008B701000850
:1000B000B7010008B7010008B7010008B701000840
:1000C000B7010008B7010008B7010008B701000830
:1000D000B7010008214F0008B7010008B701000868
:1000E000B7010008B7010008B7010008DFF810D019
:1000F00000F082FC00480047F1590008AFF300808F
:1001000058260020224B19680868B0E8F00F80F3E9
:100110000988BFF36F8F4FF0000080F311884EF015
:100120000D0E70470000000006480068006880F36C
:10013000088862B661B6BFF34F8FBFF36F8F00DFE1
:1001400000BF00BF08ED00E0EFF30980BFF36F8F41
:100150000F4B1A6820E9F00F106008B54FF05000FF
:1001600080F31188BFF34F8FBFF36F8F06F036F81F
:100170004FF0000080F31188BDE808401968086856
:10018000B0E8F00F80F30988BFF36F8F704700BFAE
:1001900028000020EFF305807047000006488047E4
:1001A00006480047FEE7FEE7FEE7FEE7FEE7FEE75C
:1001B000FEE7FEE7FEE7FEE7CD480008ED00000899
:1001C000202A04DB203A21FA02F00021704721FAAC
:1001D00002F3D040C2F12002914008431946704713
:1001E0000649074A0868504343F239021044086040
:1001F0004008704701490860704700004001002036
:100200006D4EC64140EA01039B0703D009E008C9CF
:10021000121F08C0042AFAD203E011F8013B00F8CB
:10022000013B521EF9D27047D2B201E000F8012B17
:10023000491EFBD270470022F6E710B513460A4666
:1002400004461946FFF7F0FF204610BDF0B480EADF
:100250000102D40F4200B2EB410F02D2024608461F
:1002600011464A0042D0C30DDDB2C1F3C752AD1AE8
:10027000202D35DAC1F3160141F4000204B15242D7
:10028000C5F1200602FA06F12A411044B3EBD05F13
:1002900023D0C4B1012DA0EBC35009DCF0BC4FF05A
:1002A000004202EAC352DBB200F5000000F000BBDE
:1002B000400000F1807000EBC350A0F1807040EA74
:1002C000D170490009E0490841EAC071A0EBC35070
:1002D00000F50000400800EBC350F0BC00F0DFBAAE
:1002E0006142012202EB4101001BF6E7F0BC7047BE
:1002F00081F00041AAE780F00040A7E780EA010210
:1003000010B502F00043400022D04A001FD0010E79
:1003100001EB1261C0F35600C2F3560240F4000034
:1003200042F40002A0FB022000047F39140400D034
:10033000401C50EA124001D44000491EC2B20C06D3
:1003400004EBD010401C4008802A02D003E00020BB
:1003500010BD20F00100002900DA0020184310BD74
:1003600030B480EA010202F0004530F0004221F092
:10037000004013D090B1C30DD40DC2F31601C0F3E9
:100380001600E41A41F4000140F400027D34914269
:1003900001D3641C00E04900002C02DA30BC0020CC
:1003A00070474FF400000023914201D3891A0343A0
:1003B00040084FEA4101F7D151B1914202D14FF0CB
:1003C000004105E002D24FF0010101E06FF00101B0
:1003D00003EBC450284430BC00F061BA420005D0A1
:1003E000C0F3C7525242914201DC0020704700EB3B
:1003F000C15070472DE9FE4F804681EA0300C00FCF
:100400000C46009021F0004123F00045B8EB0200BB
:10041000A94105D24046214690461C460B4602465D
:1004200023F00040104347D0270DC7F30A00C3F361
:100430000A510290401A019040286BDAC3F313006E
:1004400040F4801B0098924620B10023D2EB030AAF
:1004500063EB0B0B01985946C0F14002504600F087
:10046000FDF906460D4650465946019A00F005FA38
:1004700010EB08006141002487EA115284EAE77317
:100480001A4340D0009A62B3019A012A4FEA0752F8
:1004900015DC001B61EB02014FF0004202EA07523B
:1004A000CDE90042001C41F5801132462B4600F098
:1004B0003CFA03B0BDE8F08F40462146F9E7001B47
:1004C00061EB0201001C41F5801300185B4120180C
:1004D000A2F5001747EB030140EAD570B6196D414C
:1004E00011E06D084FEA360645EAC0754FEA07523B
:1004F000001B61EB0201001C41F5801149084FEA25
:1005000030000019514132462B4603B0BDE8F04F90
:1005100000F0FCB90098012240000023D0EB020259
:1005200063EBE073009821464FEAE074B8EB0000FB
:1005300061EB0401E9E783F000435BE781F00041F0
:1005400058E72DE9FE4F81EA030404F0004421F04E
:10055000004100944FF0000B23F0004350EA0104E7
:100560005ED052EA03045BD0C3F30A54C1F30A55C8
:100570002C44A4F2F3340194A0FB0254C1F3130100
:1005800041F48011C3F3130343F4801301FB0244CD
:1005900000FB034E840A970A44EA815447EA8357D2
:1005A000A4FB076802958D0A05FB07854FEA932C8B
:1005B00004FB0C542705029D4FEA065847EA1637FC
:1005C000B5EB08056EEB070C870E920E47EA811714
:1005D00042EA8312A7FB0201B6EB0B0164EB0004B5
:1005E0002B0D43EA0C335E1844EB1C50DA4651469F
:1005F000E7FB0201C5F313044FEA0B3343EA14533C
:100600004FEA0432019C43EA0603A4F10C0402946D
:10061000009CCDE900B400F088F903B0BDE8F08F8C
:1006200000200146F9E72DE9F04D81EA030404F0CA
:10063000004B21F0004514464FF0000A23F0004122
:1006400050EA050220D054EA01021DD0C5F30A5732
:100650000246C5F31303C1F31300C1F30A5640F475
:10066000801543F48013A7EB0608101BD64608F24A
:10067000FD3873EB050002D308F1010801E0921880
:100680005B41B8F1000F03DA00200146BDE8F08DB0
:1006900000204FF48011064684460EE0171B73EBD2
:1006A000050705D3121B63EB050306434CEA010C57
:1006B00049084FEA300092185B4150EA0107EDD13A
:1006C00052EA030012D082EA040083EA05010843DB
:1006D00005D0101BAB4106D20122002306E0002208
:1006E0004FF0004302E06FF0010253101AEB0600D6
:1006F0004CEB085110EB0A0041EB0B01BDE8F04D4B
:1007000000F004B970B521F0004303430CD0C1F3ED
:100710000A550024D5EB040564EB0403D617AD1A83
:10072000B34102DB0020014670BD201841EB0251AD
:1007300070BDC10F80EAE0700844CA07962300210B
:1007400000F0B6B896230022114600F0B1B800F0D0
:10075000004220F00040C10DC0F3160040F400003C
:100760007F2901DA00207047962903DCC1F1960148
:10077000C84001E096398840002AF4D040427047D2
:1007800020F00040C10DC0F3160040F400007F29A6
:1007900001DA00207047962903DCC1F19601C840B8
:1007A000704796398840704700F0004230F00040B2
:1007B0000AD0C10D01F56071C0F3160042EA015183
:1007C000C20840071143704700200146704701F0FE
:1007D000004330B421F0004150EA010206D00A0D76
:1007E000A2F56072C1F31301002A02DC30BC0020C4
:1007F0007047440F44EAC104C100E01830BC00EB6C
:10080000C25000F04CB80000002801DBC0F10040ED
:10081000002901DBC1F1004181427047002801DB62
:10082000C0F10040002901DBC1F10041884270475E
:1008300030B50B46014600202022012409E021FAB0
:1008400002F59D4205D303FA02F5491B04FA02F5AD
:100850002844151EA2F10102F1DC30BD202A04DB80
:10086000203A00FA02F1002070479140C2F12003C3
:1008700020FA03F3194390407047202A06DBCB1778
:10088000203A41FA02F043EAE07306E041FA02F34B
:10089000D040C2F120029140084319467047002918
:1008A000A8BF7047401C490008BF20F001007047F6
:1008B00010B4B0FA80FC00FA0CF050EA010404BF56
:1008C00010BC704749B1CCF1200421FA04F411FAAC
:1008D0000CF118BF012121430843A3EB0C01CB1DF0
:1008E0004FEA00614FEA102042BF002010BC704761
:1008F00000EBC35010440029A4BF10BC7047401C3B
:10090000490008BF20F0010010BC704710B5141E4C
:1009100073F1000408DA401C41F1000192185B41B8
:100920001A4301D120F0010010BD2DE9F04D92468F
:100930009B4611B1B1FA81F202E0B0FA80F22032A6
:100940009046FFF78BFF04460F4640EA0A0041EA53
:100950000B0153465A46084313D0114653EA01008F
:1009600019D0C8F140025046FFF72AFC05460E4652
:10097000504659464246FFF771FF084305D0012013
:1009800004E020463946BDE8F08D0020054346EAE4
:10099000E0762C4337430A986305E40AA0EB08008D
:1009A0000022FD0A44EA47540A3002D500200146DD
:1009B000E9E7010510196941DDE9084500196941B8
:1009C000BDE8F04DA2E7000030B5041E71F100044F
:1009D00004DB4FF00044404264EB0101141E73F14C
:1009E000000405DB1C464FF00043524263EB040356
:1009F0008B4208BF824230BD064C074D06E0E068DE
:100A000040F0010394E8070098471034AC42F6D355
:100A1000FFF770FBB8670008D86700082DE9F04DB4
:100A200000231A461B1A8A4103DB00200146BDE859
:100A3000F08DC1F30A52C1F3130141F480154FF058
:100A4000000BD10702D100186D41521E0027044649
:100A500040F2FF11384601EB620A3E4680460246EC
:100A600000204FF48011FFF7ABFBC2197141BB1896
:100A700046EB0100B4EB030C75EB000C04D3E41A55
:100A800065EB000517460E46241908F101006D417B
:100A900080463428E3DDF91946EB0600091BA8411E
:100AA00003D24FF0FF32134601E0002213461BEB46
:100AB000070046EB0A51BDE8F04DFFF727BF70B5C0
:100AC0008C1810F8015B15F0070301D110F8013BF9
:100AD0002A1106D110F8012B03E010F8016B01F880
:100AE000016B5B1EF9D12B0705D40023521E0DD4D8
:100AF00001F8013BFAE710F8013BCB1A921C03E026
:100B000013F8015B01F8015B521EF9D5A142D8D35D
:100B1000002070BD10B503F033FA03F049FA6420E9
:100B200004F018FF03F02CFA642004F013FF03F024
:100B30003FFA642004F00EFF03F022FA642004F070
:100B400009FF03F035FA642004F004FFBDE810400B
:100B500003F016BA70B5044600688168C943C90736
:100B600017D1816821F00101816000F08BFF0546FB
:100B70000AE000BF00F086FF401B022804D920686D
:100B80008068C043C00706D020688068C043C007A3
:100B9000F0D0002070BDA06A40F01000A062E06AB2
:100BA00040F00100E062012070BD00002DE9F04F2F
:100BB0008A4987B0012248780024401C00F0FF0CCD
:100BC00081F801C08878401CC7B28F70C878401C7B
:100BD000C6B2CE700879401CC3B20B714879401C74
:100BE000C5B27F484D71BCF1370F01D34C704270D4
:100BF000052F01D38C708270142E01D3CC70C2707B
:100C0000232B01D30C7102713C2D01D34C71427125
:100C1000417861B14470734800230078CDE9004009
:100C2000714807C800F04AFA07B0BDE8F08F817834
:100C3000002953D06D4D8470A868FFF788FD00B27D
:100C4000FFF777FD6A49FFF759FBFFF780FD0FFAC1
:100C500080FB6868FFF77BFD00B2FFF76AFD64491F
:100C6000FFF74CFBFFF773FD0FFA80FA2868FFF7D8
:100C70006EFD00B2FFF75DFD5D49FFF73FFBFFF73B
:100C800066FD5C4F0FFA80F9B868FFF760FD0FFA58
:100C900080F87868FFF75BFD06B23868FFF757FD0C
:100CA000059400B20294039404944B4642463146A4
:100CB000CDE900AB00F098F94D49A868FFF71EFB9D
:100CC0004D49D1E90B238C6AC968CDE900144B4921
:100CD000CDE902230EC900F051FAA5E7C17809B1A8
:100CE000C470A1E7017909B104719DE7417979B137
:100CF0004471434843498068FFF700FBFFF740FD1C
:100D000007B080B2BDE8F04F4FF4E47100F040B995
:100D1000817991B18471394803AD283890E80E008B
:100D200039488468029485E80E0003C8CDE90001C3
:100D3000364890E80E00012012E0C17999B1C471E3
:100D40002D4803AD90E80E0031488468029485E890
:100D50000E0003C8CDE900012E4890E80E000220E5
:100D600000F070F860E7017A69B104722A4881687E
:100D7000CDE902140494059403C8CDE90001274885
:100D800090E80E0027E0417A0029A6D0447224485A
:100D9000244905908A07CDE903212549224B234A9E
:100DA0008DE80E00012000F04DF82248224ACDE9DE
:100DB000024022490594CDE9001204940023022048
:100DC00000F040F8002305940294039404940094E6
:100DD0001A46194601940320C2E7000004010020CE
:100DE000BA1C0020E5000020F81C0020041D002093
:100DF000A34C6542101D0020201B0020FC1B00207E
:100E0000940000200000C842981B00205C1B0020BA
:100E1000E41A0020A81A00204C1C0020101C0020FE
:100E20007B142E3FCDCC4C3D5C8FC23E295C0F3DE8
:100E30006666263F0000A0400AD7233C9A991940D5
:100E400005F094B82DE9FF4F81B00A460FA94E4C2A
:100E500091E8400FAA21217061700F304B4FA070B4
:100E6000002539461046FFF749FAFFF770FCADF848
:100E700000009DF8010020719DF800006071394666
:100E80000398FFF73BFAFFF762FCADF800009DF80E
:100E90000100A0719DF80000E07139460498FFF749
:100EA0002DFAFFF754FCADF800009DF80100207208
:100EB0009DF80000607239460E98FFF71FFAFFF7A1
:100EC00046FCADF800009DF80100A0729DF80000FE
:100ED000E07239463046FFF711FAFFF738FCADF8FB
:100EE00000009DF8010020739DF8000060733946F2
:100EF0004046FFF703FAFFF72AFCADF800009DF823
:100F00000100A0739DF80000E07339464846FFF7E2
:100F1000F5F9FFF71CFCADF800009DF80100207406
:100F20009DF80000607439465046FFF7E7F9FFF777
:100F30000EFCADF800009DF80100A0749DF80000C3
:100F4000E07439465846FFF7D9F9FFF700FCADF8D1
:100F500000009DF8010020759DF8000060751220CA
:100F60001621E07000202246135C401C2B44C0B2C6
:100F7000DDB28842F8D3555405B00348BDE8F04FC0
:100F8000491CFFF75DBF0000C41C002000007A442C
:100F900018B4144AAA2400231470547005249470C1
:100FA000ADF800009DF8010010719DF8000050712F
:100FB000ADF800109DF8010090719DF80000042428
:100FC000D0710821D4700020145C401C2344C0B2AE
:100FD000DBB28842F8D3535418BC0248491CFFF7CF
:100FE0002FBF0000C41C00202DE9F80708ACAA267A
:100FF00094E88017304C0025267066700226A67093
:10100000ADF800009DF8010020719DF800006071AE
:10101000ADF800109DF80100A0719DF80000E0718E
:10102000ADF800209DF8010020729DF8000060726C
:10103000ADF800309DF80100A0729DF80000E0724C
:10104000ADF800709DF8010020739DF800006073FA
:10105000ADF800809DF80100A0739DF80000E073DA
:10106000ADF800909DF8010020749DF800006074B8
:10107000ADF800A09DF80100A0749DF80000E07498
:10108000ADF800C09DF8010020759DF80000607566
:1010900012201621E07000202246135C401C2B44D5
:1010A000C0B2DDB28842F8D35554BDE8F807024813
:1010B000491CFFF7C5BE0000C41C00202DE9FC47F9
:1010C0002B4CDDE90A688946AA21019321706170E1
:1010D0000121284FA170924600253946FFF70EF9ED
:1010E000FFF735FBADF800009DF8010020719DF879
:1010F0000000607139464846FFF700F9FFF727FB0B
:10110000ADF800009DF80100A0719DF80000E071AD
:1011100039465046FFF7F2F8FFF719FBADF800002B
:101120009DF8010020729DF8000060729DF8070094
:10113000A0729DF80600E0729DF8050020739DF8EE
:1011400004006073A67384F80F800C201021E070F7
:1011500000202246135C401C2B44C0B2DDB2884202
:10116000F8D35554BDE8FC470148491CFFF768BE59
:10117000C41C00200000C842FEE700002DE9F00377
:1011800007AC4FF0AA0C94E84003324C069F0025B0
:1011900004F803CB04F802CC4FF0F10C04F801CCB6
:1011A0004FEA106C84F801C04FEA104C84F802C07A
:1011B0004FEA102C84F803C02071080E6071080CEF
:1011C000A071080AE0712172100E6072100CA072FA
:1011D000100AE0722273180E6073180CA073180ABC
:1011E000E0732374380E6074380CA074380AE0740D
:1011F0002775300E6075300CA075300AE0752676C4
:101200004FEA186060764FEA1840A0764FEA18203F
:10121000E07684F81C804FEA196161774FEA194142
:10122000A1774FEA1921E17784F82090202024212A
:101230002070084A0020135C401C2B44C0B2DDB271
:101240008842F8D35554BDE8F0030248491CFFF723
:10125000F7BD0000C41C00207047000011480021A9
:1012600040F26C72018041808180C18001814181A6
:101270008181C181018241828182C1820183418356
:101280008183C1830184418482840622C2840185D2
:1012900041858185C185018641868186C186018718
:1012A00041877047681A002010B5FFF7D7FFBDE8E7
:1012B00010403E220149024803F000B9681A00209C
:1012C00000F8000872B6FEE7044B0022DA61044A17
:1012D000136943F00103136101807047C8040020C3
:1012E0000020024014480022C168CB06134904D5EF
:1012F000CA6942F00202CA611022C3685B0705D5C1
:10130000CB6943F00103CB6142F00402C369DB0700
:1013100007D0CB6943F00403CB61C16921F001011F
:10132000C161A2F58071013901D0C2607047C16905
:1013300021F00101C161704700200240C804002073
:1013400070B5054600F09EFB0646114C09E0681C8E
:1013500007D025B100F096FB801BA84201D90320DD
:1013600070BDE068C007F2D1E068800601D520209A
:10137000E060E068C00605D4E069C00702D1E0681B
:10138000400703D5FFF7AEFF012070BD002070BD00
:10139000002002402DE9F0410C461546064650F863
:1013A00024701AE06D1EAC4205DA56F82500394665
:1013B000FFF734FAF6D956F8250046F8240000E085
:1013C000641CAC4205DA56F824003946FFF71CFAD3
:1013D000F6D956F8240046F82500AC42E3DB46F87F
:1013E00024702046BDE8F041FFF7A3B9064A00216A
:1013F000D16106490A6942F002020A61486108693E
:1014000040F04000086170470816002000200240AC
:1014100010B502F0B5FD02F094FD642004F09AFAD4
:1014200002F0AEFD642004F095FA02F08AFD64201B
:1014300004F090FA02F0A4FD642004F08BFA02F0AC
:1014400080FD642004F086FABDE8104002F098BDEB
:10145000F8B50024009490F824202546012A12D0E3
:10146000012280F824204A681F23072A0DD206682B
:10147000776B521E02EB820293409F430B689340AE
:101480001F43776319E00220F8BD06680D2A0AD2CF
:10149000376BD21F02EB820293409F430B6893404D
:1014A0001F43376309E0F76A0D3A02EB820293406B
:1014B0009F430B6893401F43F7620A68072306683F
:1014C0000A2A0AD3F7680A3A02EB420293409F4382
:1014D0008B6893401F43F76008E0376902EB4202D4
:1014E00093409F438B6893401F4337610A68102ADB
:1014F00001D0112A20D1124B02689A4217D1936869
:101500001B0219D4936843F40003936009681029FF
:1015100012D10C490C4A0968B1FBF2F101EB8101CF
:10152000490000E0491E00910029FBD104E0816AD6
:1015300041F020018162012480F824502046F8BD4A
:10154000002401402400002040420F002DE9F0411A
:101550004FF0000704003D467ED0A06A002628B95F
:10156000E66284F82460204600F07EF82046FFF70B
:10157000F1FAA16AC90600D420B1A06A40F01000B7
:10158000A06269E0A16A21F4885141F00201A162E0
:101590006268E169237B0A4347EA43010A43A16881
:1015A0004FF48077B94209D0012907D05FF00001DC
:1015B00094F814C0BCF1010F02D00AE03946F7E7F5
:1015C000F3B1A36A43F02003A362E36A43F001038B
:1015D000E3622368D3F804C02CF4694C4CEA010C94
:1015E000C3F804C021688B68DFF870C003EA0C03FD
:1015F00013438B60A168B9420BD0012909D00CE0DC
:10160000DFF85CC0A3690CEB43330B4343F4006188
:10161000DFE7218A0D05A5F580152168CB6A23F443
:1016200070032B43CB62216889680E4B19409142AD
:1016300008D1E662A16A21F0020141F00101A16234
:10164000BDE8F081A06A20F0020040F01000A06226
:10165000E06A40F00100E0620120F1E7FDF7E1FF00
:1016600000E0FFFFFE0E1FFF00B585B000210091D6
:1016700001910291039100680E49884218D10E48E9
:10168000816941F400718161816901F40071049103
:10169000816941F0040181618069694600F00400BC
:1016A00004900220009003200190044800F0E8F824
:1016B00005B000BD002401400010024000080140B8
:1016C00010B590F821100022022905D00421816371
:1016D00080F82020012010BD01680B6823F00E0364
:1016E0000B6001680B6823F001030B6090F8403039
:1016F000C46B012101FA03F3636080F8211080F8C4
:101700002020104610BD000010B590F821100024D4
:10171000022903D00421816301243DE001680A68A5
:1017200022F00E020A6001680A6822F001020A60D3
:101730001A4A0168914201D1012121E0174A14326D
:10174000914201D110211BE0144A2832914201D16B
:10175000891515E0114A3C32914201D189140FE0FC
:101760000E4A5032914202D14FF4803108E00B4AC8
:101770006432914202D14FF4801101E04FF0807148
:10178000064A083A5160012180F82110002180F8B2
:101790002010416B01B18847204610BD080002406F
:1017A00070B5044600F06EF90546601C02D004488E
:1017B0000078044400F066F9401BA042FAD370BDE3
:1017C000180000200348016941F0800101610020F8
:1017D00070470000002002402DE9F05F07461C48DA
:1017E00088460024017E15461E46012909D00121A4
:1017F000814601764CF2503A5046FFF7A1FD18B1F0
:1018000022E00220BDE8F09F012F02D0022F00D07D
:101810000427D346DFF83CA0220128463146FEF7D4
:10182000CFFC81B208EB4400FFF74EFD5846FFF7AE
:1018300087FDDAF8102022F00102CAF8102018B94A
:10184000641CE4B2BC42E7D3002289F81820D9E72F
:10185000C804002000200240064900200A69120640
:1018600007D5054A4A60054A4A600969090600D554
:10187000012070470020024023016745AB89EFCD6E
:101880002DE9F84FDFF8B8910024A9F1040B2346A5
:101890000F2709F1040AABF1040EC9E00125A540A8
:1018A0002A40AA427DD1674ED1F804C0ACEB0608AD
:1018B000B44532D014DCBCF1030F3AD009DCBCF1E2
:1018C000000F2AD0BCF1010F1CD0BCF1020F31D1A6
:1018D0001DE0BCF1110F17D0BCF1120F2AD119E095
:1018E000B8F5881F19D006DCB8F5803F15D0B8F5DB
:1018F000801F1FD111E0B8F5001F0ED0B8F5041FEE
:1019000018D10AE0CB6815E0CB681B1D12E0CB684C
:1019100008330FE0CB680C330CE08B682BB1012B44
:101920004FF0080303D0456104E0042302E00561A1
:1019300000E00023FF2A01D8064601E000F104067A
:101940004FEA840501D9A5F12005D6F8008007FAF1
:1019500005FC28EA0C0803FA05F548EA0508C6F86C
:1019600000804D68ED0062D5374DAE6946F0010646
:10197000AE61AD6924F0030605F001050095334D15
:1019800006EB050CDCF80850A607360F07FA06F838
:1019900025EA0805DFF8B880404503D14FF000087C
:1019A00017E044E0DFF8AC80404502D14FF0010879
:1019B0000FE0DFF8A480404502D14FF0020808E0B4
:1019C000DFF89880404502D14FF0030801E04FF066
:1019D000040808FA06F848EA0508CCF808804D68BB
:1019E000D9F80060ED024D4601D5164300E096435C
:1019F0002E604D68DAF80060AD02554601D51643F9
:101A000000E096432E604D68DBF80060AD035D4654
:101A100001D5164300E096432E604D68DEF8006065
:101A2000ED03754601D5164300E096432E60641C15
:101A30000D682A46E5407FF431AFBDE8F88F00001D
:101A40000804014000001110001002400000014095
:101A500000080140000C014000100140001401404A
:101A60008068084000D001207047C26821EA020364
:101A70000A4043EA0241016170470AB101617047BF
:101A80000904FBE701488068704700001800002047
:101A90000248816802781144816070471800002074
:101AA000074810B5016841F010010160032000F003
:101AB0007BF80F2000F006F800F024F8002010BD9D
:101AC0000020024070B50D4D04464FF47A7128781D
:101AD000B1FBF0F00A490968B1FBF0F000F0F0FC4E
:101AE00048B9102C07D200222146501E00F03CF8C5
:101AF00000206C6070BD012070BD00001800002047
:101B0000240000200F4808B5816941F0010181617E
:101B1000816901F001010091C16941F08051C16109
:101B2000C069002200F0805000900F21901E00F04C
:101B30001BF80548416821F0E06141F00071416007
:101B400008BD00000010024000000140002809DB31
:101B500000F01F02012191404009800000F1E020C7
:101B6000C0F8001170470000F0B40E4B1B680C4623
:101B7000C3F30223C3F10705042D00D90425191D61
:101B8000072901D2002300E0DB1E012606FA05F139
:101B9000491E214099409E40761E16403143F0BCBC
:101BA00003F080BA0CED00E0064900F00702086877
:101BB0004FF6FF03184040EA0220034A1043086032
:101BC000704700000CED00E00000FA052DE9F84335
:101BD00005460078354CC00754D0E0690026C000A7
:101BE00008D4E06940F08050E061E069012600F02F
:101BF000805000902E480168C90512D401688046C3
:101C000041F480710160FFF73DFF074605E000BF2A
:101C1000FFF738FFC01B642823D8D8F80000C005A0
:101C2000F6D5206A10F4407021D0A98801F44071E3
:101C300081421CD0206A1F49012220F440700A60B2
:101C400000220A602062C00711D0FFF71BFF074681
:101C500041F2883808E000BFFFF714FFC11B41457F
:101C600002D90320BDE8F883206A8007F4D5206AF2
:101C7000696820F44070084320621EB1E06920F0DA
:101C80008050E0612878800705D56068A96820F455
:101C90004040084360602878C00605D56068E96860
:101CA00020F48000084360600020DBE70010024061
:101CB00000700040400442422DE9F0470F46050005
:101CC00061D0434E306800F00700B84209D2306856
:101CD00020F0070038433060306800F00700B84259
:101CE00051D128683B4C810712D5400703D5606865
:101CF00040F4E06060602878000703D5606840F435
:101D0000605060606068A96820F0F000084360607F
:101D10002878C00728D06868012810D021680228D8
:101D200010D0890700292EDA616821F003010143F0
:101D30006160FFF7A7FE804641F288390DE0216817
:101D40008903EFE78901EDE7FFF79CFEA0EB0801AF
:101D5000494502D90320BDE8F0876068696800F052
:101D60000C00B0EB810FEFD1306800F00700B842F3
:101D70000BD9306820F0070038433060306800F03D
:101D80000700B84201D00120E5E72878400705D5D3
:101D90006068E96820F4E060084360602878000724
:101DA00006D56068296920F4605040EAC10060608F
:101DB00000F038F86168084AC1F30311515CC8406B
:101DC0000649086006480068FFF77CFE0020C2E76D
:101DD000002002400010024022660008240000207B
:101DE0001C0000200448054900684968044AC1F302
:101DF0000221515CC84070472400002000100240BE
:101E0000326600080448054900684968044AC1F37D
:101E1000C221515CC84070472400002000100240DD
:101E2000326600080E4A51680E4801F00C03042B7C
:101E300011D0082B0FD10C48C1F38343C903C05CF8
:101E40000AD55168084AC1F34041921E515C054AC7
:101E50005043B0FBF1F0704704494843704700001D
:101E60000010024000127A001266000800093D00CE
:101E70002DE9F84F040070D02078C04DC00749D03C
:101E80006868C0F38100012807D06868C0F381004A
:101E9000022809D16868C00306D52868800339D5AF
:101EA00060680028E7D035E06068B0F5803F0BD06F
:101EB00010B1B0F5A02F11D0286820F48030286030
:101EC000286820F4802002E0286840F480302860F0
:101ED000606890B1FFF7D6FD06460AE0286840F436
:101EE00080202860F0E700BFFFF7CCFD801B64284E
:101EF00073D828688003F7D50CE0FFF7C3FD0646CA
:101F000005E000BFFFF7BEFD801B6428F0D82868FD
:101F10008003F7D420789A4E80074FF001094FF0E4
:101F2000000839D5686810F00C0F07D06868C0F356
:101F30008100022809D16868C00306D42868800798
:101F400014D52069012808D110E02069B0B1C6F885
:101F50000090FFF797FD074605E00AE1FFF792FDC5
:101F6000C01B0228C4D828688007F7D52868616993
:101F700020F0F80040EAC10028600DE0C6F80080BB
:101F8000FFF780FD074604E0FFF77CFDC01B022839
:101F900023D828688007F7D4207800072CD5794803
:101FA000A169D9B1C0F80090FFF76CFD074604E0C5
:101FB000FFF768FDC01B02280FD8686A8007F7D5B5
:101FC00071484FF4FA510068B0FBF1F0009000BF87
:101FD0000098411E0091FAD20EE080E0C0F8008027
:101FE000FFF750FD074604E0FFF74CFDC01B022839
:101FF00075D8686A8007F7D42078400760D5E8690B
:102000000027C00008D4E86940F08050E861E86922
:10201000012700F0805000905C480168C90513D486
:102020000168834641F480710160FFF72BFD824611
:1020300006E000BFFFF726FDA0EB0A0064284ED89B
:10204000DBF80000C005F5D5E06801280AD008B12A
:10205000052813D0286A20F001002862286A20F0A1
:10206000040002E0286A40F001002862E06841F2C2
:10207000883B98B1FFF706FD82460BE0286A40F0E6
:1020800004002862EEE700BFFFF7FCFCA0EB0A01AA
:1020900059455AD8286A8007F6D50CE0FFF7F2FCBC
:1020A000824605E0FFF7EEFCA0EB0A0159454CD84B
:1020B000286A8007F6D41FB1E86920F08050E861F3
:1020C000E06988B36968C1F38101022944D002281C
:1020D000C6F8608004D0FFF7D5FC044638E034E051
:1020E000FFF7D0FC074604E0FFF7CCFCC01B02283A
:1020F0002BD828688001F7D4206AB0F5803F05D13D
:102100006868A16820F4003008436860D4E90801D9
:102110000843696821F4741108436860C6F8609048
:10212000FFF7B0FC044606E025E000BFFFF7AAFC7D
:10213000001B022809D828688001F7D51BE000BFE2
:10214000FFF7A0FC001B022802D90320BDE8F88F8E
:1021500028688001F4D40EE00128F7D06868226A6C
:1021600000F48031914204D1616A00F47010884219
:1021700001D00120EAE70020E8E70000001002405B
:1021800000004242800442422400002000700040CF
:1021900070B5040009D0606A002540B12561656111
:1021A000A56294F8510040B10CE0012070BD606858
:1021B000B0F5827FF4D0E561F2E784F85050204614
:1021C00000F040F8022084F851002068016821F0F6
:1021D00040010160A088218900F4827001F404416B
:1021E0000843A18901F400610843217C01F0020148
:1021F0000843217D01F001010843218B01F40071A6
:102200000843217F01F03801084394F8201001F0C1
:1022100080010843218D01F40051084321680860C2
:10222000A069042101EA1040216848602068C16962
:1022300021F40061C1616565012084F8510000202E
:1022400070BD000030B585B0002400940194029464
:10225000039400681549884225D11548C16941F4A5
:102260008041C161C16901F480410491816941F0FB
:102270000801816180690F4D00F0080004904FF45F
:1022800020400090022001900320039069462846D8
:10229000FFF7F6FA4FF48040CDE90004694628467E
:1022A0000294FFF7EDFA05B030BD000000380040A1
:1022B00000100240000C01402DE9FF4F81B01D4687
:1022C000934604464FF001090E9EFFF7DBFB0746DD
:1022D00094F851006168012806D0B1F5827F3CD1A5
:1022E000A168C9BB042838D10298002871D0BBF17D
:1022F000000FFBD0002DF9D094F8500001282CD00D
:102300004FF0010A84F850A094F85100042802D03C
:10231000052084F851004FF00008C4F85480C4F838
:1023200038B0E587A58702992163E586A586C4F8BC
:102330004080C4F8448020680168490603D40168DD
:1023400041F040010160E068B0F5006F606808D0BE
:10235000F0B3012D49D081E0FFE7022005B0BDE8D0
:10236000F08F08B1012D39D1206B21680088C86039
:10237000206B801C2063E08E401EE0862EE02068EB
:10238000816889070FD5E18E69B1B9F1010F0AD1D2
:10239000216B0988C160206B801C2063E08E401E89
:1023A000E0864FF0000920688168C9070CD0E18FF2
:1023B00051B1C068A16B0880A06B801CA063E08F46
:1023C000401EE0874FF00109FFF75CFBC01B01E0F6
:1023D0000BE067E0B04201D3701C50D1E08E0028C2
:1023E000CDD1E08F0028CAD13EE0206B2168007873
:1023F0000873206B401C2063E08E401EE0862DE0B9
:102400002068816889070FD5E18E69B1B9F1010FA4
:102410000AD1216B09780173206B401C2063E08E88
:10242000401EE0864FF0000920688168C9070CD083
:10243000E18F51B1C068A16B0870A06B401CA06314
:10244000E08F401EE0874FF00109FFF71BFBC01B28
:10245000B04202D3701C01D011E086B1E08E00289A
:10246000CED1E08F0028CBD13A463146204601F04C
:10247000A1FF50B12020606584F8508012E084F8FC
:1024800051A084F85080032068E7A06818B920683C
:10249000C1688068009084F851A084F85080606D15
:1024A0000028F1D0012059E74FF0E0210428086905
:1024B00003D020F004000861704740F00400FAE700
:1024C00010B5401EB0F1807F01D3012010BD4FF048
:1024D000E02460610F21601702F0E4FD0020A0619C
:1024E00007202061002010BD70B590F83C20012A23
:1024F00026D0012480F83C40022280F83D20036869
:102500005A689D6822F070060A6832435A600D4B83
:1025100002689A4208D0B2F1804F05D00A4B9A4225
:1025200002D00A4B9A4204D1496825F0800319432E
:10253000916080F83D40002180F83C10084670BD55
:10254000022070BD002C0140000400400008004043
:1025500010B5040003D094F83D0010B107E001204D
:1025600010BD002084F83C00204600F01FF8022037
:1025700084F83D00211D206802F0AAF9012084F8AA
:10258000460084F83E0084F83F0084F8400084F858
:10259000410084F8420084F8430084F8440084F841
:1025A000450084F83D00002010BD000008B500681B
:1025B0000649884208D10648C16941F00201C1615B
:1025C000C06900F00200009008BD00000004004057
:1025D0000010024070B5044690F83C000025012828
:1025E00017D0012684F83C60022084F83D00206862
:1025F000826822F0770222F47F42826008685028C5
:1026000038D00DDC20284FD005DC90B3102811D134
:102610004AE0022070BD302846D040280AD13BE075
:1026200060282FD070280DD0B0F5805F03D0B0F5B2
:10263000005F12D0012584F83D60002084F83C0042
:10264000284670BDCB68D1E90121206802F089F9E4
:102650002068816841F0770109E0CB68D1E9012168
:10266000206802F07EF92068816841F48041816031
:10267000E1E719E0CA684968206802F027FA5021AA
:10268000206806E0CA684968206802F030FA6021D4
:10269000206802F070F9CEE7CA684968206802F045
:1026A00015FA40212068F4E7226801461046F0E759
:1026B00010B586B00021009101910291039100684C
:1026C0001349884221D11348816941F00401816195
:1026D000816901F004010491816941F0080181617F
:1026E0008069022400F008000490C020CDE90004B5
:1026F000694609480394FFF7C3F80320CDE90004B5
:10270000694606480394FFF7BBF806B010BD000009
:10271000000400400010024000080140000C01408D
:1027200070B5044690F83C0000260D4601280FD0F5
:10273000012084F83C006AB1042A1DD0082A2FD059
:102740000C2A3FD00126002084F83C00304670BDA2
:10275000022070BD206802F017F92068816941F0FD
:10276000080181612068816921F00401816120688C
:1027700081692A69114311E0206802F02DF920686F
:10278000816941F4006181612068816921F480617F
:102790008161206881692A6941EA02218161D2E769
:1027A000206802F045F92068C16941F00801C16163
:1027B0002068C16921F00401C1612068C1692A69EA
:1027C000114311E0206802F05FF92068C16941F40B
:1027D0000061C1612068C16921F48061C161206824
:1027E000C1692A6941EA0221C161ACE710B5040060
:1027F00003D094F83D0010B107E0012010BD002087
:1028000084F83C00204600F01EF8022084F83D00C9
:10281000211D206802F05CF8012084F8460084F84D
:102820003E0084F83F0084F8400084F8410084F8BA
:10283000420084F8430084F8440084F8450084F89A
:102840003D00002010BD704710B50446022249B17A
:1028500004290ED0082913D094F84100012816D07D
:10286000012010BD94F83E000128F9D184F83E20E3
:102870000FE094F83F000128F2D184F83F2008E0EF
:1028800094F840000128EBD184F8402001E084F85E
:1028900041200122206802F057F80F492068884241
:1028A00003D1426C42F4004242642068884208D05E
:1028B000B0F1804F05D00949884202D008498842CA
:1028C00004D1816801F00701062903D0016841F0B5
:1028D00001010160002010BD002C014000040040F7
:1028E0000008004070477047F8B501680446086862
:1028F000CA684B6910F00F0F4FF0000559D003F074
:10290000010602F49077374365D0C10705D0D105A1
:1029100003D5616C41F001016164410705D5D90718
:1029200003D0616C41F002016164810705D5D907CC
:1029300003D0616C41F004016164010707D502F026
:102940002001314303D0616C41F008016164616C86
:1029500000293AD0800604D5900602D5204602F020
:10296000E8F920684069616CC0F38010090700D461
:1029700060B3204602F0B6F920684069400621D5D0
:102980002068143050E8001F21F0400140E8001298
:10299000002AF5D1E06BA8B16D494163E06BFEF709
:1029A000B3FE002811D0E06B416B01B0BDE8F040F0
:1029B000084783060FD593060DD52046BDE8F8409D
:1029C00002F0B7B92046FFF78EFFF8BD2046FFF7AB
:1029D0008AFF6564F8BD266B2023012E7CD1C606D4
:1029E0007AD5D60678D508684868009048694FF0CF
:1029F0000206400640D5E16B086840680004000C00
:102A0000E8D0A28D8242E5D9E085886920282DD0C2
:102A100020680C3050E8001F21F4807140E800125B
:102A2000002AF5D12068143050E8001F21F0010180
:102A300040E80012002AF5D12068143050E8001F49
:102A400021F0400140E80012002AF5D184F842301C
:102A5000256320680C3050E8001F21F0100140E889
:102A60000012002AF5D1E06BFEF72AFE6663A08D06
:102A7000E18D401A81B22AE0A08DE18D401A81B229
:102A8000E08D0028A6D00029A4D022680C3252E89C
:102A9000000F20F4907042E80007002FF5D1206865
:102AA000143050E8002F22F0010240E80027002FE8
:102AB000F5D184F84230256320680C3050E8002FAF
:102AC00022F0100240E80023002BF5D16663204677
:102AD000FFF708FFF8BDFFE705062BD5150629D53A
:102AE00094F841002128F5D1A068B0F5805F01D1AC
:102AF0002069B0B1206A411C2162216800784860D9
:102B0000E08C401E0004000CE084E3D12068C16822
:102B100021F08001C1602068C16841F04001C160BE
:102B2000D8E7206A0088C0F308004860206A801C4B
:102B30002062E5E74006CDD55006CBD5CA682046D1
:102B400022F04002CA6084F8413000F0C6F8C1E7C4
:102B5000D54C000870B5040004D094F8410000255D
:102B600010B106E0012070BD84F84050204600F00E
:102B700023F8242084F841002068C16821F4005122
:102B8000C160204602F036F92068016921F49041C5
:102B900001612068416921F02A0141612068C16812
:102BA00041F40051C1606564202084F8410084F83C
:102BB00042006563002070BD30B585B000240094EC
:102BC0000194029403940068184988422CD1184853
:102BD000816941F480418161816901F480410491FE
:102BE000816941F0040181618069124D00F00400A7
:102BF00004904FF400700090022001900320039095
:102C000069462846FEF73CFE2815CDE900046946D2
:102C100028460294FEF734FE002205212520FEF707
:102C2000A3FF2520FEF792FF05B030BD003801401C
:102C3000001002400008014070472DE9F8430446A7
:102C400090F84100984616460D46202802D00220F2
:102C5000BDE8F88385B17EB100206064212084F84E
:102C60004100FEF70FFFA6848146E684A068202776
:102C7000B0F5805F02D003E00120E9E7206910B1E0
:102C80002E4600250EE000260CE08021204602F0B2
:102C90000DF9A8B9C6B116F8010B21684860E08C9F
:102CA000401EE084E08C4B464FF00002CDF80080DF
:102CB0000028EAD14FF04001204602F0F7F840B179
:102CC00084F841700320C3E735F8020BC0F3080015
:102CD000E3E784F841700020BAE77047FEE70000A0
:102CE00070B5104D4FF40044002221462846FEF7EF
:102CF000C4FE01F097F9002208210B48FEF7BDFE43
:102D0000022002F035FE012221462846FEF7B5FEDC
:102D1000022002F02DFE21462846BDE87040002228
:102D2000FEF7ABBE00080140000C014070B5104D2D
:102D30004FF40044002221462846FEF79EFE01F093
:102D400071F9012208210B48FEF797FE022002F0DC
:102D50000FFE012221462846FEF78FFE022002F0D8
:102D600007FE21462846BDE870400022FEF785BEDA
:102D700000080140000C01402DE9F0478046002486
:102D800001F034F9164FDFF85C9000254FF400464F
:102D9000002231463846FEF770FE022002F0E8FDC0
:102DA000012231463846FEF768FE6006040E08210F
:102DB0004846FEF755FE08B1641CE4B2012002F05B
:102DC000D7FD6D1CEDB2082DE2D3B8F1000F02D093
:102DD000FFF786FF01E0FFF7A9FF2046BDE8F08777
:102DE00000080140000C014070B515460E4604462F
:102DF00000F08AF8204600F04FF800F0D3F818B140
:102E000000F0A8F8012070BD304600F045F800F051
:102E1000C9F800F079F8641CE0B200F03DF800F069
:102E2000C1F80020FFF7A8FF287000F093F80020F9
:102E300070BD2DE9F0411F46154688460646002420
:102E400000F062F8304600F027F800F0ABF820B14F
:102E500000F080F80120BDE8F081404600F01CF849
:102E600000F0A0F800F050F8761CF0B200F014F872
:102E700000F098F86E1E09E0B44201D0012000E095
:102E80000020FFF779FF3855641CE4B2AC42F3D35D
:102E900000F060F80020DEE72DE9F041054601F082
:102EA000C1F8174F4FF40046002231463846FEF76E
:102EB000E4FDDFF850800024280601D5012200E05F
:102EC000002208214046FEF7D8FD6806050E0220C4
:102ED00002F04EFD012231463846FEF7CEFD0220BB
:102EE00002F046FD002231463846FEF7C6FD0220BC
:102EF00002F03EFD641CE4B2082CDDD3BDE8F08195
:102F000000080140000C014070B501F08BF80F4C37
:102F1000012208212046FEF7B0FD01220C4ED50308
:102F200029463046FEF7A9FD042002F021FD0022CB
:102F300008212046FEF7A1FD042002F019FD2946D4
:102F40003046BDE870400022FEF797BD000C0140FE
:102F50000008014070B501F065F8104D4FF40044D1
:102F6000002221462846FEF788FD0D4E002208214A
:102F70003046FEF782FD042002F0FAFC01222146D1
:102F80002846FEF77AFD012208213046FEF775FD3E
:102F9000BDE87040042002F0EBBC000000080140D6
:102FA000000C01402DE9F041002401F01FF8154DFF
:102FB000012208212846FEF760FD012002F0D8FC1E
:102FC0000122114FD60331463846FEF756FD012047
:102FD00002F0CEFC08E0641CE4B2FA2C04D9FFF73E
:102FE000B9FF0120BDE8F08108212846FEF738FD31
:102FF0000028F0D1002231463846FEF73EFD002081
:10300000F0E70000000C01400008014070B51546D3
:103010000E460446FFF778FF2046FFF73DFFFFF717
:10302000C1FF50B93046FFF737FFFFF7BBFF284617
:10303000FFF732FFFFF7B6FF18B1FFF78BFF012054
:1030400070BDFFF787FF002070BD00002DE9F04F35
:10305000A3B015460C4606462422FE4915A8FDF7E6
:10306000D1F8D4E900700290D4F80880306800905C
:1030700070680590DFF8E093B0680490D9F8041008
:103080004C468A465046FDF739F90F90A1685046E4
:103090000791FDF733F90A90E16850468B46FDF73A
:1030A0002DF90E90216950460C46FDF727F9079936
:1030B0000D900846FDF722F9119059460798FDF743
:1030C0001DF9109021460798FDF718F959461290FE
:1030D0000846FDF713F9079021465846FDF70EF90B
:1030E000214609900846FDF709F9069038460299ED
:1030F000FDF704F94146FDF701F910F0FF4F7CD0D0
:1031000041460846FDF7FAF8029982460846FDF75F
:10311000F5F8044639460846FDF7F0F82146FDF774
:1031200095F85146FDF792F802F048FC0446014636
:103130003846FDF7E3F8039021460298FDF7DEF8E4
:10314000029021464046FDF7D9F883460E99129821
:10315000FDF7CEF80121FDF741F907461F90DDE9A3
:103160000910FDF773F80121FDF738F9209080462A
:1031700011990F98FDF7BCF821900799FDF7B8F861
:103180000699FDF763F804461E9041465846FDF740
:10319000B5F8824621460298FDF7B0F85146FDF792
:1031A000A7F8824621460398FDF7A8F80446394659
:1031B0005846FDF7A3F82146FDF79AF883463946AD
:1031C0000298FDF79BF8044641460398FDF796F8F0
:1031D0002146FDF78DF80B90A0495046FDF78EF87B
:1031E0004C46D9F81410FDF731F8074660619B4949
:1031F0005846FDF783F8A16900E05FE1FDF726F886
:103200008146A06195490B98FDF778F8E169FDF7D3
:103210001DF88046E0614FF07F515046FDF76EF893
:103220000099FDF713F83946FDF710F800904FF0BC
:103230007F515846FDF762F80599FDF707F84946B2
:10324000FDF704F883464FF07F510B98FDF756F8D1
:103250000499FCF7FBFF4146FCF7F8FF8246014664
:1032600020690890FDF74AF88146E06859460390C6
:10327000FDF744F8A768804687F000400099FDF705
:103280003DF84146FDF734F84946FDF731F87349FA
:10329000FDF734F86168FCF7D9FF81466060594654
:1032A0000898FDF72BF80B9051460398FDF726F888
:1032B000804648460099FDF721F84146FCF7C6FFD5
:1032C0000B99FDF715F86549FDF718F83946FCF735
:1032D000BDFFA060804600990898FDF70FF80B909D
:1032E00051464046FDF70AF8074659464846FDF75D
:1032F00005F83946FCF7FCFF0B99FCF7A7FF574987
:10330000FCF7FCFF0399FCF7A1FFE060074600997A
:10331000FCF7F4FF009059464046FCF7EFFF834668
:1033200051464846FCF7EAFF5946FCF78FFF0099E3
:10333000FCF7DEFF4949FCF7E1FF0899FCF786FF3F
:1033400001462061FCF7DAFF834639460846FCF760
:10335000D5FF824641460846FCF7D0FF074649465E
:103360000846FCF7CBFF3946FCF770FF5146FCF7E7
:103370006DFF5946FCF76AFF02F020FB0746014645
:103380006068FCF7BBFF60603946A068FCF7B6FFD9
:10339000A0603946E068FCF7B1FFE060394620697B
:1033A000FCF7ACFF206111990F98FCF74FFF0799CC
:1033B000FCF79EFF0699FCF79BFF15900D9910985E
:1033C000FCF744FF0121FDF709F816901F981790AC
:1033D0000D991098FCF78CFF0121FCF7FFFF189066
:1033E00007992198FCF732FF0699FCF781FF1990A5
:1033F00020981A900E991298FCF728FF0121FCF7EB
:10340000EDFF1B90DDE90901FCF772FF0121FCF7DC
:10341000E5FF1C901E981D901149B068FCF76EFFE7
:103420001049FCF76BFFA968FCF710FFA8601F9814
:10343000FDF7BAF901F06EFFDFF82C804FF0C046BF
:1034400032464346FDF77DF8FDF7C1F928601E9826
:103450000CE000003C660008100100200AD7A33BE6
:10346000A34C65420AD7233C66A64CC0FDF79CF9E5
:1034700007460C4601210A98FCF7B0FF814601215E
:103480000998FCF7ABFF4946FCF7E0FEFDF78CF925
:103490003A46234602F086F932464346FDF751F894
:1034A000FDF795F96860074A002015A951F820300A
:1034B00042F82030401CC0B20928F7D323B0BDE841
:1034C000F08F0000341D00200248017841F0030114
:1034D00001707047B800002010B504E004A001F0AE
:1034E000BDFD00F065FD00F026F90028F6D010BD06
:1034F0000D4D505536303530206E6F20636F6E6E37
:103500006563742E2E2E0D0A0000000010B5FFF723
:10351000E3FF80216B2000F0FCF8642002F01AFA2F
:1035200001216B2000F0F5F80021382000F0F1F8BF
:1035300018211B2000F0EDF808211C2000F0E9F80C
:1035400004211A2000F0E5F80021192000F0E1F82C
:103550000221BDE81040372000F0DBB8F0B5194C6F
:103560000025668876B96560A5600123E560638003
:10357000158065F30F00558065F31F4065F30F015B
:1035800000239580676806B23E446660A76807EB33
:10359000204708B2A760E168C01A0144E160608872
:1035A000C82803D0401C60800020F0BD96FBF0F3DB
:1035B000138097FBF0F391FBF0F0538090806580CF
:1035C0000120F0BDB80000207CB5354801884ABA1A
:1035D00034490B88D31A8A1DA2F10C051380438845
:1035E0004C885BBA1B1B5380838889885BBA591A45
:1035F000918001892A8849BA8A1A05F11201A1F13C
:1036000022040A8042896B8852BAD21A4A80808981
:10361000AA8840BA801A88802078C043C00723D186
:10362000D4F822000090E18CADF8041000232A4663
:103630000199FFF793FFB8B1207820F001002070C6
:1036400000F062FAFDF7E4FE207840F002002070FE
:10365000B5F90430B5F90220B5F9001012A001F057
:10366000FDFC1CA001F0FAFC2078C043800716D4B2
:10367000E0690090218CADF8041042F20403094A7D
:103680000199FFF76BFF002809D0207820F0020095
:10369000207000F039FABDE87C40FDF73BBA7CBDF4
:1036A000F8150020CE0000204759524F5F4F464684
:1036B0005345545F5241572056616C7565203A5806
:1036C0003D25642020593D256420205A3D25640A6B
:1036D000000000000A0000000E21024A3B2000F01A
:1036E0000DB80000F81500200A4610B50146D0209C
:1036F000FFF77AFB002800D0012010BD13460A46D0
:1037000010B50146D020FFF794FB002800D001201F
:1037100010BD0A4610B50146D020FFF777FC0028FF
:1037200000D0012010BD08B569467520FFF7DCFF09
:103730009DF8000008BD10B5FFF7F5FF682801D01F
:10374000002010BD012010BD3EB5002111480091A0
:1037500001910F4A02910260816001730175012499
:103760004FF460220461C2614160FDF7EFFE08B1D1
:10377000FDF7A8FD02200094CDE901406946054807
:10378000FDF766FE002801D0FDF79CFD3EBD000060
:1037900000240140AC03002010B5AAB01C2221492E
:1037A0006846FCF72FFD0021684602F059F91E4CCF
:1037B0001C491C2220601C3107A8FCF723FD0021B6
:1037C00007A802F04DF9174960601C2238310EA895
:1037D000FCF718FD00210EA802F042F91149A06083
:1037E0001C22543115A8FCF70DFD002115A802F08C
:1037F00037F90C49E0601C2270311CA8FCF702FD6F
:1038000000211CA802F02CF9064920611C228C31F1
:1038100023A8FCF7F7FC002123A802F021F960613E
:103820002AB010BD68650008000000202DE9F047AF
:1038300086B000253648009501950295039581696B
:1038400041F010018161816901F0100104918169E9
:1038500041F020018161816901F0200104918169B9
:1038600041F004018161816901F0040104918169E1
:1038700041F0080181618069264E00F008004FF494
:10388000C0440490012221463046FEF7F6F8DFF8E6
:1038900088A0002241F25C215046FEF7EEF8DFF8E6
:1038A0007C904FF40148002241464846FEF7E5F877
:1038B000009401240327CDE902476946304601946C
:1038C000FDF7DEFF41F21C0002268DE8710069461B
:1038D0005046FDF7D5FF01AACDF8008082E87000C0
:1038E00069464846FDF7CCFF2020CDE90005694632
:1038F00002945046FDF7C4FF4FF410708DE8D100DC
:1039000069465046FDF7BCFF06B0BDE8F0870000F1
:103910000010024000100140000C0140000801406E
:10392000104810B50E4901604FF4827141600021CA
:103930008160C1604FF400720161C0E90512182274
:10394000C0E90721416281620A21C162FEF720FCC1
:10395000002803D0BDE81040FDF7B4BC10BD000046
:1039600000380040DC03002010B58EB0002407941E
:10397000089409940A940B941C2168460C94FCF753
:103980005AFC3348314901604FF43471C0E90114E5
:103990004FF4FA61C0E9031480218161FEF7D8FD7C
:1039A00008B1FDF78FFC4FF48050079007A9284815
:1039B000FEF710FE08B1FDF785FC2548FEF716FF5F
:1039C00008B1FDF77FFC0B940BA921480C94FEF77E
:1039D0008BFD08B1FDF776FC6020CDE90004029470
:1039E000002269461A480494FEF79AFE08B1FDF7D2
:1039F00069FC042269461648FEF792FE08B1FDF7FD
:103A000061FC082269461248FEF78AFE08B1FDF7FC
:103A100059FC0C2269460E48FEF782FE08B1FDF7FC
:103A200051FC00210A48FEF70FFF04210848FEF769
:103A30000BFF08210648FEF707FF0C210448FEF79C
:103A400003FF0348FEF734FE0EB010BD0004004033
:103A5000340400200C4810B50A4901604FF4E131EC
:103A60004160002181600C22C160C0E904128161C3
:103A7000C161FFF76FF8002803D0BDE81040FDF7E3
:103A800021BC10BD003801407C040020FEE7FEE7A9
:103A900010B53E220F49104800F002FD01F03AF83F
:103AA0000C484FF6FF71428A8A420CD182898A42C1
:103AB00009D1008B884206D1FDF7F6FBBDE8104026
:103AC00006A001F0CBBA0BA001F0C8FABDE8104087
:103AD000FDF7EABB681A002000F80008466C617325
:103AE000682052656164204572726F722121210D38
:103AF0000A000000466C6173682052656164204FC3
:103B00004B2121210D0A000010B500F035F8BDE869
:103B100010403E220149024800F0D0BC681A002043
:103B200000F8000810B5012240210448FDF7A5FF68
:103B3000BDE81040C820FDF733BE0000000C014076
:103B400010B50C4C20212046FDF78AFF00280FD12C
:103B50003220FDF725FE20212046FDF781FF0028B9
:103B6000F9D020460022BDE810404021FDF785BF76
:103B700010BD0000000C014070B56248624C644DFD
:103B800001882180418861808088A0805F48614EE3
:103B90000188E180418821818088608131462868E0
:103BA000FCF7ACFBFCF7ECFDA08131466868FCF744
:103BB000A5FBFCF7E5FDE0813146A868FCF79EFB1C
:103BC000FCF7DEFD544D208231462868FCF796FB59
:103BD000FCF7D6FD608231466868FCF78FFBFCF786
:103BE000CFFDA0823146A868FCF788FBFCF7C8FD32
:103BF0004A4DE08231462868FCF780FBFCF7C0FDA7
:103C0000208331466868FCF779FBFCF7B9FD6083D7
:103C10003146A868FCF772FBFCF7B2FD404DA0836B
:103C200031462868FCF76AFBFCF7AAFDE0833146C1
:103C30006868FCF763FBFCF7A3FD20843146A868A5
:103C4000FCF75CFBFCF79CFD364D60843146286830
:103C5000FCF754FBFCF794FDA08431466868FCF740
:103C60004DFBFCF78DFDE0843146A868FCF746FB70
:103C7000FCF786FD2C4D208531462868FCF73EFB7D
:103C8000FCF77EFD608531466868FCF737FBFCF782
:103C900077FDA0853146A868FCF730FBFCF770FD86
:103CA000224DE08531462868FCF728FBFCF768FDCB
:103CB000208631466868FCF721FBFCF761FD6086D1
:103CC0003146A868FCF71AFBFCF75AFD184DA08690
:103CD00031462868FCF712FBFCF752FDE0863146BE
:103CE0006868FCF70BFBFCF74BFD20873146A868A2
:103CF000FCF704FBFCF744FD60870E480078A087C2
:103D000070BD0000CE000020681A0020C80000200E
:103D1000A81A002000007A44E41A0020201B00208A
:103D20005C1B0020981B0020D41B0020101C0020CE
:103D30004C1C0020A800002030B517490020184B6B
:103D400081F83800154A174DC1E90823174985F84D
:103D50003800154CC5E90841154D85F83800C5E90E
:103D60000823144D85F83800C5E90841124D85F83F
:103D70003800C5E90823114A82F83800C2E9084131
:103D80000F4A82F83800106250620E4A82F83800FA
:103D90000D48C2E9080130BD5C1B0020000016433D
:103DA00000009644A81A002000000C42000048437E
:103DB000981B0020E41A0020D41B0020201B0020A8
:103DC000101C00204C1C00200000C8422DE9FC5FA4
:103DD000FFF782FCFFF7F8FB0C224549454800F04D
:103DE0006DFC434C444D29462068FCF787FA434E4E
:103DF0003146FCF783FA8346206029466068FCF769
:103E00007DFA3146FCF77AFA606001902946A06895
:103E1000FCF774FA3146FCF771FA394DA060009056
:103E2000B5F90000FCF785FC364F3946FCF766FA19
:103E3000A4F10C063060B5F90200FCF77AFC3946B3
:103E4000FCF75CFA7060B5F90400FCF772FC3946C7
:103E5000FCF754FADFF8B080B06098F8010088B33E
:103E600004F10C05DFF8A49028684946FCF746FAEF
:103E7000DFF89CA0064651465846FCF73FFA31460B
:103E8000FCF7E4F90746206049466868FCF736FA13
:103E9000064651460198FCF731FA3146FCF7D6F94F
:103EA000064660604946A868FCF728FA81465146F4
:103EB0000098FCF723FA4946FCF7C8F9A0602F6088
:103EC000C5E901600A482168183011F0FF4F016010
:103ED00062684260A368836008D012F0FF4F05D08B
:103EE00013F0FF4F02D0012188F80010BDE8FC9FBD
:103EF000101D0020D400002040DAFF380AE81C41E1
:103F0000DA00002045798B3A10010020CDCCCC3D61
:103F10006666663F2DE9F04114460D460646A1420D
:103F20000DDAFDF737FAFCF712FC0746421E294668
:103F30003046FFF7EFFF2246791C3046ECE7BDE83C
:103F4000F08110B500240021FF22084601F078F826
:103F5000641CE4B2042CF6D310BD10B5002401E0BB
:103F6000022C03D200221146FF2002E00022FF2192
:103F7000104601F065F8641CE4B2042CF0D310BDC7
:103F800010B5002400221146104601F059F8641CB7
:103F9000E4B2042CF6D310BD10B500240022FF219A
:103FA000104601F04DF8641CE4B2042CF6D310BDA9
:103FB00010B5002400221146FF2001F041F8641CD6
:103FC000E4B2042CF6D310BD70B505465FF00004D2
:103FD00005FA04F0C00702D000F0F8FF01E000F09D
:103FE000BFFF641CE4B2082CF2D370BD00B585B0ED
:103FF0000020019002900948816941F00801816127
:104000008069694600F008000490082000900320B1
:1040100003900348FDF734FC05B000BD00100240DA
:10402000000C014000B585B0002002900A4881696B
:1040300041F0080181618069694600F00800049040
:104040000820009001200190032003900348FDF711
:1040500017FC05B000BD000000100240000C01403C
:1040600010B504E004A000F0F9FFFFF795FF00F0A1
:104070002DF90028F6D010BD0D20534932345231AD
:10408000206E6F20636F6E6E6563742E2E2E0D0A88
:104090000000000070B51F4D4FF4807400222146CF
:1040A0002846FDF7EAFC0321232000F033F905221E
:1040B0001949302000F0E4F8052217492A2000F0C1
:1040C000DFF81A21242000F025F90121222000F038
:1040D00021F90121212000F01DF92021312000F0DB
:1040E00019F90D490522491D2A2000F0C9F81E21A1
:1040F000252000F00FF92721262000F00BF90F20D2
:1041000000F026F921462846BDE870400122FDF75F
:10411000B4BC000000080140AB00002010B5114CF9
:104120002078322810D94FF0E0208069FCF762F83F
:10413000FCF756F8322190FBF1F201FB12002070DF
:10414000BDE81040FFF7E0BC0649C91C0A7982426D
:1041500006D00871491D0871BDE81040FFF79ABFED
:1041600010BD0000A800002010B5FFF779FF012264
:1041700011030548FDF781FCBDE8104000224FF413
:1041800080710248FDF779BC000C01400008014035
:104190002DE9F047DFF8409016460D4604464FF4EF
:1041A0008058002241464846FDF767FC204601F052
:1041B000A7FE0746002405E0FF2001F0A1FE05F858
:1041C000010B641CB442F7DB012241464846FDF76F
:1041D00054FC3846BDE8F087000C01400C4810B58F
:1041E0000078002813D00B480B4C007868B1A078F9
:1041F0006178884204D100F099FEFFF7CDFE04E01B
:104200000648007808B9FFF7A8FEA078607010BDD6
:10421000E4000020E5000020F800002090000020CD
:1042200070B5154E04464FF480750022294630467D
:10423000FDF723FC05221149302000F021F805226A
:104240000E492A2000F01CF820222146A02000F070
:1042500017F80E21202000F05DF87E21272000F0C5
:1042600059F8012229463046FDF707FCBDE87040A9
:104270000A2001F07DBB000000080140AB000020D7
:104280002DE9F047DFF8409016460D4604464FF4FE
:104290008058002241464846FDF7EFFB204601F0DA
:1042A0002FFE0746002404E0287801F029FE641C54
:1042B0006D1CB442F8DB012241464846FDF7DDFBA8
:1042C0003846BDE8F0870000000C01401CB50FA186
:1042D0000522D1E90001CDE9000169463020FFF750
:1042E000CFFF052269461020FFF752FF00206946E4
:1042F0000A5CA52A03D1401CC0B20528F8D30528C2
:1043000001D000201CBD01201CBD0000A5A5A5A555
:10431000A50000002DE9F0410C4E0F4604464FF475
:104320008055002229463046FDF7A7FB204601F0C4
:10433000E7FD0446384601F0E3FD012229463046F8
:10434000FDF79BFB2046BDE8F0810000000C01401A
:1043500070B5174D4FF480740E284FF000022146BF
:10436000284613D0FDF789FB0F212020FFF7D2FF4D
:104370007E212720FFF7CEFF012221462846FDF7A8
:104380007CFBBDE87040C82001F0F2BAFDF775FB78
:104390000E212020FFF7BEFF7E212720FFF7BAFF66
:1043A00021462846BDE870400122FDF766BB0000AB
:1043B00000080140F8B515460E460B46009204462B
:1043C0000122022100F010F840B93346002280217A
:1043D0002046009500F008F8002804D0606D40F0F9
:1043E000200060650320F8BD2DE9F8431E46914684
:1043F00088460446089DFDF745FB401B351AFDF72E
:1044000041FB074625480068C0F3CB30684338E0DD
:10441000701C37D0FDF736FBC01BA84203D215B184
:10442000009860B32CE02068416821F0E001416011
:104430006068B0F5827F0BD1A068B0F5004F02D064
:10444000B0F5806F04D12068016821F0400101605F
:10445000A06AB0F5005F09D12068016821F400511D
:1044600001602068016841F400510160012084F876
:104470005100002084F850000320BDE8F883002597
:10448000401E00902068816838EA010004D00021B5
:104490004945BDD10020F0E70121F9E724000020C3
:1044A00010B5002306E000BF30F8024B21F813409E
:1044B0005B1C9BB29342F7D310BD00002DE9F05F67
:1044C000A0F1006415468A468346B4F5803F5FD26A
:1044D000FDF7C2F9A70AC4F34806C6F50074A54261
:1044E00000D82C46DFF8AC904FF0006000EB87203E
:1044F00080464FF400722749FFF7D2FF00204FF6A5
:10450000FF7106E0331839F813208A4203D1401CAA
:1045100080B2A042F6D3A0422ED24046FCF766FFFE
:104520004CF25030FCF70CFF1B48016921F00201EE
:1045300001610020494606E03AF810208319401C2A
:1045400021F8132080B2A042F6D3124940464FF41E
:10455000007200BF00F022F8A54215D0281B0AEB1C
:10456000440A0BEB440B002685B24FF400747F1C09
:10457000A542B9D82C46B7E74CF25030FCF7E0FE24
:10458000224651465846E5E7BDE8F05FFDF71AB907
:10459000BDE8F09F28160020002002402DE9F041E0
:1045A00016460F46054600240AE000BF37F81420DF
:1045B000002329460120FDF70FF9641CA4B2AD1CAD
:1045C000B442F3D3BDE8F081F8B5344802783448FA
:1045D000017812B141F0100101E021F01001314CDD
:1045E0000170FF212170007860702F482F4D304EF0
:1045F0008088ADF800009DF80100A0709DF80000D3
:10460000E0703146A868FBF779FEFCF7A0F8ADF83A
:1046100000009DF8010020719DF800006071314696
:104620006868FBF76BFEFCF792F8ADF800009DF8A8
:104630000100A0719DF80000E07131462868FBF789
:104640005DFEFCF784F8ADF800009DF801002072D3
:104650009DF80000607217483146C069FBF74EFEB6
:10466000FCF775F8ADF800009DF80100A0729DF808
:104670000000E072104831468068FBF73FFEFCF70F
:1046800066F8ADF800009DF8010020739DF8000069
:1046900060732046BDE8F840FFF7C2BDE50000208A
:1046A000B8000020D8150020FC000020F81C0020D5
:1046B0000000C842281A0020940000202DE9FE4F77
:1046C0000746002002900190009014460E46B7F96C
:1046D0000000FCF72EF8DFF8E080DFF8D8A098F8AB
:1046E00004504AF82500B7F90200FCF722F80AF155
:1046F000500949F82500B7F90400FCF71AF809F148
:10470000500747F825006D1CE8B288F80400A04265
:1047100003D298F80500002849D14FF0000B88F823
:1047200005B0621E59462348FFF7F4FB2148621E7C
:1047300000215030FFF7EEFB1E48621E0021A03022
:10474000FFF7E8FBCA460125B946671E14E0194881
:1047500050F825100298FBF779FD02905AF82510C1
:104760000198FBF773FD019059F825100098FBF7AD
:104770006DFD6D1CEDB20090BD42E8DB98F80410B1
:10478000A14201D388F804B0A01EFBF7D2FF044673
:1047900021460298FBF7E4FD306021460198FBF7C3
:1047A000DFFD706021460098FBF7DAFDB060BDE8E0
:1047B000FE8F0000F81D002030010020FFF7AEFC46
:1047C000052001F041F9F9E7FFF708FDFFF7FCFECE
:1047D000052001F039F9F7E7084C4FF480456614DD
:1047E0004FF4FA7729462046FDF73FF93146204637
:1047F000FDF73BF9384601F027F9F3E700100140D7
:10480000FFF79EF9142001F01FF9F9E7FCF7CEF944
:104810000A2001F019F9F9E7FFF7D8FA044A054927
:104820000548FEF713FC142001F00EF9F4E7000030
:10483000F81C0020101D0020041D002010B5FDF7FD
:1048400027F901F0BBFD012803D0BDE8104001F0BD
:1048500047BD10BD30B593B028216846FBF7EBFC8F
:1048600014210AA8FBF7E7FC002501200F951095FD
:104870001195010412958DE8230004904FF4E01087
:10488000CDE90810022407946846FDF7F1FA08B153
:1048900072B6FEE70AA90F2081E831004FF480606C
:1048A000CDE90D0502210AA8FDF706FA08B172B696
:1048B000FEE74FF4004011900F940FA8FDF786F922
:1048C000002801D072B6FEE713B030BD704700007B
:1048D000F0B50268194B1A4C1A4D4FF080479842B8
:1048E00005D0B84203D0A04201D0A84203D122F0A3
:1048F00070064A683243984205D0B84203D0A042BD
:1049000001D0A84203D122F44074CA6822434C6902
:1049100022F08002224302608A68C2620A688262D0
:10492000984201D109690163012141610169C90707
:1049300003D0016921F001010161F0BD002C0140AB
:10494000000400400008004010B501F01F030121E1
:10495000046A99408C430462016A9A4011430162DF
:1049600010BD10B5846842EA032224F47F440A4350
:104970002243826010BD826822F070020A4342F036
:10498000070181607047000030B5036A026A22F0B7
:10499000010202624268846924F073050C682C43AA
:1049A00023F002058B682B430A4DA8420BD123F05C
:1049B0000805CB6822F440722B434D6923F00403B1
:1049C00015438A692A4342608461496841630362EE
:1049D00030BD0000002C014030B5026A036A23F0AC
:1049E00010030362436884690D6824F4E64444EAD2
:1049F00005248D6822F0200242EA05120B4DA842E0
:104A00000ED1CD6822F0800242EA05124D6923F4EE
:104A1000406343EA85038D6922F0400243EA85033F
:104A20004360846149688163026230BD002C0140AB
:104A300030B5036A026A22F4807202624268C46975
:104A400023F4007324F073050C682C438D6843EA4B
:104A500005230C4DA8420ED1CD6823F4006343EA30
:104A600005234D6922F4405242EA05128D6923F470
:104A7000806342EA05124260C4614968C16303620F
:104A800030BD0000002C014030B5046A026A22F4F7
:104A9000805202624268C3690D6823F4E64343EA28
:104AA00005238D6824F4005444EA0534064DA842D9
:104AB00004D14D6922F4804242EA85124260C3610A
:104AC00049680164046230BD002C014010B5036ADE
:104AD000046A24F001040462846924F0F00444EAC6
:104AE000021423F00A020A438461026210BD10B569
:104AF000036A046A24F010040462846923F0A003AA
:104B000024F4704444EA023243EA011182610162F2
:104B100010BD000070B5624C624821880180618838
:104B20004180A18881806048E1880180218941809D
:104B300061898180A089FBF705FE5C4E3146FBF759
:104B40000FFC5B4D2860E089FBF7FCFD3146FBF76D
:104B500007FC6860208AFBF7F5FD3146FBF700FC97
:104B6000A860608AFBF7EEFD3146FBF7F9FB514D7B
:104B70002860A08AFBF7E6FD3146FBF7F1FB686091
:104B8000E08AFBF7DFFD3146FBF7EAFBA860208BEC
:104B9000FBF7D8FD3146FBF7E3FB474D2860608B00
:104BA000FBF7D0FD3146FBF7DBFB6860A08BFBF722
:104BB000C9FD3146FBF7D4FBA860E08BFBF7C2FDD3
:104BC0003146FBF7CDFB3D4D2860208CFBF7BAFD4D
:104BD0003146FBF7C5FB6860608CFBF7B3FD3146DF
:104BE000FBF7BEFBA860A08CFBF7ACFD3146FBF7E2
:104BF000B7FB334D2860E08CFBF7A4FD3146FBF793
:104C0000AFFB6860208DFBF79DFD3146FBF7A8FBED
:104C1000A860608DFBF796FD3146FBF7A1FB294D9F
:104C20002860A08DFBF78EFD3146FBF799FB68608D
:104C3000E08DFBF787FD3146FBF792FBA860208EE5
:104C4000FBF780FD3146FBF78BFB1F4D2860608E24
:104C5000FBF778FD3146FBF783FB6860A08EFBF71E
:104C600071FD3146FBF77CFBA860E08EFBF76AFD27
:104C70003146FBF775FB154D2860208FFBF762FD71
:104C80003146FBF76DFB6860608FFBF75BFD3146DB
:104C9000FBF766FB0E49A86094F83C00087070BDF5
:104CA000681A0020CE000020C800002000007A44CE
:104CB000A81A0020E41A0020201B00205C1B002002
:104CC000981B0020D41B0020101C00204C1C00202E
:104CD000A800002010B5406A0021C185C184FDF7FD
:104CE00002FE10BD01680C3151E8002F22F49072D1
:104CF00041E80023002BF5D10168143151E8002F61
:104D000022F0010241E80023002BF5D1016B0129BB
:104D100009D101680C3151E8002F22F0100241E85E
:104D20000023002BF5D1202180F8421000210163DF
:104D3000704708B590F84210222901D0022008BD22
:104D400082684FF480539A4201D1016921B1816A8E
:104D50009A421BD04AB10AE00268816A5268C2F3E3
:104D600008020A80816A891C08E0026972B102683F
:104D7000526802F07F020A70816A491C8162C18D0B
:104D8000491E0904090CC18503D01BE00268526862
:104D9000F1E70168CA6822F02002CA600168CA68A7
:104DA00022F48072CA6001684A6922F001024A61F5
:104DB000202180F8421000214163026B012A03D0B8
:104DC000FDF73AFF002008BD016301680C3151E88E
:104DD000002F22F0100241E80023002BF5D10168DA
:104DE0000A68D20602D50A6849680091818DFDF7EC
:104DF00079FDE7E770B5044600680169E26821F4CF
:104E00004051114301612169A06808436169084369
:104E10002168CA6841F20C639A430243CA60206861
:104E20004169A26921F44071114341611E49206822
:104E3000884202D1FCF7E6FF01E0FCF7D3FF00EB6C
:104E4000C00101EB0012606864218000B2FBF0F346
:104E5000B3FBF1F36FF018067343B2FBF0F5B2FB4E
:104E6000F0F605EB8305322303EB0515B5FBF1F5F1
:104E7000B6FBF1F605F0F00505EB0615B2FBF0F612
:104E8000B2FBF0F0B0FBF1F06FF01802504306EB0C
:104E9000800003EB0010B0FBF1F0216800F00F0080
:104EA0002844886070BD0000003801402DE9F843B7
:104EB000984617460D460446089E24E0701C22D0F2
:104EC000FCF7E0FDA0EB0800B0421AD8CEB1206894
:104ED000C168490717D5802D15D0402D13D0016822
:104EE000C94309070FD40168002540680090204697
:104EF000FFF7F8FE0820606484F840500120BDE808
:104F0000F8830320FBE72068006835EA000004D03E
:104F10000020B842D2D00020F1E70120F9E70000DC
:104F20000148FDF7E1BC00007C04002004488188B2
:104F3000891F09B28180962901DC96218180704702
:104F4000FC000020FEE7000001B54FF47A73012257
:104F500069460248FDF771FE08BD00007C04002090
:104F600070B50122184D540221462846FCF785FDF4
:104F700000BF00BF00BF00BF00BF00BF002221462E
:104F80002846FCF77AFD00BF00BF00BF00BF00BF8E
:104F900000BF00BF00BF00BF00BF00BF00BF00BF19
:104FA00000BF00BF00BF00BF00BF00BF00BF00BF09
:104FB00000BF00BF00BF00BF00BF00BF00BF00BFF9
:104FC00000BF00BF00BF70BD000C014070B50122E2
:104FD0001A4D540221462846FCF74FFD00BF00BF82
:104FE00000BF00BF00BF00BF00BF00BF00BF00BFC9
:104FF00000BF00BF00BF00BF00BF00BF00BF00BFB9
:1050000000BF00BF00BF00BF00BF00BF00BF00BFA8
:1050100000BF00BF00BF00BF00BF00BF002221468D
:105020002846FCF72AFD00BF00BF00BF00BF00BF3D
:1050300000BF00BF00BF00BF00BF70BD000C01403B
:1050400070B514460D46FEF7BFFF2846FEF7BCFFBD
:105050002046BDE87040FEF7B7BF00000FB4054B17
:1050600010B503A9044A029800F0AAF810BC5DF834
:1050700014FB0000A559000844010020490050EA33
:10508000C12018BF04204A0D18BF40F0010040F2B3
:10509000FF72B2EB515F08BF40F00200012808BF69
:1050A000052070470907090E002804DB00F1E02005
:1050B00080F80014704700F00F0000F1E02080F845
:1050C000141D70472DE9F0414F1E00EBC701044647
:1050D000D1E9000115461E4637F006020DD02A46DA
:1050E0003346FBF72EFA7F1E04EBC703D3E90023F8
:1050F000FBF780F937F00602F1D1022F25D0042FFB
:1051000013D0062F18BFBDE8F0812A463346FBF7BF
:1051100018FAD4E90A23FBF76DF92A463346FBF760
:1051200010FAD4E90823FBF765F92A463346FBF762
:1051300008FAD4E90623FBF75DF92A463346FBF764
:1051400000FAD4E90423FBF755F92A463346FBF766
:10515000F8F9D4E90223FBF74DF92A463346FBF769
:10516000F0F9D4E90023BDE8F041FBF743B901228F
:10517000FBF7C8BAFBF73EB90022134610461146AA
:10518000FBF751BA024A00201107FBF7BBBA000037
:1051900001FDFFFF02E008C8121F08C1002AFAD172
:1051A00070477047002001E001C1121F002AFBD1A7
:1051B0007047000001490860704700004801002066
:1051C0002DE9FF4F89B09B460446002506E02528BF
:1051D0000BD05A460B999047641C6D1C2078002810
:1051E000F5D10DB02846BDE8F08F0027B846012262
:1051F000474900E0074314F8013F203B02FA03F05F
:105200000842F7D120782E2819D114F8010F47F061
:1052100004072A280ED06FF02F022078A0F1300169
:1052200009290CD808EB880102EB410100EB0108C9
:10523000641CF2E70A98641C50F8048B0A902078EA
:105240000028CED0642808D0692806D075281ED042
:105250005A460B9990476D1C58E00A994FF00A097D
:1052600001C90A91002802DA40422D2102E03905E5
:1052700004D52B218DF82010012103E0F90704D07B
:105280002021F7E78A4608AE0DE00021FAE70A99E7
:105290004FF00A0901C90A91F7E74946FBF7C8FA36
:1052A000303106F8011D0028F7D1ADEB060000F102
:1052B0002009780701D44FF00108C84502DDA8EBAA
:1052C000090000E000208046002706E008A85A46B2
:1052D000C05D0B9990476D1C7F1C5745F6DB04E0C1
:1052E00030205A460B9990476D1CB8F10001A8F187
:1052F0000108F5DC05E016F8010B5A460B999047BA
:105300006D1CB9F10001A9F10109F4DC641C65E729
:10531000092801002DE9F04D8D4F21F0004A86B09B
:1053200005460C46BA452ADBAAEB070028430AD0FB
:105330008848824501DC1AD1CDB106B02846BDE8C7
:10534000F04DFFF714BF844A844B2846FBF7F9F869
:1053500007460E46824A834B28462146FBF7F1F862
:1053600006B03A463346BDE8F04DFBF743B801209E
:10537000FFF720FF06B0BDE8F04DFFF7FDBE7A480D
:10538000824542DABAF1795F0BDA2846FFF776FEFA
:10539000042808BFFFF7F6FE284606B02146BDE800
:1053A000F08D2A460B461046FBF7CBF883460246A3
:1053B0006E480E460B4606217844FFF783FE5A4698
:1053C0003346FBF7BEF8804669488A465A4633465C
:1053D00004217844FFF776FE5A463346FBF7B1F8CE
:1053E00000223B46FBF706F802460B464046514674
:1053F000FBF719F92A462346FBF7A3F806B02A461D
:105400002346BDE8F04DFAF7F5BF284624F00041E9
:1054100000223D463B46FBF791F84FF0FF32FBF789
:1054200071F90646024653480F460B46062178445A
:10543000FFF748FE32463B46FBF783F8CDE9000113
:105440004D4832463B4604217844FFF73BFE324646
:105450003B46FBF776F800222B46FAF7CBFF834654
:1054600002913046394600F05BFD804643480D46C8
:10547000504517DCDDE900015A46029BFBF7D3F8E3
:1054800042462B46FBF75DF842462B46FAF7B2FF41
:105490000122FBF737F9304A304BFBF74CF8304A22
:1054A000304B4CE04FF0000A52460B464046FAF7AC
:1054B000A1FFCDE9031052462B4610461946FBF7D3
:1054C00040F832463B46FBF739F8DDE90332FBF79B
:1054D000AAF806460F46DDE900015A46029BFBF793
:1054E000A2F883460091012230463946FBF70AF9BB
:1054F000194A1A4BFBF722F806460F46012240468E
:105500002946FBF7FFF85A46009BFBF71AF832468C
:105510003B46FBF710F806460F4601225046294647
:10552000FBF7F0F80E4DDFF858802A464346FBF7AC
:1055300005F832463B46FBF701F82A464346FAF7A0
:10554000FDFF002CD8BF81F0004106B0BDE8F08D12
:105550000000F03F0000F07F075C143326A6913C6A
:10556000182D4454FB21F93F0000E03FA412000035
:10557000BA1200002E120000441200003333EF3F35
:10558000FB21E93F2DE9F84F04460D4621F000408C
:1055900000917349814211DC7249884201DC06D1D5
:1055A0002CB120462946BDE8F84FFFF7E0BD6E4814
:1055B000002DCCBF6D496E49BDE8F88F6D49814221
:1055C00011DD6D498142D8BF4FF0FF366DDD2046B9
:1055D0002946FFF753FD042808BFFFF7D3FD2046F7
:1055E0002946BDE8F88F6549654F25F000458142A1
:1055F00033DD6449814219DD002632464FF0804395
:1056000020462946FAF7F6FE80468A4601222046C1
:105610002946FBF777F800223B46FAF78CFF424613
:105620005346FBF700F804460D463EE001260022F3
:10563000BA463B4620462946FAF7DCFE80460F462E
:105640000022534620462946FAF775FF42463B465C
:10565000FAF7E9FF04460D4627E04B4981421BDD7E
:10566000DFF828A102260022534620462946FAF7F1
:1056700068FF00223B46FAF7BDFE80460F46002237
:10568000534620462946FAF756FF42463B46FAF76C
:10569000CAFF04460D4608E0032622462B4600209A
:1056A0003B49FAF7C0FF04460D4622462B461046FA
:1056B0001946FAF746FF8B46824602460B46FAF732
:1056C00040FF07460246334888460B460621784489
:1056D000FFF7F8FC52465B46FAF733FF82462E4846
:1056E0008B463A46434605217844FFF7EBFC3A46A1
:1056F0004346FAF726FF02460B46002E504659460F
:105700000CDAFAF777FE22462B46FAF71AFF01B0B9
:1057100022462B46BDE8F04FFAF710BFFAF76AFEB3
:1057200022462B46FAF70DFF1C4A7A4402EBC603C9
:10573000D3E90023FAF7FFFE22462B46FAF7FBFED9
:10574000174A7A4402EBC603D3E90023FAF7F6FEC0
:10575000009A002AB8BF81F00041BDE8F88F000030
:10576000000010440000F07F182D4454FB21F93F45
:10577000FB21F9BF0000DC3F0000203E0000F33FAA
:105780000000F03F0000E63F008003400000F83FCB
:105790000000F0BF4610000004100000A20F00003F
:1057A0006A0F00002DE9F04D9446CCF1000423F07F
:1057B00000464CEA0404594F46EAD4749A46884697
:1057C00021F00042BC4206D8454240EA050442EAC4
:1057D000D474BC4204D9BDE8F04D6246FFF7CABCA0
:1057E000AAF14055A5F17F6555EA0C040BD00224BF
:1057F00004EAAA744A4DDFF82CE144EAD87452EA6C
:10580000000B04D00CE0BDE8F04DFFF7BBBE002C50
:1058100014BF012CBDE8F08D022C30D0032C32D007
:1058200056EA0C0B0AD0BE4220D1BA4209D126F06A
:10583000804622F080423346114617E000291ADBE9
:1058400025E0DFF8E4B0FB44002C04BFDBE90001F5
:10585000BDE8F08D012C02BFDBE9000181F00041C1
:10586000BDE8F08D022C0AD0032C0CD0BA4212D124
:10587000B8F1000F0BDA2A482C49BDE8F08D284614
:105880002B49BDE8F08D28467146BDE8F08D2448CF
:105890002849BDE8F08D921B12153C2AC4BF204F49
:1058A000244E10DCBAF1000FBEBF12F13C0F0027EE
:1058B0003E4608DB6246FAF7B6FE21F00041FFF7EC
:1058C00061FE07460E4694B1012C08BF86F00046E3
:1058D0000DD0194A194B022C3846314615D0FAF72B
:1058E0002AFE2A46BDE8F04D114BFAF724BE0022ED
:1058F000134638463146FBF767F804BF0220FFF72E
:1059000059FC38463146BDE8F08DFAF714FE2A46B8
:10591000BDE8F04D064BFAF711BE00000000F07F25
:10592000182D4454FB2109C0FE0E0000FB21F9BFD5
:10593000FB210940FB21F93F075C143326A6A13C5B
:1059400010B504460420FCF7AFFD0148046010BD0B
:10595000E000002070B5054600244FF47A7603E09D
:10596000304600F005F8641CAC42F9D370BD00006D
:1059700070B54FF0E024002265690949A369096800
:105980004843A1699942FCD002D2A3EB010302E093
:10599000A5EB010633441A440B468242F1D370BD95
:1059A000E000002013B54FF6FF730122694602485C
:1059B000FDF743F900981CBD7C04002010B5044697
:1059C0004FF0FF31FAF70AFD0849A1EB64042146C4
:1059D000FAF794FC2146FAF791FC4FF07F51FAF761
:1059E0008AFC2146BDE81040FAF788BC865A375F2A
:1059F000FCF756F84820FFF7A3FFFEF72BFFFDF753
:105A000015FFFDF7A1FEFDF78BFFFDF7ADFFFEF7DC
:105A100021F8FEF787F8FEF7A7FBFDF777FDFDF706
:105A200053FDFDF7D1FDFEF733F8FEF785F9FEF7DC
:105A3000A7FAFDF7B1FE00F00EF8FEE701460020E0
:105A4000842900D0C81C704710B500B9012000F0AF
:105A500061FB002010BD10B500F082FB002010BDDE
:105A60007FB50D4604464169B0F9080081B1A169CE
:105A700071B1FFF7E3FFD4E905128DE80700D4E91F
:105A800000102B46226900F06EFC039004B070BD3C
:105A9000FFF7D4FF03A9CDE90001208A2B4682B28B
:105AA000D4E9001000F032FC012801D00020EDE71D
:105AB0000398EBE72DE9F041184C0F460546E668E0
:105AC0002068001D00F05FFA38B9206890F82C10AB
:105AD00001208840216981432161681C07D137B1C9
