:020000040800F2
:10000000C03600209D0100083B3A0008112A000874
:10001000393A0008AF100008C54E00080000000083
:1000200000000000000000000000000005010008C2
:100030005512000800000000490100089948000816
:10004000B7010008B7010008B7010008B7010008B0
:10005000B7010008B7010008B7010008B7010008A0
:10006000C1120008B7010008B7010008B701000875
:10007000B7010008B7010008B7010008B701000880
:10008000B7010008B7010008B7010008B701000870
:10009000B7010008B7010008B7010008B701000860
:1000A000B7010008B7010008B7010008B701000850
:1000B000B7010008B7010008B7010008B701000840
:1000C000B7010008B7010008B7010008B701000830
:1000D000B7010008B7010008B7010008B701000820
:1000E000B7010008B7010008B7010008DFF810D019
:1000F00000F06CFC0048004755560008AFF3008044
:10010000C0360020224B19680868B0E8F00F80F371
:100110000988BFF36F8F4FF0000080F311884EF015
:100120000D0E70470000000006480068006880F36C
:10013000088862B661B6BFF34F8FBFF36F8F00DFE1
:1001400000BF00BF08ED00E0EFF30980BFF36F8F41
:100150000F4B1A6820E9F00F106008B54FF05000FF
:1001600080F31188BFF34F8FBFF36F8F05F0B4FE9C
:100170004FF0000080F31188BDE808401968086856
:10018000B0E8F00F80F30988BFF36F8F704700BFAE
:100190003C000020EFF305807047000006488047D0
:1001A00006480047FEE7FEE7FEE7FEE7FEE7FEE75C
:1001B000FEE7FEE7FEE7FEE729490008ED0000083C
:1001C000202A04DB203A21FA02F00021704721FAAC
:1001D00002F3D040C2F12002914008431946704713
:1001E0000649074A0868504343F239021044086040
:1001F00040087047014908607047000088010020EE
:100200006D4EC64140EA01039B0703D009E008C9CF
:10021000121F08C0042AFAD203E011F8013B00F8CB
:10022000013B521EF9D27047D2B201E000F8012B17
:10023000491EFBD270470022F6E710B513460A4666
:1002400004461946FFF7F0FF204610BDF0B480EADF
:100250000102D40F4200B2EB410F02D2024608461F
:1002600011464A0042D0C30DDDB2C1F3C752AD1AE8
:10027000202D35DAC1F3160141F4000204B15242D7
:10028000C5F1200602FA06F12A411044B3EBD05F13
:1002900023D0C4B1012DA0EBC35009DCF0BC4FF05A
:1002A000004202EAC352DBB200F5000000F0EABAF5
:1002B000400000F1807000EBC350A0F1807040EA74
:1002C000D170490009E0490841EAC071A0EBC35070
:1002D00000F50000400800EBC350F0BC00F0C9BAC4
:1002E0006142012202EB4101001BF6E7F0BC7047BE
:1002F00081F00041AAE780F00040A7E780EA010210
:1003000010B502F00043400022D04A001FD0010E79
:1003100001EB1261C0F35600C2F3560240F4000034
:1003200042F40002A0FB022000047F39140400D034
:10033000401C50EA124001D44000491EC2B20C06D3
:1003400004EBD010401C4008802A02D003E00020BB
:1003500010BD20F00100002900DA0020184310BD74
:1003600030B480EA010202F0004530F0004221F092
:10037000004013D090B1C30DD40DC2F31601C0F3E9
:100380001600E41A41F4000140F400027D34914269
:1003900001D3641C00E04900002C02DA30BC0020CC
:1003A00070474FF400000023914201D3891A0343A0
:1003B00040084FEA4101F7D151B1914202D14FF0CB
:1003C000004105E002D24FF0010101E06FF00101B0
:1003D00003EBC450284430BC00F04BBA420005D0B7
:1003E000C0F3C7525242914201DC0020704700EB3B
:1003F000C15070472DE9FE4F804681EA0300C00FCF
:100400000C46009021F0004123F00045B8EB0200BB
:10041000A94105D24046214690461C460B4602465D
:1004200023F00040104347D0270DC7F30A00C3F361
:100430000A510290401A019040286BDAC3F313006E
:1004400040F4801B0098924620B10023D2EB030AAF
:1004500063EB0B0B01985946C0F14002504600F087
:10046000E7F906460D4650465946019A00F0EFF965
:1004700010EB08006141002487EA115284EAE77317
:100480001A4340D0009A62B3019A012A4FEA0752F8
:1004900015DC001B61EB02014FF0004202EA07523B
:1004A000CDE90042001C41F5801132462B4600F098
:1004B00026FA03B0BDE8F08F40462146F9E7001B5D
:1004C00061EB0201001C41F5801300185B4120180C
:1004D000A2F5001747EB030140EAD570B6196D414C
:1004E00011E06D084FEA360645EAC0754FEA07523B
:1004F000001B61EB0201001C41F5801149084FEA25
:1005000030000019514132462B4603B0BDE8F04F90
:1005100000F0E6B90098012240000023D0EB02026F
:1005200063EBE073009821464FEAE074B8EB0000FB
:1005300061EB0401E9E783F000435BE781F00041F0
:1005400058E72DE9FE4F81EA030404F0004421F04E
:10055000004100944FF0000B23F0004350EA0104E7
:100560005ED052EA03045BD0C3F30A54C1F30A55C8
:100570002C44A4F2F3340194A0FB0254C1F3130100
:1005800041F48011C3F3130343F4801301FB0244CD
:1005900000FB034E840A970A44EA815447EA8357D2
:1005A000A4FB076802958D0A05FB07854FEA932C8B
:1005B00004FB0C542705029D4FEA065847EA1637FC
:1005C000B5EB08056EEB070C870E920E47EA811714
:1005D00042EA8312A7FB0201B6EB0B0164EB0004B5
:1005E0002B0D43EA0C335E1844EB1C50DA4651469F
:1005F000E7FB0201C5F313044FEA0B3343EA14533C
:100600004FEA0432019C43EA0603A4F10C0402946D
:10061000009CCDE900B400F072F903B0BDE8F08FA2
:1006200000200146F9E72DE9F04D81EA030404F0CA
:10063000004B21F0004514464FF0000A23F0004122
:1006400050EA050220D054EA01021DD0C5F30A5732
:100650000246C5F31303C1F31300C1F30A5640F475
:10066000801543F48013A7EB0608101BD64608F24A
:10067000FD3873EB050002D308F1010801E0921880
:100680005B41B8F1000F03DA00200146BDE8F08DB0
:1006900000204FF48011064684460EE0171B73EBD2
:1006A000050705D3121B63EB050306434CEA010C57
:1006B00049084FEA300092185B4150EA0107EDD13A
:1006C00052EA030012D082EA040083EA05010843DB
:1006D00005D0101BAB4106D20122002306E0002208
:1006E0004FF0004302E06FF0010253101AEB0600D6
:1006F0004CEB085110EB0A0041EB0B01BDE8F04D4B
:1007000000F0EEB870B521F0004303430CD0C1F304
:100710000A550024D5EB040564EB0403D617AD1A83
:10072000B34102DB0020014670BD201841EB0251AD
:1007300070BDC10F80EAE0700844CA07962300210B
:1007400000F0A0B896230022114600F09BB800F0FC
:10075000004220F00040C10DC0F3160040F400003C
:100760007F2901DA00207047962903DCC1F1960148
:10077000C84001E096398840002AF4D040427047D2
:1007800020F00040C10DC0F3160040F400007F29A6
:1007900001DA00207047962903DCC1F19601C840B8
:1007A000704796398840704700F0004230F00040B2
:1007B0000AD0C10D01F56071C0F3160042EA015183
:1007C000C20840071143704700200146704701F0FE
:1007D000004330B421F0004150EA010206D00A0D76
:1007E000A2F56072C1F31301002A02DC30BC0020C4
:1007F0007047440F44EAC104C100E01830BC00EB6C
:10080000C25000F036B80000002801DBC0F1004003
:10081000002901DBC1F1004181427047002801DB62
:10082000C0F10040002901DBC1F10041884270475E
:10083000202A04DB203A00FA02F1002070479140A0
:10084000C2F1200320FA03F3194390407047202A95
:1008500006DBCB17203A41FA02F043EAE07306E0E8
:1008600041FA02F3D040C2F12002914008431946F8
:1008700070470029A8BF7047401C490008BF20F0FE
:100880000100704710B4B0FA80FC00FA0CF050EA96
:10089000010404BF10BC704749B1CCF1200421FA17
:1008A00004F411FA0CF118BF012121430843A3EB12
:1008B0000C01CB1D4FEA00614FEA102042BF00201F
:1008C00010BC704700EBC35010440029A4BF10BCFB
:1008D0007047401C490008BF20F0010010BC704761
:1008E00010B5141E73F1000408DA401C41F1000138
:1008F00092185B411A4301D120F0010010BD2DE98F
:10090000F04D92469B4611B1B1FA81F202E0B0FA85
:1009100080F220329046FFF78BFF04460F4640EAF4
:100920000A0041EA0B0153465A46084313D01146C8
:1009300053EA010019D0C8F140025046FFF740FCCD
:1009400005460E46504659464246FFF771FF08439A
:1009500005D0012004E020463946BDE8F08D002096
:10096000054346EAE0762C4337430A986305E40AD8
:10097000A0EB08000022FD0A44EA47540A3002D5E1
:1009800000200146E9E7010510196941DDE9084544
:1009900000196941BDE8F04DA2E7000030B5041E22
:1009A00071F1000404DB4FF00044404264EB0101AC
:1009B000141E73F1000405DB1C464FF00043524245
:1009C00063EB04038B4208BF824230BD064C074DE7
:1009D00006E0E06840F0010394E80700984710340F
:1009E000AC42F6D3FFF786FB5C6500087C65000827
:1009F00070B58C1810F8015B15F0070301D110F8E1
:100A0000013B2A1106D110F8012B03E010F8016B0D
:100A100001F8016B5B1EF9D12B0705D40023521E90
:100A20000DD401F8013BFAE710F8013BCB1A921CF8
:100A300003E013F8015B01F8015B521EF9D5A142F6
:100A4000D8D3002070BD10B503F05DFA03F067FA4B
:100A5000642004F06BFD03F056FA642004F066FD98
:100A600003F05DFA642004F061FD03F04CFA6420A9
:100A700004F05CFD03F053FA642004F057FDBDE878
:100A8000104003F040BA000070B504460068816869
:100A9000C943C90717D1816821F00101816000F0C5
:100AA000CDFF05460AE000BF00F0C8FF401B02284A
:100AB00004D920688068C043C00706D020688068D9
:100AC000C043C007F0D0002070BDA06A40F0100005
:100AD000A062E06A40F00100E062012070BD000009
:100AE0002DE9F04F8A4987B0012248780024401C44
:100AF00000F0FF0C81F801C08878401CC7B28F70ED
:100B0000C878401CC6B2CE700879401CC3B20B71C5
:100B10004879401CC5B27F484D71BCF1370F01D3F5
:100B20004C704270052F01D38C708270142E01D34B
:100B3000CC70C270232B01D30C7102713C2D01D3F8
:100B40004C714271417861B1447073480023007860
:100B5000CDE90040714807C800F04AFA07B0BDE887
:100B6000F08F8178002953D06D4D8470A868FFF70D
:100B7000EEFD00B2FFF7DDFD6A49FFF7BFFBFFF7AF
:100B8000E6FD0FFA80FB6868FFF7E1FD00B2FFF7B2
:100B9000D0FD6449FFF7B2FBFFF7D9FD0FFA80FAE9
:100BA0002868FFF7D4FD00B2FFF7C3FD5D49FFF7EA
:100BB000A5FBFFF7CCFD5C4F0FFA80F9B868FFF793
:100BC000C6FD0FFA80F87868FFF7C1FD06B23868F5
:100BD000FFF7BDFD059400B20294039404944B46C4
:100BE00042463146CDE900AB00F098F94D49A8687E
:100BF000FFF784FB4D49D1E90B238C6AC968CDE925
:100C000000144B49CDE902230EC900F0B5FAA5E75F
:100C1000C17809B1C470A1E7017909B104719DE7F8
:100C2000417979B14471434843498068FFF766FBD5
:100C3000FFF7A6FD07B080B2BDE8F04F4FF4E471B6
:100C400000F040B9817991B18471394803AD2838F9
:100C500090E80E0039488468029485E80E0003C8C5
:100C6000CDE90001364890E80E00012012E0C1797C
:100C700099B1C4712D4803AD90E80E0031488468E5
:100C8000029485E80E0003C8CDE900012E4890E8E3
:100C90000E00022000F070F860E7017A69B104727A
:100CA0002A488168CDE902140494059403C8CDE96B
:100CB0000001274890E80E0027E0417A0029A6D0DD
:100CC00044722448244905908A07CDE90321254927
:100CD000224B234A8DE80E00012000F04DF82248F7
:100CE000224ACDE9024022490594CDE9001204943C
:100CF0000023022000F040F800230594029403949E
:100D0000049400941A46194601940320C2E7000097
:100D10004C010020222D00202D010020602D0020FC
:100D20006C2D0020A34C6542782D0020882B0020DC
:100D3000642C0020A80000200000C842002C0020E5
:100D4000C42B00204C2B0020102B0020B42C0020A2
:100D5000782C00207B142E3FCDCC4C3D5C8FC23EC6
:100D6000295C0F3D6666263F0000A0400AD7233C61
:100D70009A99194004F078BF2DE9FF4F81B00A46D7
:100D80000FA94E4C91E8400FAA21217061700F30DD
:100D90004B4FA070002539461046FFF7AFFAFFF71A
:100DA000D6FCADF800009DF8010020719DF8000010
:100DB000607139460398FFF7A1FAFFF7C8FCADF858
:100DC00000009DF80100A0719DF80000E071394617
:100DD0000498FFF793FAFFF7BAFCADF800009DF80E
:100DE000010020729DF80000607239460E98FFF7EE
:100DF00085FAFFF7ACFCADF800009DF80100A07289
:100E00009DF80000E07239463046FFF777FAFFF7A9
:100E10009EFCADF800009DF8010020739DF80000D5
:100E2000607339464046FFF769FAFFF790FCADF86A
:100E300000009DF80100A0739DF80000E0733946A2
:100E40004846FFF75BFAFFF782FCADF800009DF81B
:100E5000010020749DF80000607439465046FFF789
:100E60004DFAFFF774FCADF800009DF80100A07486
:100E70009DF80000E07439465846FFF73FFAFFF747
:100E800066FCADF800009DF8010020759DF800009B
:100E9000607512201621E07000202246135C401C71
:100EA0002B44C0B2DDB28842F8D3555405B0034894
:100EB000BDE8F04F491CFFF75DBF00002C2D00205E
:100EC00000007A4418B4144AAA2400231470547001
:100ED00005249470ADF800009DF8010010719DF894
:100EE00000005071ADF800109DF8010090719DF860
:100EF00000000424D0710821D4700020145C401C30
:100F00002344C0B2DBB28842F8D3535418BC024821
:100F1000491CFFF72FBF00002C2D00202DE9F807FA
:100F200008ACAA2694E88017304C0025267066701D
:100F30000226A670ADF800009DF8010020719DF812
:100F400000006071ADF800109DF80100A0719DF8DF
:100F50000000E071ADF800209DF8010020729DF8BE
:100F600000006072ADF800309DF80100A0729DF89D
:100F70000000E072ADF800709DF8010020739DF84C
:100F800000006073ADF800809DF80100A0739DF82B
:100F90000000E073ADF800909DF8010020749DF80A
:100FA00000006074ADF800A09DF80100A0749DF8E9
:100FB0000000E074ADF800C09DF8010020759DF8B8
:100FC0000000607512201621E07000202246135C9C
:100FD000401C2B44C0B2DDB28842F8D35554BDE862
:100FE000F8070248491CFFF7C5BE00002C2D002061
:100FF0002DE9FC472B4CDDE90A688946AA210193BB
:10100000217061700121284FA17092460025394658
:10101000FFF774F9FFF79BFBADF800009DF80100A6
:1010200020719DF80000607139464846FFF766F967
:10103000FFF78DFBADF800009DF80100A0719DF851
:101040000000E07139465046FFF758F9FFF77FFB83
:10105000ADF800009DF8010020729DF8000060725C
:101060009DF80700A0729DF80600E0729DF805004B
:1010700020739DF804006073A67384F80F800C2021
:101080001021E07000202246135C401C2B44C0B2AB
:10109000DDB28842F8D35554BDE8FC470148491CED
:1010A000FFF768BE2C2D00200000C8427047FEE705
:1010B00070B51A4E05463078C007B0EBC57F0BD02F
:1010C0001748E90703D00121017016A002E00021B2
:1010D000017018A003F082FF1A4C680706D520782B
:1010E00040F00100207018A003F078FF307805F080
:1010F000080100F0080088420DD02807207804D5A8
:1011000040F04000207015A003E020F04000207067
:1011100015A003F063FF357070BD00004001002092
:101120002D010020756E6C6F636B20204F4B2121C9
:10113000210D0A006C6F636B20204F4B2121210D84
:101140000A000000CC00002074756F6C756F79691F
:1011500020204F4B2121210D0A000000777520200F
:101160004F4B2121210D0A00796F7520204F4B2113
:1011700021210D0A000000002DE9F00307AC4FF01B
:10118000AA0C94E84003324C069F002504F803CBD8
:1011900004F802CC4FF0F10C04F801CC4FEA106CCB
:1011A00084F801C04FEA104C84F802C04FEA102CBA
:1011B00084F803C02071080E6071080CA071080A41
:1011C000E0712172100E6072100CA072100AE072B1
:1011D0002273180E6073180CA073180AE07323743E
:1011E000380E6074380CA074380AE0742775300E1D
:1011F0006075300CA075300AE07526764FEA1860ED
:1012000060764FEA1840A0764FEA1820E07684F81E
:101210001C804FEA196161774FEA1941A1774FEAC3
:101220001921E17784F82090202024212070084A99
:101230000020135C401C2B44C0B2DDB28842F8D3BE
:101240005554BDE8F0030248491CFFF793BD000068
:101250002C2D0020704700001148002140F26C72D4
:10126000018041808180C180018141818181C18172
:10127000018241828182C182018341838183C18352
:101280000184418482840622C2840185418581854E
:10129000C185018641868186C18601874187704765
:1012A000D02A002010B5FFF7D7FFBDE810403E223E
:1012B0000149024803F01CB9D02A002000F80008B8
:1012C00010B5042000F0ACFA00224FF480711848E9
:1012D00000F0AFFB072002F0F9FF044680060AD5B4
:1012E0000F2003F04FF82021272003F02DF8FF21D5
:1012F000E12003F029F8600608D50E4802F04AFF05
:1013000002F02CFE4021272003F01EF8E0060AD54B
:101310000F2003F037F81021272003F015F8FF21E4
:10132000E12003F011F805490348086010BD0000F2
:10133000000801404026002002000006140401407D
:1013400072B6FEE7044B0022DA61044A136943F0E7
:101350000103136101807047100500200020024046
:1013600014480022C168CB06134904D5CA6942F06B
:101370000202CA611022C3685B0705D5CB6943F03E
:101380000103CB6142F00402C369DB0707D0CB69DC
:1013900043F00403CB61C16921F00101C161A2F5F1
:1013A0008071013901D0C2607047C16921F001012B
:1013B000C1617047002002401005002070B505464D
:1013C00000F03CFB0646114C09E0681C07D025B133
:1013D00000F034FB801BA84201D9032070BDE068F7
:1013E000C007F2D1E068800601D52020E060E06807
:1013F000C00605D4E069C00702D1E068400703D504
:10140000FFF7AEFF012070BD002070BD002002403C
:101410002DE9F0410C461546064650F824701AE0B6
:101420006D1EAC4205DA56F825003946FFF7F6F98D
:10143000F6D956F8250046F8240000E0641CAC42BA
:1014400005DA56F824003946FFF7DEF9F6D956F8E2
:10145000240046F82500AC42E3DB46F82470204621
:10146000BDE8F041FFF765B9064A0021D1610649A0
:101470000A6942F002020A614861086940F04000CE
:1014800008617047702600200020024010B502F06D
:101490003AFD02F02CFD642004F048F802F033FD20
:1014A000642004F043F802F022FD642004F03EF8CA
:1014B00002F029FD642004F039F802F018FD6420E0
:1014C00004F034F8BDE8104002F01DBDF8B500246A
:1014D000009490F824202546012A12D0012280F899
:1014E00024204A681F23072A0DD20668776B521EF4
:1014F00002EB820293409F430B6893401F43776344
:1015000019E00220F8BD06680D2A0AD2376BD21FF7
:1015100002EB820293409F430B6893401F43376363
:1015200009E0F76A0D3A02EB820293409F430B6891
:1015300093401F43F7620A68072306680A2A0AD302
:10154000F7680A3A02EB420293409F438B6893404C
:101550001F43F76008E0376902EB420293409F4364
:101560008B6893401F4337610A68102A01D0112A03
:1015700020D1124B02689A4217D193681B0219D4EA
:10158000936843F4000393600968102912D10C4951
:101590000C4A0968B1FBF2F101EB8101490000E05E
:1015A000491E00910029FBD104E0816A41F020012D
:1015B0008162012480F824502046F8BD00240140B7
:1015C0003800002040420F002DE9F0414FF00007A5
:1015D00004003D467ED0A06A002628B9E66284F861
:1015E0002460204600F07EF82046FFF74DFAA16AFD
:1015F000C90600D420B1A06A40F01000A06269E0E2
:10160000A16A21F4885141F00201A1626268E16996
:10161000237B0A4347EA43010A43A1684FF48077DA
:10162000B94209D0012907D05FF0000194F814C035
:10163000BCF1010F02D00AE03946F7E7F3B1A36A23
:1016400043F02003A362E36A43F00103E3622368EB
:10165000D3F804C02CF4694C4CEA010CC3F804C064
:1016600021688B68DFF870C003EA0C0313438B60BA
:10167000A168B9420BD0012909D00CE0DFF85CC0A9
:10168000A3690CEB43330B4343F40061DFE7218A8A
:101690000D05A5F580152168CB6A23F470032B4353
:1016A000CB62216889680E4B1940914208D1E662ED
:1016B000A16A21F0020141F00101A162BDE8F081BF
:1016C000A06A20F0020040F01000A062E06A40F042
:1016D0000100E0620120F1E7FDF7E1FF00E0FFFF1C
:1016E000FE0E1FFF00B585B000210091019102910F
:1016F000039100680E49884218D10E48816941F46F
:1017000000718161816901F400710491816941F086
:10171000040181618069694600F0040004900220A0
:10172000009003200190044800F086F805B000BD49
:1017300000240140001002400008014070B504463A
:1017400000F07CF90546601C02D00448007804448F
:1017500000F074F9401BA042FAD370BD2C000020A9
:101760000348016941F080010161002070470000D9
:10177000002002402DE9F05F07461C4888460024FF
:10178000017E15461E46012909D0012181460176B8
:101790004CF2503A5046FFF711FE18B122E00220F9
:1017A000BDE8F09F012F02D0022F00D00427D346BE
:1017B000DFF83CA0220128463146FEF701FD81B248
:1017C00008EB4400FFF7BEFD5846FFF7F7FDDAF8D7
:1017D000102022F00102CAF8102018B9641CE4B2EB
:1017E000BC42E7D3002289F81820D9E71005002071
:1017F00000200240064900200A69120607D5054A62
:101800004A60054A4A600969090600D50120704707
:101810000020024023016745AB89EFCD70470000EF
:10182000044910B50A68024202D00860FFF7F6FFCB
:1018300010BD0000140401402DE9F84FDFF8B89105
:101840000024A9F1040B23460F2709F1040AABF188
:10185000040EC9E00125A5402A40AA427DD1674E69
:10186000D1F804C0ACEB0608B44532D014DCBCF1AE
:10187000030F3AD009DCBCF1000F2AD0BCF1010FF4
:101880001CD0BCF1020F31D11DE0BCF1110F17D0FB
:10189000BCF1120F2AD119E0B8F5881F19D006DC67
:1018A000B8F5803F15D0B8F5801F1FD111E0B8F50D
:1018B000001F0ED0B8F5041F18D10AE0CB6815E060
:1018C000CB681B1D12E0CB6808330FE0CB680C33EC
:1018D0000CE08B682BB1012B4FF0080303D045615E
:1018E00004E0042302E0056100E00023FF2A01D8A0
:1018F000064601E000F104064FEA840501D9A5F18E
:101900002005D6F8008007FA05FC28EA0C0803FA3F
:1019100005F548EA0508C6F800804D68ED0062D577
:10192000374DAE6946F00106AE61AD6924F003069D
:1019300005F001050095334D06EB050CDCF8085069
:10194000A607360F07FA06F825EA0805DFF8B8807B
:10195000404503D14FF0000817E044E0DFF8AC80C9
:10196000404502D14FF001080FE0DFF8A480404568
:1019700002D14FF0020808E0DFF89880404502D11C
:101980004FF0030801E04FF0040808FA06F848EAAF
:101990000508CCF808804D68D9F80060ED024D4686
:1019A00001D5164300E096432E604D68DAF80060DA
:1019B000AD02554601D5164300E096432E604D68B2
:1019C000DBF80060AD035D4601D5164300E09643A9
:1019D0002E604D68DEF80060ED03754601D51643B4
:1019E00000E096432E60641C0D682A46E5407FF4B3
:1019F00031AFBDE8F88F000008040140000011106D
:101A0000001002400000014000080140000C0140AD
:101A100000100140001401408068084000D00120FF
:101A20007047C26821EA02030A4043EA02410161A9
:101A300070470AB1016170470904FBE701488068FB
:101A4000704700002C000020024881680278114491
:101A5000816070472C000020074810B5016841F0F4
:101A600010010160032000F07BF80F2000F006F861
:101A700000F024F8002010BD0020024070B50D4D8C
:101A800004464FF47A712878B1FBF0F00A490968EE
:101A9000B1FBF0F000F0F0FC48B9102C07D20022A6
:101AA0002146501E00F03CF800206C6070BD012003
:101AB00070BD00002C000020380000200F4808B541
:101AC000816941F001018161816901F001010091A9
:101AD000C16941F08051C161C069002200F08050AD
:101AE00000900F21901E00F01BF80548416821F07E
:101AF000E06141F00071416008BD0000001002404B
:101B000000000140002809DB00F01F020121914084
:101B10004009800000F1E020C0F80011704700008B
:101B2000F0B40E4B1B680C46C3F30223C3F1070548
:101B3000042D00D90425191D072901D2002300E036
:101B4000DB1E012606FA05F1491E214099409E4000
:101B5000761E16403143F0BC03F05CBA0CED00E099
:101B6000064900F0070208684FF6FF03184040EAF4
:101B70000220034A10430860704700000CED00E0AB
:101B80000000FA052DE9F84305460078354CC007FA
:101B900054D0E0690026C00008D4E06940F08050CD
:101BA000E061E069012600F0805000902E48016855
:101BB000C90512D40168804641F480710160FFF7C5
:101BC0003DFF074605E000BFFFF738FFC01B642854
:101BD00023D8D8F80000C005F6D5206A10F440706C
:101BE00021D0A98801F4407181421CD0206A1F498C
:101BF000012220F440700A6000220A602062C007BF
:101C000011D0FFF71BFF074641F2883808E000BFFC
:101C1000FFF714FFC11B414502D90320BDE8F8833B
:101C2000206A8007F4D5206A696820F44070084370
:101C300020621EB1E06920F08050E06128788007C2
:101C400005D56068A96820F44040084360602878A2
:101C5000C00605D56068E96820F48000084360602C
:101C60000020DBE7001002400070004040044242C8
:101C70002DE9F0470F46050061D0434E306800F073
:101C80000700B84209D2306820F0070038433060BE
:101C9000306800F00700B84251D128683B4C8107FA
:101CA00012D5400703D5606840F4E0606060287892
:101CB000000703D5606840F4605060606068A96800
:101CC00020F0F000084360602878C00728D06868DA
:101CD000012810D02168022810D0890700292EDAA7
:101CE000616821F0030101436160FFF7A7FE8046B0
:101CF00041F288390DE021688903EFE78901EDE7BA
:101D0000FFF79CFEA0EB0801494502D90320BDE87E
:101D1000F0876068696800F00C00B0EB810FEFD1CC
:101D2000306800F00700B8420BD9306820F0070097
:101D300038433060306800F00700B84201D001201D
:101D4000E5E72878400705D56068E96820F4E06099
:101D5000084360602878000706D56068296920F488
:101D6000605040EAC100606000F038F86168084ADD
:101D7000C1F30311515CC840064908600648006879
:101D8000FFF77CFE0020C2E7002002400010024066
:101D9000B6630008380000203000002004480549E0
:101DA00000684968044AC1F30221515CC840704789
:101DB0003800002000100240C663000804480549AE
:101DC00000684968044AC1F3C221515CC8407047A9
:101DD0003800002000100240C66300080E4A516817
:101DE0000E4801F00C03042B11D0082B0FD10C4826
:101DF000C1F38343C903C05C0AD55168084AC1F3E3
:101E00004041921E515C054A5043B0FBF1F07047CF
:101E100004494843704700000010024000127A0055
:101E2000A663000800093D002DE9F84F040070D0BA
:101E30002078C04DC00749D06868C0F381000128F0
:101E400007D06868C0F38100022809D16868C00320
:101E500006D52868800339D560680028E7D035E0CA
:101E60006068B0F5803F0BD010B1B0F5A02F11D055
:101E7000286820F480302860286820F4802002E060
:101E8000286840F480302860606890B1FFF7D6FD84
:101E900006460AE0286840F480202860F0E700BF8A
:101EA000FFF7CCFD801B642873D828688003F7D522
:101EB0000CE0FFF7C3FD064605E000BFFFF7BEFDDF
:101EC000801B6428F0D828688003F7D420789A4EC5
:101ED00080074FF001094FF0000839D5686810F00D
:101EE0000C0F07D06868C0F38100022809D1686828
:101EF000C00306D42868800714D52069012808D1BA
:101F000010E02069B0B1C6F80090FFF797FD0746D2
:101F100005E00AE1FFF792FDC01B0228C4D828683B
:101F20008007F7D52868616920F0F80040EAC10011
:101F300028600DE0C6F80080FFF780FD074604E04A
:101F4000FFF77CFDC01B022823D828688007F7D440
:101F5000207800072CD57948A169D9B1C0F8009044
:101F6000FFF76CFD074604E0FFF768FDC01B022881
:101F70000FD8686A8007F7D571484FF4FA510068A6
:101F8000B0FBF1F0009000BF0098411E0091FAD222
:101F90000EE080E0C0F80080FFF750FD074604E047
:101FA000FFF74CFDC01B022875D8686A8007F7D47C
:101FB0002078400760D5E8690027C00008D4E869A8
:101FC00040F08050E861E869012700F080500090FF
:101FD0005C480168C90513D40168834641F48071E7
:101FE0000160FFF72BFD824606E000BFFFF726FDEC
:101FF000A0EB0A0064284ED8DBF80000C005F5D538
:10200000E06801280AD008B1052813D0286A20F01A
:1020100001002862286A20F0040002E0286A40F0EB
:1020200001002862E06841F2883B98B1FFF706FDA5
:1020300082460BE0286A40F004002862EEE700BF09
:10204000FFF7FCFCA0EB0A0159455AD8286A800723
:10205000F6D50CE0FFF7F2FC824605E0FFF7EEFC58
:10206000A0EB0A0159454CD8286A8007F6D41FB165
:10207000E86920F08050E861E06988B36968C1F3DD
:102080008101022944D00228C6F8608004D0FFF7FD
:10209000D5FC044638E034E0FFF7D0FC074604E006
:1020A000FFF7CCFCC01B02282BD828688001F7D48E
:1020B000206AB0F5803F05D16868A16820F400303F
:1020C00008436860D4E908010843696821F4741181
:1020D00008436860C6F86090FFF7B0FC044606E06D
:1020E00025E000BFFFF7AAFC001B022809D82868DA
:1020F0008001F7D51BE000BFFFF7A0FC001B022802
:1021000002D90320BDE8F88F28688001F4D40EE0DE
:102110000128F7D06868226A00F48031914204D126
:10212000616A00F47010884201D00120EAE70020C3
:10213000E8E70000001002400000424280044242F2
:10214000380000200070004070B5040009D0606ABB
:10215000002540B125616561A56294F8510040B148
:102160000CE0012070BD6068B0F5827FF4D0E561BD
:10217000F2E784F85050204600F040F8022084F83E
:1021800051002068016821F040010160A088218988
:1021900000F4827001F404410843A18901F4006154
:1021A0000843217C01F002010843217D01F0010177
:1021B0000843218B01F400710843217F01F03801AD
:1021C000084394F8201001F080010843218D01F4A8
:1021D0000051084321680860A069042101EA104009
:1021E000216848602068C16921F40061C1616565AA
:1021F000012084F85100002070BD000030B585B08A
:1022000000240094019402940394006815498842C4
:1022100025D11548C16941F48041C161C16901F40A
:1022200080410491816941F00801816180690F4D0D
:1022300000F0080004904FF420400090022001902C
:102240000320039069462846FFF7F6FA4FF48040D2
:10225000CDE90004694628460294FFF7EDFA05B07F
:1022600030BD00000038004000100240000C01406A
:102270002DE9FF4F81B01D46934604464FF00109FA
:102280000E9EFFF7DBFB074694F8510061680128BA
:1022900006D0B1F5827F3CD1A168C9BB042838D1F2
:1022A0000298002871D0BBF1000FFBD0002DF9D0AF
:1022B00094F8500001282CD04FF0010A84F850A067
:1022C00094F85100042802D0052084F851004FF002
:1022D0000008C4F85480C4F838B0E587A58702998F
:1022E0002163E586A586C4F84080C4F84480206850
:1022F0000168490603D4016841F040010160E068CB
:10230000B0F5006F606808D0F0B3012D49D081E0CE
:10231000FFE7022005B0BDE8F08F08B1012D39D1EB
:10232000206B21680088C860206B801C2063E08ED1
:10233000401EE0862EE02068816889070FD5E18E77
:1023400069B1B9F1010F0AD1216B0988C160206B15
:10235000801C2063E08E401EE0864FF0000920685C
:102360008168C9070CD0E18F51B1C068A16B0880AA
:10237000A06B801CA063E08F401EE0874FF0010936
:10238000FFF75CFBC01B01E00BE067E0B04201D34C
:10239000701C50D1E08E0028CDD1E08F0028CAD12A
:1023A0003EE0206B216800780873206B401C20639E
:1023B000E08E401EE0862DE02068816889070FD5F9
:1023C000E18E69B1B9F1010F0AD1216B097801736E
:1023D000206B401C2063E08E401EE0864FF0000919
:1023E00020688168C9070CD0E18F51B1C068A16B2A
:1023F0000870A06B401CA063E08F401EE0874FF088
:102400000109FFF71BFBC01BB04202D3701C01D0B7
:1024100011E086B1E08E0028CED1E08F0028CBD12C
:102420003A463146204601F0DFFF50B1202060657A
:1024300084F8508012E084F851A084F85080032082
:1024400068E7A06818B92068C1688068009084F8BF
:1024500051A084F85080606D0028F1D0012059E728
:102460004FF0E0210428086903D020F0040008613F
:10247000704740F00400FAE710B5401EB0F1807FCD
:1024800001D3012010BD4FF0E02460610F216017DF
:1024900002F0C0FD0020A06107202061002010BDD7
:1024A00070B590F83C20012A26D0012480F83C40E9
:1024B000022280F83D2003685A689D6822F0700669
:1024C0000A6832435A600D4B02689A4208D0B2F152
:1024D000804F05D00A4B9A4202D00A4B9A4204D14F
:1024E000496825F080031943916080F83D40002140
:1024F00080F83C10084670BD022070BD002C0140E1
:10250000000400400008004010B5040003D094F817
:102510003D0010B107E0012010BD002084F83C0010
:10252000204600F01FF8022084F83D00211D20689D
:1025300002F0FCF9012084F8460084F83E0084F89B
:102540003F0084F8400084F8410084F8420084F899
:10255000430084F8440084F8450084F83D000020DE
:1025600010BD000008B500680649884208D1064839
:10257000C16941F00201C161C06900F00200009030
:1025800008BD0000000400400010024070B5044681
:1025900090F83C000025012817D0012684F83C6003
:1025A000022084F83D002068826822F0770222F43D
:1025B0007F4282600868502838D00DDC20284FD038
:1025C00005DC90B3102811D14AE0022070BD3028FC
:1025D00046D040280AD13BE060282FD070280DD08B
:1025E000B0F5805F03D0B0F5005F12D0012584F80C
:1025F0003D60002084F83C00284670BDCB68D1E9DE
:102600000121206802F0DBF92068816841F0770140
:1026100009E0CB68D1E90121206802F0D0F92068F7
:10262000816841F480418160E1E719E0CA68496846
:10263000206802F079FA5021206806E0CA684968EB
:10264000206802F082FA6021206802F0C2F9CEE729
:10265000CA684968206802F067FA40212068F4E7F8
:10266000226801461046F0E710B586B000210091BF
:1026700001910291039100681349884221D11348C6
:10268000816941F004018161816901F004010491D3
:10269000816941F0080181618069022400F008002D
:1026A0000490C020CDE90004694609480394FFF76F
:1026B000C3F80320CDE90004694606480394FFF7F8
:1026C000BBF806B010BD000000040040001002403E
:1026D00000080140000C014070B5044690F83C0031
:1026E00000260D4601280FD0012084F83C006AB175
:1026F000042A1DD0082A2FD00C2A3FD00126002002
:1027000084F83C00304670BD022070BD206802F0A5
:1027100069F92068816941F0080181612068816957
:1027200021F004018161206881692A69114311E067
:10273000206802F07FF92068816941F400618161BD
:102740002068816921F480618161206881692A693A
:1027500041EA02218161D2E7206802F097F92068FE
:10276000C16941F00801C1612068C16921F004011B
:10277000C1612068C1692A69114311E0206802F033
:10278000B1F92068C16941F40061C1612068C16983
:1027900021F48061C1612068C1692A6941EA02218E
:1027A000C161ACE710B5040003D094F83D0010B14E
:1027B00007E0012010BD002084F83C00204600F016
:1027C0001EF8022084F83D00211D206802F0AEF8BA
:1027D000012084F8460084F83E0084F83F0084F825
:1027E000400084F8410084F8420084F8430084F8F3
:1027F000440084F8450084F83D00002010BD704777
:1028000010B50446022249B104290ED0082913D07C
:1028100094F84100012816D0012010BD94F83E0024
:102820000128F9D184F83E200FE094F83F000128F8
:10283000F2D184F83F2008E094F840000128EBD161
:1028400084F8402001E084F841200122206802F051
:10285000A9F80F492068884203D1426C42F4004233
:1028600042642068884208D0B0F1804F05D0094901
:10287000884202D00849884204D1816801F00701EA
:10288000062903D0016841F001010160002010BD5C
:10289000002C0140000400400008004070B5040016
:1028A00004D094F84100002510B106E0012070BD6D
:1028B00084F84050204600F023F8242084F841009A
:1028C0002068C16821F40051C160204602F058FA26
:1028D0002068016921F4904101612068416921F07B
:1028E0002A0141612068C16841F40051C1606564FA
:1028F000202084F8410084F842006563002070BD08
:1029000030B585B0002400940194029403940068CB
:102910001449884224D11448816941F4804181617D
:10292000816901F480410491816941F00401816170
:1029300080690E4D00F0040004904FF40070009088
:10294000022001900320039069462846FEF774FF99
:102950002815CDE90004694628460294FEF76CFF6D
:1029600005B030BD003801400010024000080140B1
:102970002DE9F843044690F84100984616460D4666
:10298000202802D00220BDE8F88385B17EB1002066
:102990006064212084F84100FFF750F8A684814646
:1029A000E684A0682027B0F5805F02D003E0012014
:1029B000E9E7206910B12E4600250EE000260CE064
:1029C0008021204602F038FAA8B9C6B116F8010BEA
:1029D00021684860E08C401EE084E08C4B464FF05C
:1029E0000002CDF800800028EAD14FF040012046D7
:1029F00002F022FA40B184F841700320C3E735F8B1
:102A0000020BC0F30800E3E784F841700020BAE746
:102A1000FEE7000070B5104D4FF40044002221463F
:102A20002846FFF706F801F0DBFA002208210B48E0
:102A3000FEF7FFFF022002F087FD01222146284613
:102A4000FEF7F7FF022002F07FFD21462846BDE891
:102A500070400022FEF7EDBF00080140000C01406D
:102A600003490120C1F8BC010249C1F88C0170473B
:102A7000000021420080214270B5104D4FF4004407
:102A8000002221462846FEF7D4FF01F0A9FA0122D0
:102A900008210B48FEF7CDFF022002F055FD012270
:102AA00021462846FEF7C5FF022002F04DFD2146D3
:102AB0002846BDE870400022FEF7BBBF0008014079
:102AC000000C01402DE9F0478046002401F06CFA2B
:102AD000164FDFF85C9000254FF400460022314687
:102AE0003846FEF7A6FF022002F02EFD01223146F5
:102AF0003846FEF79EFF6006040E08214846FEF7A2
:102B00008BFF08B1641CE4B2012002F01DFD6D1CB6
:102B1000EDB2082DE2D3B8F1000F02D0FFF77AFF33
:102B200001E0FFF7A9FF2046BDE8F087000801405B
:102B3000000C014070B515460E46044600F0F8F84A
:102B4000204600F089F800F041F918B100F016F9BC
:102B5000012070BD304600F07FF800F037F900F03A
:102B6000E7F8641CE0B200F077F800F02FF90020DD
:102B7000FFF7A8FF287000F001F9002070BD2DE9D3
:102B8000F0411F46154688460646002400F0D0F85E
:102B9000304600F061F800F019F920B100F0EEF8CD
:102BA0000120BDE8F081404600F056F800F00EF933
:102BB00000F0BEF8761CF0B200F04EF800F006F916
:102BC0006E1E09E0B44201D0012000E00020FFF7B2
:102BD00079FF3855641CE4B2AC42F3D300F0CEF870
:102BE0000020DEE72DE9F0478246184800240168FE
:102BF00021F470410160016841F400410160144E0C
:102C0000DFF85090254627464FF00108C6F8BC7102
:102C1000022002F099FCC6F8BC816006040ED9F8C7
:102C20000C0108B1641CE4B2012002F08DFC6D1CA3
:102C3000EDB2082DEAD3BAF1000F04D000F068FE1F
:102C40002046BDE8F08700F087FEF9E7000C014060
:102C500000002142008021422DE9F041054601F0AB
:102C6000BFF9174F4FF40046002231463846FEF7B1
:102C7000E0FEDFF850800024280601D5012200E0A4
:102C8000002208214046FEF7D4FE6806050E022009
:102C900002F05AFC012231463846FEF7CAFE0220F5
:102CA00002F052FC002231463846FEF7C2FE0220F6
:102CB00002F04AFC641CE4B2082CDDD3BDE8F081CC
:102CC00000080140000C01402DE9F0470646154878
:102CD000016821F470410160016841F440510160D4
:102CE000114D0027C5F8BC71DFF840803C464FF01D
:102CF0000109F109C8F88C117006060E022002F0D5
:102D000023FCC5F8BC91022002F01EFCC5F8BC7182
:102D1000022002F019FC641CE4B2082CE9D3BDE8DF
:102D2000F0870000000C0140000021420080214299
:102D300070B501F055F90F4C012208212046FEF72D
:102D400078FE01220C4ED50329463046FEF771FE6F
:102D5000042002F0F9FB002208212046FEF769FE5C
:102D6000042002F0F1FB29463046BDE87040002205
:102D7000FEF75FBE000C01400008014070B501F095
:102D80002FF9104D4FF40044002221462846FEF74B
:102D900050FE0D4E002208213046FEF74AFE042068
:102DA00002F0D2FB012221462846FEF742FE012214
:102DB00008213046FEF73DFEBDE87040042002F0D9
:102DC000C3BB000000080140000C01402DE9F041A8
:102DD000002401F0E9F8154D012208212846FEF7EC
:102DE00028FE012002F0B0FB0122114FD60331462C
:102DF0003846FEF71EFE012002F0A6FB08E0641C28
:102E0000E4B2FA2C04D9FFF7B9FF0120BDE8F08144
:102E100008212846FEF700FE0028F0D100223146A6
:102E20003846FEF706FE0020F0E70000000C0140E7
:102E3000000801402DE9F04113480024016821F405
:102E400070410160016841F4004101600F4D0126AD
:102E5000C5F88C61304602F077FB0D4FC7F8BC61B6
:102E6000012002F071FB08E0641CE4B2FA2C04D9E2
:102E700000F0BCFD0120BDE8F081D5F80C01002870
:102E8000F2D1C7F8BC01F6E7000C014000802142F6
:102E90000000214270B515460E460446FFF748FF74
:102EA0002046FFF7D9FEFFF791FF50B93046FFF7F4
:102EB000D3FEFFF78BFF2846FFF7CEFEFFF786FF16
:102EC00018B1FFF75BFF012070BDFFF757FF00202F
:102ED00070BD00002DE9F74FA2B00C460646242233
:102EE000FE4913A8FDF78EF9D4E900508046D4F8C6
:102EF00008903068009070680590F94CB0680490B4
:102F000061680E463046FDF7F9F91190A168304628
:102F10008B46FDF7F3F90990E16830468A46FDF7E4
:102F2000EDF91090216930460F46FDF7E7F9594653
:102F30000F900846FDF7E2F90E9051465846FDF70E
:102F4000DDF90A9039465846FDF7D8F951461290F6
:102F50000846FDF7D3F9089039465046FDF7CEF9FB
:102F600039460C900846FDF7C9F9079041462846B6
:102F7000FDF7C4F94946FDF7C1F910F0FF4F7DD0C8
:102F800049460846FDF7BAF9074641460846FDF7A7
:102F9000B5F9064629460846FDF7B0F93146FDF772
:102FA00055F93946FDF752F902F03AFB064601465B
:102FB0002846FDF7A3F9019031464046FDF79EF9FA
:102FC000834631464846FDF799F981461099129893
:102FD000FDF78EF90121FDF701FA074621900C99C2
:102FE0000998FDF733F90121FDF7F8F906461F901E
:102FF0000E991198FDF77CF920900899FDF778F962
:103000000799FDF723F905461E9031464846FDF71E
:1030100075F9804629465846FDF770F94146FDF797
:1030200067F9804629460198FDF768F90546394653
:103030004846FDF763F92946FDF75AF982463946B5
:103040005846FDF75BF9054631460198FDF756F9FC
:103050002946FDF74DF98146A2494046FDF74EF954
:103060006169FDF7F3F8074660619E495046FDF738
:1030700045F9A169FDF7EAF8064600E02CE1A061F8
:1030800098494846FDF73AF9E169FDF7DFF805464A
:103090004FF07F5BE06159464046FDF72FF90099FC
:1030A000FDF7D4F83946FDF7D1F880465946504629
:1030B000FDF724F90599FDF7C9F83146FDF7C6F883
:1030C000824659464846FDF719F90499FDF7BEF8BE
:1030D0002946FDF7BBF88146014620690290FDF7BD
:1030E0000DF90746E06851460690FDF707F9A66816
:1030F000054686F000404146FDF700F92946FDF7F8
:10310000F7F83946FDF7F4F87649FDF7F7F8616806
:10311000FDF79CF80746606051460298FDF7EEF80F
:10312000834649460698FDF7E9F805464146384684
:10313000FDF7E4F82946FDF789F85946FDF7D8F878
:103140006849FDF7DBF83146FDF780F80646A060D8
:1031500041460298FDF7D2F8834649463046FDF7CE
:10316000CDF8054651463846FDF7C8F82946FDF723
:10317000BFF85946FDF76AF85A49FDF7BFF80699B6
:10318000FDF764F805464146E060FDF7B7F8804674
:1031900051463046FDF7B2F8824649463846FDF7BB
:1031A000ADF85146FDF752F84146FDF7A1F84D49FB
:1031B000FDF7A4F80299FDF749F801462061FDF7F3
:1031C0009DF8804629460846FDF798F805463146A1
:1031D0000846FDF793F8064639460846FDF78EF88F
:1031E0003146FDF733F82946FDF730F84146FDF743
:1031F0002DF802F015FA054601466068FDF77EF8E5
:1032000060602946A068FDF779F8A0602946E0686B
:10321000FDF774F8E06029462069FDF76FF820613A
:103220000E991198FDF712F80899FDF761F80799C2
:10323000FDF75EF8044613900F990A98FDF706F81B
:103240000121FDF7CBF814900546219815900F99B0
:103250000A98FDF74DF80121FDF7C0F8169008997E
:103260002098FCF7F3FF0799FDF742F817901F9895
:10327000189010991298FCF7E9FF0121FDF7AEF8BC
:10328000199009990C98FDF733F80121FDF7A6F87C
:103290001A901E981B902046FDF786FA06460C46AB
:1032A0002846FDF781FA3246234602F05DF84FF0DA
:1032B000C0420D4BFDF745F9FDF789FA249913AA91
:1032C00088600A49002000BF52F8203041F82030C1
:1032D000401CC0B20928F7D325B009E0D06300082C
:1032E000580100200AD7A33B66A64C409C2D002025
:1032F000BDE8F08F0248017841F00301017070478A
:10330000CC0000200248017841F0020101707047B2
:10331000CC00002010B502E003A001F05FFE00F039
:1033200002F90028F8D010BD0D4D5055363035301B
:10333000206E6F20636F6E6E6563742E2E2E0D0AE5
:103340000000000010B5FFF7E5FF80216B2000F0C2
:10335000D8F8642002F0EAF801216B2000F0D1F8DF
:103360000021382000F0CDF818211B2000F0C9F80A
:1033700008211C2000F0C5F804211A2000F0C1F833
:103380000021192000F0BDF80221BDE810403720CF
:1033900000F0B7B8F0B5194C0025668876B96560BD
:1033A000A5600123E5606380158065F30F005580FB
:1033B00065F31F4065F30F0100239580676806B22F
:1033C0003E446660A76807EB204708B2A760E16843
:1033D000C01A0144E1606088C82803D0401C6080A6
:1033E0000020F0BD96FBF0F3138097FBF0F391FB08
:1033F000F0F05380908065800120F0BDCC0000206B
:103400001CB52F4801884ABA2E490B88D31A8A1D49
:10341000138043884C885BBA1B1B53808388898840
:103420005BBA591A918001894ABA2649891F0B88CB
:10343000D31A01F11202138043894C885BBA1B1B1B
:1034400053808089898840BA401AA2F12204908072
:103450002078C043C00717D1D4F822000090E18C37
:10346000ADF804100023123A0199FFF793FF58B109
:10347000207820F00100207000F01CFBFEF706F819
:10348000207840F0020020702078C043800716D4D6
:10349000E0690090218CADF8041042F20403094A5F
:1034A0000199FFF777FF002809D0207820F002006B
:1034B000207000F0FFFABDE81C40FDF7C4BA1CBD47
:1034C00060260020E20000200E21024A3B2000F08E
:1034D0000DB80000602600200A4610B50146D02035
:1034E000FFF728FB002800D0012010BD13460A4634
:1034F00010B50146D020FFF742FB002800D0012084
:1035000010BD0A4610B50146D020FFF7C3FC0028C5
:1035100000D0012010BD08B569467520FFF7DCFF1B
:103520009DF8000008BD10B5FFF7F5FF682801D031
:10353000002010BD012010BD3EB5002111480091B2
:1035400001910F4A029102608160017301750124AB
:103550004FF460220461C2614160FEF735F808B1A2
:10356000FDF7EEFE02200094CDE9014069460548D2
:10357000FDF7ACFF002801D0FDF7E2FE3EBD0000E4
:1035800000240140F403002010B5CEB01C223C49B9
:103590006846FCF737FE0021684602F099F8394C7E
:1035A00037491C2220601C3107A8FCF72BFE0021A4
:1035B00007A802F08DF8324960601C2238310EA84D
:1035C000FCF720FE00210EA802F082F82C49A06032
:1035D0001C22543115A8FCF715FE002115A802F095
:1035E00077F82749E0601C2270311CA8FCF70AFE1E
:1035F00000211CA802F06CF8214920611C228C31AA
:1036000023A8FCF7FFFD002123A802F061F81C4964
:1036100060611C22A8312AA8FCF7F4FD00212AA829
:1036200002F056F81649A0611C22C43131A8FCF7FB
:10363000E9FD002131A802F04BF81149E0611C229C
:10364000E03138A8FCF7DEFD002138A802F040F890
:103650000B4920621C22FC313FA8FCF7D3FD00215E
:103660003FA802F035F860621C22074946A8FCF723
:10367000C9FD002146A802F02BF8A0624EB010BD93
:103680007062000800000020886300082DE9F04700
:1036900086B000253E480095019502950395816905
:1036A00041F010018161816901F01001049181698B
:1036B00041F020018161816901F02001049181695B
:1036C00041F004018161816901F004010491816983
:1036D00041F00801816180692E4E00F008004FF42E
:1036E000C0440490012221463046FEF7A2F9DFF8DB
:1036F000A8A0002241F258215046FEF79AF9DFF8BF
:103700009C904FF40148002241464846FEF791F94B
:10371000009401240327CDE902476946304601940D
:10372000FEF78AF8042000901D48CDE9010469469F
:103730005046FEF781F841F2180002268DE871002C
:1037400069465046FEF778F801AACDF8008082E875
:10375000700069464846FEF76FF82020CDE9000565
:10376000694602945046FEF767F84FF410708DE8F2
:10377000D10069465046FEF75FF800220521082077
:10378000FEF7CEF90820FEF7BDF906B0BDE8F087D8
:103790000010024000100140000C014000080140F0
:1037A00000002110104810B50E4901604FF48271DD
:1037B000416000218160C1604FF400720161C0E985
:1037C00005121822C0E90721416281620A21C16203
:1037D000FEF7BAFC002803D0BDE81040FDF7B0BDED
:1037E00010BD0000003800402404002010B58EB049
:1037F00000240794089409940A940B941C216846A9
:103800000C94FCF718FD3348314901604FF43471D2
:10381000C0E901144FF4FA61C0E903148021816109
:10382000FEF772FE08B1FDF78BFD4FF48050079054
:1038300007A92848FEF7AAFE08B1FDF781FD254833
:10384000FEF7B0FF08B1FDF77BFD0B940BA92148F3
:103850000C94FEF725FE08B1FDF772FD6020CDE95E
:1038600000040294002269461A480494FEF734FFCB
:1038700008B1FDF765FD042269461648FEF72CFFE6
:1038800008B1FDF75DFD082269461248FEF724FFE6
:1038900008B1FDF755FD0C2269460E48FEF71CFFE6
:1038A00008B1FDF74DFD00210A48FEF7A9FF0421EC
:1038B0000848FEF7A5FF08210648FEF7A1FF0C21E6
:1038C0000448FEF79DFF0348FEF7CEFE0EB010BD84
:1038D000000400407C0400200C4810B50A49016037
:1038E0004FF4E1314160002181600C22C160C0E9E8
:1038F00004128161C161FEF7D1FF002803D0BDE849
:103900001040FDF71DBD10BD00380140C40400206B
:1039100070B50E4C0025C4F8BC510D48016821F467
:1039200070410160016841F4405101600948C0F8EC
:103930008C51022004F5DE7401F006FE01202060A7
:10394000022001F001FE256070BD00000000214250
:10395000000C01400080214270B50E4C0025C4F8D7
:10396000BC510D48016821F470410160016841F4C7
:103970004051016009480126C0F88C61022004F51D
:10398000DE7401F0E1FD2660022001F0DDFD25601E
:1039900070BD000000002142000C01400080214267
:1039A00070B50F48016821F470410160016841F46D
:1039B000405101600B4C0120C4F88C010A4DC5F840
:1039C000BC01042004F5C67405F5DE7501F0BCFDEC
:1039D00000262660042001F0B7FD2E6070BD0000B7
:1039E000000C0140008021420000214270B50F48C8
:1039F000016821F470410160016841F440510160A7
:103A00000B4C0020C4F8BC010A4DC5F88C01042001
:103A100004F5DE7405F5C67501F096FD0120206001
:103A20002860BDE87040042001F08EBD000C01400C
:103A30000000214200802142FEE7FEE710B53E2251
:103A40000F49104800F046FD01F092F80C484FF67F
:103A5000FF71428A8A420CD182898A4209D1008B45
:103A6000884206D1FDF71EFCBDE8104006A001F01B
:103A7000B5BA0BA001F0B2FABDE81040FDF712BCD8
:103A8000D02A002000F80008466C61736820526557
:103A90006164204572726F722121210D0A000000BD
:103AA000466C6173682052656164204F4B2121216F
:103AB0000D0A000010B500F035F8BDE810403E22B8
:103AC0000149024800F014BDD02A002000F8000887
:103AD00010B5012240210448FDF7ABFFBDE81040BE
:103AE000C820FDF72BBE0000000C014010B50C4CA7
:103AF00020212046FDF790FF00280FD13220FDF74E
:103B00001DFE20212046FDF787FF0028F9D0204622
:103B10000022BDE810404021FDF78BBF10BD000022
:103B2000000C014070B56248624C644D01882180F0
:103B3000418861808088A0805F48614E0188E18073
:103B4000418821818088608131462868FCF7D6FB56
:103B5000FCF716FEA08131466868FCF7CFFBFCF746
:103B60000FFEE0813146A868FCF7C8FBFCF708FEB1
:103B7000544D208231462868FCF7C0FBFCF700FE5C
:103B8000608231466868FCF7B9FBFCF7F9FDA0825A
:103B90003146A868FCF7B2FBFCF7F2FD4A4DE08223
:103BA00031462868FCF7AAFBFCF7EAFD2083314682
:103BB0006868FCF7A3FBFCF7E3FD60833146A86867
:103BC000FCF79CFBFCF7DCFD404DA08331462868E8
:103BD000FCF794FBFCF7D4FDE08331466868FCF702
:103BE0008DFBFCF7CDFD20843146A868FCF786FBF1
:103BF000FCF7C6FD364D608431462868FCF77EFB35
:103C0000FCF7BEFDA08431466868FCF777FBFCF743
:103C1000B7FDE0843146A868FCF770FBFCF7B0FD07
:103C20002C4D208531462868FCF768FBFCF7A8FD81
:103C3000608531466868FCF761FBFCF7A1FDA08553
:103C40003146A868FCF75AFBFCF79AFD224DE08547
:103C500031462868FCF752FBFCF792FD208631467E
:103C60006868FCF74BFBFCF78BFD60863146A86863
:103C7000FCF744FBFCF784FD184DA086314628680C
:103C8000FCF73CFBFCF77CFDE08631466868FCF7FE
:103C900035FBFCF775FD20873146A868FCF72EFB45
:103CA000FCF76EFD60870E480078A08770BD0000AD
:103CB000E2000020D02A0020DC000020102B002091
:103CC00000007A444C2B0020882B0020C42B0020BD
:103CD000002C00203C2C0020782C0020B42C00204C
:103CE000BC00002030B517490020184B81F838007F
:103CF000154A174DC1E90823174985F83800154CB6
:103D0000C5E90841154D85F83800C5E90823144D6B
:103D100085F83800C5E90841124D85F83800C5E935
:103D20000823114A82F83800C2E908410F4A82F894
:103D30003800106250620E4A82F838000D48C2E91D
:103D4000080130BDC42B002000001643000096443B
:103D5000102B002000000C4200004843002C0020E3
:103D60004C2B00203C2C0020882B0020782C00209D
:103D7000B42C00200000C8422DE9FC5FFFF7A4FB33
:103D8000FFF73EFB0C224549454800F0B1FC434C8F
:103D9000444D29462068FCF7B1FA434E3146FCF702
:103DA000ADFA8346206029466068FCF7A7FA3146E1
:103DB000FCF7A4FA606001902946A068FCF79EFA1F
:103DC0003146FCF79BFA394DA0600090B5F9000030
:103DD000FCF7AFFC364F3946FCF790FAA4F10C061D
:103DE0003060B5F90200FCF7A4FC3946FCF786FA0E
:103DF0007060B5F90400FCF79CFC3946FCF77EFACC
:103E0000DFF8B080B06098F8010088B304F10C05C9
:103E1000DFF8A49028684946FCF770FADFF89CA008
:103E2000064651465846FCF769FA3146FCF70EFA49
:103E30000746206049466868FCF760FA0646514626
:103E40000198FCF75BFA3146FCF700FA0646606021
:103E50004946A868FCF752FA814651460098FCF79B
:103E60004DFA4946FCF7F2F9A0602F60C5E9016000
:103E70000A482168183011F0FF4F01606268426003
:103E8000A368836008D012F0FF4F05D013F0FF4FF6
:103E900002D0012188F80010BDE8FC9F782D002099
:103EA000E800002040DAFF380AE81C41EE0000205C
:103EB00045798B3A58010020CDCCCC3D6666663FF3
:103EC0002DE9F04114460D460646A1420DDAFDF7F4
:103ED0009FFAFCF73CFC0746421E29463046FFF796
:103EE000EFFF2246791C3046ECE7BDE8F08110B5C3
:103EF00000240021FF22084601F062F8641CE4B2AD
:103F0000042CF6D310BD10B5002400221146104633
:103F100001F056F8641CE4B2042CF6D310BD10B5C1
:103F2000002400221146FF2001F04AF8641CE4B28C
:103F3000042CF6D310BD000070B505465FF00004F8
:103F400005FA04F0C00702D001F000F801E000F02B
:103F5000C7FF641CE4B2082CF2D370BD10B50F4942
:103F60000F4C01200870E07AA52815D12078C107F0
:103F700009D00C486188C180A1888180E1880180D6
:103F80002189418004E0000702D56078FDF790F8B0
:103F90000449A07A091F887010BD00002C01002080
:103FA000402600204401002000B585B0002001908B
:103FB00002900948816941F0080181618069694680
:103FC00000F00800049008200090032003900348AC
:103FD000FDF732FC05B000BD00100240000C0140AE
:103FE00000B585B0002002900A48816941F00801BF
:103FF00081618069694600F0080004900820009003
:1040000001200190032003900348FDF715FC05B043
:1040100000BD000000100240000C014010B502E09D
:1040200003A000F0DBFF00F06BF90028F8D010BD12
:104030000D20534932345231206E6F20636F6E6E03
:104040006563742E2E2E0D0A0000000070B51F4D02
:104050004FF48074002221462846FDF7EAFC032134
:10406000232000F071F905221949302000F008F9E9
:10407000052217492A2000F003F91A21242000F014
:1040800063F90121222000F05FF90121212000F0D5
:104090005BF92021312000F057F90D490522491D17
:1040A0002A2000F0EDF81E21252000F04DF92721EF
:1040B000262000F049F90F2000F064F92146284637
:1040C000BDE870400122FDF7B4BC000000080140CB
:1040D000BF00002010B5114C2078322810D94FF0C5
:1040E000E0208069FCF786F8FCF77AF8322190FB33
:1040F000F1F201FB12002070BDE81040FFF7DABCBE
:104100000649C91C0A79824206D00871491D087106
:10411000BDE81040FFF79ABF10BD0000BC000020B2
:1041200010B5FFF77BFF012211030548FDF781FC65
:10413000BDE8104000224FF480710248FDF779BCC1
:10414000000C0140000801402DE9F047DFF84090E5
:1041500016460D4604464FF4805800224146484614
:10416000FDF767FC204601F06FFD0746002405E0DF
:10417000FF2001F069FD05F8010B641CB442F7DB78
:10418000012241464846FDF754FC3846BDE8F08719
:10419000000C014070B50C4E04464FF480750022AF
:1041A00029463046FDF745FC202221466120FFF7D5
:1041B000CBFFFF21E22000F0C7F829463046BDE8DA
:1041C00070400122FDF735BC000801400F4810B5D2
:1041D0000078002818D00E480E4C007890B1A078D6
:1041E0006178884202D100F061FE0BE00A48007855
:1041F00040B94FF480410948FDF713FC4FF4FA70C1
:10420000FDF79CFAA078607010BD00002C01002022
:104210002D01002040010020A400002000100140DA
:1042200070B5154E04464FF480750022294630467D
:10423000FDF7FFFB05221149302000F021F805228F
:104240000E492A2000F01CF820222146A02000F070
:1042500017F80E21202000F077F87E21272000F0AB
:1042600073F8012229463046FDF7E3FBBDE87040B4
:104270000A2001F069B9000000080140BF000020D9
:104280002DE9F047DFF8409016460D4604464FF4FE
:104290008058002241464846FDF7CBFB204601F0FE
:1042A000D3FC0746002404E0287801F0CDFC641C10
:1042B0006D1CB442F8DB012241464846FDF7B9FBCC
:1042C0003846BDE8F0870000000C014070B50B4E89
:1042D00004464FF48055002229463046FDF7A9FBDD
:1042E000204601F0B1FCFF2001F0AEFC04460122A3
:1042F00029463046FDF79DFB204670BD000C01406D
:104300001CB50FA10522D1E90001CDE900016946E4
:104310003020FFF7B5FF052269461020FFF714FF94
:10432000002069460A5CA52A03D1401CC0B20528BA
:10433000F8D3052801D000201CBD01201CBD0000C1
:10434000A5A5A5A5A50000002DE9F0410C4E0F463E
:1043500004464FF48055002229463046FDF769FB9C
:10436000204601F071FC0446384601F06DFC012244
:1043700029463046FDF75DFB2046BDE8F081000090
:10438000000C014070B5174D4FF480740E284FF0AB
:1043900000022146284613D0FDF74BFB0F212020B9
:1043A000FFF7D2FF7E212720FFF7CEFF0122214613
:1043B0002846FDF73EFBBDE87040C82001F0C4B8B8
:1043C000FDF737FB0E212020FFF7BEFF7E212720BF
:1043D000FFF7BAFF21462846BDE870400122FDF7ED
:1043E00028BB000000080140F8B515460E460B46F4
:1043F000009204460122022100F010F840B9334631
:10440000002280212046009500F008F8002804D002
:10441000606D40F0200060650320F8BD2DE9F84391
:104420001E46914688460446089DFDF707FB401B43
:10443000351AFDF703FB074625480068C0F3CB306B
:10444000684338E0701C37D0FDF7F8FAC01BA8426B
:1044500003D215B1009860B32CE02068416821F0C8
:10446000E00141606068B0F5827F0BD1A068B0F5D3
:10447000004F02D0B0F5806F04D12068016821F0B0
:1044800040010160A06AB0F5005F09D120680168B1
:1044900021F4005101602068016841F4005101607D
:1044A000012084F85100002084F850000320BDE86A
:1044B000F8830025401E00902068816838EA0100DA
:1044C00004D000214945BDD10020F0E70121F9E7E2
:1044D0003800002010B5002306E000BF30F8024B82
:1044E00021F813405B1C9BB29342F7D310BD000030
:1044F0002DE9F05FA0F1006415468A468346B4F5C5
:10450000803F5FD2FDF776F9A70AC4F34806C6F5E7
:104510000074A54200D82C46DFF8AC904FF0006044
:1045200000EB872080464FF400722749FFF7D2FF47
:1045300000204FF6FF7106E0331839F813208A4245
:1045400003D1401C80B2A042F6D3A0422ED24046F6
:10455000FCF78AFF4CF25030FCF730FF1B48016932
:1045600021F0020101610020494606E03AF81020DE
:104570008319401C21F8132080B2A042F6D31249BF
:1045800040464FF4007200BF00F022F8A54215D05B
:10459000281B0AEB440A0BEB440B002685B24FF4B0
:1045A00000747F1CA542B9D82C46B7E74CF25030B6
:1045B000FCF704FF224651465846E5E7BDE8F05FA8
:1045C000FDF7CEB8BDE8F09F902600200020024005
:1045D0002DE9F04116460F46054600240AE000BFCB
:1045E00037F81420002329460120FDF7C3F8641C86
:1045F000A4B2AD1CB442F3D3BDE8F081F8B53448A1
:1046000002783448017812B141F0100101E021F044
:104610001001314C0170FF212170007860702F482B
:104620002F4D304E8088ADF800009DF80100A0703D
:104630009DF80000E0703146A868FBF75FFEFCF7CC
:1046400086F8ADF800009DF8010020719DF800008B
:10465000607131466868FBF751FEFCF778F8ADF8F9
:1046600000009DF80100A0719DF80000E071314646
:104670002868FBF743FEFCF76AF8ADF800009DF8E8
:10468000010020729DF80000607217483146C06931
:10469000FBF734FEFCF75BF8ADF800009DF8010075
:1046A000A0729DF80000E072104831468068FBF768
:1046B00025FEFCF74CF8ADF800009DF801002073D2
:1046C0009DF8000060732046BDE8F840FFF7A8BDE4
:1046D0002D010020CC0000202026002044010020D5
:1046E000602D00200000C842902A0020A800002071
:1046F0002DE9FE4F074600200290019000901446DD
:104700000E46B7F90000FCF714F8DFF8E080DFF898
:10471000D8A098F804504AF82500B7F90200FCF731
:1047200008F80AF1500949F82500B7F90400FCF728
:1047300000F809F1500747F825006D1CE8B288F829
:104740000400A04203D298F80500002849D14FF098
:10475000000B88F805B0621E59462348FFF7B0FBEE
:104760002148621E00215030FFF7AAFB1E48621E3E
:104770000021A030FFF7A4FBCA460125B946671EF9
:1047800014E0194850F825100298FBF75FFD0290DD
:104790005AF825100198FBF759FD019059F825109A
:1047A0000098FBF753FD6D1CEDB20090BD42E8DBB5
:1047B00098F80410A14201D388F804B0A01EFBF7BA
:1047C000B8FF044621460298FBF7CAFD3060214637
:1047D0000198FBF7C5FD706021460098FBF7C0FD0E
:1047E000B060BDE8FE8F0000602E00207801002040
:1047F000FFF7C2FA0A2000F05FFFF9E7012000F09E
:104800005BFFFBE7FCF76CF9022000F055FFF9E7CE
:10481000052000F051FFFBE7052000F04DFFFBE70E
:10482000044A05490548FEF755FB0A2000F044FFFD
:10483000F6E70000602D0020782D00206C2D002070
:10484000064D4FF400544FF4FA7621462846FDF702
:10485000E8F8304600F030FFF7E7000000100140B4
:10486000FFF744F9142000F027FFF9E74FF4C8746C
:10487000FFF730FC204600F01FFFF9E7FFF7A6FC2A
:10488000C82000F019FFF9E74FF49674FFF7B6FE61
:10489000204600F011FFF9E710B5FDF7D5F801F05B
:1048A00011FC012803D0BDE8104001F09DBB10BDF4
:1048B00030B593B028216846FBF7BDFC14210AA847
:1048C000FBF7B9FC002501200F9510951195010407
:1048D00012958DE8230004904FF4E010CDE9081004
:1048E000022407946846FDF79FFA08B172B6FEE706
:1048F0000AA90F2081E831004FF48060CDE90D0551
:1049000002210AA8FDF7B4F908B172B6FEE74FF428
:10491000004011900F940FA8FDF734F9002801D042
:1049200072B6FEE713B030BD70470000F0B5026804
:10493000194B1A4C1A4D4FF08047984205D0B84297
:1049400003D0A04201D0A84203D122F070064A68E9
:104950003243984205D0B84203D0A04201D0A842C9
:1049600003D122F44074CA6822434C6922F08002C9
:10497000224302608A68C2620A688262984201D158
:1049800009690163012141610169C90703D0016916
:1049900021F001010161F0BD002C01400004004044
:1049A0000008004010B501F01F030121046A99407E
:1049B0008C430462016A9A401143016210BD10B534
:1049C000846842EA032224F47F440A43224382603B
:1049D00010BD826822F070020A4342F00701816034
:1049E0007047000030B5036A026A22F001020262D9
:1049F0004268846924F073050C682C4323F0020597
:104A00008B682B430A4DA8420BD123F00805CB68D5
:104A100022F440722B434D6923F0040315438A6945
:104A20002A434260846149684163036230BD0000EB
:104A3000002C014030B5026A036A23F010030362C0
:104A4000436884690D6824F4E64444EA05248D68CB
:104A500022F0200242EA05120B4DA8420ED1CD6889
:104A600022F0800242EA05124D6923F4406343EAD2
:104A700085038D6922F0400243EA85034360846127
:104A800049688163026230BD002C014030B5036A81
:104A9000026A22F4807202624268C46923F40073DD
:104AA00024F073050C682C438D6843EA05230C4DF4
:104AB000A8420ED1CD6823F4006343EA05234D6973
:104AC00022F4405242EA05128D6923F4806342EADF
:104AD00005124260C4614968C163036230BD0000D1
:104AE000002C014030B5046A026A22F4805202624E
:104AF0004268C3690D6823F4E64343EA05238D68E1
:104B000024F4005444EA0534064DA84204D14D690A
:104B100022F4804242EA85124260C361496801641E
:104B2000046230BD002C014010B5036A046A24F011
:104B300001040462846924F0F00444EA021423F0BE
:104B40000A020A438461026210BD10B5036A046A56
:104B500024F010040462846923F0A00324F4704458
:104B600044EA023243EA01118261016210BD000091
:104B700070B5624C62482188018061884180A188BB
:104B800081806048E188018021894180618981803C
:104B9000A089FBF7D7FD5C4E3146FBF7E1FB5B4D8F
:104BA0002860E089FBF7CEFD3146FBF7D9FB686052
:104BB000208AFBF7C7FD3146FBF7D2FBA860608A6D
:104BC000FBF7C0FD3146FBF7CBFB514D2860A08AB7
:104BD000FBF7B8FD3146FBF7C3FB6860E08AFBF7E3
:104BE000B1FD3146FBF7BCFBA860208BFBF7AAFDAB
:104BF0003146FBF7B5FB474D2860608BFBF7A2FD04
:104C00003146FBF7ADFB6860A08BFBF79BFD31469F
:104C1000FBF7A6FBA860E08BFBF794FD3146FBF7A2
:104C20009FFB3D4D2860208CFBF78CFD3146FBF748
:104C300097FB6860608CFBF785FD3146FBF790FBC6
:104C4000A860A08CFBF77EFD3146FBF789FB334D56
:104C50002860E08CFBF776FD3146FBF781FB68604E
:104C6000208DFBF76FFD3146FBF77AFBA860608D66
:104C7000FBF768FD3146FBF773FB294D2860A08DDB
:104C8000FBF760FD3146FBF76BFB6860E08DFBF7DF
:104C900059FD3146FBF764FBA860208EFBF752FDFF
:104CA0003146FBF75DFB1F4D2860608EFBF74AFD28
:104CB0003146FBF755FB6860A08EFBF743FD31469C
:104CC000FBF74EFBA860E08EFBF73CFD3146FBF79F
:104CD00047FB154D2860208FFBF734FD3146FBF76D
:104CE0003FFB6860608FFBF72DFD3146FBF738FB1B
:104CF0000E49A86094F83C00087070BDD02A0020CE
:104D0000E2000020DC00002000007A44102B00208C
:104D10004C2B0020882B0020C42B0020002C0020CE
:104D20003C2C0020782C0020B42C0020BC0000205B
:104D300001680C3151E8002F22F4907241E8002301
:104D4000002BF5D10168143151E8002F22F0010247
:104D500041E80023002BF5D1016B012909D101683D
:104D60000C3151E8002F22F0100241E80023002B03
:104D7000F5D1202180F84210002101637047000026
:104D800070B5044600680169E26821F4405111439E
:104D900001612169A0680843616908432168CA6804
:104DA00041F20C639A430243CA6020684169A269D8
:104DB00021F44071114341611E492068884202D1AB
:104DC000FCF7FCFF01E0FCF7E9FF00EBC00101EBA1
:104DD0000012606864218000B2FBF0F3B3FBF1F3D2
:104DE0006FF018067343B2FBF0F5B2FBF0F605EB7B
:104DF0008305322303EB0515B5FBF1F5B6FBF1F6A0
:104E000005F0F00505EB0615B2FBF0F6B2FBF0F08D
:104E1000B0FBF1F06FF01802504306EB800003EB9B
:104E20000010B0FBF1F0216800F00F00284488600A
:104E300070BD0000003801402DE9F8439846174640
:104E40000D460446089E24E0701C22D0FCF7F6FDB7
:104E5000A0EB0800B0421AD8CEB12068C16849075B
:104E600017D5802D15D0402D13D00168C9430907EF
:104E70000FD401680025406800902046FFF758FFD6
:104E80000820606484F840500120BDE8F8830320C6
:104E9000FBE72068006835EA000004D00020B84233
:104EA000D2D00020F1E70120F9E700000448818812
:104EB000891F09B28180962901DC96218180704783
:104EC00044010020FEE7000001B54FF47A7301228F
:104ED00069460248FDF74CFD08BD0000C4040020EF
:104EE00070B50122184D540221462846FCF7A1FD59
:104EF00000BF00BF00BF00BF00BF00BF00222146AF
:104F00002846FCF796FD00BF00BF00BF00BF00BFF2
:104F100000BF00BF00BF00BF00BF00BF00BF00BF99
:104F200000BF00BF00BF00BF00BF00BF00BF00BF89
:104F300000BF00BF00BF00BF00BF00BF00BF00BF79
:104F400000BF00BF00BF70BD000C014070B5012262
:104F50001A4D540221462846FCF76BFD00BF00BFE6
:104F600000BF00BF00BF00BF00BF00BF00BF00BF49
:104F700000BF00BF00BF00BF00BF00BF00BF00BF39
:104F800000BF00BF00BF00BF00BF00BF00BF00BF29
:104F900000BF00BF00BF00BF00BF00BF002221460E
:104FA0002846FCF746FD00BF00BF00BF00BF00BFA2
:104FB00000BF00BF00BF00BF00BF70BD000C0140BC
:104FC00070B514460D46FEF7B7FF2846FEF7B4FF4E
:104FD0002046BDE87040FEF7AFBF0000014A02491D
:104FE00000F0A0B87D5500088C010020490050EA6F
:104FF000C12018BF04204A0D18BF40F0010040F244
:10500000FF72B2EB515F08BF40F00200012808BFF9
:10501000052070470907090E002804DB00F1E02095
:1050200080F80014704700F00F0000F1E02080F8D5
:10503000141D70472DE9F0414F1E00EBC7010446D7
:10504000D1E9000115461E4637F006020DD02A466A
:105050003346FBF776FA7F1E04EBC703D3E9002340
:10506000FBF7C8F937F00602F1D1022F25D0042F43
:1050700013D0062F18BFBDE8F0812A463346FBF750
:1050800060FAD4E90A23FBF7B5F92A463346FBF761
:1050900058FAD4E90823FBF7ADF92A463346FBF763
:1050A00050FAD4E90623FBF7A5F92A463346FBF765
:1050B00048FAD4E90423FBF79DF92A463346FBF767
:1050C00040FAD4E90223FBF795F92A463346FBF769
:1050D00038FAD4E90023BDE8F041FBF78BB901228F
:1050E000FBF710BBFBF786B9024A00201107FBF75C
:1050F00009BB000001FDFFFF02E008C8121F08C144
:10510000002AFAD170477047002001E001C1121F48
:10511000002AFBD170470000014908607047000079
:10512000900100202DE9F04116460F460446002567
:1051300003E03946B047641C6D1C20780028F8D184
:105140002846BDE8F08100002DE9F84F04460D46E1
:1051500021F0004000917349814211DC724988427C
:1051600001DC06D12CB120462946BDE8F84FFFF7F7
:10517000B6BF6E48002DCCBF6D496E49BDE8F88FB3
:105180006D49814211DD6D498142D8BF4FF0FF3634
:105190006DDD20462946FFF729FF042808BFFFF7E9
:1051A000A3FF20462946BDE8F88F6549654F25F0E5
:1051B0000045814233DD6449814219DD00263246D3
:1051C0004FF0804320462946FBF714F980468A4673
:1051D000012220462946FBF795FA00223B46FBF7C1
:1051E000AAF942465346FBF71EFA04460D463EE036
:1051F00001260022BA463B4620462946FBF7FAF82C
:1052000080460F460022534620462946FBF793F975
:1052100042463B46FBF707FA04460D4627E04B495A
:1052200081421BDDDFF828A10226002253462046DA
:105230002946FBF786F900223B46FBF7DBF8804660
:105240000F460022534620462946FBF774F9424692
:105250003B46FBF7E8F904460D4608E003262246E4
:105260002B4600203B49FBF7DEF904460D4622465B
:105270002B4610461946FBF764F98B4682460246D8
:105280000B46FBF75EF907460246334888460B4655
:1052900006217844FFF7CEFE52465B46FBF751F9F4
:1052A00082462E488B463A46434605217844FFF70E
:1052B000C1FE3A464346FBF744F902460B46002E30
:1052C000504659460CDAFBF795F822462B46FBF779
:1052D00038F901B022462B46BDE8F04FFBF72EB956
:1052E000FBF788F822462B46FBF72BF91C4A7A4439
:1052F00002EBC603D3E90023FBF71DF922462B4638
:10530000FBF719F9174A7A4402EBC603D3E90023E5
:10531000FBF714F9009A002AB8BF81F00041BDE8FC
:10532000F88F0000000010440000F07F182D445456
:10533000FB21F93FFB21F9BF0000DC3F0000203ECC
:105340000000F33F0000F03F0000E63F0080034014
:105350000000F83F0000F0BFCA11000088110000F3
:1053600026110000EE1000002DE9F04D9446CCF11E
:10537000000423F000464CEA0404594F46EAD47472
:105380009A46884621F00042BC4206D8454240EA8F
:10539000050442EAD474BC4204D9BDE8F04D62462B
:1053A000FFF7A0BEAAF14055A5F17F6555EA0C04B0
:1053B0000BD0022404EAAA744A4DDFF82CE144EA37
:1053C000D87452EA000B04D00CE0BDE8F04DFFF7B2
:1053D000BBBE002C14BF012CBDE8F08D022C30D0D8
:1053E000032C32D056EA0C0B0AD0BE4220D1BA426E
:1053F00009D126F0804622F080423346114617E05C
:1054000000291ADB25E0DFF8E4B0FB44002C04BFE0
:10541000DBE90001BDE8F08D012C02BFDBE90001F2
:1054200081F00041BDE8F08D022C0AD0032C0CD095
:10543000BA4212D1B8F1000F0BDA2A482C49BDE864
:10544000F08D28462B49BDE8F08D28467146BDE811
:10545000F08D24482849BDE8F08D921B12153C2A96
:10546000C4BF204F244E10DCBAF1000FBEBF12F1B2
:105470003C0F00273E4608DB6246FBF7D4F821F0DC
:105480000041FFF761FE07460E4694B1012C08BFAC
:1054900086F000460DD0194A194B022C3846314689
:1054A00015D0FBF748F82A46BDE8F04D114BFBF745
:1054B00042B80022134638463146FBF76FFA04BF64
:1054C0000220FFF729FE38463146BDE8F08DFBF794
:1054D00032F82A46BDE8F04D064BFBF72FB8000026
:1054E0000000F07F182D4454FB2109C082100000F9
:1054F000FB21F9BFFB210940FB21F93F075C143375
:1055000026A6A13C10B5FDF7ABFA142000F00EF86A
:10551000BDE8104000F084BB10B504460420FCF741
:105520009FFF0148046010BD2801002070B50546AA
:1055300000244FF47A7603E0304600F005F8641C4E
:10554000AC42F9D370BD000070B54FF0E0240022EA
:1055500065690949A36909684843A1699942FCD072
:1055600002D2A3EB010302E0A5EB010633441A4487
:105570000B468242F1D370BD2801002013B54FF6CF
:10558000FF73012269460248FDF7F2F900981CBD3D
:10559000C40400202DE9F0411E4615468846074602
:1055A0000024FEF7FDF93846FDF78EFBFDF742FCBF
:1055B0004046FDF789FBFDF73DFCFEF7F1F947F0AA
:1055C0000100FDF781FBFDF735FC6F1E08E0BC42D2
:1055D00001D1002000E00120FDF704FB3055641CE0
:1055E000AC42F4DBBDE8F041FEF700BA70B51546F9
:1055F0000E460446FEF7D4F92046FDF765FBFDF79D
:1056000019FC3046FDF760FBFDF714FC2846FDF75A
:105610005BFBFDF70FFCBDE87040FEF7E7B900004B
:1056200010B504464FF0FF31FAF7D8FE0849A1EB58
:1056300064042146FAF762FE2146FAF75FFE4FF056
:105640007F51FAF758FE2146BDE81040FAF756BEE2
:10565000865A375FFCF700FA4820FFF75DFFFFF737
:1056600027F9FEF713F8FDF767FFFEF79BF8FEF743
:10567000BDF8FEF731F9FEF72BFAFEF751FDFDF705
:1056800061FEFDF737FEFDF7BBFEFDF73BFEFFF7C2
:1056900039FFFBF70BFDFEF7D1F9FEF723FBFEF711
:1056A00032FCFDF771FF00F00EF8FEE70146002026
:1056B000842900D0C81C704710B500B9012000F043
:1056C000A7FB002010BD10B500F0C8FB002010BDE6
:1056D0007FB50D4604464169B0F9080081B1A16962
:1056E00071B1FFF7E3FFD4E905128DE80700D4E9B3
:1056F00000102B46226900F0BAFC039004B070BD84
:10570000FFF7D4FF03A9CDE90001208A2B4682B21E
:10571000D4E9001000F07EFC012801D00020EDE764
:105720000398EBE72DE9F041184C0F460546E66873
:105730002068001D00F0A5FA38B9206890F82C10F8
:1057400001208840216981432161681C07D137B15C
:105750002168BDE8F0410E48091D00F0D5BA206867
:105760003544B5424560216805D2A06BBDE8F041E3
:10577000091D00F0B1BA606B091D00F0ADFAA06A16
:10578000854200D2A562BDE8F08100003C00002007
:105790000C0600202DE9F041054600F0C1FA2E4C20
:1057A000A068401CA06020682C4F10B1606940B315
:1057B0002DE02560A068012829D1002606EB86008F
:1057C00007EB800000F07AFA761C072EF6D3234808
:1057D0008C3000F073FA2148A03000F06FFA1F48B7
:1057E000B43000F06BFA1D48C83000F067FA1B486F
:1057F000DC3000F063FA19488C3060631430A06329
:1058000005E02068E96AC06A884200D82560606ABD
:10581000401C6062E96A01202269884010432061CF
:1058200001EB810007EB8000291D00F06DFA00F00C
:1058300097FA606900280CD02068E96AC06A88423B
:1058400007D207494FF080500860BFF34F8FBFF376
:105850006F8FBDE8F08100003C0000203005002083
:1058600004ED00E010B5044690F85D0058B1012841
:105870000CD002280FD0502080F31188BFF34F8F37
:10588000BFF36F8FFEE7206B00F07EFA2046BDE885
:10589000104000F079BA10BD10484FF40051420793
:1058A00006D0C01D0D4920F00700411AC1F5005176
:1058B0000B4A00230144C2E900030839183A21F0D9
:1058C000070111604B600B600B1AC0E90013936075
:1058D0004FF00040536050617047000020060020E8
:1058E00090000020144E154CA6F1C8074FF08058C8
:1058F000DFF84C9012E000BF00F012FAF068C568C3
:10590000281D00F0BEF9A068401EA0606068401E1F
:10591000606000F025FA2846FFF7A4FF60680028C1
:10592000EAD138680128F9D9C9F80080BFF34F8F50
:10593000BFF36F8FF2E70000F80500203C00002065
:1059400004ED00E02DE9F0479A46DDE9098481463F
:105950006FF00303206B03EB82021044089E20F0DB
:105960000707780707D0502080F31188BFF34F8FC7
:10597000BFF36F8FFEE7002561B1002023180A5C9A
:1059800083F834200A5C12B1401C1928F6D384F83D
:105990004C5001E084F83450072E00D30626E6620E
:1059A000C4E91465201D00F094F904F1180000F01A
:1059B00090F92461C6F107006462A061A56584F8CE
:1059C0005C5052464946384600F0C0F82060B8F1B5
:1059D000000F01D0C8F80040BDE8F08730B511498C
:1059E00000E011460A688242FBD34B685C1884428F
:1059F00003D1406818444860084643681C18944224
:105A000009D1084C183C2468A24209D052681A44B3
:105A100042600A6812680260814200D0086030BDAE
:105A20000460F9E7900000200648416B096829B13D
:105A3000416BC968C9684968816270474FF0FF319E
:105A4000FAE700003C00002008484068401C4FF086
:105A5000500080F3118804D0BFF34F8FBFF36F8FD6
:105A6000FEE7BFF34F8FBFF36F8FFEE79800002074
:105A70002DE9F0410546002700F026FA324E306845
:105A800008B9FFF709FF706905424ED1C5B3083563
:105A900068070ED005F00700C0F10800054468074C
:105AA00007D0502080F31188BFF34F8FBFF36F8F63
:105AB000FEE72DB37068854237D823481830014679
:105AC0000C6801E020460C466168A94202D22168B8
:105AD0000029F7D131688C4227D00768216801601E
