:020000040800F2
:10000000083800209D010008993C0008392B0008A1
:10001000493C00083F0E0008D152000800000000D3
:1000200000000000000000000000000005010008C2
:10003000B51000080000000049010008A54C0008A8
:10004000B7010008B7010008B7010008B7010008B0
:10005000B7010008B7010008B7010008B7010008A0
:1000600021110008B7010008B7010008B701000816
:10007000B7010008B7010008B7010008B701000880
:10008000B7010008B7010008B7010008B701000870
:10009000B7010008B7010008B7010008B701000860
:1000A000B7010008B7010008B7010008B701000850
:1000B000B7010008B7010008B7010008B701000840
:1000C000B7010008B7010008B7010008B701000830
:1000D000B7010008B7010008B7010008B701000820
:1000E000B7010008B7010008B7010008DFF810D019
:1000F00000F01EFD00480047216B0008AFF30080B0
:1001000008380020224B19680868B0E8F00F80F327
:100110000988BFF36F8F4FF0000080F311884EF015
:100120000D0E70470000000006480068006880F36C
:10013000088862B661B6BFF34F8FBFF36F8F00DFE1
:1001400000BF00BF08ED00E0EFF30980BFF36F8F41
:100150000F4B1A6820E9F00F106008B54FF05000FF
:1001600080F31188BFF34F8FBFF36F8F07F008FF45
:100170004FF0000080F31188BDE808401968086856
:10018000B0E8F00F80F30988BFF36F8F704700BFAE
:100190003C000020EFF305807047000006488047D0
:1001A00006480047FEE7FEE7FEE7FEE7FEE7FEE75C
:1001B000FEE7FEE7FEE7FEE7354D0008ED0000082C
:1001C000202A04DB203A21FA02F00021704721FAAC
:1001D00002F3D040C2F12002914008431946704713
:1001E0000649074A0868504343F239021044086040
:1001F0004008704701490860704700004003002034
:100200006D4EC64140EA01039B0703D009E008C9CF
:10021000121F08C0042AFAD203E011F8013B00F8CB
:10022000013B521EF9D27047D2B201E000F8012B17
:10023000491EFBD270470022F6E710B513460A4666
:1002400004461946FFF7F0FF204610BDF0B480EADF
:100250000102D40F4200B2EB410F02D2024608461F
:1002600011464A0042D0C30DDDB2C1F3C752AD1AE8
:10027000202D35DAC1F3160141F4000204B15242D7
:10028000C5F1200602FA06F12A411044B3EBD05F13
:1002900023D0C4B1012DA0EBC35009DCF0BC4FF05A
:1002A000004202EAC352DBB200F5000000F04FBB8F
:1002B000400000F1807000EBC350A0F1807040EA74
:1002C000D170490009E0490841EAC071A0EBC35070
:1002D00000F50000400800EBC350F0BC00F02EBB5E
:1002E0006142012202EB4101001BF6E7F0BC7047BE
:1002F00081F00041AAE780F00040A7E780EA010210
:1003000010B502F00043400022D04A001FD0010E79
:1003100001EB1261C0F35600C2F3560240F4000034
:1003200042F40002A0FB022000047F39140400D034
:10033000401C50EA124001D44000491EC2B20C06D3
:1003400004EBD010401C4008802A02D003E00020BB
:1003500010BD20F00100002900DA0020184310BD74
:1003600030B480EA010202F0004530F0004221F092
:10037000004013D090B1C30DD40DC2F31601C0F3E9
:100380001600E41A41F4000140F400027D34914269
:1003900001D3641C00E04900002C02DA30BC0020CC
:1003A00070474FF400000023914201D3891A0343A0
:1003B00040084FEA4101F7D151B1914202D14FF0CB
:1003C000004105E002D24FF0010101E06FF00101B0
:1003D00003EBC450284430BC00F0B0BA420005D052
:1003E000C0F3C7525242914201DC0020704700EB3B
:1003F000C15070472DE9FE4F804681EA0300C00FCF
:100400000C46009021F0004123F00045B8EB0200BB
:10041000A94105D24046214690461C460B4602465D
:1004200023F00040104347D0270DC7F30A00C3F361
:100430000A510290401A019040286BDAC3F313006E
:1004400040F4801B0098924620B10023D2EB030AAF
:1004500063EB0B0B01985946C0F14002504600F087
:100460004CFA06460D4650465946019A00F054FA99
:1004700010EB08006141002487EA115284EAE77317
:100480001A4340D0009A62B3019A012A4FEA0752F8
:1004900015DC001B61EB02014FF0004202EA07523B
:1004A000CDE90042001C41F5801132462B4600F098
:1004B000A9FA03B0BDE8F08F40462146F9E7001BDA
:1004C00061EB0201001C41F5801300185B4120180C
:1004D000A2F5001747EB030140EAD570B6196D414C
:1004E00011E06D084FEA360645EAC0754FEA07523B
:1004F000001B61EB0201001C41F5801149084FEA25
:1005000030000019514132462B4603B0BDE8F04F90
:1005100000F069BA0098012240000023D0EB0202EB
:1005200063EBE073009821464FEAE074B8EB0000FB
:1005300061EB0401E9E783F000435BE781F00041F0
:1005400058E72DE9FE4F81EA030404F0004421F04E
:10055000004100944FF0000B23F0004350EA0104E7
:100560005ED052EA03045BD0C3F30A54C1F30A55C8
:100570002C44A4F2F3340194A0FB0254C1F3130100
:1005800041F48011C3F3130343F4801301FB0244CD
:1005900000FB034E840A970A44EA815447EA8357D2
:1005A000A4FB076802958D0A05FB07854FEA932C8B
:1005B00004FB0C542705029D4FEA065847EA1637FC
:1005C000B5EB08056EEB070C870E920E47EA811714
:1005D00042EA8312A7FB0201B6EB0B0164EB0004B5
:1005E0002B0D43EA0C335E1844EB1C50DA4651469F
:1005F000E7FB0201C5F313044FEA0B3343EA14533C
:100600004FEA0432019C43EA0603A4F10C0402946D
:10061000009CCDE900B400F0F5F903B0BDE8F08F1F
:1006200000200146F9E72DE9F04D81EA030404F0CA
:10063000004B21F0004514464FF0000A23F0004122
:1006400050EA050220D054EA01021DD0C5F30A5732
:100650000246C5F31303C1F31300C1F30A5640F475
:10066000801543F48013A7EB0608101BD64608F24A
:10067000FD3873EB050002D308F1010801E0921880
:100680005B41B8F1000F03DA00200146BDE8F08DB0
:1006900000204FF48011064684460EE0171B73EBD2
:1006A000050705D3121B63EB050306434CEA010C57
:1006B00049084FEA300092185B4150EA0107EDD13A
:1006C00052EA030012D082EA040083EA05010843DB
:1006D00005D0101BAB4106D20122002306E0002208
:1006E0004FF0004302E06FF0010253101AEB0600D6
:1006F0004CEB085110EB0A0041EB0B01BDE8F04D4B
:1007000000F071B970B521F0004303430CD0C1F380
:100710000A550024D5EB040564EB0403D617AD1A83
:10072000B34102DB0020014670BD201841EB0251AD
:1007300070BDC10F80EAE0700844CA07962300210B
:1007400000F005B996230022114600F000B90EB55D
:10075000C10F80EAE0700844CA07002140F2334329
:100760008DE80E000A460B4600F04CF903B000BDC0
:100770000EB540F2334102910021CDE900110A4645
:100780000B4600F03FF903B000BD00F0004220F03E
:100790000040C10DC0F3160040F400007F2901DACB
:1007A00000207047962903DCC1F19601C84001E0A2
:1007B00096398840002AF4D04042704720F000402B
:1007C000C10DC0F3160040F400007F2901DA0020BB
:1007D0007047962903DCC1F19601C84070479639ED
:1007E0008840704700F0004230F000400AD0C10D50
:1007F00001F56071C0F3160042EA0151C2084007DA
:100800001143704700200146704701F0004330B4A7
:1008100021F0004150EA010206D00A0DA2F56072F3
:10082000C1F31301002A02DC30BC00207047440FE2
:1008300044EAC104C100E01830BC00EBC25000F033
:100840007DB80000002801DBC0F10040002901DB79
:10085000C1F1004181427047002801DBC0F1004036
:10086000002901DBC1F100418842704730B50B46D9
:10087000014600202022012409E021FA02F59D42D0
:1008800005D303FA02F5491B04FA02F52844151EA4
:10089000A2F10102F1DC30BD2DE9F05F0546002038
:1008A00092469B4688460646814640241BE02846E1
:1008B000414647462246FFF783FC53465A46C01A34
:1008C000914110D311461846224600F016F82D1A11
:1008D00067EB01084F4622460120002100F00DF889
:1008E00017EB00094E41201EA4F10104DFDC48464D
:1008F00031462A464346BDE8F09F202A04DB203AD1
:1009000000FA02F1002070479140C2F1200320FA62
:1009100003F3194390407047202A06DBCB17203A97
:1009200041FA02F043EAE07306E041FA02F3D040F4
:10093000C2F1200291400843194670470029A8BF20
:100940007047401C490008BF20F00100704710B4F8
:10095000B0FA80FC00FA0CF050EA010404BF10BCAD
:10096000704749B1CCF1200421FA04F411FA0CF1DA
:1009700018BF012121430843A3EB0C01CB1D4FEA13
:1009800000614FEA102042BF002010BC704700EB0E
:10099000C35010440029A4BF10BC7047401C49003C
:1009A00008BF20F0010010BC704710B541000CD00A
:1009B000C0F3C751962908DC7E2909DC06DB410219
:1009C00004D000F0004040F07E5010BD002010BD6B
:1009D000C1F19604C4F1200100FA01F1E040FFF7F3
:1009E000ADFFA04010BD10B5141E73F1000408DA6D
:1009F000401C41F1000192185B411A4301D120F0E3
:100A0000010010BD2DE9F04D92469B4611B1B1FA9F
:100A100081F202E0B0FA80F220329046FFF76DFFDB
:100A200004460F4640EA0A0041EA0B0153465A4683
:100A3000084313D0114653EA010019D0C8F140020F
:100A40005046FFF7BDFB05460E4650465946424606
:100A5000FFF753FF084305D0012004E02046394644
:100A6000BDE8F08D0020054346EAE0762C4337438D
:100A70000A986305E40AA0EB08000022FD0A44EA94
:100A800047540A3002D500200146E9E70105101954
:100A90006941DDE9084500196941BDE8F04DA2E76B
:100AA000C1F30A52C1F3130140F2FF3341F4801144
:100AB0009A4202DA00200146704740F233439A42DC
:100AC000A2F2334202DC5242FFF77ABBFFF715BFB6
:100AD00030B5041E71F1000404DB4FF000444042C5
:100AE00064EB0101141E73F1000405DB1C464FF09A
:100AF0000043524263EB04038B4208BF824230BD85
:100B000030B5041E71F1000404DB4FF00044404294
:100B100064EB0101141E73F1000405DB1C464FF069
:100B20000043524263EB0403994208BF904230BD38
:100B3000064C074D06E0E06840F0010394E807002A
:100B400098471034AC42F6D3FFF7D4FA0C8700086C
:100B50002C8700082DE9F04D00231A461B1A8A4104
:100B600003DB00200146BDE8F08DC1F30A52C1F35A
:100B7000130141F480154FF0000BD10702D100188A
:100B80006D41521E0027044640F2FF11384601EB2A
:100B9000620A3E468046024600204FF48011FFF76D
:100BA0000FFBC2197141BB1846EB0100B4EB030CFB
:100BB00075EB000C04D3E41A65EB000517460E46EE
:100BC000241908F101006D4180463428E3DDF9194C
:100BD00046EB0600091BA84103D24FF0FF32134633
:100BE00001E0002213461BEB070046EB0A51BDE86B
:100BF000F04DFFF7F8BE70B58C1810F8015B15F0DA
:100C0000070301D110F8013B2A1106D110F8012B7E
:100C100003E010F8016B01F8016B5B1EF9D12B07A3
:100C200005D40023521E0DD401F8013BFAE710F859
:100C3000013BCB1A921C03E013F8015B01F8015B46
:100C4000521EF9D5A142D8D3002070BD10B503F0D3
:100C5000F6FA03F00CFB642005F0CEFE03F0EFFA89
:100C6000642005F0C9FE03F002FB642005F0C4FE19
:100C700003F0E5FA642005F0BFFE03F0F8FA642003
:100C800005F0BAFEBDE8104003F0D9BA70B50446CD
:100C900000688168C943C90717D1816821F0010143
:100CA000816000F00DFF05460AE000BF00F008FF7C
:100CB000401B022804D920688068C043C00706D0C2
:100CC00020688068C043C007F0D0002070BDA06AD3
:100CD00040F01000A062E06A40F00100E0620120F4
:100CE00070BD0000F8B500260446009600688168D3
:100CF000C943C9072DD0816841F0010181601648C0
:100D000016490068B0FBF1F000E0401E009000289A
:100D1000FBD100F0D5FE054616E000BF00F0D0FE86
:100D2000401B022810D920688068C043C0070BD040
:100D3000A06A40F01000A062E06A40F00100E062AA
:100D400084F824600120F8BD20688068C043C00793
:100D5000E4D10020F8BD00003800002040420F0020
:100D60002DE9F05F03461A4815468B46174A817AEB
:100D7000002742F82130491CCEB28672AE4202D220
:100D8000C17A00291FD14FF00009804680F80B90EE
:100D90004C46924608E000BF5AF824103846FFF748
:100DA00055FA641C0746E4B2AC42F5D3AE4201D317
:100DB00088F80A902846FFF7C5FC01463846FFF739
:100DC000CFFACBF80000BDE8F09F000068330020A8
:100DD000300300200748007800280AD00648C17870
:100DE00019B10021C17003F036BA0121C17003F0BE
:100DF00026BA7047A4000020BC00002070B5012076
:100E000000F094FAFFF79EFC06220B49FFF7A8FFBB
:100E1000094C206810F0FF4F07D06168FFF76EFAA9
:100E20006FF00B01FFF7DAFA054601212846FFF7BC
:100E3000D5FAA06070BD0000A80000207047FEE752
:100E400070B51A4E05463078C007B0EBC57F0BD0A1
:100E50001748E90703D00121017016A002E0002124
:100E6000017018A004F0E6FA1A4C680706D520783D
:100E700040F00100207018A004F0DCFA307805F092
:100E8000080100F0080088420DD02807207804D51A
:100E900040F04000207015A003E020F040002070DA
:100EA00015A004F0C7FA357070BD000004030020DF
:100EB000F1020020756E6C6F636B20204F4B212177
:100EC000210D0A006C6F636B20204F4B2121210DF7
:100ED0000A0000009002002074756F6C756F7969CC
:100EE00020204F4B2121210D0A0000007775202082
:100EF0004F4B2121210D0A00796F7520204F4B2186
:100F000021210D0A000000002DE9F04387B00F46B3
:100F1000016800914168019180680290B2F9000077
:100F200099461646A0F2DC50FFF703FC5A4C2146C6
:100F3000FFF716FA0390B6F90200A0F2DC50FFF7B3
:100F4000F8FB2146FFF70CFA0490B6F90600A0F270
:100F5000DC504042FFF7EDFB2146FFF701FA4F4C12
:100F600005900025207828B1059820F00040B0F1C8
:100F7000814F00DA05954A480078C043400603D403
:100F8000694603A804F024FA4648009A039902F03F
:100F900085FE4448019A3C30049902F07FFEDFF858
:100FA000088178684146FFF7A9F902463D48416B40
:100FB000B43002F073FE3D493868FFF79FF90246EE
:100FC00038483C30416BB43002F068FE4146B868A6
:100FD000FFF794F907463348783001680598FFF722
:100FE0008DF901463A46324802F058FEB6F904003F
:100FF000B42835DDB9F1000F32D0FFF79AFB2C4948
:10100000804678394F6B3946FFF720F928498146E9
:101010003C394E6B3146FFF719F925494D6B29468E
:10102000FFF766F9606040463946FFF761F9074609
:101030003146FFF70BF92946FFF708F9A06038465B
:101040003146FFF755F92946FFF752F9E060484667
:101050003146FFF74DF92946FFF7F8F8206104E023
:101060006560A560E56028462561FFF78EFB07B245
:10107000E068FFF78AFB06B2A068FFF786FB05B2BF
:101080006068FFF782FB00B23B463246294602F019
:10109000DDFD07B0BDE8F08300004041F002002014
:1010A00090020020C82C0020A34C6542A34C65C2CE
:1010B000F42D0020704700001148002140F26C72AE
:1010C000018041808180C180018141818181C18114
:1010D000018241828182C182018341838183C183F4
:1010E0000184418482840622C284018541858185F0
:1010F000C185018641868186C18601874187704707
:10110000882C002010B5FFF7D7FFBDE810403E2225
:101110000149024803F094BB882C002000F8000825
:1011200010B5042000F0BEFB00224FF48071184877
:1011300000F0C1FC072003F071FA044680060AD5CE
:101140000F2003F0C7FA2021272003F0A5FAFF2182
:10115000E12003F0A1FA600608D50E4803F0C2F9B9
:1011600003F0A4F84021272003F096FAE0060AD500
:101170000F2003F0AFFA1021272003F08DFAFF2192
:10118000E12003F089FA05490348086010BD00001A
:1011900000080140F8270020020000061404014066
:1011A00072B6FEE7044B0022DA61044A136943F089
:1011B0000103136101807047C8060020002002402F
:1011C00014480022C168CB06134904D5CA6942F00D
:1011D0000202CA611022C3685B0705D5CB6943F0E0
:1011E0000103CB6142F00402C369DB0707D0CB697E
:1011F00043F00403CB61C16921F00101C161A2F593
:101200008071013901D0C2607047C16921F00101CC
:10121000C161704700200240C806002070B5054635
:1012200000F04EFC0646114C09E0681C07D025B1C1
:1012300000F046FC801BA84201D9032070BDE06885
:10124000C007F2D1E068800601D52020E060E068A8
:10125000C00605D4E069C00702D1E068400703D5A5
:10126000FFF7AEFF012070BD002070BD00200240DE
:101270002DE9F0410C461546064650F824701AE058
:101280006D1EAC4205DA56F825003946FFF7E4FA40
:10129000F6D956F8250046F8240000E0641CAC425C
:1012A00005DA56F824003946FFF7CCFAF6D956F895
:1012B000240046F82500AC42E3DB46F824702046C3
:1012C000BDE8F041FFF735BA064A0021D161064971
:1012D0000A6942F002020A614861086940F0400070
:1012E00008617047282800200020024010B502F055
:1012F000A6FF02F098FF642005F07EFB02F09FFF3E
:10130000642005F079FB02F08EFF642005F074FB89
:1013100002F095FF642005F06FFB02F084FF64206B
:1013200005F06AFBBDE8104002F089BF10B5064821
:1013300000F0E6F90A21044800F044F9024800F000
:1013400083F880B210BD0000AC050020F8B5002481
:10135000009490F824202546012A12D0012280F81A
:1013600024204A681F23072A0DD20668776B521E75
:1013700002EB820293409F430B6893401F437763C5
:1013800019E00220F8BD06680D2A0AD2376BD21F79
:1013900002EB820293409F430B6893401F433763E5
:1013A00009E0F76A0D3A02EB820293409F430B6813
:1013B00093401F43F7620A68072306680A2A0AD384
:1013C000F7680A3A02EB420293409F438B689340CE
:1013D0001F43F76008E0376902EB420293409F43E6
:1013E0008B6893401F4337610A68102A01D0112A85
:1013F00020D1124B02689A4217D193681B0219D46C
:10140000936843F4000393600968102912D10C49D2
:101410000C4A0968B1FBF2F101EB8101490000E0DF
:10142000491E00910029FBD104E0816A41F02001AE
:101430008162012480F824502046F8BD0024014038
:101440003800002040420F000068C06C7047000068
:101450002DE9F0414FF0000704003D467ED0A06A20
:10146000002628B9E66284F82460204600F07EF861
:101470002046FFF70BFCA16AC90600D420B1A06A80
:1014800040F01000A06269E0A16A21F4885141F0A7
:101490000201A1626268E169237B0A4347EA4301D2
:1014A0000A43A1684FF48077B94209D0012907D0D7
:1014B0005FF0000194F814C0BCF1010F02D00AE003
:1014C0003946F7E7F3B1A36A43F02003A362E36A66
:1014D00043F00103E3622368D3F804C02CF4694CA1
:1014E0004CEA010CC3F804C021688B68DFF870C0B7
:1014F00003EA0C0313438B60A168B9420BD00129A6
:1015000009D00CE0DFF85CC0A3690CEB43330B435C
:1015100043F40061DFE7218A0D05A5F580152168F8
:10152000CB6A23F470032B43CB62216889680E4B8E
:101530001940914208D1E662A16A21F0020141F00E
:101540000101A162BDE8F081A06A20F0020040F034
:101550001000A062E06A40F00100E0620120F1E7C3
:10156000FDF7E1FF00E0FFFFFE0E1FFF00B585B0B5
:101570000021009101910291039100680E49884277
:1015800018D10E48816941F400718161816901F4CB
:1015900000710491816941F00401816180696946AB
:1015A00000F0040004900220009003200190044801
:1015B00000F084F905B000BD002401400010024095
:1015C000000801402DE9F84300270D460446009726
:1015D00000F076FA804620688168C90508D5A06ABF
:1015E00040F02000A06284F824700120BDE8F88358
:1015F0004168C90503D4C06A10F4700F2AD00220D4
:1016000000F002FB3B490968B1FBF0F62068036972
:1016100039490B424FEA61014FEAA1121FD1C36859
:101620004FEA611C13EA0C0F19D103690B4225D153
:10163000C068104222D1142023E0681C0AD02DB1CA
:1016400000F03EFAA0EB0800A84203D92068006829
:10165000800725D5206800688007EED52DE0036956
:101660000B4202D1C168114206D0026923490A42E5
:1016700006D1C068084203D1542002E0292000E0CE
:10168000FC204643009816E0681C11D02DB100F0F4
:1016900017FAA0EB0800A8420AD90098B04207D276
:1016A000A06A40F00400A06284F8247003209DE743
:1016B0000098401C0090B042E6D321686FF0120001
:1016C0000860A06A40F40070A06220688068C0F3DF
:1016D000424007280CD1207B50B9A06A20F48070CA
:1016E000A062A06AC00403D4A06A40F00100A06216
:1016F00000207BE7380000202449922449922400EE
:1017000070B5044690F8240001280DD0012084F81B
:1017100024002046FFF7E6FA02004FF0000005D053
:1017200084F82400104670BD022070BDA16A40F20A
:101730000123994341F48071A1621F4D23681F4921
:10174000AB4218D10E6816F4702F14D0A66A46F476
:101750008016A6620E68760505D5A66A26F40056A0
:1017600046F48056A662A66AF6040AD5E66A26F012
:101770000606E66206E0A66A26F48016A6625E68A1
:10178000E9E7E06284F824006FF002001860206846
:101790008368C3F34243072B05D1A84208D10968E7
:1017A00011F4702F04D0816841F480118160B9E791
:1017B000816841F4A001F9E70028014004240140B8
:1017C00070B5044600F07CF90546601C02D0044860
:1017D0000078044400F074F9401BA042FAD370BDB5
:1017E0002C0000200348016941F0800101610020C4
:1017F00070470000002002402DE9F05F07461C48BA
:1018000088460024017E15461E46012909D0012183
:10181000814601764CF2503A5046FFF7FFFC18B172
:1018200022E00220BDE8F09F012F02D0022F00D05D
:101830000427D346DFF83CA0220128463146FEF7B4
:10184000BFFC81B208EB4400FFF7ACFC5846FFF741
:10185000E5FCDAF8102022F00102CAF8102018B9CD
:10186000641CE4B2BC42E7D3002289F81820D9E70F
:10187000C806002000200240064900200A6912061E
:1018800007D5054A4A60054A4A600969090600D534
:10189000012070470020024023016745AB89EFCD4E
:1018A00070470000044910B50A68024202D008607F
:1018B000FFF7F6FF10BD0000140401402DE9F84FBA
:1018C000DFF8B8910024A9F1040B23460F2709F192
:1018D000040AABF1040EC9E00125A5402A40AA4242
:1018E0007DD1674ED1F804C0ACEB0608B44532D0C8
:1018F00014DCBCF1030F3AD009DCBCF1000F2AD094
:10190000BCF1010F1CD0BCF1020F31D11DE0BCF1C4
:10191000110F17D0BCF1120F2AD119E0B8F5881FAA
:1019200019D006DCB8F5803F15D0B8F5801F1FD15F
:1019300011E0B8F5001F0ED0B8F5041F18D10AE069
:10194000CB6815E0CB681B1D12E0CB6808330FE0B5
:10195000CB680C330CE08B682BB1012B4FF00803E4
:1019600003D0456104E0042302E0056100E00023A8
:10197000FF2A01D8064601E000F104064FEA84057B
:1019800001D9A5F12005D6F8008007FA05FC28EA60
:101990000C0803FA05F548EA0508C6F800804D680A
:1019A000ED0062D5374DAE6946F00106AE61AD6916
:1019B00024F0030605F001050095334D06EB050CF8
:1019C000DCF80850A607360F07FA06F825EA0805DE
:1019D000DFF8B880404503D14FF0000817E044E03D
:1019E000DFF8AC80404502D14FF001080FE0DFF88E
:1019F000A480404502D14FF0020808E0DFF898804B
:101A0000404502D14FF0030801E04FF0040808FA06
:101A100006F848EA0508CCF808804D68D9F8006057
:101A2000ED024D4601D5164300E096432E604D6809
:101A3000DAF80060AD02554601D5164300E0964342
:101A40002E604D68DBF80060AD035D4601D516439E
:101A500000E096432E604D68DEF80060ED037546A9
:101A600001D5164300E096432E60641C0D682A469B
:101A7000E5407FF431AFBDE8F88F00000804014075
:101A80000000111000100240000001400008014059
:101A9000000C014000100140001401408068084023
:101AA00000D001207047C26821EA02030A4043EADD
:101AB0000241016170470AB1016170470904FBE707
:101AC00001488068704700002C00002002488168AF
:101AD00002781144816070472C000020074810B53F
:101AE000016841F010010160032000F07BF80F2035
:101AF00000F006F800F024F8002010BD002002409D
:101B000070B50D4D04464FF47A712878B1FBF0F0B2
:101B10000A490968B1FBF0F000F042FD48B9102C09
:101B200007D200222146501E00F03CF800206C60D5
:101B300070BD012070BD00002C0000203800002086
:101B40000F4808B5816941F001018161816901F0A7
:101B500001010091C16941F08051C161C069002259
:101B600000F0805000900F21901E00F01BF80548F7
:101B7000416821F0E06141F00071416008BD000062
:101B80000010024000000140002809DB00F01F02A5
:101B9000012191404009800000F1E020C0F80011CF
:101BA00070470000F0B40E4B1B680C46C3F30223D1
:101BB000C3F10705042D00D90425191D072901D2F9
:101BC000002300E0DB1E012606FA05F1491E214034
:101BD00099409E40761E16403143F0BC03F061BC34
:101BE0000CED00E0064900F0070208684FF6FF031D
:101BF000184040EA0220034A104308607047000082
:101C00000CED00E00000FA0510B501460020234C61
:101C1000012922D0022939D010291DD161682268FA
:101C2000D20119D51E48C1F38342C903805C0AD58D
:101C300061681B4AC1F34041921E515C194AB2FBD4
:101C4000F1F1484301E0184948436168490203D46F
:101C500040000321B0FBF1F010BD226AC2F3012164
:101C6000012903D1920701D5C80310BD022905D16E
:101C7000626A920702D549F6404010BD0329FCD1A3
:101C800021688903F9D54FF2244010BD00F02AF9EC
:101C90006168C1F38131491C4900DBE70010024053
:101CA0006084000800127A0000093D002DE9F84325
:101CB00005460078354CC00754D0E0690026C000C6
:101CC00008D4E06940F08050E061E069012600F04E
:101CD000805000902E480168C90512D401688046E2
:101CE00041F480710160FFF7EBFE074605E000BF9D
:101CF000FFF7E6FEC01B642823D8D8F80000C00513
:101D0000F6D5206A10F4407021D0A98801F4407102
:101D100081421CD0206A1F49012220F440700A60D1
:101D200000220A602062C00711D0FFF7C9FE0746F3
:101D300041F2883808E000BFFFF7C2FEC11B4145F1
:101D400002D90320BDE8F883206A8007F4D5206A11
:101D5000696820F44070084320621EB1E06920F0F9
:101D60008050E0612878800705D56068A96820F474
:101D70004040084360602878C00605D56068E9687F
:101D800020F48000084360600020DBE70010024080
:101D900000700040400442422DE9F0470F46050024
:101DA00061D0434E306800F00700B84209D2306875
:101DB00020F0070038433060306800F00700B84278
:101DC00051D128683B4C810712D5400703D5606884
:101DD00040F4E06060602878000703D5606840F454
:101DE000605060606068A96820F0F000084360609F
:101DF0002878C00728D06868012810D021680228F8
:101E000010D0890700292EDA616821F0030101430F
:101E10006160FFF755FE804641F288390DE0216888
:101E20008903EFE78901EDE7FFF74AFEA0EB080120
:101E3000494502D90320BDE8F0876068696800F071
:101E40000C00B0EB810FEFD1306800F00700B84212
:101E50000BD9306820F0070038433060306800F05C
:101E60000700B84201D00120E5E72878400705D5F2
:101E70006068E96820F4E060084360602878000743
:101E800006D56068296920F4605040EAC1006060AE
:101E900000F038F86168084AC1F30311515CC8408A
:101EA0000649086006480068FFF72AFE0020C2E7DE
:101EB000002002400010024070840008380000201A
:101EC000300000200448054900684968044AC1F30D
:101ED0000221515CC84070473800002000100240C9
:101EE000808400080448054900684968044AC1F331
:101EF000C221515CC84070473800002000100240E9
:101F0000808400080E4A51680E4801F00C03042B2F
:101F100011D0082B0FD10C48C1F38343C903C05C17
:101F20000AD55168084AC1F34041921E515C054AE6
:101F30005043B0FBF1F0704704494843704700003C
:101F40000010024000127A004E84000800093D0093
:101F50002DE9F84F040070D02078C04DC00749D05B
:101F60006868C0F38100012807D06868C0F3810069
:101F7000022809D16868C00306D52868800339D5CE
:101F800060680028E7D035E06068B0F5803F0BD08E
:101F900010B1B0F5A02F11D0286820F4803028604F
:101FA000286820F4802002E0286840F4803028600F
:101FB000606890B1FFF784FD06460AE0286840F4A7
:101FC00080202860F0E700BFFFF77AFD801B6428BF
:101FD00073D828688003F7D50CE0FFF771FD06463B
:101FE00005E000BFFFF76CFD801B6428F0D828686F
:101FF0008003F7D420789A4E80074FF001094FF004
:10200000000839D5686810F00C0F07D06868C0F375
:102010008100022809D16868C00306D428688007B7
:1020200014D52069012808D110E02069B0B1C6F8A4
:102030000090FFF745FD074605E00AE1FFF740FD88
:10204000C01B0228C4D828688007F7D528686169B2
:1020500020F0F80040EAC10028600DE0C6F80080DA
:10206000FFF72EFD074604E0FFF72AFDC01B0228FC
:1020700023D828688007F7D4207800072CD5794822
:10208000A169D9B1C0F80090FFF71AFD074604E036
:10209000FFF716FDC01B02280FD8686A8007F7D526
:1020A00071484FF4FA510068B0FBF1F0009000BFA6
:1020B0000098411E0091FAD20EE080E0C0F8008046
:1020C000FFF7FEFC074604E0FFF7FAFCC01B0228FE
:1020D00075D8686A8007F7D42078400760D5E8692A
:1020E0000027C00008D4E86940F08050E861E86942
:1020F000012700F0805000905C480168C90513D4A6
:102100000168834641F480710160FFF7D9FC824683
:1021100006E000BFFFF7D4FCA0EB0A0064284ED80D
:10212000DBF80000C005F5D5E06801280AD008B149
:10213000052813D0286A20F001002862286A20F0C0
:10214000040002E0286A40F001002862E06841F2E1
:10215000883B98B1FFF7B4FC82460BE0286A40F058
:1021600004002862EEE700BFFFF7AAFCA0EB0A011B
:1021700059455AD8286A8007F6D50CE0FFF7A0FC2D
:10218000824605E0FFF79CFCA0EB0A0159454CD8BC
:10219000286A8007F6D41FB1E86920F08050E86112
:1021A000E06988B36968C1F38101022944D002283B
:1021B000C6F8608004D0FFF783FC044638E034E0C2
:1021C000FFF77EFC074604E0FFF77AFCC01B0228FD
:1021D0002BD828688001F7D4206AB0F5803F05D15C
:1021E0006868A16820F4003008436860D4E90801F9
:1021F0000843696821F4741108436860C6F8609068
:10220000FFF75EFC044606E025E000BFFFF758FC40
:10221000001B022809D828688001F7D51BE000BF01
:10222000FFF74EFC001B022802D90320BDE8F88FFF
:1022300028688001F4D40EE00128F7D06868226A8B
:1022400000F48031914204D1616A00F47010884238
:1022500001D00120EAE70020E8E70000001002407A
:1022600000004242800442423800002000700040DA
:1022700070B5040009D0606A002540B12561656130
:10228000A56294F8510040B10CE0012070BD606877
:10229000B0F5827FF4D0E561F2E784F85050204633
:1022A00000F040F8022084F851002068016821F015
:1022B00040010160A088218900F4827001F404418A
:1022C0000843A18901F400610843217C01F0020167
:1022D0000843217D01F001010843218B01F40071C5
:1022E0000843217F01F03801084394F8201001F0E1
:1022F00080010843218D01F40051084321680860E2
:10230000A069042101EA1040216848602068C16981
:1023100021F40061C1616565012084F8510000204D
:1023200070BD000030B585B0002400940194029483
:10233000039400681549884225D11548C16941F4C4
:102340008041C161C16901F480410491816941F01A
:102350000801816180690F4D00F0080004904FF47E
:1023600020400090022001900320039069462846F7
:10237000FFF7A4FA4FF48040CDE9000469462846EF
:102380000294FFF79BFA05B030BD00000038004012
:1023900000100240000C01402DE9FF4F81B01D46A6
:1023A000934604464FF001090E9EFFF789FB07464E
:1023B00094F851006168012806D0B1F5827F3CD1C4
:1023C000A168C9BB042838D10298002871D0BBF19C
:1023D000000FFBD0002DF9D094F8500001282CD02C
:1023E0004FF0010A84F850A094F85100042802D05C
:1023F000052084F851004FF00008C4F85480C4F858
:1024000038B0E587A58702992163E586A586C4F8DB
:102410004080C4F8448020680168490603D40168FC
:1024200041F040010160E068B0F5006F606808D0DD
:10243000F0B3012D49D081E0FFE7022005B0BDE8EF
:10244000F08F08B1012D39D1206B21680088C86058
:10245000206B801C2063E08E401EE0862EE020680A
:10246000816889070FD5E18E69B1B9F1010F0AD1F1
:10247000216B0988C160206B801C2063E08E401EA8
:10248000E0864FF0000920688168C9070CD0E18F11
:1024900051B1C068A16B0880A06B801CA063E08F65
:1024A000401EE0874FF00109FFF70AFBC01B01E067
:1024B0000BE067E0B04201D3701C50D1E08E0028E1
:1024C000CDD1E08F0028CAD13EE0206B2168007892
:1024D0000873206B401C2063E08E401EE0862DE0D8
:1024E0002068816889070FD5E18E69B1B9F1010FC4
:1024F0000AD1216B09780173206B401C2063E08EA8
:10250000401EE0864FF0000920688168C9070CD0A2
:10251000E18F51B1C068A16B0870A06B401CA06333
:10252000E08F401EE0874FF00109FFF7C9FAC01B9A
:10253000B04202D3701C01D011E086B1E08E0028B9
:10254000CED1E08F0028CBD13A463146204602F06A
:10255000F3F850B12020606584F8508012E084F8D0
:1025600051A084F85080032068E7A06818B920685B
:10257000C1688068009084F851A084F85080606D34
:102580000028F1D0012059E74FF0E0210428086924
:1025900003D020F004000861704740F00400FAE71F
:1025A00010B5401EB0F1807F01D3012010BD4FF067
:1025B000E02460610F21601702F073FF0020A0612A
:1025C00007202061002010BD70B590F83C20012A42
:1025D00026D0012480F83C40022280F83D20036888
:1025E0005A689D6822F070060A6832435A600D4BA3
:1025F00002689A4208D0B2F1804F05D00A4B9A4245
:1026000002D00A4B9A4204D1496825F0800319434D
:10261000916080F83D40002180F83C10084670BD74
:10262000022070BD002C0140000400400008004062
:1026300010B5040003D094F83D0010B107E001206C
:1026400010BD002084F83C00204600F01FF8022056
:1026500084F83D00211D206802F06EFB012084F803
:10266000460084F83E0084F83F0084F8400084F877
:10267000410084F8420084F8430084F8440084F860
:10268000450084F83D00002010BD000008B500683A
:102690000649884208D10648C16941F00201C1617A
:1026A000C06900F00200009008BD00000004004076
:1026B0000010024070B5044690F83C000025012847
:1026C00017D0012684F83C60022084F83D00206881
:1026D000826822F0770222F47F42826008685028E4
:1026E00038D00DDC20284FD005DC90B3102811D154
:1026F0004AE0022070BD302846D040280AD13BE095
:1027000060282FD070280DD0B0F5805F03D0B0F5D1
:10271000005F12D0012584F83D60002084F83C0061
:10272000284670BDCB68D1E90121206802F04DFB3D
:102730002068816841F0770109E0CB68D1E9012187
:10274000206802F042FB2068816841F4804181608A
:10275000E1E719E0CA684968206802F0EBFB502104
:10276000206806E0CA684968206802F0F4FB60212E
:10277000206802F034FBCEE7CA684968206802F09E
:10278000D9FB40212068F4E7226801461046F0E7B3
:1027900010B586B00021009101910291039100686B
:1027A0001349884221D11348816941F004018161B4
:1027B000816901F004010491816941F0080181619E
:1027C0008069022400F008000490C020CDE90004D4
:1027D000694609480394FFF771F80320CDE9000426
:1027E000694606480394FFF769F806B010BD00007B
:1027F000000400400010024000080140000C0140AD
:1028000070B5044690F83C0000260D4601280FD014
:10281000012084F83C006AB1042A1DD0082A2FD078
:102820000C2A3FD00126002084F83C00304670BDC1
:10283000022070BD206802F0DBFA2068816941F057
:10284000080181612068816921F0040181612068AB
:1028500081692A69114311E0206802F0F1FA2068C9
:10286000816941F4006181612068816921F480619E
:102870008161206881692A6941EA02218161D2E788
:10288000206802F009FB2068C16941F00801C161BC
:102890002068C16921F00401C1612068C1692A6909
:1028A000114311E0206802F023FB2068C16941F464
:1028B0000061C1612068C16921F48061C161206843
:1028C000C1692A6941EA0221C161ACE710B504007F
:1028D00003D094F83D0010B107E0012010BD0020A6
:1028E00084F83C00204600F01EF8022084F83D00E9
:1028F000211D206802F020FA012084F8460084F8A7
:102900003E0084F83F0084F8400084F8410084F8D9
:10291000420084F8430084F8440084F8450084F8B9
:102920003D00002010BD704710B50446022249B199
:1029300004290ED0082913D094F84100012816D09C
:10294000012010BD94F83E000128F9D184F83E2002
:102950000FE094F83F000128F2D184F83F2008E00E
:1029600094F840000128EBD184F8402001E084F87D
:1029700041200122206802F01BFA0F49206888429A
:1029800003D1426C42F4004242642068884208D07D
:10299000B0F1804F05D00949884202D008498842E9
:1029A00004D1816801F00701062903D0016841F0D4
:1029B00001010160002010BD002C01400004004016
:1029C0000008004070B5040004D094F841000025D0
:1029D00010B106E0012070BD84F84050204600F0A0
:1029E00023F8242084F841002068C16821F40051B4
:1029F000C160204602F0CAFB2068016921F49041C1
:102A000001612068416921F02A0141612068C168A3
:102A100041F40051C1606564202084F8410084F8CD
:102A200042006563002070BD30B585B0002400947D
:102A300001940294039400681449884224D11448F4
:102A4000816941F480418161816901F4804104918F
:102A5000816941F00401816180690E4D00F004003C
:102A600004904FF400700090022001900320039026
:102A700069462846FEF722FF2815CDE9000469467D
:102A800028460294FEF71AFF05B030BD0038014019
:102A900000100240000801402DE9F843044690F878
:102AA0004100984616460D46202802D00220BDE877
:102AB000F88385B17EB100206064212084F8410054
:102AC000FEF7FEFFA6848146E684A0682027B0F5C5
:102AD000805F02D003E00120E9E7206910B12E46B3
:102AE00000250EE000260CE08021204602F0AAFB23
:102AF000A8B9C6B116F8010B21684860E08C401EE9
:102B0000E084E08C4B464FF00002CDF800800028B6
:102B1000EAD14FF04001204602F094FB40B184F826
:102B200041700320C3E735F8020BC0F30800E3E768
:102B300084F841700020BAE7FEE7000070B5104D40
:102B40004FF40044002221462846FEF7B4FF01F06E
:102B5000EFFB002208210B48FEF7ADFF022003F037
:102B600059FF012221462846FEF7A5FF022003F067
:102B700051FF21462846BDE870400022FEF79BBF6A
:102B800000080140000C014003490120C1F8BC01CC
:102B90000249C1F88C0170470000214200802142A7
:102BA00070B5104D4FF40044002221462846FEF730
:102BB00082FF01F0BDFB012208210B48FEF77BFFDD
:102BC000022003F027FF012221462846FEF773FF6B
:102BD000022003F01FFF21462846BDE87040002276
:102BE000FEF769BF00080140000C01402DE9F047E5
:102BF0008046002401F080FB164FDFF85C90002532
:102C00004FF40046002231463846FEF754FF0220BA
:102C100003F000FF012231463846FEF74CFF600604
:102C2000040E08214846FEF739FF08B1641CE4B2DF
:102C3000012003F0EFFE6D1CEDB2082DE2D3B8F1D8
:102C4000000F02D0FFF77AFF01E0FFF7A9FF20464F
:102C5000BDE8F08700080140000C014070B5154642
:102C60000E46044600F0F8F8204600F089F800F01F
:102C700041F918B100F016F9012070BD304600F09E
:102C80007FF800F037F900F0E7F8641CE0B200F0DC
:102C900077F800F02FF90020FFF7A8FF287000F068
:102CA00001F9002070BD2DE9F0411F461546884608
:102CB0000646002400F0D0F8304600F061F800F03D
:102CC00019F920B100F0EEF80120BDE8F08140468E
:102CD00000F056F800F00EF900F0BEF8761CF0B2E5
:102CE00000F04EF800F006F96E1E09E0B44201D083
:102CF000012000E00020FFF779FF3855641CE4B2A2
:102D0000AC42F3D300F0CEF80020DEE72DE9F04727
:102D1000824618480024016821F47041016001686E
:102D200041F400410160144EDFF8509025462746DB
:102D30004FF00108C6F8BC71022003F06BFEC6F824
:102D4000BC816006040ED9F80C0108B1641CE4B221
:102D5000012003F05FFE6D1CEDB2082DEAD3BAF13D
:102D6000000F04D000F0DCFE2046BDE8F08700F044
:102D7000FBFEF9E7000C01400000214200802142E7
:102D80002DE9F041054601F0D3FA174F4FF4004604
:102D9000002231463846FEF78EFEDFF850800024D0
:102DA000280601D5012200E0002208214046FEF756
:102DB00082FE6806050E022003F02CFE0122314639
:102DC0003846FEF778FE022003F024FE002231464A
:102DD0003846FEF770FE022003F01CFE641CE4B2CD
:102DE000082CDDD3BDE8F08100080140000C014053
:102DF0002DE9F04706461548016821F4704101604D
:102E0000016841F440510160114D0027C5F8BC71C3
:102E1000DFF840803C464FF00109F109C8F88C11F9
:102E20007006060E022003F0F5FDC5F8BC910220E5
:102E300003F0F0FDC5F8BC71022003F0EBFD641C4B
:102E4000E4B2082CE9D3BDE8F0870000000C014093
:102E5000000021420080214270B501F069FA0F4C58
:102E6000012208212046FEF726FE01220C4ED50342
:102E700029463046FEF71FFE042003F0CBFD00225A
:102E800008212046FEF717FE042003F0C3FD294663
:102E90003046BDE870400022FEF70DBE000C014038
:102EA0000008014070B501F043FA104D4FF40044A2
:102EB000002221462846FEF7FEFD0D4E0022082185
:102EC0003046FEF7F8FD042003F0A4FD0122214660
:102ED0002846FEF7F0FD012208213046FEF7EBFD03
:102EE000BDE87040042003F095BD000000080140DB
:102EF000000C01402DE9F041002401F0FDF9154DD1
:102F0000012208212846FEF7D6FD012003F082FDAC
:102F10000122114FD60331463846FEF7CCFD012081
:102F200003F078FD08E0641CE4B2FA2C04D9FFF742
:102F3000B9FF0120BDE8F08108212846FEF7AEFD6B
:102F40000028F0D1002231463846FEF7B4FD0020BB
:102F5000F0E70000000C0140000801402DE9F041BD
:102F600013480024016821F470410160016841F4B4
:102F7000004101600F4D0126C5F88C61304603F019
:102F800049FD0D4FC7F8BC61012003F043FD08E087
:102F9000641CE4B2FA2C04D900F030FE0120BDE834
:102FA000F081D5F80C010028F2D1C7F8BC01F6E792
:102FB000000C0140008021420000214270B51546FE
:102FC0000E460446FFF748FF2046FFF7D9FEFFF7FD
:102FD00091FF50B93046FFF7D3FEFFF78BFF28462D
:102FE000FFF7CEFEFFF786FF18B1FFF75BFF01206A
:102FF00070BDFFF757FF002070BD00002DE9F04FB6
:10300000A3B015460C4606462422FE4909A8FDF742
:10301000F9F8D4E9009AA7683068009070680590C4
:10302000DFF8E483B0680490D8F8041044460E46F4
:103030003046FDF763F91B90A16830468B46FDF7DB
:103040005DF91790E16830460891FDF757F9169041
:10305000216930460C46FDF751F959461A90084649
:10306000FDF74CF9159058460899FDF747F9199066
:1030700021465846FDF742F9089918900846FDF791
:103080003DF9069021460898FDF738F9214612903F
:103090000846FDF733F9079051464846FDF72EF9EB
:1030A0003946FDF72BF910F0FF4F7CD03946084622
:1030B000FDF724F9064651460846FDF71FF9044678
:1030C00049460846FDF71AF92146FDF7BFF8314693
:1030D000FDF7BCF803F00AFD044601464846FDF73B
:1030E0000DF9029021465046FDF708F9039021465C
:1030F0003846FDF703F9834616991898FDF7F8F856
:103100000121FDF76BF92190074612991798FDF7F9
:103110009DF80121FDF762F91F90064615991B984D
:10312000FDF7E6F820900699FDF7E2F80799FDF71C
:103130008DF804461E9031465846FDF7DFF881466B
:1031400021460398FDF7DAF84946FDF7D1F88246A3
:1031500021460298FDF7D2F8044639465846FDF755
:10316000CDF82146FDF7C4F8814639460398FDF7AE
:10317000C5F8044631460298FDF7C0F82146FDF730
:10318000B7F81390A1495046FDF7B8F84446D8F86F
:103190001410FDF75BF8074660619C494846FDF74F
:1031A000ADF8A16900E081E1FDF750F88046A0612B
:1031B00096491398FDF7A2F8E169FDF747F806462E
:1031C000E0614FF07F515046FDF798F80099FDF708
:1031D0003DF83946FDF73AF883464FF07F514846AF
:1031E000FDF78CF80599FDF731F84146FDF72EF80B
:1031F00082464FF07F511398FDF780F80499FDF750
:1032000025F83146FDF722F88146014620690390F2
:10321000FDF774F88046E06851460290FDF76EF8BD
:10322000A768064687F000405946FDF767F8314623
:10323000FDF75EF84146FDF75BF87449FDF75EF86F
:103240006168FDF703F88046606051460398FDF71A
:1032500055F8139049460298FDF750F8064659462E
:103260004046FDF74BF83146FCF7F0FF1399FDF7A8
:103270003FF86649FDF742F83946FCF7E7FF074695
:10328000A06059460398FDF739F81390494638462F
:10329000FDF734F8064651464046FDF72FF8314613
:1032A000FDF726F81399FCF7D1FF5849FDF726F8EA
:1032B0000299FCF7CBFF06465946E060FDF71EF881
:1032C000834651463846FDF719F88246494640463E
:1032D000FDF714F85146FCF7B9FF5946FDF708F819
:1032E0004A49FDF70BF80399FCF7B0FF014620614E
:1032F000FDF704F8824631460846FCF7FFFF814699
:1033000039460846FCF7FAFF064641460846FCF7F0
:10331000F5FF3146FCF79AFF4946FCF797FF514607
:10332000FCF794FF03F0E2FB064601466068FCF7F9
:10333000E5FF60603146A068FCF7E0FFA060314621
:10334000E068FCF7DBFFE06031462069FCF7D6FF60
:10335000206115991B98FCF779FF0699FCF7C8FFC7
:103360000799FCF7C5FF04460990DDE91901FCF750
:103370006DFF0121FDF732F807460A9021980B9066
:10338000DDE91901FCF7B4FF0121FDF727F80C90E6
:1033900006992098FCF75AFF0799FCF7A9FF0D90B2
:1033A0001F980E9016991898FCF750FF0121FDF711
:1033B00015F80F9017991298FCF79AFF0121FDF765
:1033C0000DF810901E9811902046FDF70BFA044658
:1033D0000E463846FDF706FA2246334603F04CF80F
:1033E000DFF82C804FF0C04632464346FDF7A9F87F
:1033F000FDF70BFAA86001210698FCF7EFFF0446E1
:1034000008E0000088840008100300200AD7A33BCE
:1034100066A64CC04FF0404949461598FCF76EFF30
:103420002146FCF765FF4FF07E51FCF70FFFFDF7DB
:10343000D9F907460C4601211798FCF7CFFF8246C1
:1034400001211298FCF7CAFF5146FCF7FFFEFDF779
:10345000C9F93A46234603F00FF83246154BFDF7FB
:1034600070F8FDF7D2F9286001211698FCF7B6FF35
:10347000044649461898FCF741FF2146FCF7E6FE52
:10348000FDF7B0F902F0B0FD32464346FDF759F8BA
:10349000FDF7BBF96860084A002009A951F82030FF
:1034A00042F82030401CC0B20928F7D323B0BDE851
:1034B000F08F000066A64C40E42E002070B5FDF7AA
:1034C0009DFC13480025012601781248041F69B1AC
:1034D000C1688068FDF7B6F906D2A078411CA170DA
:1034E0000A2810D9A5700DE0A5700FE080680A4A7F
:1034F0000A49904208DA6078421C62700A2802D9B0
:103500000D706570267070BD0E706570257070BD91
:10351000F1020020A8000020CDCC6C4080020020E9
:103520007047000010B502E003A001F083FF00F037
:1035300002F90028F8D010BD0D4D50553630353009
:10354000206E6F20636F6E6E6563742E2E2E0D0AD3
:103550000000000010B5FFF7E5FF80216B2000F0B0
:10356000D8F8642003F048FA01216B2000F0D1F86C
:103570000021382000F0CDF818211B2000F0C9F8F8
:1035800008211C2000F0C5F804211A2000F0C1F821
:103590000021192000F0BDF80221BDE810403720BD
:1035A00000F0B7B8F0B5194C0025668876B96560AB
:1035B000A5600123E5606380158065F30F005580E9
:1035C00065F31F4065F30F0100239580676806B21D
:1035D0003E446660A76807EB204708B2A760E16831
:1035E000C01A0144E1606088C82803D0401C608094
:1035F0000020F0BD96FBF0F3138097FBF0F391FBF6
:10360000F0F05380908065800120F0BD9002002092
:103610001CB52F4801884ABA2E490B88D31A8A1D37
:10362000138043884C885BBA1B1B5380838889882E
:103630005BBA591A918001894ABA2649891F0B88B9
:10364000D31A01F11202138043894C885BBA1B1B09
:1036500053808089898840BA401AA2F12204908060
:103660002078C043C00717D1D4F822000090E18C25
:10367000ADF804100023123A0199FFF793FF58B1F7
:10368000207820F00100207000F0B0FBFDF72EFE46
:10369000207840F0020020702078C043800716D4C4
:1036A000E0690090218CADF8041042F20403094A4D
:1036B0000199FFF777FF002809D0207820F0020059
:1036C000207000F093FBBDE81C40FDF7BFBA1CBDA5
:1036D00018280020A60200200E21024A3B2000F0FC
:1036E0000DB80000182800200A4610B50146D02069
:1036F000FFF7B4FA002800D0012010BD13460A4697
:1037000010B50146D020FFF7CEFA002800D00120E6
:1037100010BD0A4610B50146D020FFF74FFC002827
:1037200000D0012010BD08B569467520FFF7DCFF09
:103730009DF8000008BD10B5FFF7F5FF682801D01F
:10374000002010BD012010BD3EB5002111480091A0
:1037500001910F4A02910260816001730175012499
:103760004FF460220461C2614160FDF771FE08B14F
:10377000FDF716FD02200094CDE901406946054899
:10378000FDF7E4FD002801D0FDF70AFD3EBD000075
:1037900000240140AC05002010B5CEB01C223C49ED
:1037A0006846FCF72FFD0021684603F0F3F9394C19
:1037B00037491C2220601C3107A8FCF723FD00219B
:1037C00007A803F0E7F9324960601C2238310EA8DF
:1037D000FCF718FD00210EA803F0DCF92C49A060CD
:1037E0001C22543115A8FCF70DFD002115A803F08B
:1037F000D1F92749E0601C2270311CA8FCF702FDBA
:1038000000211CA803F0C6F9214920611C228C313B
:1038100023A8FCF7F7FC002123A803F0BBF91C49FF
:1038200060611C22A8312AA8FCF7ECFC00212AA820
:1038300003F0B0F91649A0611C22C43131A8FCF78D
:10384000E1FC002131A803F0A5F91149E0611C2237
:10385000E03138A8FCF7D6FC002138A803F09AF92B
:103860000B4920621C22FC313FA8FCF7CBFC002155
:103870003FA803F08FF960621C22074946A8FCF7B5
:10388000C1FC002146A803F085F9A0624EB010BD2E
:103890001883000800000020308400082DE9F0475C
:1038A00086B000253E4800950195029503958169F3
:1038B00041F010018161816901F010010491816979
:1038C00041F020018161816901F020010491816949
:1038D00041F004018161816901F004010491816971
:1038E00041F00801816180692E4E00F008004FF41C
:1038F000C0440490012221463046FEF7DCF8DFF890
:10390000A8A0002241F258215046FEF7D4F8DFF873
:103910009C904FF40148002241464846FEF7CBF800
:10392000009401240327CDE90247694630460194FB
:10393000FDF7C4FF042000901D48CDE9010469464D
:103940005046FDF7BBFF41F2180002268DE87100DA
:1039500069465046FDF7B2FF01AACDF8008082E823
:10396000700069464846FDF7A9FF2020CDE9000513
:10397000694602945046FDF7A1FF4FF410708DE8A0
:10398000D10069465046FDF799FF00220521082025
:10399000FEF708F90820FEF7F7F806B0BDE8F08753
:1039A0000010024000100140000C014000080140DE
:1039B00000002110104810B50E4901604FF48271CB
:1039C000416000218160C1604FF400720161C0E973
:1039D00005121822C0E90721416281620A21C162F1
:1039E000FEF746FC002803D0BDE81040FDF7D8BB29
:1039F00010BD000000380040DC05002010B58EB07E
:103A000000240794089409940A940B941C21684696
:103A10000C94FCF710FC3348314901604FF43471C9
:103A2000C0E901144FF4FA61C0E9031480218161F7
:103A3000FEF7FEFD08B1FDF7B3FB4FF48050079091
:103A400007A92848FEF736FE08B1FDF7A9FB25486F
:103A5000FEF73CFF08B1FDF7A3FB0B940BA921482F
:103A60000C94FEF7B1FD08B1FDF79AFB6020CDE99B
:103A700000040294002269461A480494FEF7C0FE2E
:103A800008B1FDF78DFB042269461648FEF7B8FE23
:103A900008B1FDF785FB082269461248FEF7B0FE23
:103AA00008B1FDF77DFB0C2269460E48FEF7A8FE23
:103AB00008B1FDF775FB00210A48FEF735FF042128
:103AC0000848FEF731FF08210648FEF72DFF0C21BC
:103AD0000448FEF729FF0348FEF75AFE0EB010BD5A
:103AE00000040040340600200C4810B50A4901606B
:103AF0004FF4E1314160002181600C22C160C0E9D6
:103B000004128161C161FEF75DFF002803D0BDE8AA
:103B10001040FDF745BB10BD003801407C06002079
:103B200070B50E4C0025C4F8BC510D48016821F455
:103B300070410160016841F4405101600948C0F8DA
:103B40008C51022004F5DE7402F064FF0120206035
:103B5000022002F05FFF256070BD000000002142DE
:103B6000000C01400080214270B50E4C0025C4F8C5
:103B7000BC510D48016821F470410160016841F4B5
:103B80004051016009480126C0F88C61022004F50B
:103B9000DE7402F03FFF2660022002F03BFF25604A
:103BA00070BD000000002142000C01400080214255
:103BB00070B50F48016821F470410160016841F45B
:103BC000405101600B4C0120C4F88C010A4DC5F82E
:103BD000BC01042004F5C67405F5DE7502F01AFF79
:103BE00000262660042002F015FF2E6070BD000044
:103BF000000C0140008021420000214270B50F48B6
:103C0000016821F470410160016841F44051016094
:103C10000B4C0020C4F8BC010A4DC5F88C010420EF
:103C200004F5DE7405F5C67502F0F4FE012020608F
:103C30002860BDE87040042002F0ECBE000C01409A
:103C40000000214200802142FEE7000010B54FF441
:103C50007A74A04200DD2046A14200DD2146A24246
:103C600000DD2246A34200DD2346002800DA0020C2
:103C7000002900DA0021002A00DA0022002B00DAF5
:103C80000023044C2060201D0160001D0260001D07
:103C9000036010BD34040040FEE700002DE9F04150
:103CA00090460A46044641461046FCF721FBE06078
:103CB0000646A169FCF71CFB054660613146206899
:103CC000FCF71CFB0746A06294F83800FCF73AFDAD
:103CD0006168FCF713FB2169FCF710FB0646E06204
:103CE0002946A068FCF70AFB0546206331463846A2
:103CF000FCF7ACFA2946FCF7A9FA60631B480025DB
:103D0000007801282DD11A48B0F90400B42828DB26
:103D10004046216AFCF7A0FD06D3206A414680F0A8
:103D20000040FCF799FD02D284F838501AE00120D7
:103D300084F83800D4E90310FCF788FA2061616A3E
:103D4000FCF78AFD01D2606A2061606A216980F017
:103D50000040FCF781FD05D2606A80F000402061E0
:103D600000E02561E068A061BDE8F081F10200207B
:103D70000803002010B53E220F49104800F052FD04
:103D800001F0FCF80C484FF6FF71428A8A420CD1D0
:103D900082898A4209D1008B884206D1FDF7B2F9A7
:103DA000BDE8104006A001F045BB0BA001F042FBAE
:103DB000BDE81040FDF7A6B9882C002000F80008E7
:103DC000466C6173682052656164204572726F723F
:103DD0002121210D0A000000466C617368205265A4
:103DE0006164204F4B2121210D0A000010B500F025
:103DF00035F8BDE810403E220149024800F020BDE0
:103E0000882C002000F8000810B501224021044849
:103E1000FDF751FEBDE81040C820FDF7D1BC000001
:103E2000000C014010B50C4C20212046FDF736FE59
:103E300000280FD13220FDF7C3FC20212046FDF7DA
:103E40002DFE0028F9D020460022BDE81040402178
:103E5000FDF731BE10BD0000000C014070B5624896
:103E6000624C644D01882180418861808088A080F7
:103E70005F48614E0188E1804188218180886081AE
:103E800031462868FCF73AFAFCF798FCA0813146E5
:103E90006868FCF733FAFCF791FCE0813146A868CA
:103EA000FCF72CFAFCF78AFC544D20823146286836
:103EB000FCF724FAFCF782FC608231466868FCF764
:103EC0001DFAFCF77BFCA0823146A868FCF716FAC5
:103ED000FCF774FC4A4DE08231462868FCF70EFA84
:103EE000FCF76CFC208331466868FCF707FAFCF7A6
:103EF00065FC60833146A868FCF700FAFCF75EFCBD
:103F0000404DA08331462868FCF7F8F9FCF756FCD1
:103F1000E08331466868FCF7F1F9FCF74FFC208438
:103F20003146A868FCF7EAF9FCF748FC364D608496
:103F300031462868FCF7E2F9FCF740FCA0843146E2
:103F40006868FCF7DBF9FCF739FCE0843146A868C7
:103F5000FCF7D4F9FCF732FC2C4D2085314628685B
:103F6000FCF7CCF9FCF72AFC608531466868FCF761
:103F7000C5F9FCF723FCA0853146A868FCF7BEF91B
:103F8000FCF71CFC224DE08531462868FCF7B6F9A9
:103F9000FCF714FC208631466868FCF7AFF9FCF7A3
:103FA0000DFC60863146A868FCF7A8F9FCF706FC12
:103FB000184DA08631462868FCF7A0F9FCF7FEFBF7
:103FC000E08631466868FCF799F9FCF7F7FB208733
:103FD0003146A868FCF792F9FCF7F0FB60870E48C1
:103FE0000078A08770BD0000A6020020882C002069
:103FF000A0020020C82C002000007A44042D0020DC
:10400000402D00207C2D0020B82D0020F42D002014
:10401000302E00206C2E00208102002030B5174980
:104020000020184B81F83800154A174DC1E90823C4
:10403000174985F83800154CC5E90841154D85F834
:104040003800C5E90823144D85F83800C5E9084152
:10405000124D85F83800C5E90823114A82F8380066
:10406000C2E908410F4A82F83800106250620E4AD5
:1040700082F838000D48C2E9080130BD7C2D0020CF
:104080000000164300009644C82C002000000C429B
:1040900000004843B82D0020042D0020F42D0020FE
:1040A000402D0020302E00206C2E00200000C84241
:1040B0002DE9FC5FFFF710FBFFF7AAFA0C22454938
:1040C000454800F0BDFC434C444D29462068FCF7B0
:1040D00015F9434E3146FCF711F983462060294615
:1040E0006068FCF70BF93146FCF708F96060019055
:1040F0002946A068FCF702F93146FCF7FFF8394D74
:10410000A0600090B5F90000FCF713FB364F39466C
:10411000FCF7F4F8A4F10C063060B5F90200FCF7E6
:1041200008FB3946FCF7EAF87060B5F90400FCF7C3
:1041300000FB3946FCF7E2F8DFF8B080B06098F891
:10414000010088B304F10C05DFF8A4902868494603
:10415000FCF7D4F8DFF89CA0064651465846FCF719
:10416000CDF83146FCF772F807462060494668688A
:10417000FCF7C4F8064651460198FCF7BFF83146F3
:10418000FCF764F8064660604946A868FCF7B6F894
:10419000814651460098FCF7B1F84946FCF756F8BD
:1041A000A0602F60C5E901600A482168183011F04D
:1041B000FF4F016062684260A368836008D012F01C
:1041C000FF4F05D013F0FF4F02D0012188F80010F7
:1041D000BDE8FC9FC02E0020AC02002040DAFF3872
:1041E0000AE81C41B202002045798B3A10030020F6
:1041F000CDCCCC3D6666663F2DE9F04114460D46B8
:104200000646A1420DDAFDF733F8FCF7BEFA074681
:10421000421E29463046FFF7EFFF2246791C304602
:10422000ECE7BDE8F08110B500240021FF2208462C
:1042300001F0C0F8641CE4B2042CF6D310BD10B534
:10424000002400221146104601F0B4F8641CE4B2C8
:10425000042CF6D310BD10B500240022FF21104617
:1042600001F0A8F8641CE4B2042CF6D310BD10B51C
:10427000002400221146FF2001F09CF8641CE4B2E7
:10428000042CF6D310BD000070B505465FF00004A5
:1042900005FA04F0C00702D001F052F801E001F085
:1042A00019F8641CE4B2082CF2D370BD10B50F49A4
:1042B0000F4C01200870E07AA52815D12078C1079D
:1042C00009D00C486188C180A1888180E188018083
:1042D0002189418004E0000702D56078FCF7B0FD39
:1042E0000449A07A091F887010BD0000F002002068
:1042F000F82700200803002000B585B000200190B9
:1043000002900948816941F008018161806969462C
:1043100000F0080004900820009003200390034858
:10432000FDF7CCFA05B000BD00100240000C0140C2
:1043300000B585B0002002900A48816941F008016B
:1043400081618069694600F00800049008200090AF
:1043500001200190032003900348FDF7AFFA05B058
:1043600000BD000000100240000C014010B502E04A
:1043700003A001F05FF800F06BF90028F8D010BD41
:104380000D20534932345231206E6F20636F6E6EB0
:104390006563742E2E2E0D0A0000000070B51F4DAF
:1043A0004FF48074002221462846FDF784FB032148
:1043B000232000F071F905221949302000F008F996
:1043C000052217492A2000F003F91A21242000F0C1
:1043D00063F90121222000F05FF90121212000F082
:1043E0005BF92021312000F057F90D490522491DC4
:1043F0002A2000F0EDF81E21252000F04DF927219C
:10440000262000F049F90F2000F064F921462846E3
:10441000BDE870400122FDF74EBB000000080140DE
:104420008402002010B5114C2078322810D94FF0AA
:10443000E0208069FBF7DEFEFBF7D2FE322190FB25
:10444000F1F201FB12002070BDE81040FFF7CEBC76
:104450000649C91C0A79824206D00871491D0871B3
:10446000BDE81040FFF79ABF10BD00008102002098
:1044700010B5FFF77BFF012211030548FDF71BFB79
:10448000BDE8104000224FF480710248FDF713BBD5
:10449000000C0140000801402DE9F047DFF8409092
:1044A00016460D4604464FF48058002241464846C1
:1044B000FDF701FB204603F001FC0746002405E060
:1044C000FF2003F0FBFB05F8010B641CB442F7DB93
:1044D000012241464846FDF7EEFA3846BDE8F0872E
:1044E000000C014070B50C4E04464FF4807500225C
:1044F00029463046FDF7DFFA202221466120FFF7EA
:10450000CBFFFF21E22000F0C7F829463046BDE886
:1045100070400122FDF7CFBA000801400F4810B5E6
:104520000078002818D00E480E4C007890B1A07882
:104530006178884202D100F0BFFE0BE00A480078A3
:1045400040B94FF480410948FDF7ADFA4FF4FA70D5
:10455000FDF736F9A078607010BD0000F002002071
:10456000F102002004030020A400002000100140FC
:1045700070B5154E04464FF480750022294630462A
:10458000FDF799FA05221149302000F021F80522A3
:104590000E492A2000F01CF820222146A02000F01D
:1045A00017F80E21202000F077F87E21272000F058
:1045B00073F8012229463046FDF77DFABDE87040C8
:1045C0000A2002F027BA00000008014084020020FF
:1045D0002DE9F047DFF8409016460D4604464FF4AB
:1045E0008058002241464846FDF765FA204603F010
:1045F00065FB0746002404E0287803F05FFB641C99
:104600006D1CB442F8DB012241464846FDF753FADF
:104610003846BDE8F0870000000C014070B50B4E35
:1046200004464FF48055002229463046FDF743FAF0
:10463000204603F043FBFF2003F040FB0446012229
:1046400029463046FDF737FA204670BD000C014080
:104650001CB50FA10522D1E90001CDE90001694691
:104660003020FFF7B5FF052269461020FFF714FF41
:10467000002069460A5CA52A03D1401CC0B2052867
:10468000F8D3052801D000201CBD01201CBD00006E
:10469000A5A5A5A5A50000002DE9F0410C4E0F46EB
:1046A00004464FF48055002229463046FDF703FAB0
:1046B000204603F003FB0446384603F0FFFA0122CC
:1046C00029463046FDF7F7F92046BDE8F0810000A5
:1046D000000C014070B5174D4FF480740E284FF058
:1046E00000022146284613D0FDF7E5F90F212020CE
:1046F000FFF7D2FF7E212720FFF7CEFF01222146C0
:104700002846FDF7D8F9BDE87040C82002F082B90C
:10471000FDF7D1F90E212020FFF7BEFF7E212720D3
:10472000FFF7BAFF21462846BDE870400122FDF799
:10473000C2B9000000080140F8B515460E460B4608
:10474000009204460122022100F010F840B93346DD
:10475000002280212046009500F008F8002804D0AF
:10476000606D40F0200060650320F8BD2DE9F8433E
:104770001E46914688460446089DFDF7A1F9401B58
:10478000351AFDF79DF9074625480068C0F3CB3080
:10479000684338E0701C37D0FDF792F9C01BA8427F
:1047A00003D215B1009860B32CE02068416821F075
:1047B000E00141606068B0F5827F0BD1A068B0F580
:1047C000004F02D0B0F5806F04D12068016821F05D
:1047D00040010160A06AB0F5005F09D1206801685E
:1047E00021F4005101602068016841F4005101602A
:1047F000012084F85100002084F850000320BDE817
:10480000F8830025401E00902068816838EA010086
:1048100004D000214945BDD10020F0E70121F9E78E
:104820003800002010B5002306E000BF30F8024B2E
:1048300021F813405B1C9BB29342F7D310BD0000DC
:104840002DE9F05FA0F1006415468A468346B4F571
:10485000803F5FD2FDF710F8A70AC4F34806C6F5FB
:104860000074A54200D82C46DFF8AC904FF00060F1
:1048700000EB872080464FF400722749FFF7D2FFF4
:1048800000204FF6FF7106E0331839F813208A42F2
:1048900003D1401C80B2A042F6D3A0422ED24046A3
:1048A000FCF712FD4CF25030FCF7B8FC1B480169D4
:1048B00021F0020101610020494606E03AF810208B
:1048C0008319401C21F8132080B2A042F6D312496C
:1048D00040464FF4007200BF00F022F8A54215D008
:1048E000281B0AEB440A0BEB440B002685B24FF45D
:1048F00000747F1CA542B9D82C46B7E74CF2503063
:10490000FCF78CFC224651465846E5E7BDE8F05FCF
:10491000FCF768BFBDE8F09F482800200020024057
:104920002DE9F04116460F46054600240AE000BF77
:1049300037F81420002329460120FCF75DFF641C92
:10494000A4B2AD1CB442F3D3BDE8F081F8B534484D
:1049500002783448017812B141F0100101E021F0F1
:104960001001314C0170FF212170007860702F48D8
:104970002F4D304E8088ADF800009DF80100A070EA
:104980009DF80000E0703146A868FBF7B7FCFBF724
:10499000FCFEADF800009DF8010020719DF80000BC
:1049A000607131466868FBF7A9FCFBF7EEFEADF8D5
:1049B00000009DF80100A0719DF80000E0713146F3
:1049C0002868FBF79BFCFBF7E0FEADF800009DF8C4
:1049D000010020729DF80000607217483146C069DE
:1049E000FBF78CFCFBF7D1FEADF800009DF8010051
:1049F000A0729DF80000E072104831468068FBF715
:104A00007DFCFBF7C2FEADF800009DF801002073AD
:104A10009DF8000060732046BDE8F840FFF7A8BD90
:104A2000F102002090020020D82700200803002077
:104A3000A82E00200000C842482C0020A80000201A
:104A40002DE9FE4F07460020029001900090144689
:104A50000E46B7F90000FBF76CFEDFF8E080DFF8E8
:104A6000D8A098F804504AF82500B7F90200FBF7DF
:104A700060FE0AF1500949F82500B7F90400FBF778
:104A800058FE09F1500747F825006D1CE8B288F878
:104A90000400A04203D298F80500002849D14FF045
:104AA000000B88F805B0621E59462348FFF7A4FBA7
:104AB0002148621E00215030FFF79EFB1E48621EF7
:104AC0000021A030FFF798FBCA460125B946671EB2
:104AD00014E0194850F825100298FBF7B7FB029034
:104AE0005AF825100198FBF7B1FB019059F82510F1
:104AF0000098FBF7ABFB6D1CEDB20090BD42E8DB0C
:104B000098F80410A14201D388F804B0A01EFBF766
:104B100010FE044621460298FBF722FC3060214635
:104B20000198FBF71DFC706021460098FBF718FC0C
:104B3000B060BDE8FE8F0000A82F002030030020E9
:104B4000FFF7B6FA0A2002F019F8F9E7022002F09E
:104B500015F8FBE71FB54FF4FA74650002AB03AA22
:104B6000694601A801F056FD204602F007F80198B9
:104B7000FBF738FE02460B460EA000F05BFC6420FB
:104B800001F0FCFF0098FBF72DFE02460B460EA03D
:104B900000F050FC642001F0F1FF0298FBF722FEC8
:104BA00002460B460DA000F045FC284601F0E6FF4A
:104BB000D4E70000626D703238305F7072657373D5
:104BC0003A25660D0A000000626D703238305F745D
:104BD000656D70203A25660D0A000000626D703226
:104BE00038305F68696768203A25660D0A0D0A004B
:104BF000054C064A064923780648FCF785F90A2041
:104C000001F0BCFFF5E70000F102002008030020DE
:104C1000B42E0020A82E0020044A05490548FEF7BE
:104C2000EDF90A2001F0AAFFF6E70000A82E002007
:104C3000C02E0020B42E0020064D4FF400544FF437
:104C4000FA7621462846FCF72EFF304601F096FF03
:104C5000F7E70000001001404FF49674FCF7BAF833
:104C6000FEF72CFC204601F089FFF7E7FFF7DAF8A2
:104C7000142001F083FFF9E74FF4C874FFF7D2FB6B
:104C8000204601F07BFFF9E7FFF748FCC82001F060
:104C900075FFF9E74FF49674FFF758FE204601F0D0
:104CA0006DFFF9E710B5FCF711FF03F05FFA01287B
:104CB00003D0BDE8104003F0EBB910BD30B593B0A0
:104CC00028216846FBF7B7FA14210AA8FBF7B3FAC4
:104CD000002501200F9510951195010412958DE87E
:104CE000230004904FF4E010CDE90810022407944B
:104CF0006846FDF72DF908B172B6FEE70AA90F2044
:104D000081E831004FF48060CDE90D0502210AA849
:104D1000FDF742F808B172B6FEE74FF4004011907B
:104D20000F940FA8FCF7C2FF002801D072B6FEE76F
:104D300013B030BD70470000F0B50268194B1A4C33
:104D40001A4D4FF08047984205D0B84203D0A04298
:104D500001D0A84203D122F070064A68324398423B
:104D600005D0B84203D0A04201D0A84203D122F41A
:104D70004074CA6822434C6922F0800222430260D8
:104D80008A68C2620A688262984201D10969016335
:104D9000012141610169C90703D0016921F00101C5
:104DA0000161F0BD002C01400004004000080040FB
:104DB00010B501F01F030121046A99408C4304627D
:104DC000016A9A401143016210BD10B5846842EA3D
:104DD000032224F47F440A432243826010BD826888
:104DE00022F070020A4342F0070181607047000020
:104DF00030B5036A026A22F00102026242688469E5
:104E000024F073050C682C4323F002058B682B43B8
:104E10000A4DA8420BD123F00805CB6822F440725A
:104E20002B434D6923F0040315438A692A434260EA
:104E3000846149684163036230BD0000002C014079
:104E400030B5026A036A23F0100303624368846981
:104E50000D6824F4E64444EA05248D6822F020021B
:104E600042EA05120B4DA8420ED1CD6822F0800215
:104E700042EA05124D6923F4406343EA85038D69D4
:104E800022F0400243EA85034360846149688163FC
:104E9000026230BD002C014030B5036A026A22F480
:104EA000807202624268C46923F4007324F07305BF
:104EB0000C682C438D6843EA05230C4DA8420ED1A3
:104EC000CD6823F4006343EA05234D6922F4405280
:104ED00042EA05128D6923F4806342EA05124260BA
:104EE000C4614968C163036230BD0000002C014009
:104EF00030B5046A026A22F4805202624268C369D1
:104F00000D6823F4E64343EA05238D6824F4005436
:104F100044EA0534064DA84204D14D6922F480428A
:104F200042EA85124260C36149680164046230BD8F
:104F3000002C014010B5036A046A24F001040462E5
:104F4000846924F0F00444EA021423F00A020A43BC
:104F50008461026210BD10B5036A046A24F0100473
:104F60000462846923F0A00324F4704444EA02320A
:104F700043EA01118261016210BD000070B5624C0C
:104F800062482188018061884180A18881806048D1
:104F9000E18801802189418061898180A089FBF7B6
:104FA000D1FB5C4E3146FBF7DBF95B4D2860E089B5
:104FB000FBF7C8FB3146FBF7D3F96860208AFBF7A3
:104FC000C1FB3146FBF7CCF9A860608AFBF7BAFB5E
:104FD0003146FBF7C5F9514D2860A08AFBF7B2FBBB
:104FE0003146FBF7BDF96860E08AFBF7ABFB314661
:104FF000FBF7B6F9A860208BFBF7A4FB3146FBF763
:10500000AFF9474D2860608BFBF79CFB3146FBF7FF
:10501000A7F96860A08BFBF795FB3146FBF7A0F979
:10502000A860E08BFBF78EFB3146FBF799F93D4D0D
:105030002860208CFBF786FB3146FBF791F968600E
:10504000608CFBF77FFB3146FBF78AF9A860A08CE8
:10505000FBF778FB3146FBF783F9334D2860E08C92
:10506000FBF770FB3146FBF77BF96860208DFBF79F
:1050700069FB3146FBF774F9A860608DFBF762FBB2
:105080003146FBF76DF9294D2860A08DFBF75AFBDF
:105090003146FBF765F96860E08DFBF753FB31465D
:1050A000FBF75EF9A860208EFBF74CFB3146FBF75F
:1050B00057F91F4D2860608EFBF744FB3146FBF724
:1050C0004FF96860A08EFBF73DFB3146FBF748F9CE
:1050D000A860E08EFBF736FB3146FBF741F9154D32
:1050E0002860208FFBF72EFB3146FBF739F968600B
:1050F000608FFBF727FB3146FBF732F90E49A860BA
:1051000094F83C00087070BD882C0020A602002096
:10511000A002002000007A44C82C0020042D0020AA
:10512000402D00207C2D0020B82D0020F42D0020E3
:10513000302E00206C2E00208102002001680C31EE
:1051400051E8002F22F4907241E80023002BF5D1A2
:105150000168143151E8002F22F0010241E80023D8
:10516000002BF5D1016B012909D101680C3151E8FF
:10517000002F22F0100241E80023002BF5D120215E
:1051800080F84210002101637047000070B50446AA
:1051900000680169E26821F440511143016121690D
:1051A000A0680843616908432168CA6841F20C633A
:1051B0009A430243CA6020684169A26921F44071A0
:1051C000114341611E492068884202D1FCF78AFEE2
:1051D00001E0FCF777FE00EBC00101EB0012606814
:1051E00064218000B2FBF0F3B3FBF1F36FF018061B
:1051F0007343B2FBF0F5B2FBF0F605EB8305322307
:1052000003EB0515B5FBF1F5B6FBF1F605F0F0057E
:1052100005EB0615B2FBF0F6B2FBF0F0B0FBF1F0D7
:105220006FF01802504306EB800003EB0010B0FB58
:10523000F1F0216800F00F002844886070BD000084
:10524000003801402DE9F843984617460D460446BC
:10525000089E24E0701C22D0FCF732FCA0EB080072
:10526000B0421AD8CEB12068C168490717D5802D41
:1052700015D0402D13D00168C94309070FD4016828
:105280000025406800902046FFF758FF0820606422
:1052900084F840500120BDE8F8830320FBE7206834
:1052A000006835EA000004D00020B842D2D00020C7
:1052B000F1E70120F9E7000004488188891F09B25D
:1052C0008180962901DC96218180704708030020A7
:1052D000FEE7000070B50122184D54022146284611
:1052E000FCF7E9FB00BF00BF00BF00BF00BF00BF6D
:1052F000002221462846FCF7DEFB00BF00BF00BFAE
:1053000000BF00BF00BF00BF00BF00BF00BF00BFA5
:1053100000BF00BF00BF00BF00BF00BF00BF00BF95
:1053200000BF00BF00BF00BF00BF00BF00BF00BF85
:1053300000BF00BF00BF00BF00BF70BD000C014038
:1053400070B501221A4D540221462846FCF7B3FBE2
:1053500000BF00BF00BF00BF00BF00BF00BF00BF55
:1053600000BF00BF00BF00BF00BF00BF00BF00BF45
:1053700000BF00BF00BF00BF00BF00BF00BF00BF35
:1053800000BF00BF00BF00BF00BF00BF00BF00BF25
:10539000002221462846FCF78EFB00BF00BF00BF5D
:1053A00000BF00BF00BF00BF00BF00BF00BF70BD97
:1053B000000C014070B514460D46FEF765FF284607
:1053C000FEF762FF2046BDE87040FEF75DBF0000BB
:1053D0002DE9F04704468868154920F00040FAF7A7
:1053E0008DFF054601F040FA8146284602F0A2FBF7
:1053F000D4E90076804601463046FAF77FFF05463D
:1054000049463846FAF77AFF2946FAF71FFF206027
:1054100041463846FAF772FF054649463046FAF7E4
:105420006DFF2946FAF764FF6060BDE8F087000071
:1054300039FA8E3C0FB4054B10B503A9044A029803
:1054400000F04EFA10BC5DF814FB0000496A000839
:1054500044030020490050EAC12018BF04204A0D2F
:1054600018BF40F0010040F2FF72B2EB515F08BF7D
:1054700040F00200012808BF0520704741000802E3
:1054800018BF04200A0E18BF40F001004FF07F4201
:1054900032EA010108BF40F00200012808BF0520E0
:1054A00070470907090E002804DB00F1E02080F8AE
:1054B0000014704700F00F0000F1E02080F8141D88
:1054C00070472DE9F0414F1E00EBC7010446D1E9BA
:1054D000000115461E4637F006020DD02A46334617
:1054E000FBF72FF87F1E04EBC703D3E90023FAF77D
:1054F00081FF37F00602F1D1022F25D0042F13D0FF
:10550000062F18BFBDE8F0812A463346FBF719F88D
:10551000D4E90A23FAF76EFF2A463346FBF711F85F
:10552000D4E90823FAF766FF2A463346FBF709F861
:10553000D4E90623FAF75EFF2A463346FBF701F863
:10554000D4E90423FAF756FF2A463346FAF7F9FF5F
:10555000D4E90223FAF74EFF2A463346FAF7F1FF61
:10556000D4E90023BDE8F041FAF744BF0022134616
:1055700010460149FBF757B80000F03F0122FBF746
:10558000C1B8FAF737BF0022134610461146FBF7A1
:105590004AB840F2013200204FF0E041FBF7B2B8C8
:1055A000024A00201107FBF7ADB8000001FDFFFF24
:1055B0000121FAF713BF00210846FAF7D1BE6FF0B8
:1055C0005E010807FAF70ABF2DE9F04D0D461446B3
:1055D0004FF07F41B1EB440F9EBF4FF0FF31296088
:1055E000BDE8F08D4FF0004040EA0421C4F3C750FD
:1055F000783810F01F024A4B4FEA601CC2F12006B7
:105600007B44C4F3C750A0F178004FEA601003EB6D
:10561000800053F82C3008BFD0E901C612D0D0F872
:1056200004C093402CFA06F73B4387680CFA02FC4F
:1056300027FA06F8C06807FA02F2F0404CEA080CB4
:1056400042EA0006A3FB0132ACFB01C0A6FB0161EC
:1056500001EB0C068E4234BF4FF0010C4FF0000CF2
:10566000C1186144BCF1000F02D0814202D903E0AD
:10567000814201D2012000E00020104400F120020C
:105680004FEA92188006CA0C40EA42304F03C5F830
:105690000080FBF74EF882463846FBF753F86FF070
:1056A0001201FAF79BFE07463046FBF74BF86FF006
:1056B0002501FAF793FE834639465046FAF7C6FDB0
:1056C0005946FAF7C3FD00F500666FF30B06514625
:1056D0003046FAF70DFE3946FAF70AFE5946FAF750
:1056E0000AFE1049FAF70AFE07460F493046FAF754
:1056F00005FE3946FAF7AAFD07460C493046FAF787
:10570000FDFD3946FAF7A2FD14F0004F08BFBDE8D1
:10571000F08DC8F1805180F000402960BDE8F08D27
:1057200024300000DB0FC92F22AAFD290000C92F59
:1057300002E008C8121F08C1002AFAD1704770475A
:10574000002001E001C1121F002AFBD170470000B8
:105750000149086070470000480300202DE9FF5F01
:1057600082B00021DDE90430020DDDF840B00343D2
:1057700018D044F61050A2F2FF324243151411988B
:1057800001281FD0A5EB0B00401C5FEA000A4FF078
:1057900000064E4FDFF83891B046504615D5CAF195
:1057A000000413E0119801244AA3012801D16FEAF3
:1057B0000B010298119AC0E90031C0E9024206B01B
:1057C000BDE8F09FCBF10000DFE704460021404A2E
:1057D000491842EB0450CDE9001012E0E00707D071
:1057E00032463B4640464946FAF7ABFE804689467C
:1057F00032463B4610461946FAF7A3FE06460F46C8
:105800006410002CEAD1DDE90401DDE90023BAF1DE
:10581000000F06DAFAF795FE42464B46FAF791FE7C
:1058200005E0FAF700FF42464B46FAF7FCFE044655
:105830000E460022284BFBF763F903D84FF0FF30E8
:10584000014607E00022254B20463146FAF7D2FDFB
:10585000FBF726F9102409E0002C0ADB0A220023BA
:10586000FBF71AF8039B30321A55641E50EA010206
:10587000F2D1641C039AC4F111031444119A012A51
:1058800003D0012208430DD10AE0084304D00020D0
:105890004FF0110B119072E7A3EB0B056D1E0DE09D
:1058A0005B4504DD4FF0000205F1010504E003DA79
:1058B0004FF00002A5F10105002AECD002981199E1
:1058C000C0E90231C0E9004579E70000000014405A
:1058D0000000F03F300000000000F0430000E03F17
:1058E0002DE9FF4F95B09A46884606460025EEE121
:1058F000252877D100242746F94A0121039400E0A6
:10590000044316F8013F203B01FA03F01042F7D19F
:1059100030782A2811D06FF02F033078A0F13002B0
:10592000092A16D8039A44F0020402EB820203EB20
:1059300042021044761C0390EFE758F8042B0392C0
:10594000002A03DA504244F40054039044F0020465
:10595000761C30782E2816D116F8010F44F0040476
:105960002A280DD06FF02F023078A0F13003092BD8
:1059700009D807EB870302EB4303C718761CF3E74C
:1059800058F8047B761C30786C280FD006DC4C2845
:1059900017D068280DD06A2814D104E0742810D0DC
:1059A0007A280FD10DE044F400140AE044F4801486
:1059B00001E044F440147278824202D104F580146C
:1059C000761C761C307866280BD013DC582877D0EC
:1059D00009DC002875D04528F6D04628F4D04728A1
:1059E0001AD193E118E0632835D0642879D065286E
:1059F00012D18BE1702873D008DC6728F1D06928B8
:105A00006FD06E280DD06F2806D1ACE073282CD053
:105A1000752874D0782853D05246179990476D1C3A
:105A200054E1C4F30250022809D003280DD0D8F85D
:105A3000001004280DD00D6008F1040846E1D8F8E4
:105A40000010EA17C1E90052F6E7D8F800100D80FF
:105A5000F2E70D70F0E718F8041B8DF80010002035
:105A60008DF80100EB46012003E058F804BB4FF02D
:105A7000FF3061074FF0000102D40DE009F1010190
:105A80008946B9420FDA8145F8DB1BF80910002975
:105A9000F4D108E009F1010189468142FADB1BF8E3
:105AA00009100029F6D103985346A0EB09072146B7
:105AB0003846179A00F080FA284400EB090507E001
:105AC00044E008E10DE01BF8010B5246179990479E
:105AD000B9F10109F7D2534621463846179AF2E048
