:020000040800F2
:10000000A81F00209D01000837200008711B000870
:10001000352000089B0300088D290008000000001F
:1000200000000000000000000000000005010008C2
:100030009D03000800000000490100085D2400083D
:10004000B7010008B7010008B7010008B7010008B0
:10005000B7010008B7010008B7010008B7010008A0
:10006000B7010008B7010008B7010008B701000890
:10007000B7010008B7010008B7010008B701000880
:10008000B7010008B7010008B7010008B701000870
:10009000B7010008B7010008B7010008B701000860
:1000A000B7010008B7010008B7010008B701000850
:1000B000B7010008B7010008B7010008B701000840
:1000C000B7010008B7010008B7010008B701000830
:1000D000B701000881290008B7010008B70100082E
:1000E000B7010008B7010008B7010008DFF810D019
:1000F00000F0F6F800480047BD2C0008AFF3008080
:10010000A81F0020224B19680868B0E8F00F80F3A0
:100110000988BFF36F8F4FF0000080F311884EF015
:100120000D0E70470000000006480068006880F36C
:10013000088862B661B6BFF34F8FBFF36F8F00DFE1
:1001400000BF00BF08ED00E0EFF30980BFF36F8F41
:100150000F4B1A6820E9F00F106008B54FF05000FF
:1001600080F31188BFF34F8FBFF36F8F03F050F907
:100170004FF0000080F31188BDE808401968086856
:10018000B0E8F00F80F30988BFF36F8F704700BFAE
:1001900028000020EFF305807047000006488047E4
:1001A00006480047FEE7FEE7FEE7FEE7FEE7FEE75C
:1001B000FEE7FEE7FEE7FEE7ED240008ED0000089D
:1001C000202A04DB203A21FA02F00021704721FAAC
:1001D00002F3D040C2F12002914008431946704713
:1001E00040EA01039B0703D009E008C9121F08C0B9
:1001F000042AFAD203E011F8013B00F8013B521E39
:10020000F9D27047D2B201E000F8012B491EFBD2AF
:1002100070470022F6E710B513460A460446194611
:10022000FFF7F0FF204610BD80EA010210B502F092
:100230000043400022D04A001FD0010E01EB1261A2
:10024000C0F35600C2F3560240F4000042F400022C
:10025000A0FB022000047F39140400D0401C50EAA7
:10026000124001D44000491EC2B20C0604EBD0106B
:10027000401C4008802A02D003E0002010BD20F07E
:100280000100002900DA0020184310BD20F00040D2
:10029000C10DC0F3160040F400007F2901DA0020F0
:1002A0007047962903DCC1F19601C8407047963922
:1002B0008840704730B50B460146002020220124BB
:1002C00009E021FA02F59D4205D303FA02F5491B24
:1002D00004FA02F52844151EA2F10102F1DC30BD3A
:1002E000064C074D06E0E06840F0010394E8070083
:1002F00098471034AC42F6D3FFF7FCFED83800081C
:10030000F838000810B501F0BBFF01F0C5FF64200C
:1003100002F0A0FC01F0B4FF642002F09BFC01F0AD
:10032000BBFF642002F096FC01F0AAFF642002F0FB
:1003300091FC01F0B1FF642002F08CFCBDE810409C
:1003400001F09EBF70B5044600688168C943C907C3
:1003500017D1816821F00101816000F0D5FB0546CD
:100360000AE000BF00F0D0FB401B022804D920683F
:100370008068C043C00706D020688068C043C007BB
:10038000F0D0002070BDA06A40F01000A062E06ACA
:1003900040F00100E062012070BDFEE7704772B6D8
:1003A000FEE70000044B0022DA61044A136943F0BF
:1003B00001031361018070474804002000200240BF
:1003C00014480022C168CB06134904D5CA6942F01B
:1003D0000202CA611022C3685B0705D5CB6943F0EE
:1003E0000103CB6142F00402C369DB0707D0CB698C
:1003F00043F00403CB61C16921F00101C161A2F5A1
:100400008071013901D0C2607047C16921F00101DA
:10041000C1617047002002404804002070B50546C5
:1004200000F072FB0646114C09E0681C07D025B1AC
:1004300000F06AFB801BA84201D9032070BDE06870
:10044000C007F2D1E068800601D52020E060E068B6
:10045000C00605D4E069C00702D1E068400703D5B3
:10046000FFF7AEFF012070BD002070BD00200240EC
:10047000064A0021D16106490A6942F002020A6176
:100480004861086940F04000086170476815002025
:100490000020024010B501F0F3FE01F0E5FE6420FB
:1004A00002F0D8FB01F0ECFE642002F0D3FB01F077
:1004B000DBFE642002F0CEFB01F0E2FE642002F0DD
:1004C000C9FB01F0D1FE642002F0C4FBBDE810407E
:1004D00001F0D6BEF8B50024009490F824202546FB
:1004E000012A12D0012280F824204A681F23072AFB
:1004F0000DD20668776B521E02EB820293409F4337
:100500000B6893401F43776319E00220F8BD06682B
:100510000D2A0AD2376BD21F02EB820293409F430F
:100520000B6893401F43376309E0F76A0D3A02EB0B
:10053000820293409F430B6893401F43F7620A680F
:10054000072306680A2A0AD3F7680A3A02EB42022E
:1005500093409F438B6893401F43F76008E03769DF
:1005600002EB420293409F438B6893401F433761E5
:100570000A68102A01D0112A20D1124B02689A422F
:1005800017D193681B0219D4936843F40003936056
:100590000968102912D10C490C4A0968B1FBF2F123
:1005A00001EB8101490000E0491E00910029FBD1C7
:1005B00004E0816A41F020018162012480F8245026
:1005C0002046F8BD002401402400002040420F00D6
:1005D0002DE9F0414FF0000704003D467ED0A06AAF
:1005E000002628B9E66284F82460204600F07EF8F0
:1005F0002046FFF7A7FEA16AC90600D420B1A06A71
:1006000040F01000A06269E0A16A21F4885141F035
:100610000201A1626268E169237B0A4347EA430160
:100620000A43A1684FF48077B94209D0012907D065
:100630005FF0000194F814C0BCF1010F02D00AE091
:100640003946F7E7F3B1A36A43F02003A362E36AF4
:1006500043F00103E3622368D3F804C02CF4694C2F
:100660004CEA010CC3F804C021688B68DFF870C045
:1006700003EA0C0313438B60A168B9420BD0012934
:1006800009D00CE0DFF85CC0A3690CEB43330B43EB
:1006900043F40061DFE7218A0D05A5F58015216887
:1006A000CB6A23F470032B43CB62216889680E4B1D
:1006B0001940914208D1E662A16A21F0020141F09D
:1006C0000101A162BDE8F081A06A20F0020040F0C3
:1006D0001000A062E06A40F00100E0620120F1E752
:1006E000FDF7E1FF00E0FFFFFE0E1FFF00B585B044
:1006F0000021009101910291039100680E49884206
:1007000018D10E48816941F400718161816901F459
:1007100000710491816941F0040181618069694639
:1007200000F004000490022000900320019004488F
:1007300000F0E8F805B000BD0024014000100240C0
:100740000008014010B590F821100022022905D0C0
:100750000421816380F82020012010BD01680B680E
:1007600023F00E030B6001680B6823F001030B609C
:1007700090F84030C46B012101FA03F3636080F804
:10078000211080F82020104610BD000010B590F810
:1007900021100024022903D00421816301243DE0BB
:1007A00001680A6822F00E020A6001680A6822F0F5
:1007B00001020A601A4A0168914201D1012121E037
:1007C000174A1432914201D110211BE0144A2832F9
:1007D000914201D1891515E0114A3C32914201D173
:1007E00089140FE00E4A5032914202D14FF4803109
:1007F00008E00B4A6432914202D14FF4801101E0CB
:100800004FF08071064A083A5160012180F82110AA
:10081000002180F82010416B01B18847204610BDAF
:100820000800024070B5044600F06EF90546601CF1
:1008300002D004480078044400F066F9401BA0424E
:10084000FAD370BD180000200348016941F080010F
:100850000161002070470000002002402DE9F05F98
:1008600007461C4888460024017E15461E4601297D
:1008700009D00121814601764CF2503A5046FFF7EB
:10088000CDFD18B122E00220BDE8F09F012F02D07B
:10089000022F00D00427D346DFF83CA022012846CF
:1008A0003146FFF78DFC81B208EB4400FFF77AFD7B
:1008B0005846FFF7B3FDDAF8102022F00102CAF81B
:1008C000102018B9641CE4B2BC42E7D3002289F8B6
:1008D0001820D9E7480400200020024006490020E3
:1008E0000A69120607D5054A4A60054A4A6009693D
:1008F000090600D50120704700200240230167450A
:10090000AB89EFCD2DE9F84FDFF8B8910024A9F1BC
:10091000040B23460F2709F1040AABF1040EC9E0CA
:100920000125A5402A40AA427DD1674ED1F804C0D6
:10093000ACEB0608B44532D014DCBCF1030F3AD05E
:1009400009DCBCF1000F2AD0BCF1010F1CD0BCF1B6
:10095000020F31D11DE0BCF1110F17D0BCF1120F05
:100960002AD119E0B8F5881F19D006DCB8F5803F08
:1009700015D0B8F5801F1FD111E0B8F5001F0ED0BB
:10098000B8F5041F18D10AE0CB6815E0CB681B1D31
:1009900012E0CB6808330FE0CB680C330CE08B68B7
:1009A0002BB1012B4FF0080303D0456104E0042371
:1009B00002E0056100E00023FF2A01D8064601E0BD
:1009C00000F104064FEA840501D9A5F12005D6F807
:1009D000008007FA05FC28EA0C0803FA05F548EA46
:1009E0000508C6F800804D68ED0062D5374DAE6948
:1009F00046F00106AE61AD6924F0030605F001057D
:100A00000095334D06EB050CDCF80850A607360FB1
:100A100007FA06F825EA0805DFF8B880404503D153
:100A20004FF0000817E044E0DFF8AC80404502D109
:100A30004FF001080FE0DFF8A480404502D14FF0ED
:100A4000020808E0DFF89880404502D14FF0030823
:100A500001E04FF0040808FA06F848EA0508CCF867
:100A600008804D68D9F80060ED024D4601D5164367
:100A700000E096432E604D68DAF80060AD025546FE
:100A800001D5164300E096432E604D68DBF8006008
:100A9000AD035D4601D5164300E096432E604D68D8
:100AA000DEF80060ED03754601D5164300E096437D
:100AB0002E60641C0D682A46E5407FF431AFBDE826
:100AC000F88F0000080401400000111000100240DF
:100AD0000000014000080140000C014000100140EE
:100AE000001401408068084000D001207047C268AF
:100AF00021EA02030A4043EA0241016170470AB158
:100B0000016170470904FBE70148806870470000F5
:100B10001800002002488168027811448160704703
:100B200018000020074810B5016841F0100101606D
:100B3000032000F07BF80F2000F006F800F024F806
:100B4000002010BD0020024070B50D4D04464FF44A
:100B50007A712878B1FBF0F00A490968B1FBF0F02E
:100B600000F0F8FB48B9102C07D200222146501E95
:100B700000F03CF800206C6070BD012070BD0000EA
:100B800018000020240000200F4808B5816941F0BA
:100B900001018161816901F001010091C16941F0A8
:100BA0008051C161C069002200F0805000900F2187
:100BB000901E00F01BF80548416821F0E06141F00B
:100BC0000071416008BD00000010024000000140BB
:100BD000002809DB00F01F0201219140400980003C
:100BE00000F1E020C0F8001170470000F0B40E4B97
:100BF0001B680C46C3F30223C3F10705042D00D97B
:100C00000425191D072901D2002300E0DB1E01265F
:100C100006FA05F1491E214099409E40761E164075
:100C20003143F0BC01F042BF0CED00E0064900F09A
:100C3000070208684FF6FF03184040EA0220034A03
:100C400010430860704700000CED00E00000FA055A
:100C50002DE9F84305460078354CC00754D0E069CB
:100C60000026C00008D4E06940F08050E061E069EF
:100C7000012600F0805000902E480168C90512D46A
:100C80000168804641F480710160FFF73DFF07462F
:100C900005E000BFFFF738FFC01B642823D8D8F851
:100CA0000000C005F6D5206A10F4407021D0A98854
:100CB00001F4407181421CD0206A1F49012220F4B6
:100CC00040700A6000220A602062C00711D0FFF75E
:100CD0001BFF074641F2883808E000BFFFF714FF0A
:100CE000C11B414502D90320BDE8F883206A800773
:100CF000F4D5206A696820F44070084320621EB170
:100D0000E06920F08050E0612878800705D56068B0
:100D1000A96820F44040084360602878C00605D5E3
:100D20006068E96820F48000084360600020DBE729
:100D30000010024000700040400442422DE9F0479C
:100D40000F46050061D0434E306800F00700B842FE
:100D500009D2306820F0070038433060306800F076
:100D60000700B84251D128683B4C810712D5400793
:100D700003D5606840F4E06060602878000703D520
:100D8000606840F4605060606068A96820F0F0001E
:100D9000084360602878C00728D06868012810D010
:100DA0002168022810D0890700292EDA616821F015
:100DB000030101436160FFF7A7FE804641F28839D5
:100DC0000DE021688903EFE78901EDE7FFF79CFE5D
:100DD000A0EB0801494502D90320BDE8F08760680F
:100DE000696800F00C00B0EB810FEFD1306800F0C3
:100DF0000700B8420BD9306820F007003843306054
:100E0000306800F00700B84201D00120E5E72878FB
:100E1000400705D56068E96820F4E0600843606039
:100E20002878000706D56068296920F4605040EAF8
:100E3000C100606000F038F86168084AC1F303112E
:100E4000515CC8400649086006480068FFF77CFE10
:100E50000020C2E70020024000100240563800087F
:100E6000240000201C00002004480549006849684F
:100E7000044AC1F30221515CC8407047240000209D
:100E800000100240663800080448054900684968B7
:100E9000044AC1F3C221515CC840704724000020BD
:100EA00000100240663800080E4A51680E4801F0F2
:100EB0000C03042B11D0082B0FD10C48C1F3834332
:100EC000C903C05C0AD55168084AC1F34041921E6B
:100ED000515C054A5043B0FBF1F070470449484368
:100EE000704700000010024000127A0046380008E7
:100EF00000093D002DE9F84F040070D02078C04D66
:100F0000C00749D06868C0F38100012807D068682D
:100F1000C0F38100022809D16868C00306D528689B
:100F2000800339D560680028E7D035E06068B0F507
:100F3000803F0BD010B1B0F5A02F11D0286820F45D
:100F400080302860286820F4802002E0286840F47F
:100F500080302860606890B1FFF7D6FD06460AE051
:100F6000286840F480202860F0E700BFFFF7CCFD40
:100F7000801B642873D828688003F7D50CE0FFF73E
:100F8000C3FD064605E000BFFFF7BEFD801B6428D9
:100F9000F0D828688003F7D420789A4E80074FF065
:100FA00001094FF0000839D5686810F00C0F07D020
:100FB0006868C0F38100022809D16868C00306D4BC
:100FC0002868800714D52069012808D110E020691D
:100FD000B0B1C6F80090FFF797FD074605E00AE1BB
:100FE000FFF792FDC01B0228C4D828688007F7D5F8
:100FF0002868616920F0F80040EAC10028600DE02F
:10100000C6F80080FFF780FD074604E0FFF77CFD8F
:10101000C01B022823D828688007F7D4207800074F
:101020002CD57948A169D9B1C0F80090FFF76CFDC3
:10103000074604E0FFF768FDC01B02280FD8686A66
:101040008007F7D571484FF4FA510068B0FBF1F012
:10105000009000BF0098411E0091FAD20EE080E09F
:10106000C0F80080FFF750FD074604E0FFF74CFD95
:10107000C01B022875D8686A8007F7D4207840071B
:1010800060D5E8690027C00008D4E86940F08050C6
:10109000E861E869012700F0805000905C48016831
:1010A000C90513D40168834641F480710160FFF7DC
:1010B0002BFD824606E000BFFFF726FDA0EB0A00ED
:1010C00064284ED8DBF80000C005F5D5E06801289B
:1010D0000AD008B1052813D0286A20F00100286240
:1010E000286A20F0040002E0286A40F0010028622B
:1010F000E06841F2883B98B1FFF706FD82460BE0BD
:10110000286A40F004002862EEE700BFFFF7FCFC0D
:10111000A0EB0A0159455AD8286A8007F6D50CE099
:10112000FFF7F2FC824605E0FFF7EEFCA0EB0A01B8
:1011300059454CD8286A8007F6D41FB1E86920F0D9
:101140008050E861E06988B36968C1F381010229D0
:1011500044D00228C6F8608004D0FFF7D5FC0446CE
:1011600038E034E0FFF7D0FC074604E0FFF7CCFCA2
:10117000C01B02282BD828688001F7D4206AB0F55C
:10118000803F05D16868A16820F40030084368609A
:10119000D4E908010843696821F4741108436860C0
:1011A000C6F86090FFF7B0FC044606E025E000BFFB
:1011B000FFF7AAFC001B022809D828688001F7D590
:1011C0001BE000BFFFF7A0FC001B022802D9032090
:1011D000BDE8F88F28688001F4D40EE00128F7D02C
:1011E0006868226A00F48031914204D1616A00F497
:1011F0007010884201D00120EAE70020E8E70000F3
:1012000000100240000042428004424224000020BC
:101210000070004070B5040009D0606A002540B13C
:1012200025616561A56294F8510040B10CE0012090
:1012300070BD6068B0F5827FF4D0E561F2E784F8B4
:101240005050204600F040F8022084F851002068F9
:10125000016821F040010160A088218900F48270BA
:1012600001F404410843A18901F400610843217C91
:1012700001F002010843217D01F001010843218BA7
:1012800001F400710843217F01F03801084394F80C
:10129000201001F080010843218D01F40051084322
:1012A00021680860A069042101EA104021684860B3
:1012B0002068C16921F40061C1616565012084F87D
:1012C0005100002070BD000030B585B000240094AE
:1012D00001940294039400681549884225D1154869
:1012E000C16941F48041C161C16901F48041049147
:1012F000816941F00801816180690F4D00F00800AB
:1013000004904FF4204000900220019003200390AD
:1013100069462846FFF7F6FA4FF48040CDE900040D
:10132000694628460294FFF7EDFA05B030BD00008B
:101330000038004000100240000C01404FF0E02156
:101340000428086903D020F004000861704740F0C9
:101350000400FAE710B5401EB0F1807F01D30120F0
:1013600010BD4FF0E02460610F21601701F09EFB7B
:101370000020A06107202061002010BD70B590F80A
:101380003C20012A26D0012480F83C40022280F82B
:101390003D2003685A689D6822F070060A6832434F
:1013A0005A600D4B02689A4208D0B2F1804F05D0C6
:1013B0000A4B9A4202D00A4B9A4204D1496825F05E
:1013C00080031943916080F83D40002180F83C1073
:1013D000084670BD022070BD002C01400004004092
:1013E0000008004010B5040003D094F83D0010B18F
:1013F00007E0012010BD002084F83C00204600F0EA
:101400001FF8022084F83D00211D206801F070F8CB
:10141000012084F8460084F83E0084F83F0084F8F8
:10142000400084F8410084F8420084F8430084F8C6
:10143000440084F8450084F83D00002010BD000001
:1014400008B500680649884208D10648C16941F0DC
:101450000201C161C06900F00200009008BD0000F7
:10146000000400400010024070B5044690F83C00B3
:101470000025012817D0012684F83C60022084F85A
:101480003D002068826822F0770222F47F42826069
:101490000868502838D00DDC20284FD005DC90B3E8
:1014A000102811D14AE0022070BD302846D04028D3
:1014B0000AD13BE060282FD070280DD0B0F5805FB6
:1014C00003D0B0F5005F12D0012584F83D60002004
:1014D00084F83C00284670BDCB68D1E90121206822
:1014E00001F04FF82068816841F0770109E0CB688E
:1014F000D1E90121206801F044F82068816841F4B5
:1015000080418160E1E719E0CA684968206801F01C
:10151000EDF85021206806E0CA684968206801F0AB
:10152000F6F86021206801F036F8CEE7CA6849680D
:10153000206801F0DBF840212068F4E722680146CA
:101540001046F0E710B586B000210091019102919C
:10155000039100681349884221D11348816941F001
:1015600004018161816901F004010491816941F004
:10157000080181618069022400F008000490C02005
:10158000CDE90004694609480394FFF7BBF903203D
:10159000CDE90004694606480394FFF7B3F906B0A5
:1015A00010BD00000004004000100240000801408F
:1015B000000C014070B5044690F83C0000260D4632
:1015C00001280FD0012084F83C006AB1042A1DD004
:1015D000082A2FD00C2A3FD00126002084F83C0096
:1015E000304670BD022070BD206800F0DDFF20682D
:1015F000816941F0080181612068816921F004015D
:101600008161206881692A69114311E0206800F036
:10161000F3FF2068816941F400618161206881697C
:1016200021F480618161206881692A6941EA02218F
:101630008161D2E7206801F00BF82068C16941F0B0
:101640000801C1612068C16921F00401C1612068FD
:10165000C1692A69114311E0206801F025F820686A
:10166000C16941F40061C1612068C16921F48061F0
:10167000C1612068C1692A6941EA0221C161ACE700
:1016800010B5040003D094F83D0010B107E001202C
:1016900010BD002084F83C00204600F01EF8022017
:1016A00084F83D00211D206800F022FF012084F80D
:1016B000460084F83E0084F83F0084F8400084F837
:1016C000410084F8420084F8430084F8440084F820
:1016D000450084F83D00002010BD704710B5044659
:1016E000022249B104290ED0082913D094F84100F0
:1016F000012816D0012010BD94F83E000128F9D130
:1017000084F83E200FE094F83F000128F2D184F8DD
:101710003F2008E094F840000128EBD184F84020F5
:1017200001E084F841200122206800F01DFF0F49EC
:101730002068884203D1426C42F40042426420682F
:10174000884208D0B0F1804F05D00949884202D0C4
:101750000849884204D1816801F00701062903D0B5
:10176000016841F001010160002010BD002C014022
:10177000000400400008004070477047F8B5016859
:1017800004460868CA684B6910F00F0F4FF0000557
:1017900059D003F0010602F49077374365D0C107B2
:1017A00005D0D10503D5616C41F0010161644107A9
:1017B00005D5D90703D0616C41F00201616481074E
:1017C00005D5D90703D0616C41F0040161640107BC
:1017D00007D502F02001314303D0616C41F00801CC
:1017E0006164616C00293AD0800604D5900602D568
:1017F000204600F0CDFF20684069616CC0F3801086
:10180000090700D460B3204600F09BFF20684069C0
:10181000400621D52068143050E8001F21F0400117
:1018200040E80012002AF5D1E06BA8B16D49416390
:10183000E06BFEF7ABFF002811D0E06B416B01B00D
:10184000BDE8F040084783060FD593060DD5204626
:10185000BDE8F84000F09CBF2046FFF78EFFF8BDC2
:101860002046FFF78AFF6564F8BD266B2023012E12
:101870007CD1C6067AD5D60678D508684868009027
:1018800048694FF00206400640D5E16B08684068A1
:101890000004000CE8D0A28D8242E5D9E085886979
:1018A00020282DD020680C3050E8001F21F48071D2
:1018B00040E80012002AF5D12068143050E8001FDB
:1018C00021F0010140E80012002AF5D1206814300F
:1018D00050E8001F21F0400140E80012002AF5D135
:1018E00084F84230256320680C3050E8001F21F056
:1018F000100140E80012002AF5D1E06BFEF722FF4C
:101900006663A08DE18D401A81B22AE0A08DE18D41
:10191000401A81B2E08D0028A6D00029A4D0226808
:101920000C3252E8000F20F4907042E80007002FBC
:10193000F5D12068143050E8002F22F0010240E871
:101940000027002FF5D184F84230256320680C3041
:1019500050E8002F22F0100240E80023002BF5D1C0
:1019600066632046FFF708FFF8BDFFE705062BD5A5
:10197000150629D594F841002128F5D1A068B0F5C5
:10198000805F01D12069B0B1206A411C21622168C9
:1019900000784860E08C401E0004000CE084E3D135
:1019A0002068C16821F08001C1602068C16841F0F1
:1019B0004001C160D8E7206A0088C0F30800486091
:1019C000206A801C2062E5E74006CDD55006CBD5C5
:1019D000CA68204622F04002CA6084F8413000F014
:1019E000C6F8C1E73327000870B5040004D094F8A6
:1019F0004100002510B106E0012070BD84F8405080
:101A0000204600F023F8242084F841002068C168B3
:101A100021F40051C160204600F01CFF20680169DC
:101A200021F4904101612068416921F02A0141615E
:101A30002068C16841F40051C1606564202084F8C9
:101A4000410084F842006563002070BD30B585B068
:101A50000024009401940294039400681849884279
:101A60002CD11848816941F480418161816901F478
:101A700080410491816941F0040181618069124DC6
:101A800000F0040004904FF40070009002200190D8
:101A90000320039069462846FEF734FF2815CDE958
:101AA0000004694628460294FEF72CFF0022052117
:101AB0002520FFF79BF82520FFF78AF805B030BDF9
:101AC00000380140001002400008014070472DE935
:101AD000F843044690F84100984616460D462028E3
:101AE00002D00220BDE8F88385B17EB10020606499
:101AF000212084F84100FFF707F8A6848146E68498
:101B0000A0682027B0F5805F02D003E00120E9E75C
:101B1000206910B12E4600250EE000260CE0802141
:101B2000204600F0F3FEA8B9C6B116F8010B2168F3
:101B30004860E08C401EE084E08C4B464FF0000291
:101B4000CDF800800028EAD14FF04001204600F097
:101B5000DDFE40B184F841700320C3E735F8020B85
:101B6000C0F30800E3E784F841700020BAE770474B
:101B7000FEE70000F0B5194C0025668876B965606F
:101B8000A5600123E5606380158065F30F00558033
:101B900065F31F4065F30F0100239580676806B267
:101BA0003E446660A76807EB204708B2A760E1687B
:101BB000C01A0144E1606088C82803D0401C6080DE
:101BC0000020F0BD96FBF0F3138097FBF0F391FB40
:101BD000F0F05380908065800120F0BDA0000020CF
:101BE0007CB5354801884ABA34490B88D31A8A1D16
:101BF000A2F10C05138043884C885BBA1B1B5380F1
:101C0000838889885BBA591A918001892A8849BAE0
:101C10008A1A05F11201A1F122040A8042896B8817
:101C200052BAD21A4A808089AA8840BA801A88801B
:101C30002078C043C00723D1D4F822000090E18C63
:101C4000ADF8041000232A460199FFF793FFB8B1BD
:101C5000207820F00100207000F0EEF9FEF71AFC69
:101C6000207840F002002070B5F90430B5F9022068
:101C7000B5F9001012A000F009FF1CA000F006FF4B
:101C80002078C043800716D4E0690090218CADF81D
:101C9000041042F20403094A0199FFF76BFF002880
:101CA00009D0207820F00200207000F0C5F9BDE8CE
:101CB0007C40FEF727BB7CBD58150020B6000020F5
:101CC0004759524F5F4F46465345545F5241572044
:101CD00056616C7565203A583D25642020593D2594
:101CE0006420205A3D25640A000000000A0000001C
:101CF0003EB500211148009101910F4A0291026006
:101D000081600173017501244FF460220461C26196
:101D10004160FEF75DFC08B1FEF741FB0220009434
:101D2000CDE9014069460548FEF7D4FB002801D003
:101D3000FEF735FB3EBD00000024014030030020CB
:101D400010B5AAB01C2221496846FEF749FA0021C5
:101D5000684600F0E1FF1E4C1C491C2220601C312B
:101D600007A8FEF73DFA002107A800F0D5FF1749A4
:101D700060601C2238310EA8FEF732FA00210EA84E
:101D800000F0CAFF1149A0601C22543115A8FEF7CB
:101D900027FA002115A800F0BFFF0C49E0601C22C3
:101DA00070311CA8FEF71CFA00211CA800F0B4FF3B
:101DB000064920611C228C3123A8FEF711FA00216C
:101DC00023A800F0A9FF60612AB010BD9C3700086D
:101DD000000000202DE9F04786B000253648009528
:101DE000019502950395816941F010018161816936
:101DF00001F010010491816941F020018161816944
:101E000001F020010491816941F00401816181693F
:101E100001F004010491816941F008018161806948
:101E2000264E00F008004FF4C044049001222146E1
:101E30003046FEF764FEDFF888A0002241F25C2104
:101E40005046FEF75CFEDFF87C904FF4014800221C
:101E500041464846FEF753FE009401240327CDE98E
:101E60000247694630460194FEF74CFD41F21C00E2
:101E700002268DE8710069465046FEF743FD01AA2F
:101E8000CDF8008082E8700069464846FEF73AFDCA
:101E90002020CDE90005694602945046FEF732FD48
:101EA0004FF410708DE8D10069465046FEF72AFDC8
:101EB00006B0BDE8F08700000010024000100140AD
:101EC000000C014000080140104810B50E490160A7
:101ED0004FF48271416000218160C1604FF4007253
:101EE0000161C0E905121822C0E90721416281623F
:101EF0000A21C162FFF78EF9002803D0BDE8104027
:101F0000FEF74DBA10BD000000380040600300200D
:101F100010B58EB000240794089409940A940B9489
:101F20001C2168460C94FEF774F93348314901606E
:101F30004FF43471C0E901144FF4FA61C0E903149D
:101F400080218161FFF74EFA08B1FEF728FA4FF4BD
:101F50008050079007A92848FFF786FA08B1FEF7D6
:101F60001EFA2548FFF78CFB08B1FEF718FA0B9410
:101F70000BA921480C94FFF701FA08B1FEF70FFAFC
:101F80006020CDE900040294002269461A480494B6
:101F9000FFF710FB08B1FEF702FA04226946164863
:101FA000FFF708FB08B1FEF7FAF908226946124864
:101FB000FFF700FB08B1FEF7F2F90C2269460E4864
:101FC000FFF7F8FA08B1FEF7EAF900210A48FFF72F
:101FD00085FB04210848FFF781FB08210648FFF72D
:101FE0007DFB0C210448FFF779FB0348FFF7AAFAB1
:101FF0000EB010BD00040040B80300200C4810B51E
:102000000A4901604FF4E1314160002181600C22F6
:10201000C160C0E904128161C161FFF7E5FC0028DD
:1020200003D0BDE81040FEF7BAB910BD003801403A
:1020300000040020FEE7FEE710B500F035F8BDE82B
:1020400010403E220149024800F052B98819002090
:1020500000F8000810B5012240210448FEF74FFDAA
:10206000BDE81040C820FEF7DDBB0000000C0140B9
:1020700010B50C4C20212046FEF734FD00280FD16E
:102080003220FEF7CFFB20212046FEF72BFD002853
:10209000F9D020460022BDE810404021FEF72FBDB8
:1020A00010BD0000000C014070B56248624C644DE8
:1020B00001882180418861808088A0805F48614ECE
:1020C0000188E180418821818088608131462868CB
:1020D000FEF7AAF8FEF7DAF8A08131466868FEF745
:1020E000A3F8FEF7D3F8E0813146A868FEF79CF824
:1020F000FEF7CCF8544D208231462868FEF794F85C
:10210000FEF7C4F8608231466868FEF78DF8FEF786
:10211000BDF8A0823146A868FEF786F8FEF7B6F84B
:102120004A4DE08231462868FEF77EF8FEF7AEF8A9
:10213000208331466868FEF777F8FEF7A7F86083DA
:102140003146A868FEF770F8FEF7A0F8404DA0836E
:1021500031462868FEF768F8FEF798F8E0833146C4
:102160006868FEF761F8FEF791F820843146A868A8
:10217000FEF75AF8FEF78AF8364D60843146286833
:10218000FEF752F8FEF782F8A08431466868FEF741
:102190004BF8FEF77BF8E0843146A868FEF744F878
:1021A000FEF774F82C4D208531462868FEF73CF880
:1021B000FEF76CF8608531466868FEF735F8FEF783
:1021C00065F8A0853146A868FEF72EF8FEF75EF8A0
:1021D000224DE08531462868FEF726F8FEF756F8CE
:1021E000208631466868FEF71FF8FEF74FF86086D4
:1021F0003146A868FEF718F8FEF748F8184DA08693
:1022000031462868FEF710F8FEF740F8E0863146C0
:102210006868FEF709F8FEF739F820873146A868A4
:10222000FEF702F8FEF732F860870E480078A087C4
:1022300070BD0000B600002088190020B00000200A
:10224000C819002000007A44041A0020401A002017
:102250007C1A0020B81A0020F41A0020301B00203D
:102260006C1B00209000002010B500240021FF22EC
:10227000084600F0FDFB641CE4B2042CF6D310BD4C
:1022800010B5002400221146104600F0F1FB641C3A
:10229000E4B2042CF6D310BD10B500240022114680
:1022A000FF2000F0E5FB641CE4B2042CF6D310BD63
:1022B00070B505465FF0000405FA04F0C00702D0CF
:1022C00000F09CFB01E000F063FB641CE4B2082C0E
:1022D000F2D370BD10B5002306E000BF30F8024B0A
:1022E00021F813405B1C9BB29342F7D310BD000052
:1022F0002DE9F05FA0F1006415468A468346B4F5E7
:10230000803F5FD2FEF7EAFAA70AC4F34806C6F593
:102310000074A54200D82C46DFF8AC904FF0006066
:1023200000EB872080464FF400722749FFF7D2FF69
:1023300000204FF6FF7106E0331839F813208A4267
:1023400003D1401C80B2A042F6D3A0422ED2404618
:10235000FEF78EF84CF25030FEF760F81B4801692A
:1023600021F0020101610020494606E03AF8102000
:102370008319401C21F8132080B2A042F6D31249E1
:1023800040464FF4007200BF00F022F8A54215D07D
:10239000281B0AEB440A0BEB440B002685B24FF4D2
:1023A00000747F1CA542B9D82C46B7E74CF25030D8
:1023B000FEF734F8224651465846E5E7BDE8F05F9F
:1023C000FEF742BABDE8F09F8815002000200240C9
:1023D0002DE9F04116460F46054600240AE000BFED
:1023E00037F81420002329460120FEF737FA641C31
:1023F000A4B2AD1CB442F3D3BDE8F081034932204E
:102400000A6850630A689063FAE70000B803002086
:10241000052000F075FCFBE7084C4FF4804566147E
:102420004FF4FA7729462046FEF761FB31462046F5
:10243000FEF75DFB384600F063FCF3E70010014057
:10244000FFF716FE142000F05BFCF9E70A2000F00D
:1024500057FCFBE7142000F053FCFBE710B5FEF738
:1024600059FB01F0C5F8012803D0BDE8104001F088
:1024700051B810BD30B593B028216846FDF7C9FEAC
:1024800014210AA8FDF7C5FE002501200F9510951F
:102490001195010412958DE8230004904FF4E0108B
:1024A000CDE90810022407946846FEF723FD08B121
:1024B00072B6FEE70AA90F2081E831004FF4806070
:1024C000CDE90D0502210AA8FEF738FC08B172B665
:1024D000FEE74FF4004011900F940FA8FEF7B8FBF1
:1024E000002801D072B6FEE713B030BD704700007F
:1024F000F0B50268194B1A4C1A4D4FF080479842BC
:1025000005D0B84203D0A04201D0A84203D122F0A6
:1025100070064A683243984205D0B84203D0A042C0
:1025200001D0A84203D122F44074CA6822434C6906
:1025300022F08002224302608A68C2620A688262D4
:10254000984201D109690163012141610169C9070B
:1025500003D0016921F001010161F0BD002C0140AF
:10256000000400400008004010B501F01F030121E5
:10257000046A99408C430462016A9A4011430162E3
:1025800010BD10B5846842EA032224F47F440A4354
:102590002243826010BD826822F070020A4342F03A
:1025A000070181607047000030B5036A026A22F0BB
:1025B000010202624268846924F073050C682C43AE
:1025C00023F002058B682B430A4DA8420BD123F060
:1025D0000805CB6822F440722B434D6923F00403B5
:1025E00015438A692A4342608461496841630362F2
:1025F00030BD0000002C014030B5026A036A23F0B0
:1026000010030362436884690D6824F4E64444EAD5
:1026100005248D6822F0200242EA05120B4DA842E3
:102620000ED1CD6822F0800242EA05124D6923F4F2
:10263000406343EA85038D6922F0400243EA850343
:102640004360846149688163026230BD002C0140AF
:1026500030B5036A026A22F4807202624268C46979
:1026600023F4007324F073050C682C438D6843EA4F
:1026700005230C4DA8420ED1CD6823F4006343EA34
:1026800005234D6922F4405242EA05128D6923F474
:10269000806342EA05124260C4614968C163036213
:1026A00030BD0000002C014030B5046A026A22F4FB
:1026B000805202624268C3690D6823F4E64343EA2C
:1026C00005238D6824F4005444EA0534064DA842DD
:1026D00004D14D6922F4804242EA85124260C3610E
:1026E00049680164046230BD002C014010B5036AE2
:1026F000046A24F001040462846924F0F00444EACA
:10270000021423F00A020A438461026210BD10B56C
:10271000036A046A24F010040462846923F0A003AD
:1027200024F4704444EA023243EA011182610162F6
:1027300010BD10B5406A0021C185C184FFF71DF8A6
:1027400010BD01680C3151E8002F22F4907241E86D
:102750000023002BF5D10168143151E8002F22F03D
:10276000010241E80023002BF5D1016B012909D1B9
:1027700001680C3151E8002F22F0100241E80023DB
:10278000002BF5D1202180F8421000210163704711
:1027900008B590F84210222901D0022008BD8268B5
:1027A0004FF480539A4201D1016921B1816A9A4262
:1027B0001BD04AB10AE00268816A5268C2F308027B
:1027C0000A80816A891C08E0026972B10268526855
:1027D00002F07F020A70816A491C8162C18D491E24
:1027E0000904090CC18503D01BE002685268F1E7B7
:1027F0000168CA6822F02002CA600168CA6822F42F
:102800008072CA6001684A6922F001024A6120218F
:1028100080F8421000214163026B012A03D0FFF7C8
:1028200055F9002008BD016301680C3151E8002F03
:1028300022F0100241E80023002BF5D101680A685C
:10284000D20602D50A6849680091818DFEF794FF8F
:10285000E7E7000070B5044600680169E26821F40A
:102860004051114301612169A0680843616908432F
:102870002168CA6841F20C639A430243CA60206827
:102880004169A26921F44071114341611E492068E8
:10289000884202D1FEF7F8FA01E0FEF7E5FA00EB14
:1028A000C00101EB0012606864218000B2FBF0F30C
:1028B000B3FBF1F36FF018067343B2FBF0F5B2FB14
:1028C000F0F605EB8305322303EB0515B5FBF1F5B7
:1028D000B6FBF1F605F0F00505EB0615B2FBF0F6D8
:1028E000B2FBF0F0B0FBF1F06FF01802504306EBD2
:1028F000800003EB0010B0FBF1F0216800F00F0046
:102900002844886070BD0000003801402DE9F8437C
:10291000984617460D460446089E24E0701C22D0B7
:10292000FEF7F2F8A0EB0800B0421AD8CEB120684A
:10293000C168490717D5802D15D0402D13D00168E7
:10294000C94309070FD4016800254068009020465C
:10295000FFF7F7FE0820606484F840500120BDE8CE
:10296000F8830320FBE72068006835EA000004D004
:102970000020B842D2D00020F1E70120F9E70000A2
:102980000148FEF7FBBE000000040020FEE7000047
:1029900070B50122184D540221462846FEF7AFF8C3
:1029A00000BF00BF00BF00BF00BF00BF0022214624
:1029B0002846FEF7A4F800BF00BF00BF00BF00BF5D
:1029C00000BF00BF00BF00BF00BF00BF00BF00BF0F
:1029D00000BF00BF00BF00BF00BF00BF00BF00BFFF
:1029E00000BF00BF00BF00BF00BF00BF00BF00BFEF
:1029F00000BF00BF00BF70BD000C014070B50122D8
:102A00001A4D540221462846FEF779F800BF00BF50
:102A100000BF00BF00BF00BF00BF00BF00BF00BFBE
:102A200000BF00BF00BF00BF00BF00BF00BF00BFAE
:102A300000BF00BF00BF00BF00BF00BF00BF00BF9E
:102A400000BF00BF00BF00BF00BF00BF0022214683
:102A50002846FEF754F800BF00BF00BF00BF00BF0C
:102A600000BF00BF00BF00BF00BF70BD000C014031
:102A700070B514460D46FFF71BFC2846FFF718FCFF
:102A80002046BDE87040FFF713BC00000FB4054BB3
:102A900010B503A9044A029800F028F810BC5DF8AC
:102AA00014FB0000A52C0008CC0000200907090E2B
:102AB000002804DB00F1E02080F80014704700F0EB
:102AC0000F0000F1E02080F8141D704702E008C8F4
:102AD000121F08C1002AFAD170477047002001E098
:102AE00001C1121F002AFBD1704700002DE9FF4FE2
:102AF00089B09B460446002506E025280BD05A469F
:102B00000B999047641C6D1C20780028F5D10DB0FE
:102B10002846BDE8F08F0027B8460122474900E06B
:102B2000074314F8013F203B02FA03F00842F7D1B3
:102B300020782E2819D114F8010F47F004072A280D
:102B40000ED06FF02F022078A0F1300109290CD8A7
:102B500008EB880102EB410100EB0108641CF2E77D
:102B60000A98641C50F8048B0A9020780028CED074
:102B7000642808D0692806D075281ED05A460B99BB
:102B800090476D1C58E00A994FF00A0901C90A9153
:102B9000002802DA40422D2102E0390504D52B211C
:102BA0008DF82010012103E0F90704D02021F7E778
:102BB0008A4608AE0DE00021FAE70A994FF00A09AB
:102BC00001C90A91F7E74946FDF774FB303106F871
:102BD000011D0028F7D1ADEB060000F120097807B0
:102BE00001D44FF00108C84502DDA8EB090000E060
:102BF00000208046002706E008A85A46C05D0B99D1
:102C000090476D1C7F1C5745F6DB04E030205A4688
:102C10000B9990476D1CB8F10001A8F10108F5DC93
:102C200005E016F8010B5A460B9990476D1CB9F157
:102C30000001A9F10109F4DC641C65E70928010021
:102C400010B504460420FEF779FB0148046010BD6E
:102C5000C800002070B5054600244FF47A7603E0E2
:102C6000304600F005F8641CAC42F9D370BD00009A
:102C700070B54FF0E024002265690949A36909682D
:102C80004843A1699942FCD002D2A3EB010302E0C0
:102C9000A5EB010633441A440B468242F1D370BDC2
:102CA000C800002013B54FF6FF73012269460248A1
:102CB000FEF70DFF00981CBD00040020FDF732FF59
:102CC0004820FFF7BDFFFFF7D5FBFFF783F8FFF7BD
:102CD0000FF8FFF7F9F8FFF71BF9FFF78FF9FFF788
:102CE000B9F9FEF77DFFFFF7CBFAFFF729F800F0FF
:102CF0000EF8FEE701460020842900D0C81C70476A
:102D000010B500B9012000F01FFB002010BD10B568
:102D100000F040FB002010BD7FB50D460446416920
:102D2000B0F9080081B1A16971B1FFF7E3FFD4E9FF
:102D300005128DE80700D4E900102B46226900F047
:102D40002CFC039004B070BDFFF7D4FF03A9CDE9BC
:102D50000001208A2B4682B2D4E9001000F0F0FB7B
:102D6000012801D00020EDE70398EBE72DE9F041C1
:102D7000184C0F460546E6682068001D00F01CFA56
:102D800038B9206890F82C100120884021698143CF
:102D90002161681C07D137B12168BDE8F0410E48B8
:102DA000091D00F04DBA20683544B54245602168E0
:102DB00005D2A06BBDE8F041091D00F029BA606B97
:102DC000091D00F025FAA06A854200D2A562BDE87F
:102DD000F081000028000020440500202DE9F0418A
:102DE000054600F039FA2E4CA068401CA06020680F
:102DF0002C4F10B1606940B32DE02560A068012818
:102E000029D1002606EB860007EB800000F0F2F9DE
:102E1000761C072EF6D323488C3000F0EBF92148BE
:102E2000A03000F0E7F91F48B43000F0E3F91D4886
:102E3000C83000F0DFF91B48DC3000F0DBF919483E
:102E40008C3060631430A06305E02068E96AC06AD2
:102E5000884200D82560606A401C6062E96A0120EF
:102E6000226988401043206101EB810007EB80005C
:102E7000291D00F0E5F900F00FFA606900280CD078
:102E80002068E96AC06A884207D207494FF080503B
:102E90000860BFF34F8FBFF36F8FBDE8F081000074
:102EA000280000206804002004ED00E010B504466E
:102EB00090F85D0058B101280CD002280FD05020A6
:102EC00080F31188BFF34F8FBFF36F8FFEE7206B46
:102ED00000F0F6F92046BDE8104000F0F1B910BD51
:102EE00010484FF48051420706D0C01D0D4920F014
:102EF0000700411AC1F580510B4A00230144C2E981
:102F000000030839183A21F0070111604B600B608B
:102F10000B1AC0E9001393604FF0004053605061FA
:102F200070470000580500207C000020144E154C0E
:102F3000A6F1C8074FF08058DFF84C9012E000BFB0
:102F400000F08AF9F068C568281D00F035F9A0681E
:102F5000401EA0606068401E606000F09DF9284639
:102F6000FFF7A4FF60680028EAD138680128F9D982
:102F7000C9F80080BFF34F8FBFF36F8FF2E70000F7
:102F8000300500202800002004ED00E02DE9F04786
:102F90009A46DDE9098481466FF00303206B03EB59
:102FA00082021044089E20F00707780707D05020BF
:102FB00080F31188BFF34F8FBFF36F8FFEE70025BB
:102FC00061B1002023180A5C83F834200A5C12B136
:102FD000401C1928F6D384F84C5001E084F8345092
:102FE000072E00D30626E662C4E91465201D00F012
:102FF0000CF904F1180000F008F92461C6F107008B
:103000006462A061A56584F85C5052464946384622
:1030100000F0C0F82060B8F1000F01D0C8F80040FF
:10302000BDE8F08730B5114900E011460A688242D8
:10303000FBD34B685C18844203D140681844486055
:10304000084643681C18944209D1084C183C24686F
:10305000A24209D052681A4442600A6812680260AB
:10306000814200D0086030BD0460F9E77C00002098
:103070000648416B096829B1416BC968C96849684C
:10308000816270474FF0FF31FAE70000280000200E
:1030900008484068401C4FF0500080F3118804D06D
:1030A000BFF34F8FBFF36F8FFEE7BFF34F8FBFF3B9
:1030B0006F8FFEE7840000202DE9F04105460027D0
:1030C00000F09EF9324E306808B9FFF709FF7069C9
:1030D00005424ED1C5B3083568070ED005F007008C
:1030E000C0F108000544680707D0502080F311881C
:1030F000BFF34F8FBFF36F8FFEE72DB3706885422C
:1031000037D82348183001460C6801E020460C46A9
:103110006168A94202D221680029F7D131688C4246
:1031200027D007682168016060680837411B1029B3
:103130000FD96019420708D0502080F31188BFF3DF
:103140004F8FBFF36F8FFEE713E041606560FFF7BD
:1031500069FF61687068401A7060B268904200D27E
:10316000B060706901430020C4E90001F068401CB0
:10317000F06000F0B1FA780707D0502080F3118892
:10318000BFF34F8FBFF36F8FFEE73846BDE8F08186
:103190006400002010B5031F4FF080741C601B1FDB
:1031A00021F001011960191F024B0B6014394038DE
:1031B0000A6010BD91300008D0E9013201699A60BF
:1031C000D0E901235A604A68824201D182684A608C
:1031D000002202610868401E08600868704700000D
:1031E000034B036003F160000860802010607047AB
:1031F000D000002000F108014FF0FF32C0E90112B9
:10320000C1600161002101607047002101617047C8
:1032100030B50B685A1C02D000F1080202E00269C6
:1032200004E02246546825689D42FAD953684B60F1
:1032300099608A60516008610168491C016030BD75
:1032400042684A6093688B60936859609160086136
:103250000168491C01607047502080F31188BFF35A
:103260004F8FBFF36F8F0A494868401C48600128A0
:103270000CD10848006810F0FF0F07D0502080F3F1
:103280001188BFF34F8FBFF36F8FFEE770470000C9
:103290008400002004ED00E00849486828B1401E81
:1032A000486001D180F311887047502080F3118865
:1032B000BFF34F8FBFF36F8FFEE700008400002045
:1032C00070B500282AD0164DA0F10804606869691D
:1032D000084207D1502080F31188BFF34F8FBFF30E
:1032E0006F8FFEE722683AB1502080F31188BFF358
:1032F0004F8FBFF36F8FFEE78843606000F080F868
:1033000060686968084468602046FFF78BFE28699A
:10331000401C2861BDE8704000F0DEB970BD0000BF
:10332000640000204FF0E020002101618161054927
:103330004FF47A720968B1FBF2F1491E416107212D
:10334000016170472400002010B5020014D00F481E
:10335000006B38B1502080F31188BFF34F8FBFF35B
:103360006F8FFEE700F04CF800211046FFF7FEFCDF
:1033700000F0B2F9002807D105494FF080500860ED
:10338000BFF34F8FBFF36F8F10BD000028000020E8
:1033900004ED00E010B586B00024039405AA04A94A
:1033A00003A80494FFF71CFFDDE903010094CDE9B5
:1033B000011000230EA11048059A00F0EEF80F4905
:1033C0000028C86211D0502080F31188BFF34F8FBE
:1033D000BFF36F8F4FF0FF30886201204861CC60EF
:1033E00006B0BDE8104000F041B806B010BD0000C6
:1033F00049444C45000000002D2F00082800002003
:103400000248016B491C016370470000280000203E
:103410001448016B11B10121C16170470021C161E4
:103420000169B1FA81F1C1F11F0101EB81020E497D
:1034300051F822306BB101EB820101F108034A68B7
:1034400052684A609A4201D152684A60D16801606C
:103450007047502080F31188BFF34F8FBFF36F8FF9
:10346000FEE7000028000020680400201CB5264963
:1034700008780190FF20087008788DF800009DF80A
:1034800000009DF8002000F0F000904207D050208E
:1034900080F31188BFF34F8FBFF36F8FFEE79DF866
:1034A00000001A4C00F0500020700720A06005E0DA
:1034B0009DF8002052008DF80020401E9DF800204D
:1034C0001206F5D4A060032807D0502080F311889D
:1034D000BFF34F8FBFF36F8FFEE74FF44070A060D4
:1034E000019808700A48016841F4700101600168A0
:1034F00041F070410160FFF715FF00206060FCF7AC
:1035000013FE00201CBD000000E400E08400002049
:1035100020ED00E010B5502080F31188BFF34F8FED
:10352000BFF36F8F00F072F818B104494FF080506C
:103530000860002080F3118810BD000004ED00E059
:103540002DE9FF5F8346DDE90E87994616468A46D8
:103550009000FFF7B1FD05001CD06020FFF7ACFD27
:10356000040014D00020256384F85D00CDE90240FA
:10357000CDE900874B46324651465846FFF706FDD7
:103580002046FFF72BFC012004B0BDE8F09F284641
:10359000FFF796FE4FF0FF30F6E7F0B585B0DDE9B6
:1035A0000B640A9DA6B1DCB1602700972663022652
:1035B00084F85D60002604AFCDE90246CDE90057EE
:1035C000FFF7E4FC2046FFF709FC049805B0F0BDC6
:1035D000502080F31188BFF34F8FBFF36F8FFEE74A
:1035E000502080F31188BFF34F8FBFF36F8FFEE73A
:1035F0000548416919B1006B18B1002070470120DE
:103600007047022070470000280000202DE9F0419B
:103610002F4C0026206B28B1A069401CA0613046C9
:10362000BDE8F081E5686D1CE56013D1606B006852
:1036300038B1502080F31188BFF34F8FBFF36F8FE5
:10364000FEE7606BA16B6163A063206A401C20628F
:10365000FFF70EFDA06ADFF87C80854209D3606B1E
:103660000068A0B1606BC068C7687868854211D2F5
:10367000A0622068C06A00EB800158F82100012890
:1036800000D90126E0690028C9D00126C7E74FF01C
:10369000FF30EDE7381DFFF78FFDB86A18B107F16D
:1036A0001800FFF789FDF96A01202269884010435C
:1036B000206101EB810108EB8100391DFFF7C0FD9E
:1036C000F86A2168C96A8842C9D30126C7E70000A1
:1036D00028000020680400202DE9F0472C4D00242C
:1036E0002746286B38B1FFF7B7FD286B401E2863CB
:1036F000286B40B146E0502080F31188BFF34F8F14
:10370000BFF36F8FFEE7A968224E0120D1B3A6F167
:10371000B40980463068E8B1F068C46804F1180064
:10372000FFF74AFD201DFFF747FDE06A2A6908FA06
:1037300000F11143296100EB800109EB8100211D9B
:10374000FFF77EFDE06A2968C96A8842E2D3C5F8BE
:103750001C80DFE70CB1FFF78BFCAC6944B1464637
:10376000FFF754FF00B1EE61641EF9D10020A8619B
:10377000E86938B10849012738070860BFF34F8F5F
:10378000BFF36F8FFFF788FD3846BDE8F087000074
:10379000280000201C05002004ED00E08838000807
:1037A000412400080000000000000000800000002C
:1037B00000000000000000007C3800081924000808
:1037C000FDFF00000000000080000000000000007D
:1037D000000000007038000811240008FDFF000000
:1037E0000000000080000000000000000000000059
:1037F000AC38000855240008FDFF00000000000060
:10380000800000000000000000000000C438000834
:103810004D240008FDFF00000000000080000000B3
:10382000000000000000000094380008FD2300089C
:10383000FDFF00000000000080000000000000000C
:1038400000000000010202030405060708090A0B34
:103850000C0D0E0F1010000000000000000001020F
:103860000304060708090000000001020304000029
:10387000424D503238305F5461736B004C45445FA9
:103880005461736B000000005057525F5461736BBA
:1038900000000000416972706C616E655F456E6189
:1038A000626C655F5461736B0000000053493234F1
:1038B00052315F53696E67616C436865636B5F5437
:1038C00061736B005349323452315F476574416410
:1038D00064725F5461736B00F838000800000020C8
:1038E000D0000000CC2A0008C8390008D000002011
:1038F000D81E0000DC2A00080000000000000000C4
:1039000000000000000000000000000000000000B7
:1039100001000000100000000000000000127A000A
:103920000000000000000000000000000000000097
:103930000000000000000000000000000000000087
:103940000000000000000000000000000000000077
:103950000000000000000000000000000000000067
:103960000000000000000000000000000000000057
:103970000000000000000000000000000000000047
:10398000AAAAAAAA00000000FF00003443101001F8
:10399000344310100100000000000000000000008F
:1039A0000000000000000000000000000000000017
:1039B0000000000000000000000000000000000007
:0839C0000000000000000000FF
:04000005080000ED02
:00000001FF
