:020000040800F2
:100000007823002031020008573000087D290008BD
:1000100055300008BB0C0008D53C0008000000006B
:10002000000000000000000000000000990100082E
:10003000BD0C000800000000DD010008E1350008EB
:100040004B0200084B0200084B0200084B0200085C
:100050004B0200084B0200084B0200084B0200084C
:100060004B0200084B0200084B0200084B0200083C
:100070004B0200084B0200084B0200084B0200082C
:100080004B0200084B0200084B0200084B0200081C
:100090004B0200084B0200084B0200084B0200080C
:1000A0004B0200084B0200084B0200084B020008FC
:1000B0004B0200084B020008893600084B0200087A
:1000C0004B0200084B0200084B0200084B020008DC
:1000D0004B020008C93C00084B0200084B02000814
:1000E0004B0200084B0200084B02000800F002F827
:1000F00000F042F80AA090E8000C82448344AAF180
:100100000107DA4501D100F037F8AFF2090EBAE87D
:100110000F0013F0010F18BFFB1A43F0010318473B
:10012000C04A0000E04A0000103A24BF78C878C1F5
:10013000FAD8520724BF30C830C144BF04680C60ED
:10014000704700000023002400250026103A28BF35
:1001500078C1FBD8520728BF30C148BF0B60704739
:100160001FB59DE8030000F053FB00F02FF91FBD01
:1001700010B500F094F910BD00F0FCF91146FFF73E
:10018000EFFF03F069FE00F015FB03B4FFF7F0FF8B
:1001900003BC00F0D5FC0000224B19680868B0E8E9
:1001A000F00F80F30988BFF36F8F4FF0000080F3EA
:1001B00011884EF00D0E70470000000006480068E0
:1001C000006880F3088862B661B6BFF34F8FBFF353
:1001D0006F8F00DF00BF00BF08ED00E0EFF3098084
:1001E000BFF36F8F0F4B1A6820E9F00F106008B54E
:1001F0004FF0500080F31188BFF34F8FBFF36F8F24
:1002000004F0E8F94FF0000080F31188BDE80840E1
:1002100019680868B0E8F00F80F30988BFF36F8FA2
:10022000704700BF18000020EFF305807047000002
:100230000948804709480047FEE7FEE7FEE7FEE77A
:10024000FEE7FEE7FEE7FEE7FEE7FEE704480549B6
:10025000054A064B7047000085360008ED0000088F
:10026000781D002078230020781F0020781F0020B0
:10027000B2F120030AD5C2F1200320FA02F001FAFC
:1002800003F321FA02F140EA0300704721FA03F078
:100290004FF00001704700000FB4044910B503AAE5
:1002A000029800F061F810BC5DF814FB6C1C002093
:1002B00010B5203AC0F00B80B1E81850203AA0E801
:1002C0001850B1E81850A0E81850BFF4F5AF5FEA35
:1002D000027C24BFB1E81850A0E8185044BF18C9E8
:1002E00018C0BDE810405FEA827C24BF51F8043B8F
:1002F00040F8043B08BF7047D20728BF31F8023BE3
:1003000048BF11F8012B28BF20F8023B48BF00F876
:10031000012B70474FF0000200B5134694469646F5
:10032000203922BFA0E80C50A0E80C50B1F1200108
:10033000BFF4F7AF090728BFA0E80C5048BF0CC0B6
:100340005DF804EB890028BF40F8042B08BF704714
:1003500048BF20F8022B11F0804F18BF00F8012B86
:100360007047704770477047074B70B50D467B4428
:1003700000F015F80446284600F024F810B14FF0BC
:10038000FF3070BD204670BDCF3A00000048704776
:10039000141D002001694A1C02610878704700B5ED
:1003A0008FB0CDE901310021059105497944CDE9AE
:1003B00003101146684600F029F90FB000BD000097
:1003C000E5FFFFFF007B00F08000704710B542485A
:1003D0005421FFF79FFF41485421FFF79BFF4048FE
:1003E0005421FFF797FF3F493B483C4A3F4B086089
:1003F0003D490A603A491960531C0365481C106561
:10040000012008653B48344A39A1784400F036F9A8
:1004100020B9384878440A3800F0D5F937482F4ACF
:1004200035A1784400F02AF920B9344878440A38D4
:1004300000F0C9F932482A4A2FA1784400F01EF989
:1004400020B92F4878440A3800F0BDF940232248EB
:10045000DC000021224600F0EDF820B12548784468
:10046000543800F0B0F91D4822464023002100F026
:10047000E1F820B121487844543800F0A4F9184834
:1004800022461023002100F0D5F8002806D01C4891
:100490007844BDE81040563800F095B910BD1048BA
:1004A00070B5006D20F001040B4800F05DF90B48B9
:1004B00000F05AF90A4800F057F909E0206D20F0E1
:1004C0000105204600F050F9204600F078F82C464F
:1004D000002CF3D170BD0000181C00206C1C002003
:1004E000C01C0020BC000020C0000020C400002070
:1004F00072000000AC470000770000009847000041
:10050000844700000EB5CDE9000100F0FAFA029030
:1005100069460120ABBE0EBD08B5694600900220B9
:10052000ABBE08BD1FB58DE8070069460520ABBE10
:1005300004B010BD1FB58DE80F0069460620ABBEA4
:10054000F6E708B5694600900920ABBE08BD1CB5AA
:10055000CDE9000169460A20ABBE1CBD704708B555
:10056000694600900C20ABBE08BD000000487047F3
:10057000141D00207546FFF7F9FFAE4605006946D9
:10058000534620F00700854618B020B5FFF75EFE01
:10059000BDE820404FF000064FF000074FF0000884
:1005A0004FF0000B21F00701AC46ACE8C009ACE805
:1005B000C009ACE8C009ACE8C0098D46704770B509
:1005C0000446051F00F008F90068002C14BF4468B9
:1005D00070BD002C18BFAC423CBF20466468F8D305
:1005E00001680A18AA4218BF456003D12A68054667
:1005F0001144016028684119A1421CBF6C6070BDA4
:100600006168696021680844286070BD2DE9F04187
:1006100006460024D6E90170F5688046304603E0BE
:100620004146B847641C3046A8470028F8D1204608
:10063000BDE8F08170B5C468A50713D0650211D478
:10064000B2F5807F09D0B2F5007F06D0B2F5806F99
:1006500008D1012300F1240106E05D1E6FF07F4602
:10066000B54201D3012070BD0161C361416024F432
:1006700070611143C160002070BD00002DE9F041A0
:100680000C4607461646104600F06EF82078611CAE
:1006900061280AD0722802D077283CD102E00125D7
:1006A000002405E00225042402E0082448F20205A3
:1006B00011F8010B2B2806D0622809D011F8010C83
:1006C00074280AD00BE045F0030544F00204EFE77C
:1006D00045F0040544F00104EAE744F0100438460C
:1006E0002146FFF70FFF411C15D0002131617160D9
:1006F0004FF40071F560F1617061200704D5304658
:100700000222002100F0E2F8306D40F00100306577
:100710003046BDE8F0810020FBE72DE9F0410D46B1
:100720000646104C206DC10704D0410804D020F0CB
:100730000104F7E722460EE0542000F098F8070085
:100740000ED0206D47F00101084354212065384642
:10075000FFF7E0FD3A4629463046BDE8F0418DE717
:100760000020D6E7181C00202DE9F04704464FF082
:1007700000094FF0FF37C568D4E90486A80707D001
:10078000204600F053F93046FFF7C6FE002802DA93
:100790003846BDE8F087280502D54046FFF70FFF31
:1007A0004C212046FFF7B6FD206D20F001002065AA
:1007B0004846EEE710B50446AFF300802046BDE89A
:1007C0001040FFF7E2BC10B500F07AF9BDE8104028
:1007D00000F070B970470000004870471C1D0020F1
:1007E000704770477047704738B504460A46002086
:1007F0006946AFF30080002808BF38BD0246009963
:10080000204600F0AAF9012038BD012000F072B99D
:10081000F8B5AFF30080054600200C46102000BF5D
:100820000646A819A0420DD9324669460020AFF30A
:100830000080070008BF00F05DF90098A04218BFD3
:100840000546C419FFF7C8FF05600746F01D20F0F4
:1008500007004619284600F079F9B44208BFF8BDF0
:10086000A21B31463868BDE8F84000F076B970B593
:100870000646FFF7B1FF056806F10B0020F00704FC
:10088000B4429CBF002070BD2B466A68BAB11068A4
:10089000A04210D304F1080188423CBF5068586060
:1008A00007D35168101941601168091B0160586035
:1008B0001460101D70BD13465268002AE7D121460E
:1008C0002846FFF791FF0028DED170BD2DE9F041E9
:1008D000044616460D464769007B80072ED03846F1
:1008E000FFF72FFE50BB3EB3012E02D0022E25D1C2
:1008F00004E0204600F04BF905441DE03846FFF7C0
:100900002EFEE168002841F01001E16005DA204682
:1009100000F058F80120BDE8F081C9030BD56268EA
:10092000E16A914200D81146A26911442269891AEC
:10093000814200DD08460544002D01DA0220EAE785
:10094000E16A6068E268814206D29103E06203D501
:1009500022F4003141F01002A6690027AE4213DCF8
:10096000E16A814201D90B4600E0034603EB060C25
:100970002369ACEB030CAC4506DD814201D98C4602
:1009800000E084469C4505D1A760276042F0200026
:10099000A5620DE0AD1BE669AE1B8142A66000D9E1
:1009A0000846C01A281A20605819606022F02000FA
:1009B00003490840E060002084F84870ABE700007D
:1009C000BFCFD7FFC16821F4001141F08001C160A1
:1009D00000218160016070472DE9F047814614468F
:1009E0000E464FF0FF383248D5685769054209D0A6
:1009F0003846A169FFF7ABFD002811DB2C48C04346
:100A00000540E5602B46324649463846FFF78AFDE9
:100A1000A16920F00042B21A11440028A16103D05C
:100A20002046FFF7CFFF4046BDE8F08770B504468B
:100A30000569C06A6168884200D80846E16821F407
:100A40002011E160C90312D5A84208D02246411BFB
:100A50002846FFF7C1FF10B14FF0FF3070BD0020F6
:100A6000E562C4E90150E06820F48030E0600020D5
:100A700070BD10B50446C06820F02000E060A16A97
:100A8000A06988420DD02046FFF7D0FFE06820F42F
:100A9000405040F01000E060A06AA0612069E06270
:100AA000606044F24001E0688843E06010BD0000EF
:100AB00010000200002801D000F042B8704700008A
:100AC00010B5014602A000F083F8012010BD00001F
:100AD00053494752545245443A20526564697265FD
:100AE00063743A2063616E2774206F70656E3A20DC
:100AF0000000000010B500F085F8BDE81040FFF7D9
:100B0000D9BF10B5431C02E010F8011B71B1810779
:100B1000FAD14FF0013202C88C1A8C4314EAC21188
:100B2000F9D0C01A0A0603D0C01E10BDC01A10BDED
:100B30000A0401D0801E10BD0902FCD0401E10BD69
:100B400001491820ABBEFEE726000200002101602B
:100B5000C0E90110704710207047034640688C467A
:100B6000002818BF88423CBF03464068F8D3186885
:100B70001844884207D00CF1030020F00700001D44
:100B8000411A521A0146081D0A60FFF718BD10B538
:100B90000146C268900703D0900607D5886A0AE02C
:100BA000FFF7F4FB01210160881E10BD8B694868C6
:100BB00018440B69C01A91F848301BB191F84910DC
:100BC000401A10BD1103FCD50028FADD401E10BDEF
:100BD00070B505460C460A2000E06D1C00F03AF89E
:100BE00035B128780028F8D102E0641C00F032F812
:100BF00014B120780028F8D1BDE870400A2000F038
:100C000029B8000010B5012805D0002103A0FFF786
:100C1000DFFF012010BD09A1F8E70000534947524A
:100C2000544D454D3A204F7574206F6620686561BC
:100C300070206D656D6F7279000000003A20486584
:100C40006170206D656D6F727920636F727275705F
:100C50007465640008B569468DF800000320ABBEDA
:100C600008BD000070B5044600688168C943C90723
:100C700017D1816821F00101816000F09FFC0546D9
:100C80000AE000BF00F09AFC401B022804D920684B
:100C90008068C043C00706D020688068C043C00792
:100CA000F0D0002070BDA06A40F01000A062E06AA1
:100CB00040F00100E062012070BDFEE770470000D7
:100CC0001148002140F26C72018041808180C18016
:100CD000018141818181C181018241828182C18200
:100CE000018341838183C1830184418482840622FC
:100CF000C284018541858185C185018641868186C1
:100D0000C186018741877047F819002010B5FFF7A9
:100D1000D7FFBDE810403E220149024802F0D0BB97
:100D2000F819002000F8000872B6FEE710B504E0DC
:100D300004A0FFF7B1FA02F025FA00F0ACF80028A1
:100D4000F6D010BD0D46424D333230206E6F206319
:100D50006F6E6E6563742E2E2E0D0A0030B58BB04B
:100D6000002405AA1221AA2000F078F80DF126012E
:100D7000D02000F069F80DF12701F12000F064F8AF
:100D800005A8694630F8142052BA21F81420641CD2
:100D9000E4B20A2CF6D3BDF8001023480A094FF438
:100DA000FF630284BDF8022003EA5214BDF8043048
:100DB00003F007052C434484D5B2BDF80820DB08B6
:100DC000144665F35F048484C384BDF806400B4673
:100DD00064F39F035208C0E90D32BDF80A204FF4B6
:100DE0007F75D3080385BDF80C3001F00C0163F367
:100DF000DF02C263BDF80E40E2084285BDF8103044
:100E00009A088285BDF8122003F0030305EA9215C3
:100E10001D43C585D2B2028604F0070242EA4101B1
:100E200041860BB030BD0000B819002010B5FFF7A7
:100E30007DFFB621E02000F01CF8642002F0D9FF0D
:100E4000BDE81040FFF78ABF0A4610B50146D8201A
:100E500001F01AFE002800D0012010BD13460A46FA
:100E600010B50146D82001F034FE002800D0012042
:100E700010BD0A4610B50146D82001F017FF002822
:100E800000D0012010BD08B569466B20FFF7DCFFDC
:100E90009DF8000008BD10B5FFF7F5FF422801D00E
:100EA000002010BD012010BD044B0022DA61044A6D
:100EB000136943F001031361018070478804002027
:100EC0000020024014480022C168CB06134904D513
:100ED000CA6942F00202CA611022C3685B0705D5E5
:100EE000CB6943F00103CB6142F00402C369DB0725
:100EF00007D0CB6943F00403CB61C16921F0010144
:100F0000C161A2F58071013901D0C2607047C16929
:100F100021F00101C16170470020024088040020D7
:100F200070B5054600F04AFB0646114C09E0681C06
:100F300007D025B100F042FB801BA84201D9032055
:100F400070BDE068C007F2D1E068800601D52020BE
:100F5000E060E068C00605D4E069C00702D1E0683F
:100F6000400703D5FFF7AEFF012070BD002070BD24
:100F700000200240064A0021D16106490A6942F078
:100F800002020A614861086940F040000861704748
:100F90009815002000200240F8B50024009490F835
:100FA00024202546012A12D0012280F824204A68F4
:100FB0001F23072A0DD20668776B521E02EB8202AE
:100FC00093409F430B6893401F43776319E00220CF
:100FD000F8BD06680D2A0AD2376BD21F02EB8202D7
:100FE00093409F430B6893401F43376309E0F76AC0
:100FF0000D3A02EB820293409F430B6893401F43DC
:10100000F7620A68072306680A2A0AD3F7680A3AC9
:1010100002EB420293409F438B6893401F43F7606B
:1010200008E0376902EB420293409F438B6893408C
:101030001F4337610A68102A01D0112A20D1124BB0
:1010400002689A4217D193681B0219D4936843F43B
:10105000000393600968102912D10C490C4A0968F1
:10106000B1FBF2F101EB8101490000E0491E009162
:101070000029FBD104E0816A41F020018162012452
:1010800080F824502046F8BD0024014014000020C0
:1010900040420F002DE9F0414FF0000704003D46AB
:1010A0007ED0A06A002628B9E66284F82460204633
:1010B00000F07EF82046FFF7D5FDA16AC90600D4EE
:1010C00020B1A06A40F01000A06269E0A16A21F49A
:1010D000885141F00201A1626268E169237B0A4301
:1010E00047EA43010A43A1684FF48077B94209D027
:1010F000012907D05FF0000194F814C0BCF1010F82
:1011000002D00AE03946F7E7F3B1A36A43F02003BF
:10111000A362E36A43F00103E3622368D3F804C0E7
:101120002CF4694C4CEA010CC3F804C021688B68AC
:10113000DFF870C003EA0C0313438B60A168B94267
:101140000BD0012909D00CE0DFF85CC0A3690CEBDF
:1011500043330B4343F40061DFE7218A0D05A5F516
:1011600080152168CB6A23F470032B43CB6221687E
:1011700089680E4B1940914208D1E662A16A21F0BC
:10118000020141F00101A162BDE8F081A06A20F0F6
:10119000020040F01000A062E06A40F00100E0624E
:1011A0000120F1E7FDF7E1FF00E0FFFFFE0E1FFF6A
:1011B00000B585B000210091019102910391006872
:1011C0000E49884218D10E48816941F4007181614D
:1011D000816901F400710491816941F00401816128
:1011E0008069694600F0040004900220009003200A
:1011F0000190044800F0E8F805B000BD002401406B
:10120000001002400008014010B590F821100022A3
:10121000022905D00421816380F82020012010BD1F
:1012200001680B6823F00E030B6001680B6823F064
:1012300001030B6090F84030C46B012101FA03F305
:10124000636080F8211080F82020104610BD000057
:1012500010B590F821100024022903D004218163E5
:1012600001243DE001680A6822F00E020A6001686C
:101270000A6822F001020A601A4A0168914201D10B
:10128000012121E0174A1432914201D110211BE0C3
:10129000144A2832914201D1891515E0114A3C3295
:1012A000914201D189140FE00E4A5032914202D18D
:1012B0004FF4803108E00B4A6432914202D14FF47E
:1012C000801101E04FF08071064A083A5160012117
:1012D00080F82110002180F82010416B01B188476F
:1012E000204610BD0800024070B5044600F066F9C3
:1012F0000546601C02D004480078044400F05EF902
:10130000401BA042FAD370BD0800002003480169C9
:1013100041F0800101610020704700000020024080
:101320002DE9F05F07461C4888460024017E1546DB
:101330001E46012909D00121814601764CF2503A1E
:101340005046FFF7EDFD18B122E00220BDE8F09F06
:10135000012F02D0022F00D00427D346DFF83CA093
:10136000220128463146FEF783FF81B208EB440094
:10137000FFF79AFD5846FFF7D3FDDAF8102022F068
:101380000102CAF8102018B9641CE4B2BC42E7D3C9
:10139000002289F81820D9E78804002000200240A4
:1013A000064900200A69120607D5054A4A60054A1F
:1013B0004A600969090600D50120704700200240F3
:1013C00023016745AB89EFCD2DE9F84FDFF8B891E0
:1013D0000024A9F1040B23460F2709F1040AABF1FD
:1013E000040EC9E00125A5402A40AA427DD1674EDE
:1013F000D1F804C0ACEB0608B44532D014DCBCF123
:10140000030F3AD009DCBCF1000F2AD0BCF1010F68
:101410001CD0BCF1020F31D11DE0BCF1110F17D06F
:10142000BCF1120F2AD119E0B8F5881F19D006DCDB
:10143000B8F5803F15D0B8F5801F1FD111E0B8F581
:10144000001F0ED0B8F5041F18D10AE0CB6815E0D4
:10145000CB681B1D12E0CB6808330FE0CB680C3360
:101460000CE08B682BB1012B4FF0080303D04561D2
:1014700004E0042302E0056100E00023FF2A01D814
:10148000064601E000F104064FEA840501D9A5F102
:101490002005D6F8008007FA05FC28EA0C0803FAB4
:1014A00005F548EA0508C6F800804D68ED0062D5EC
:1014B000374DAE6946F00106AE61AD6924F0030612
:1014C00005F001050095334D06EB050CDCF80850DE
:1014D000A607360F07FA06F825EA0805DFF8B880F0
:1014E000404503D14FF0000817E044E0DFF8AC803E
:1014F000404502D14FF001080FE0DFF8A4804045DD
:1015000002D14FF0020808E0DFF89880404502D190
:101510004FF0030801E04FF0040808FA06F848EA23
:101520000508CCF808804D68D9F80060ED024D46FA
:1015300001D5164300E096432E604D68DAF800604E
:10154000AD02554601D5164300E096432E604D6826
:10155000DBF80060AD035D4601D5164300E096431D
:101560002E604D68DEF80060ED03754601D5164328
:1015700000E096432E60641C0D682A46E5407FF427
:1015800031AFBDE8F88F00000804014000001110E1
:10159000001002400000014000080140000C014022
:1015A00000100140001401408068084000D0012074
:1015B00070470AB1016170470904FBE70148806880
:1015C000704700000800002002488168027811443A
:1015D0008160704708000020074810B5016841F09D
:1015E00010010160032000F0A7F80F2000F006F8BA
:1015F00000F050F8002010BD0020024030B5054634
:101600001F4887B0C16941F00401C161C06906A9E2
:1016100000F00400009001A800F0ACF90498B0B10B
:1016200000F0C8F940001749174AB0FBF1F117481C
:10163000491E0260416040F2E7320021C0E9032107
:101640008160816100F04EFD040003D015E000F0E0
:10165000B1F9E8E70D4800F087FD04000DD11E2028
:1016600000F03CF8102D07D2002229461E2000F081
:1016700043F80748056000E0012407B0204630BD6C
:101680000010024040420F000008004040040020CB
:101690000C0000200F4808B5816941F0010181610B
:1016A000816901F001010091C16941F08051C1617E
:1016B000C069002200F0805000900F21901E00F0C1
:1016C0001BF80548416821F0E06141F0007141607C
:1016D00008BD00000010024000000140002809DBA6
:1016E00000F01F02012191404009800000F1E0203C
:1016F000C0F8001170470000F0B40E4B1B680C4698
:10170000C3F30223C3F10705042D00D90425191DD5
:10171000072901D2002300E0DB1E012606FA05F1AD
:10172000491E214099409E40761E16403143F0BC30
:1017300002F04FBB0CED00E0064900F0070208681C
:101740004FF6FF03184040EA0220034A10430860A6
:10175000704700000CED00E00000FA052DE9F843A9
:1017600005460078354CC00754D0E0690026C0001B
:1017700008D4E06940F08050E061E069012600F0A3
:10178000805000902E480168C90512D40168804637
:1017900041F480710160FFF711FF074605E000BFCB
:1017A000FFF70CFFC01B642823D8D8F80000C00541
:1017B000F6D5206A10F4407021D0A98801F4407158
:1017C00081421CD0206A1F49012220F440700A6027
:1017D00000220A602062C00711D0FFF7EFFE074623
:1017E00041F2883808E000BFFFF7E8FEC11B414521
:1017F00002D90320BDE8F883206A8007F4D5206A67
:10180000696820F44070084320621EB1E06920F04E
:101810008050E0612878800705D56068A96820F4C9
:101820004040084360602878C00605D56068E968D4
:1018300020F48000084360600020DBE700100240D5
:1018400000700040400442422DE9F0470F46050079
:1018500061D0434E306800F00700B84209D23068CA
:1018600020F0070038433060306800F00700B842CD
:1018700051D128683B4C810712D5400703D56068D9
:1018800040F4E06060602878000703D5606840F4A9
:10189000605060606068A96820F0F00008436060F4
:1018A0002878C00728D06868012810D0216802284D
:1018B00010D0890700292EDA616821F00301014365
:1018C0006160FFF77BFE804641F288390DE02168B8
:1018D0008903EFE78901EDE7FFF770FEA0EB080150
:1018E000494502D90320BDE8F0876068696800F0C7
:1018F0000C00B0EB810FEFD1306800F00700B84268
:101900000BD9306820F0070038433060306800F0B1
:101910000700B84201D00120E5E72878400705D547
:101920006068E96820F4E060084360602878000798
:1019300006D56068296920F4605040EAC100606003
:1019400000F058F86168084AC1F30311515CC840BF
:101950000649086006480068FFF750FE0020C2E70D
:101960000020024000100240A24B0008140000209A
:101970000C0000200F2202600C4A536803F003039E
:101980004360536803F0F0038360536803F4E0633B
:10199000C36052684FF4E06303EAD2020261044874
:1019A000006800F007000860704700000010024067
:1019B000002002400448054900684968044AC1F310
:1019C0000221515CC8407047140000200010024002
:1019D000B24B00080448054900684968044AC1F34D
:1019E000C221515CC8407047140000200010024022
:1019F000B24B00080E4A51680E4801F00C03042B4C
:101A000011D0082B0FD10C48C1F38343C903C05C2C
:101A10000AD55168084AC1F34041921E515C054AFB
:101A20005043B0FBF1F07047044948437047000051
:101A30000010024000127A00924B000800093D009D
:101A40002DE9F84F040070D02078C04DC00749D070
:101A50006868C0F38100012807D06868C0F381007E
:101A6000022809D16868C00306D52868800339D5E3
:101A700060680028E7D035E06068B0F5803F0BD0A3
:101A800010B1B0F5A02F11D0286820F48030286064
:101A9000286820F4802002E0286840F48030286024
:101AA000606890B1FFF78AFD06460AE0286840F4B6
:101AB00080202860F0E700BFFFF780FD801B6428CE
:101AC00073D828688003F7D50CE0FFF777FD06464A
:101AD00005E000BFFFF772FD801B6428F0D828687E
:101AE0008003F7D420789A4E80074FF001094FF019
:101AF000000839D5686810F00C0F07D06868C0F38B
:101B00008100022809D16868C00306D428688007CC
:101B100014D52069012808D110E02069B0B1C6F8B9
:101B20000090FFF74BFD074605E00AE1FFF746FD91
:101B3000C01B0228C4D828688007F7D528686169C7
:101B400020F0F80040EAC10028600DE0C6F80080EF
:101B5000FFF734FD074604E0FFF730FDC01B022805
:101B600023D828688007F7D4207800072CD5794837
:101B7000A169D9B1C0F80090FFF720FD074604E045
:101B8000FFF71CFDC01B02280FD8686A8007F7D535
:101B900071484FF4FA510068B0FBF1F0009000BFBB
:101BA0000098411E0091FAD20EE080E0C0F800805B
:101BB000FFF704FD074604E0FFF700FDC01B022805
:101BC00075D8686A8007F7D42078400760D5E8693F
:101BD0000027C00008D4E86940F08050E861E86957
:101BE000012700F0805000905C480168C90513D4BB
:101BF0000168834641F480710160FFF7DFFC824693
:101C000006E000BFFFF7DAFCA0EB0A0064284ED81C
:101C1000DBF80000C005F5D5E06801280AD008B15E
:101C2000052813D0286A20F001002862286A20F0D5
:101C3000040002E0286A40F001002862E06841F2F6
:101C4000883B98B1FFF7BAFC82460BE0286A40F067
:101C500004002862EEE700BFFFF7B0FCA0EB0A012A
:101C600059455AD8286A8007F6D50CE0FFF7A6FC3C
:101C7000824605E0FFF7A2FCA0EB0A0159454CD8CB
:101C8000286A8007F6D41FB1E86920F08050E86127
:101C9000E06988B36968C1F38101022944D0022850
:101CA000C6F8608004D0FFF789FC044638E034E0D1
:101CB000FFF784FC074604E0FFF780FCC01B022806
:101CC0002BD828688001F7D4206AB0F5803F05D171
:101CD0006868A16820F4003008436860D4E908010E
:101CE0000843696821F4741108436860C6F860907D
:101CF000FFF764FC044606E025E000BFFFF75EFC4A
:101D0000001B022809D828688001F7D51BE000BF16
:101D1000FFF754FC001B022802D90320BDE8F88F0E
:101D200028688001F4D40EE00128F7D06868226AA0
:101D300000F48031914204D1616A00F4701088424D
:101D400001D00120EAE70020E8E70000001002408F
:101D50000000424280044242140000200070004013
:101D600070B5040009D0606A002540B12561656145
:101D7000A56294F8510040B10CE0012070BD60688C
:101D8000B0F5827FF4D0E561F2E784F85050204648
:101D900000F040F8022084F851002068016821F02A
:101DA00040010160A088218900F4827001F404419F
:101DB0000843A18901F400610843217C01F002017C
:101DC0000843217D01F001010843218B01F40071DA
:101DD0000843217F01F03801084394F8201001F0F6
:101DE00080010843218D01F40051084321680860F7
:101DF000A069042101EA1040216848602068C16997
:101E000021F40061C1616565012084F85100002062
:101E100070BD000030B585B0002400940194029498
:101E2000039400681549884225D11548C16941F4D9
:101E30008041C161C16901F480410491816941F02F
:101E40000801816180690F4D00F0080004904FF493
:101E5000204000900220019003200390694628460C
:101E6000FFF7B2FA4FF48040CDE9000469462846F6
:101E70000294FFF7A9FA05B030BD00000038004019
:101E800000100240000C01402DE9FF4F81B01D46BB
:101E9000934604464FF001090E9EFFF78FFB07465D
:101EA00094F851006168012806D0B1F5827F3CD1D9
:101EB000A168C9BB042838D10298002871D0BBF1B1
:101EC000000FFBD0002DF9D094F8500001282CD041
:101ED0004FF0010A84F850A094F85100042802D071
:101EE000052084F851004FF00008C4F85480C4F86D
:101EF00038B0E587A58702992163E586A586C4F8F1
:101F00004080C4F8448020680168490603D4016811
:101F100041F040010160E068B0F5006F606808D0F2
:101F2000F0B3012D49D081E0FFE7022005B0BDE804
:101F3000F08F08B1012D39D1206B21680088C8606D
:101F4000206B801C2063E08E401EE0862EE020681F
:101F5000816889070FD5E18E69B1B9F1010F0AD106
:101F6000216B0988C160206B801C2063E08E401EBD
:101F7000E0864FF0000920688168C9070CD0E18F26
:101F800051B1C068A16B0880A06B801CA063E08F7A
:101F9000401EE0874FF00109FFF710FBC01B01E076
:101FA0000BE067E0B04201D3701C50D1E08E0028F6
:101FB000CDD1E08F0028CAD13EE0206B21680078A7
:101FC0000873206B401C2063E08E401EE0862DE0ED
:101FD0002068816889070FD5E18E69B1B9F1010FD9
:101FE0000AD1216B09780173206B401C2063E08EBD
:101FF000401EE0864FF0000920688168C9070CD0B8
:10200000E18F51B1C068A16B0870A06B401CA06348
:10201000E08F401EE0874FF00109FFF7CFFAC01BA9
:10202000B04202D3701C01D011E086B1E08E0028CE
:10203000CED1E08F0028CBD13A463146204601F080
:10204000BBF950B12020606584F8508012E084F81C
:1020500051A084F85080032068E7A06818B9206870
:10206000C1688068009084F851A084F85080606D49
:102070000028F1D0012059E77047704770B590F8FB
:102080003C20012A26D0012480F83C40022280F81E
:102090003D2003685A689D6822F070060A68324342
:1020A0005A600D4B02689A4208D0B2F1804F05D0B9
:1020B0000A4B9A4202D00A4B9A4204D1496825F051
:1020C00080031943916080F83D40002180F83C1066
:1020D000084670BD022070BD002C01400004004085
:1020E0000008004010B5040003D094F83D0010B182
:1020F00007E0012010BD002084F83C00204600F0DD
:102100001FF8022084F83D00211D206801F0C2FA6A
:10211000012084F8460084F83E0084F83F0084F8EB
:10212000400084F8410084F8420084F8430084F8B9
:10213000440084F8450084F83D00002010BD0000F4
:1021400008B500680649884208D10648C16941F0CF
:102150000201C161C06900F00200009008BD0000EA
:10216000000400400010024090F83D10012901D009
:1021700001207047022180F83D100168CA6842F0D2
:102180000102CA6000680B49884208D0B0F1804F54
:1021900005D00949884202D00849884204D18168A3
:1021A00001F00701062903D0016841F00101016037
:1021B00000207047002C014000040040000800404F
:1021C00070B5044690F83C000025012817D0012680
:1021D00084F83C60022084F83D002068826822F088
:1021E000770222F47F4282600868502838D00DDCE4
:1021F00020284FD005DC90B3102811D14AE00220EE
:1022000070BD302846D040280AD13BE060282FD04E
:1022100070280DD0B0F5805F03D0B0F5005F12D00C
:10222000012584F83D60002084F83C00284670BDFC
:10223000CB68D1E90121206801F068FA2068816843
:1022400041F0770109E0CB68D1E90121206801F074
:102250005DFA2068816841F480418160E1E719E01E
:10226000CA684968206801F005FB5021206806E033
:10227000CA684968206801F00EFB6021206801F0FF
:102280004FFACEE7CA684968206801F0F3FA4021A6
:102290002068F4E7226801461046F0E770472DE910
:1022A000F04104460068C66805694FF00007A907B9
:1022B00013D5B10711D5F91E0161012020772068DF
:1022C00080698007204602D0FFF7E8FF04E000F0B5
:1022D000B7F8204600F049F92777680716D5700748
:1022E00014D521686FF0040008610220207720686F
:1022F000806910F4407F204602D0FFF7CFFF04E052
:1023000000F09EF8204600F030F92777280715D511
:10231000300713D521686FF008000861042020778A
:102320002068C0698007204602D0FFF7B7FF04E0AD
:1023300000F086F8204600F018F92777E80616D551
:10234000F00614D521686FF010000861082020778E
:102350002068C06910F4407F204602D0FFF79EFF3E
:1023600004E000F06DF8204600F0FFF82777E8075A
:1023700008D0F00706D021686FF001000861204600
:1023800000F0F4F8280608D5300606D521686FF06D
:10239000800008612046FFF76FFE680608D57006CA
:1023A00006D521686FF040000861204600F0E8F88B
:1023B000A8060AD5B00608D521686FF0200008618C
:1023C0002046BDE8F041FFF758BEBDE8F0810000AF
:1023D00010B586B00021009101910291039100682F
:1023E0001349884221D11348816941F00401816178
:1023F000816901F004010491816941F00801816162
:102400008069022400F008000490C020CDE9000497
:10241000694609480394FEF7D7FF0320CDE900047D
:10242000694606480394FEF7CFFF06B010BD0000D2
:10243000000400400010024000080140000C014070
:10244000704770B5044690F83C0000260D46012800
:102450000FD0012084F83C006AB1042A1DD0082A5C
:102460002FD00C2A3FD00126002084F83C003046B3
:1024700070BD022070BD206801F05AF920688169A2
:1024800041F0080181612068816921F004018161C6
:10249000206881692A69114311E0206801F070F910
:1024A0002068816941F4006181612068816921F4BB
:1024B00080618161206881692A6941EA0221816124
:1024C000D2E7206801F088F92068C16941F008016D
:1024D000C1612068C16921F00401C1612068C1693E
:1024E0002A69114311E0206801F0A2F92068C1694E
:1024F00041F40061C1612068C16921F48061C1615A
:102500002068C1692A6941EA0221C161ACE710B5BE
:10251000040003D094F83D0010B107E0012010BD85
:10252000002084F83C00204600F01EF8022084F8C9
:102530003D00211D206801F0ADF8012084F846001F
:1025400084F83E0084F83F0084F8400084F841009D
:1025500084F8420084F8430084F8440084F845007D
:1025600084F83D00002010BD7047704700680349A3
:10257000884201D1FFF728B87047000000080040EA
:102580007047704770470000F8B501680446086856
:10259000CA684B6910F00F0F4FF0000559D003F0D7
:1025A000010602F49077374365D0C10705D0D10505
:1025B00003D5616C41F001016164410705D5D9077C
:1025C00003D0616C41F002016164810705D5D90730
:1025D00003D0616C41F004016164010707D502F08A
:1025E0002001314303D0616C41F008016164616CEA
:1025F00000293AD0800604D5900602D5204601F085
:102600006CFA20684069616CC0F38010090700D43F
:1026100060B3204601F03AFA20684069400621D5AF
:102620002068143050E8001F21F0400140E80012FB
:10263000002AF5D1E06BA8B16D494163E06BFEF76C
:1026400007FE002811D0E06B416B01B0BDE8F040FF
:10265000084783060FD593060DD52046BDE8F84000
:1026600001F03BBA2046FFF78DFFF8BD2046FFF78B
:1026700089FF6564F8BD266B2023012E7CD1C60638
:102680007AD5D60678D508684868009048694FF032
:102690000206400640D5E16B086840680004000C63
:1026A000E8D0A28D8242E5D9E085886920282DD026
:1026B00020680C3050E8001F21F4807140E80012BF
:1026C000002AF5D12068143050E8001F21F00101E4
:1026D00040E80012002AF5D12068143050E8001FAD
:1026E00021F0400140E80012002AF5D184F8423080
:1026F000256320680C3050E8001F21F0100140E8ED
:102700000012002AF5D1E06BFEF77EFD6663A08D16
:10271000E18D401A81B22AE0A08DE18D401A81B28C
:10272000E08D0028A6D00029A4D022680C3252E8FF
:10273000000F20F4907042E80007002FF5D12068C8
:10274000143050E8002F22F0010240E80027002F4B
:10275000F5D184F84230256320680C3050E8002F12
:1027600022F0100240E80023002BF5D166632046DA
:10277000FFF707FFF8BDFFE705062BD5150629D59E
:1027800094F841002128F5D1A068B0F5805F01D10F
:102790002069B0B1206A411C21622168007848603C
:1027A000E08C401E0004000CE084E3D12068C16886
:1027B00021F08001C1602068C16841F04001C16022
:1027C000D8E7206A0088C0F308004860206A801CAF
:1027D0002062E5E74006CDD55006CBD5CA68204635
:1027E00022F04002CA6084F8413000F0C6F8C1E728
:1027F0007D3A000870B5040004D094F8410000252B
:1028000010B106E0012070BD84F84050204600F071
:1028100023F8242084F841002068C16821F4005185
:10282000C160204601F0BAF92068016921F49041A5
:1028300001612068416921F02A0141612068C16875
:1028400041F40051C1606564202084F8410084F89F
:1028500042006563002070BD30B585B0002400944F
:102860000194029403940068184988422CD11848B6
:10287000816941F480418161816901F48041049161
:10288000816941F0040181618069124D00F004000A
:1028900004904FF4007000900220019003200390F8
:1028A00069462846FEF790FD2815CDE900046946E3
:1028B00028460294FEF788FD002205212520FEF718
:1028C0001BFF2520FEF70AFF05B030BD0038014090
:1028D000001002400008014070472DE9F84304460B
:1028E00090F84100984616460D46202802D0022056
:1028F000BDE8F88385B17EB100206064212084F8B2
:102900004100FEF75BFEA6848146E684A06820278E
:10291000B0F5805F02D003E00120E9E7206910B143
:102920002E4600250EE000260CE08021204601F016
:1029300091F9A8B9C6B116F8010B21684860E08C7E
:10294000401EE084E08C4B464FF00002CDF8008042
:102950000028EAD14FF04001204601F07BF940B158
:1029600084F841700320C3E735F8020BC0F3080078
:10297000E3E784F841700020BAE77047FEE7000003
:1029800070B5104D4FF40044002221462846FEF752
:1029900010FE00F055FC002208210B48FEF709FE4E
:1029A000012001F033FA012221462846FEF701FEFC
:1029B000022001F02BFA21462846BDE87040002293
:1029C000FEF7F7BD00080140000C014070B5104D46
:1029D0004FF40044002221462846FEF7EAFD00F0AD
:1029E0002FFC012208210B48FEF7E3FD012001F036
:1029F0000DFA012221462846FEF7DBFD012001F0F9
:102A000005FA21462846BDE870400022FEF7D1BDF8
:102A100000080140000C01402DE9F04780460024E9
:102A200000F0F2FB164FDFF85C9000254FF40046F3
:102A3000002231463846FEF7BCFD012001F0E6F9E0
:102A4000012231463846FEF7B4FD6006040E082127
:102A50004846FEF7A9FD08B1641CE4B2012001F06C
:102A6000D5F96D1CEDB2082DE2D3B8F1000F02D0FC
:102A7000FFF786FF01E0FFF7A9FF2046BDE8F087DA
:102A800000080140000C014070B515460E46044692
:102A900000F08AF8204600F04FF800F0D3F818B1A3
:102AA00000F0A8F8012070BD304600F045F800F0B5
:102AB000C9F800F079F8641CE0B200F03DF800F0CD
:102AC000C1F80020FFF7A8FF287000F093F800205D
:102AD00070BD2DE9F0411F46154688460646002484
:102AE00000F062F8304600F027F800F0ABF820B1B3
:102AF00000F080F80120BDE8F081404600F01CF8AD
:102B000000F0A0F800F050F8761CF0B200F014F8D5
:102B100000F098F86E1E09E0B44201D0012000E0F8
:102B20000020FFF779FF3855641CE4B2AC42F3D3C0
:102B300000F060F80020DEE72DE9F041054600F0E6
:102B40007FFB174F4FF40046002231463846FEF710
:102B500030FDDFF850800024280601D5012200E076
:102B6000002208214046FEF724FD6806050E0120DC
:102B700001F04CF9012231463846FEF71AFD0120DA
:102B800001F044F9002231463846FEF712FD0120DB
:102B900001F03CF9641CE4B2082CDDD3BDE8F081FF
:102BA00000080140000C014070B500F049FB0F4CDB
:102BB000012208212046FEF7FCFC01220C4ED50321
:102BC00029463046FEF7F5FC042001F01FF90022EB
:102BD00008212046FEF7EDFC042001F017F92946F4
:102BE0003046BDE870400022FEF7E3BC000C014017
:102BF0000008014070B500F023FB104D4FF4004475
:102C0000002221462846FEF7D4FC0D4E0022082162
:102C10003046FEF7CEFC042001F0F8F801222146F0
:102C20002846FEF7C6FC012208213046FEF7C1FC0B
:102C3000BDE87040042001F0E9B800000008014040
:102C4000000C01402DE9F041002400F0DDFA154DA3
:102C5000012208212846FEF7ACFC012001F0D6F83D
:102C60000122114FD60331463846FEF7A2FC01205F
:102C700001F0CCF808E0641CE4B2FA2C04D9FFF7A8
:102C8000B9FF0120BDE8F08108212846FEF78CFC41
:102C90000028F0D1002231463846FEF78AFC002099
:102CA000F0E70000000C01400008014070B5154637
:102CB0000E460446FFF778FF2046FFF73DFFFFF77B
:102CC000C1FF50B93046FFF737FFFFF7BBFF28467B
:102CD000FFF732FFFFF7B6FF18B1FFF78BFF0120B8
:102CE00070BDFFF787FF002070BD000010B504E045
:102CF00004A0FDF7D1FA00F069FA00F055F80028B9
:102D0000F6D010BD0D4D505536303530206E6F2049
:102D1000636F6E6E6563742E2E2E0D0A0000000028
:102D200010B5FFF7E3FF80216B2000F02BF8642043
:102D300001F05FF801216B2000F024F80021382019
:102D400000F020F818211B2000F01CF808211C209E
:102D500000F018F804211A2000F014F800211920BE
:102D600000F010F80221BDE81040372000F00AB84A
:102D70000A4610B50146D020FFF786FE002800D095
:102D8000012010BD0A4610B50146D020FFF78EFF86
:102D9000002800D0012010BD08B569467520FFF756
:102DA000E7FF9DF8000008BD10B5FFF7F5FF6828A4
:102DB00001D0002010BD012010BD00003EB5002153
:102DC0001148009101910F4A0291026081600173E4
:102DD000017501244FF460220461C2614160FEF775
:102DE00059F908B1FDF7A0FF02200094CDE9014098
:102DF00069460548FEF7D0F8002801D0FDF794FF9A
:102E00003EBD0000002401402803002010B58EB014
:102E10001C220B496846FDF74BFA0021684601F079
:102E20004CF8084C06491C2220601C3107A8FDF70D
:102E30003FFA002107A801F040F860600EB010BD15
:102E4000584B0008000000202DE9F04385B0002415
:102E50002A480094019402940394816941F020016E
:102E60008161816901F020010491816941F00401CF
:102E70008161816901F004010491816941F00801D7
:102E800081618069DFF8789000F0080004900022EA
:102E900041F25C214846FEF78CFBDFF868804FF476
:102EA0000147002239464046FEF783FB41F21C00F1
:102EB00001250226CDE90005CDE9024669464846CE
:102EC000FEF782FA00970396CDE901546946404621
:102ED000FEF77AFA20208DE8310069464846FEF771
:102EE00073FA4FF410708DE8610003200390694677
:102EF0004846FEF769FA05B0BDE8F08300100240CD
:102F0000000C014000080140104810B50E49016056
:102F10004FF48271416000218160C1604FF4007202
:102F20000161C0E905121822C0E9072141628162EE
:102F30000A21C162FEF714FF002803D0BDE810404B
:102F4000FDF7F2BE10BD000000380040580300201D
:102F500010B58EB000240794089409940A940B9439
:102F60001C2168460C94FDF7D5F92B4829490160CE
:102F70004FF43471C0E901144FF4FA61C0E903144D
:102F800080218161FFF7AEF808B1FDF7CDFE4FF467
:102F90008050079007A92048FFF712F908B1FDF704
:102FA000C3FE1D48FFF7B3FA08B1FDF7BDFE0B9451
:102FB0000BA919480C94FFF761F808B1FDF7B4FEAE
:102FC0006020CDE90004029400226946124804946E
:102FD000FFF737FA08B1FDF7A7FE042269460E484D
:102FE000FFF72FFA08B1FDF79FFE082269460A484D
:102FF000FFF727FA08B1FDF797FE0C22694606484D
:10300000FFF71FFA08B1FDF78FFE0348FFF7E0F95D
:103010000EB010BD00040040B00300200C4810B5F5
:103020000A4901604FF4E1314160002181600C22C6
:10303000C160C0E904128161C161FFF7DBFB0028B8
:1030400003D0BDE81040FDF76FBE10BD0038014051
:10305000F8030020FEE7FEE710B53E220E490F48B8
:1030600000F020FA00F02AFC0B484FF6FF71428A6C
:103070008A420CD182898A4209D1008B884206D1CA
:10308000FDF744FEBDE8104005A0FDF705B9BDE819
:103090001040FDF73BBE0000F819002000F80008C2
:1030A000466C6173682052656164204572726F726C
:1030B0002121210D0A00000010B50C4C20212046D2
:1030C000FEF772FA00280FD13220FEF70DF9202109
:1030D0002046FEF769FA0028F9D020460022BDE814
:1030E00010404021FEF765BA10BD0000000C014001
:1030F00030B517490020184B81F83800154A174D94
:10310000C1E90823174985F83800154CC5E908417D
:10311000154D85F83800C5E90823144D85F83800A9
:10312000C5E90841124D85F83800C5E90823114A60
:1031300082F83800C2E908410F4A82F8380010626C
:1031400050620E4A82F838000D48C2E9080130BDCD
:10315000EC1A00200000164300009644381A0020A4
:1031600000000C4200004843281B0020741A002075
:10317000641B0020B01A0020A01B0020DC1B0020D4
:103180000000C84210B500240021FF22084600F0CC
:1031900013FE641CE4B2042CF6D310BD10B5002459
:1031A00000221146104600F007FE641CE4B2042C15
:1031B000F6D310BD10B500240022FF21104600F008
:1031C000FBFD641CE4B2042CF6D310BD10B5002442
:1031D00000221146FF2000F0EFFD641CE4B2042C35
:1031E000F6D310BD70B505465FF0000405FA04F093
:1031F000C00702D000F0A6FD01E000F06DFD641CE8
:10320000E4B2082CF2D370BD00B585B00020019067
:1032100002900948816941F008018161806969462D
:1032200000F008000490082000900220039003485A
:10323000FEF7CAF805B000BD00100240000C0140C6
:1032400000B585B0002002900A48816941F008016C
:1032500081618069694600F00800049008200090B0
:1032600001200190022003900348FEF7ADF805B05D
:1032700000BD000000100240000C014010B504E049
:1032800004A0FDF709F8FFF795FF00F071F800289A
:10329000F6D010BD0D20534932345231206E6F20CC
:1032A000636F6E6E6563742E2E2E0D0A0000000093
:1032B00010B5FFF7E3FF012211030548FEF779F986
:1032C000BDE8104000224FF480710248FEF771B94A
:1032D000000C0140000801402DE9F047DFF8409064
:1032E00016460D4604464FF4805800224146484693
:1032F000FEF75FF9204601F031F80746002405E0AB
:10330000FF2001F02BF805F8010B641CB442F7DB39
:10331000012241464846FEF74CF93846BDE8F087A1
:10332000000C01402DE9F047DFF8409016460D46AD
:1033300004464FF48058002241464846FEF739F9CA
:10334000204601F00BF80746002404E0287801F03D
:1033500005F8641C6D1CB442F8DB01224146484666
:10336000FEF727F93846BDE8F0870000000C014061
:103370001CB50FA10522D1E90001CDE90001694684
:103380003020FFF7CFFF052269461020FFF7A4FF8A
:10339000002069460A5CA52A03D1401CC0B205285A
:1033A000F8D3052801D000201CBD01201CBD000061
:1033B000A5A5A5A5A5000000F8B515460E460B4627
:1033C000009204460122022100F010F840B9334671
:1033D000002280212046009500F008F8002804D043
:1033E000606D40F0200060650320F8BD2DE9F843D2
:1033F0001E46914688460446089DFEF7DFF8401BAE
:10340000351AFEF7DBF8074625480068C0F3CB30D5
:10341000684338E0701C37D0FEF7D0F8C01BA842D4
:1034200003D215B1009860B32CE02068416821F008
:10343000E00141606068B0F5827F0BD1A068B0F513
:10344000004F02D0B0F5806F04D12068016821F0F0
:1034500040010160A06AB0F5005F09D120680168F1
:1034600021F4005101602068016841F400510160BD
:10347000012084F85100002084F850000320BDE8AA
:10348000F8830025401E00902068816838EA01001A
:1034900004D000214945BDD10020F0E70121F9E722
:1034A0001400002010B5002306E000BF30F8024BE6
:1034B00021F813405B1C9BB29342F7D310BD000070
:1034C0002DE9F05FA0F1006415468A468346B4F505
:1034D000803F5FD2FDF764FFA70AC4F34806C6F534
:1034E0000074A54200D82C46DFF8AC904FF0006085
:1034F00000EB872080464FF400722749FFF7D2FF88
:1035000000204FF6FF7106E0331839F813208A4285
:1035100003D1401C80B2A042F6D3A0422ED2404636
:10352000FDF728FD4CF25030FDF7FAFC1B4801690D
:1035300021F0020101610020494606E03AF810201E
:103540008319401C21F8132080B2A042F6D31249FF
:1035500040464FF4007200BF00F022F8A54215D09B
:10356000281B0AEB440A0BEB440B002685B24FF4F0
:1035700000747F1CA542B9D82C46B7E74CF25030F6
:10358000FDF7CEFC224651465846E5E7BDE8F05F20
:10359000FDF7BCBEBDE8F09FB8150020002002403A
:1035A0002DE9F04116460F46054600240AE000BF0B
:1035B00037F81420002329460120FDF7B1FE641CD2
:1035C000A4B2AD1CB442F3D3BDE8F081012000F0F9
:1035D00068FCFBE7FFF770FD142000F062FCF9E7E0
:1035E00010B5502080F31188BFF34F8FBFF36F8F5A
:1035F00001F0CAF818B104494FF08050086000206B
:1036000080F3118810BD000004ED00E030B593B0E8
:1036100028216846FCF77EFE14210AA8FCF77AFEF2
:10362000002501200F9510951195010412958DE844
:10363000230004904FF4E010CDE908100224079411
:103640006846FEF7FDF908B172B6FEE70AA90F2039
:1036500081E831004FF48060CDE90D0502210AA810
:10366000FEF7F2F808B172B6FEE74FF40040119091
:103670000F940FA8FEF772F8002801D072B6FEE78B
:1036800013B030BD704700000148FEF708BE0000CF
:1036900040040020F0B50268194B1A4C1A4D4FF047
:1036A0008047984205D0B84203D0A04201D0A8423A
:1036B00003D122F070064A683243984205D0B842DE
:1036C00003D0A04201D0A84203D122F44074CA68BA
:1036D00022434C6922F08002224302608A68C2625F
:1036E0000A688262984201D109690163012141613E
:1036F0000169C90703D0016921F001010161F0BD31
:10370000002C0140000400400008004010B584680F
:1037100042EA032224F47F440A432243826010BD1C
:10372000826822F070020A4342F00701816070470C
:1037300030B5036A026A22F00102026242688469BB
:1037400024F073050C682C4323F002058B682B438F
:103750000A4DA8420BD123F00805CB6822F4407231
:103760002B434D6923F0040315438A692A434260C1
:10377000846149684163036230BD0000002C014050
:1037800030B5026A036A23F0100303624368846958
:103790000D6824F4E64444EA05248D6822F02002F2
:1037A00042EA05120B4DA8420ED1CD6822F08002EC
:1037B00042EA05124D6923F4406343EA85038D69AB
:1037C00022F0400243EA85034360846149688163D3
:1037D000026230BD002C014030B5036A026A22F457
:1037E000807202624268C46923F4007324F0730596
:1037F0000C682C438D6843EA05230C4DA8420ED17A
:10380000CD6823F4006343EA05234D6922F4405256
:1038100042EA05128D6923F4806342EA0512426090
:10382000C4614968C163036230BD0000002C0140DF
:1038300030B5046A026A22F4805202624268C369A7
:103840000D6823F4E64343EA05238D6824F400540D
:1038500044EA0534064DA84204D14D6922F4804261
:1038600042EA85124260C36149680164046230BD66
:10387000002C014010B5036A046A24F001040462BC
:10388000846924F0F00444EA021423F00A020A4393
:103890008461026210BD10B5036A046A24F010044A
:1038A0000462846923F0A00324F4704444EA0232E1
:1038B00043EA01118261016210BD000070B5624CE3
:1038C00062482188018061884180A18881806048A8
:1038D000E18801802189418061898180A08901F08E
:1038E000DDF85C4E314601F017F85B4D2860E08949
:1038F00001F0D4F8314601F00FF86860208A01F039
:10390000CDF8314601F008F8A860608A01F0C6F8E9
:10391000314601F001F8514D2860A08A01F0BEF84F
:10392000314600F0F9FF6860E08A01F0B7F83146EF
:1039300000F0F2FFA860208B01F0B0F8314600F0F3
:10394000EBFF474D2860608B01F0A8F8314600F08E
:10395000E3FF6860A08B01F0A1F8314600F0DCFFC6
:10396000A860E08B01F09AF8314600F0D5FF3D4D9C
:103970002860208C01F092F8314600F0CDFF68609D
:10398000608C01F08BF8314600F0C6FFA860A08C77
:1039900001F084F8314600F0BFFF334D2860E08C21
:1039A00001F07CF8314600F0B7FF6860208D01F02F
:1039B00075F8314600F0B0FFA860608D01F06EF838
:1039C000314600F0A9FF294D2860A08D01F066F86E
:1039D000314600F0A1FF6860E08D01F05FF83146EC
:1039E00000F09AFFA860208E01F058F8314600F0F0
:1039F00093FF1F4D2860608E01F050F8314600F0B3
:103A00008BFF6860A08E01F049F8314600F084FF1A
:103A1000A860E08E01F042F8314600F07DFF154DC0
:103A20002860208F01F03AF8314600F075FF686099
:103A3000608F01F033F8314600F06EFF0E49A86048
:103A400094F83C00087070BDF8190020A600002012
:103A5000A000002000007A44381A0020741A0020C8
:103A6000B01A0020EC1A0020281B0020641B002044
:103A7000A01B0020DC1B00208000002010B5406A45
:103A80000021C185C184FEF77DFD10BD01680C31A8
:103A900051E8002F22F4907241E80023002BF5D169
:103AA0000168143151E8002F22F0010241E800239F
:103AB000002BF5D1016B012909D101680C3151E8C6
:103AC000002F22F0100241E80023002BF5D1202125
:103AD00080F8421000210163704708B590F8421049
:103AE000222901D0022008BD82684FF480539A42F7
:103AF00001D1016921B1816A9A421BD04AB10AE021
:103B00000268816A5268C2F308020A80816A891CCD
:103B100008E0026972B10268526802F07F020A701E
:103B2000816A491C8162C18D491E0904090CC18545
:103B300003D01BE002685268F1E70168CA6822F00E
:103B40002002CA600168CA6822F48072CA600168F3
:103B50004A6922F001024A61202180F842100021C6
:103B60004163026B012A03D0FEF7B6FE002008BDB8
:103B7000016301680C3151E8002F22F0100241E886
:103B80000023002BF5D101680A68D20602D50A6825
:103B900049680091818DFEF7F4FCE7E770B50446B3
:103BA00000680169E26821F4405111430161216913
:103BB000A0680843616908432168CA6841F20C6340
:103BC0009A430243CA6020684169A26921F44071A6
:103BD000114341611E492068884202D1FDF7FAFE77
:103BE00001E0FDF7E7FE00EBC00101EB00126068A9
:103BF00064218000B2FBF0F3B3FBF1F36FF0180621
:103C00007343B2FBF0F5B2FBF0F605EB830532230C
:103C100003EB0515B5FBF1F5B6FBF1F605F0F00584
:103C200005EB0615B2FBF0F6B2FBF0F0B0FBF1F0DD
:103C30006FF01802504306EB800003EB0010B0FB5E
:103C4000F1F0216800F00F002844886070BD00008A
:103C5000003801402DE9F843984617460D460446C2
:103C6000089E24E0701C22D0FDF7A8FCA0EB080001
:103C7000B0421AD8CEB12068C168490717D5802D47
:103C800015D0402D13D00168C94309070FD401682E
:103C90000025406800902046FFF7F8FE0820606489
:103CA00084F840500120BDE8F8830320FBE720683A
:103CB000006835EA000004D00020B842D2D00020CD
:103CC000F1E70120F9E700000148FEF75DBC0000C4
:103CD000F8030020FEE7000070B50122184D5402E1
:103CE00021462846FDF765FC00BF00BF00BF00BFAE
:103CF00000BF00BF002221462846FDF75AFC00BF46
:103D000000BF00BF00BF00BF00BF00BF00BF00BFBB
:103D100000BF00BF00BF00BF00BF00BF00BF00BFAB
:103D200000BF00BF00BF00BF00BF00BF00BF00BF9B
:103D300000BF00BF00BF00BF00BF00BF00BF70BD1D
:103D4000000C014070B501221A4D5402214628464C
:103D5000FDF72FFC00BF00BF00BF00BF00BF00BFCA
:103D600000BF00BF00BF00BF00BF00BF00BF00BF5B
:103D700000BF00BF00BF00BF00BF00BF00BF00BF4B
:103D800000BF00BF00BF00BF00BF00BF00BF00BF3B
:103D900000BF00BF002221462846FDF70AFC00BFF5
:103DA00000BF00BF00BF00BF00BF00BF00BF00BF1B
:103DB00000BF70BD000C014070B514460D46FFF702
:103DC00011FA2846FFF70EFA2046BDE87040FFF7CB
:103DD00009BA0907090E002804DB00F1E02080F889
:103DE0000014704700F00F0000F1E02080F8141D6F
:103DF000704770B5054600244FF47A7603E03046EC
:103E000000F004F8641CAC42F9D370BD70B54FF0FB
:103E1000E024002265690949A36909684843A1694A
:103E20009942FCD002D2A3EB010302E0A5EB01060C
:103E300033441A440B468242F1D370BDB8000020CF
:103E400013B54FF6FF73012269460248FEF745FDA0
:103E500000981CBDF8030020FDF7BEFBFFF7D6FB62
:103E6000FEF7F2FFFEF7AAFFFFF74EF8FFF770F834
:103E7000FFF7D4F8FFF71CFAFEF752FFFCF7D6FF66
:103E8000FFF7EAF8FFF734F9FFF788F9FEF7BEFF0E
:103E900000F00EF8FEE701460020842900D0C81C7F
:103EA000704710B500B9012000F030FB002010BDB4
:103EB00010B500F051FB002010BD7FB50D46044643
:103EC0004169B0F9080081B1A16971B1FFF7E3FF61
:103ED000D4E905128DE80700D4E900102B462269C9
:103EE00000F027FC039004B070BDFFF7D4FF03A9D6
:103EF000CDE90001208A2B4682B2D4E9001000F0FF
:103F0000EBFB012801D00020EDE70398EBE7000070
:103F10002DE9F041184C0F460546E6682068001D63
:103F200000F02CFA38B9206890F82C100120884055
:103F3000216981432161681C07D137B12168BDE83F
:103F4000F0410E48091D00F05DBA20683544B542C5
:103F50004560216805D2A06BBDE8F041091D00F065
:103F600039BA606B091D00F035FAA06A854200D2AB
:103F7000A562BDE8F0810000180000208405002043
:103F80002DE9F041054600F049FA2E4CA068401C8E
:103F9000A06020682C4F10B1606940B32DE025600F
:103FA000A068012829D1002606EB860007EB8000D7
:103FB00000F002FA761C072EF6D323488C3000F06E
:103FC000FBF92148A03000F0F7F91F48B43000F0A9
:103FD000F3F91D48C83000F0EFF91B48DC3000F061
:103FE000EBF919488C3060631430A06305E0206859
:103FF000E96AC06A884200D82560606A401C606235
:10400000E96A0120226988401043206101EB8100A8
:1040100007EB8000291D00F0F5F900F01FFA606938
:1040200000280CD02068E96AC06A884207D2074994
:104030004FF080500860BFF34F8FBFF36F8FBDE824
:10404000F081000018000020A804002004ED00E02A
:1040500010B5044690F85D0058B101280CD0022834
:104060000FD0502080F31188BFF34F8FBFF36F8FB5
:10407000FEE7206B00F006FA2046BDE8104000F095
:1040800001BA10BD10484FF48051420706D0C01D40
:104090000D4920F00700411AC1F580510B4A002359
:1040A0000144C2E900030839183A21F00701116000
:1040B0004B600B600B1AC0E9001393604FF0004097
:1040C0005360506170470000980500206C0000208C
:1040D000144E154CA6F1C8074FF08058DFF84C90ED
:1040E00012E000BF00F09AF9F068C568281D00F0E2
:1040F00045F9A068401EA0606068401E606000F046
:10410000ADF92846FFF7A4FF60680028EAD13868B7
:104110000128F9D9C9F80080BFF34F8FBFF36F8F23
:10412000F2E70000700500201800002004ED00E018
:104130002DE9F0479A46DDE9098481466FF00303D3
:10414000206B03EB82021044089E20F007077807DB
:1041500007D0502080F31188BFF34F8FBFF36F8FCC
:10416000FEE7002561B1002023180A5C83F83420A3
:104170000A5C12B1401C1928F6D384F84C5001E0B7
:1041800084F83450072E00D30626E662C4E914658D
:10419000201D00F01CF904F1180000F018F924614A
:1041A000C6F107006462A061A56584F85C505246C0
:1041B0004946384600F0C0F82060B8F1000F01D041
:1041C000C8F80040BDE8F08730B5114900E011465D
:1041D0000A688242FBD34B685C18844203D1406872
:1041E00018444860084643681C18944209D1084C9A
:1041F000183C2468A24209D052681A4442600A68F6
:1042000012680260814200D0086030BD0460F9E7A6
:104210006C0000200648416B096829B1416BC968F0
:10422000C9684968816270474FF0FF31FAE70000C2
:104230001800002008484068401C4FF0500080F3F0
:10424000118804D0BFF34F8FBFF36F8FFEE7BFF32A
:104250004F8FBFF36F8FFEE7740000202DE9F04110
:104260000546002700F0AEF9324E306808B9FFF776
:1042700009FF706905424ED1C5B3083568070ED0F5
:1042800005F00700C0F108000544680707D050207A
:1042900080F31188BFF34F8FBFF36F8FFEE72DB30D
:1042A0007068854237D82348183001460C6801E011
:1042B00020460C466168A94202D221680029F7D144
:1042C00031688C4227D00768216801606068083730
:1042D000411B10290FD96019420708D0502080F3E4
:1042E0001188BFF34F8FBFF36F8FFEE713E041607C
:1042F0006560FFF769FF61687068401A7060B268B6
:10430000904200D2B060706901430020C4E900010E
:10431000F068401CF06000F09DFA780707D050204C
:1043200080F31188BFF34F8FBFF36F8FFEE73846DE
:10433000BDE8F0815400002010B5031F4FF08074D9
:104340001C601B1F21F001011960191F024B0B603B
:10435000143940380A6010BD3542000801B582B0FA
:104360004FF47A700090012301AA02A90248FDF7D8
:104370008BFD9DF804000EBD58030020D0E90132EA
:1043800001699A60D0E901235A604A68824201D1EA
:1043900082684A60002202610868401E086008685E
:1043A00070470000034B036003F160000860802049
:1043B00010607047C800002000F108014FF0FF3284
:1043C000C0E90112C1600161002101607047002154
:1043D0000161704730B50B685A1C02D000F1080229
:1043E00002E0026904E02246546825689D42FAD939
:1043F00053684B6099608A60516008610168491C8C
:10440000016030BD42684A6093688B609368596070
:10441000916008610168491C01607047502080F379
:104420001188BFF34F8FBFF36F8F0A494868401C54
:10443000486001280CD10848006810F0FF0F07D031
:10444000502080F31188BFF34F8FBFF36F8FFEE7CB
:10445000704700007400002004ED00E0084948683F
:1044600028B1401E486001D180F311887047502068
:1044700080F31188BFF34F8FBFF36F8FFEE700000B
:104480007400002070B500282AD0164DA0F1080451
:1044900060686969084207D1502080F31188BFF332
:1044A0004F8FBFF36F8FFEE722683AB1502080F341
:1044B0001188BFF34F8FBFF36F8FFEE788436060B3
:1044C00000F080F860686968084468602046FFF77B
:1044D0007BFE2869401C2861BDE8704000F0BAB935
:1044E00070BD0000540000204FF0E0200021016169
:1044F000816105494FF47A720968B1FBF2F1491EF6
:1045000041610721016170471400002010B50200CD
:1045100014D00F48006B38B1502080F31188BFF3DE
:104520004F8FBFF36F8FFEE700F04CF8002110466D
:10453000FFF7EEFC00F08EF9002807D105494FF097
:1045400080500860BFF34F8FBFF36F8F10BD000026
:104550001800002004ED00E010B586B0002403949C
:1045600005AA04A903A80494FFF71CFFDDE90301D1
:104570000094CDE9011000230EA11048059A00F027
:10458000D8F80F490028C86211D0502080F3118854
:10459000BFF34F8FBFF36F8F4FF0FF308862012062
:1045A0004861CC6006B0BDE8104000F041B806B0EC
:1045B00010BD000049444C4500000000D1400008F7
:1045C000180000200248016B491C0163704700007D
:1045D000180000201448016B11B10121C16170471E
:1045E0000021C1610169B1FA81F1C1F11F0101EB43
:1045F00081020E4951F822306BB101EB820101F1C9
:1046000008034A6852684A609A4201D152684A6077
:10461000D16801607047502080F31188BFF34F8F3D
:10462000BFF36F8FFEE7000018000020A8040020F1
:104630001CB5264908780190FF20087008788DF88D
:1046400000009DF800009DF8002000F0F00090426E
:1046500007D0502080F31188BFF34F8FBFF36F8FC7
:10466000FEE79DF800001A4C00F050002070072073
:10467000A06005E09DF8002052008DF80020401E4B
:104680009DF800201206F5D4A060032807D0502022
:1046900080F31188BFF34F8FBFF36F8FFEE74FF4A6
:1046A0004070A060019808700A48016841F47001E8
:1046B0000160016841F070410160FFF715FF0020C3
:1046C0006060FBF77BFD00201CBD000000E400E003
:1046D0007400002020ED00E02DE9FF5F8346DDE956
:1046E0000E87994616468A469000FFF7B7FD0500EB
:1046F0001CD06020FFF7B2FD040014D00020256319
:1047000084F85D00CDE90240CDE900874B46324692
:1047100051465846FFF70CFD2046FFF731FC0120BB
:1047200004B0BDE8F09F2846FFF7ACFE4FF0FF3025
:10473000F6E7F0B585B0DDE90B640A9DA6B1DCB102
:10474000602700972663022684F85D60002604AF88
:10475000CDE90246CDE90057FFF7EAFC2046FFF716
:104760000FFC049805B0F0BD502080F31188BFF312
:104770004F8FBFF36F8FFEE7502080F31188BFF398
:104780004F8FBFF36F8FFEE72DE9F0412F4C0026CE
:10479000206B28B1A069401CA0613046BDE8F081C3
:1047A000E5686D1CE56013D1606B006838B150207E
:1047B00080F31188BFF34F8FBFF36F8FFEE7606BFD
:1047C000A16B6163A063206A401C2062FFF722FD99
:1047D000A06ADFF87C80854209D3606B0068A0B1D5
:1047E000606BC068C7687868854211D2A062206893
:1047F000C06A00EB800158F82100012800D9012689
:10480000E0690028C9D00126C7E74FF0FF30EDE787
:10481000381DFFF7B3FDB86A18B107F11800FFF7AC
:10482000ADFDF96A0120226988401043206101EB47
:10483000810108EB8100391DFFF7E4FDF86A21686A
:10484000C96A8842C9D30126C7E7000018000020C2
:10485000A80400202DE9F0472C4D00242746286BA2
:1048600038B1FFF7DBFD286B401E2863286B40B191
:1048700046E0502080F31188BFF34F8FBFF36F8F56
:10488000FEE7A968224E0120D1B3A6F1B409804603
:104890003068E8B1F068C46804F11800FFF76EFDF5
:1048A000201DFFF76BFDE06A2A6908FA00F1114349
:1048B000296100EB800109EB8100211DFFF7A2FDBA
:1048C000E06A2968C96A8842E2D3C5F81C80DFE73C
:1048D0000CB1FFF79FFCAC6944B14646FFF754FFAB
:1048E00000B1EE61641EF9D10020A861E86938B119
:1048F0000849012738070860BFF34F8FBFF36F8F58
:10490000FFF7ACFD3846BDE8F08700001800002036
:104910005C05002004ED00E04FF47F0C1CEAD0128F
:104920001EBF1CEAD11392EA0C0F93EA0C0F00F0A1
:10493000858090EA010F48BF42F4807240F4000C79
:1049400041F400002CF07F4120F07F4000B581420F
:10495000A2EB03020FF2081CACEB504EC0F10000BA
:104960009EF800E04FEA4E0E00FB0EFC38BF4900F7
:104970004FEA2C1C02F5FA020CFB0EF34FEACE1E96
:104980004FEA112C4FEAC1210EEB635E42EB22424B
:104990000EFB0CFC4FEA1C5300FB03114FEA112CD9
:1049A0004FEA01310EFB0CFC4FEADC4C00FB0C1112
:1049B000C14228BF09184CEB03335DF804EB10EB40
:1049C000410143EBC250B2F57C0F38BF704729D587
:1049D00012F0F00F1CBF00F1C04000F00040704723
:1049E000008182838485868788898B8C8D8E8F91C8
:1049F0009293959697999A9C9D9FA0A2A3A5A7A8EC
:104A0000AAACAEB0B2B3B5B7B9BCBEC0C2C5C7C917
:104A1000CCCED1D4D7D9DCDFE2E6E9ECF0F3F7FA7B
:104A2000FE0000004FEA400C0CF1807CBCF17E4F90
:104A300028BF7047B0F1C04000F089B890EA010F7C
:104A40000CEAD11348BF42F48072624538BF634517
:104A500007D213F47F0F16D080EA010000F0004067
:104A6000704710B500F02DF8097EFC3E00F005B847
:104A700080EA010000F00040704780EA010000F089
:104A8000004000F064B812F47F0F04BF0248704782
:104A900080EA010000F05BB80000C07FB0FA80F34C
:104AA00010FA03F2C3F19D030AD0D90501EB1220DD
:104AB000530638BF704700F1010008BF20F0010025
:104AC00070470EF1020E2EF0030E5EF8044B2442E6
:104AD00004D44FEA4102B2F17F4F11D84FEA4003AC
:104AE000B3F17F4F0CD80ED14FEAD07CB2F17F4F9B
:104AF0000CEB4C0C0CF1020C08BF4CEBD17C04E02D
:104B00004FF0080C01E04FEAD17C0CEB4C0324FA87
:104B100003F404F00704B4F1040C06D20EEB840C89
:104B2000BDE810404CF0010C6047DFE80CF00708CE
:104B300002024FF00040A0F5800010BD0846420080
:104B400018BFD2F1807288BF00F0004010BDFF2175
:104B500041EAD050C0057047D44B0008D535000855
:104B600000000000000000008000000000000000C5
:104B700000000000C84B0008CD350008FDFF000014
:104B800000000000800000000000000000000000A5
:104B9000010202030405060708090A0B0C0D0E0F9B
:104BA00010100000000000000000010203040607CE
:104BB000080900000000010203043A7474003A740A
:104BC00074003A74740000004C45445F5461736B88
:104BD000000000005057525F5461736B00000000EA
:104BE000004C000800000020C80000002801000858
:104BF000C84C0008C8000020B02200004401000892
:104C00000000000000000000010000001000000093
:104C10000000000000127A00000000000000000008
:104C20000000000000000000000000000000000084
:104C30000000000000000000000000000000000074
:104C40000000000000000000000000000000000064
:104C50000000000000000000000000000000000054
:104C60000000000000000000000000000000000044
:104C70000000000000000000AAAAAAAA000000008C
:104C8000FF000034431010013443101001000000F5
:104C90000000000000000000000000000000000014
:104CA0000000000000000000000000000000000004
:104CB00000000000000000000000000000000000F4
:084CC0000000000000000000EC
:04000005080000ED02
:00000001FF
