:020000040800F2
:10000000183800209D010008593A0008712900089D
:10001000093A0008BD0B0008595100080000000013
:1000200000000000000000000000000005010008C2
:10003000350E000800000000490100081D4A0008B4
:10004000B7010008B7010008B7010008B7010008B0
:10005000B7010008B7010008B7010008B7010008A0
:10006000A10E0008B7010008B7010008B701000899
:10007000B7010008B7010008B7010008B701000880
:10008000B7010008B7010008B7010008B701000870
:10009000B7010008B7010008B7010008B701000860
:1000A000B7010008B7010008B7010008B701000850
:1000B000B7010008B7010008B7010008B701000840
:1000C000B7010008B7010008B7010008B701000830
:1000D000B701000835510008B7010008B701000852
:1000E000B7010008B7010008B7010008DFF810D019
:1000F00000F08AFC00480047D55E0008AFF300809E
:1001000018380020224B19680868B0E8F00F80F317
:100110000988BFF36F8F4FF0000080F311884EF015
:100120000D0E70470000000006480068006880F36C
:10013000088862B661B6BFF34F8FBFF36F8F00DFE1
:1001400000BF00BF08ED00E0EFF30980BFF36F8F41
:100150000F4B1A6820E9F00F106008B54FF05000FF
:1001600080F31188BFF34F8FBFF36F8F06F0CCFB86
:100170004FF0000080F31188BDE808401968086856
:10018000B0E8F00F80F30988BFF36F8F704700BFAE
:100190003C000020EFF305807047000006488047D0
:1001A00006480047FEE7FEE7FEE7FEE7FEE7FEE75C
:1001B000FEE7FEE7FEE7FEE7AD4A0008ED000008B7
:1001C000202A04DB203A21FA02F00021704721FAAC
:1001D00002F3D040C2F12002914008431946704713
:1001E0000649074A0868504343F239021044086040
:1001F0004008704701490860704700004003002034
:100200006D4EC64140EA01039B0703D009E008C9CF
:10021000121F08C0042AFAD203E011F8013B00F8CB
:10022000013B521EF9D27047D2B201E000F8012B17
:10023000491EFBD270470022F6E710B513460A4666
:1002400004461946FFF7F0FF204610BDF0B480EADF
:100250000102D40F4200B2EB410F02D2024608461F
:1002600011464A0042D0C30DDDB2C1F3C752AD1AE8
:10027000202D35DAC1F3160141F4000204B15242D7
:10028000C5F1200602FA06F12A411044B3EBD05F13
:1002900023D0C4B1012DA0EBC35009DCF0BC4FF05A
:1002A000004202EAC352DBB200F5000000F0EABAF5
:1002B000400000F1807000EBC350A0F1807040EA74
:1002C000D170490009E0490841EAC071A0EBC35070
:1002D00000F50000400800EBC350F0BC00F0C9BAC4
:1002E0006142012202EB4101001BF6E7F0BC7047BE
:1002F00081F00041AAE780F00040A7E780EA010210
:1003000010B502F00043400022D04A001FD0010E79
:1003100001EB1261C0F35600C2F3560240F4000034
:1003200042F40002A0FB022000047F39140400D034
:10033000401C50EA124001D44000491EC2B20C06D3
:1003400004EBD010401C4008802A02D003E00020BB
:1003500010BD20F00100002900DA0020184310BD74
:1003600030B480EA010202F0004530F0004221F092
:10037000004013D090B1C30DD40DC2F31601C0F3E9
:100380001600E41A41F4000140F400027D34914269
:1003900001D3641C00E04900002C02DA30BC0020CC
:1003A00070474FF400000023914201D3891A0343A0
:1003B00040084FEA4101F7D151B1914202D14FF0CB
:1003C000004105E002D24FF0010101E06FF00101B0
:1003D00003EBC450284430BC00F04BBA420005D0B7
:1003E000C0F3C7525242914201DC0020704700EB3B
:1003F000C15070472DE9FE4F804681EA0300C00FCF
:100400000C46009021F0004123F00045B8EB0200BB
:10041000A94105D24046214690461C460B4602465D
:1004200023F00040104347D0270DC7F30A00C3F361
:100430000A510290401A019040286BDAC3F313006E
:1004400040F4801B0098924620B10023D2EB030AAF
:1004500063EB0B0B01985946C0F14002504600F087
:10046000E7F906460D4650465946019A00F0EFF965
:1004700010EB08006141002487EA115284EAE77317
:100480001A4340D0009A62B3019A012A4FEA0752F8
:1004900015DC001B61EB02014FF0004202EA07523B
:1004A000CDE90042001C41F5801132462B4600F098
:1004B00044FA03B0BDE8F08F40462146F9E7001B3F
:1004C00061EB0201001C41F5801300185B4120180C
:1004D000A2F5001747EB030140EAD570B6196D414C
:1004E00011E06D084FEA360645EAC0754FEA07523B
:1004F000001B61EB0201001C41F5801149084FEA25
:1005000030000019514132462B4603B0BDE8F04F90
:1005100000F004BA0098012240000023D0EB020250
:1005200063EBE073009821464FEAE074B8EB0000FB
:1005300061EB0401E9E783F000435BE781F00041F0
:1005400058E72DE9FE4F81EA030404F0004421F04E
:10055000004100944FF0000B23F0004350EA0104E7
:100560005ED052EA03045BD0C3F30A54C1F30A55C8
:100570002C44A4F2F3340194A0FB0254C1F3130100
:1005800041F48011C3F3130343F4801301FB0244CD
:1005900000FB034E840A970A44EA815447EA8357D2
:1005A000A4FB076802958D0A05FB07854FEA932C8B
:1005B00004FB0C542705029D4FEA065847EA1637FC
:1005C000B5EB08056EEB070C870E920E47EA811714
:1005D00042EA8312A7FB0201B6EB0B0164EB0004B5
:1005E0002B0D43EA0C335E1844EB1C50DA4651469F
:1005F000E7FB0201C5F313044FEA0B3343EA14533C
:100600004FEA0432019C43EA0603A4F10C0402946D
:10061000009CCDE900B400F090F903B0BDE8F08F84
:1006200000200146F9E72DE9F04D81EA030404F0CA
:10063000004B21F0004514464FF0000A23F0004122
:1006400050EA050220D054EA01021DD0C5F30A5732
:100650000246C5F31303C1F31300C1F30A5640F475
:10066000801543F48013A7EB0608101BD64608F24A
:10067000FD3873EB050002D308F1010801E0921880
:100680005B41B8F1000F03DA00200146BDE8F08DB0
:1006900000204FF48011064684460EE0171B73EBD2
:1006A000050705D3121B63EB050306434CEA010C57
:1006B00049084FEA300092185B4150EA0107EDD13A
:1006C00052EA030012D082EA040083EA05010843DB
:1006D00005D0101BAB4106D20122002306E0002208
:1006E0004FF0004302E06FF0010253101AEB0600D6
:1006F0004CEB085110EB0A0041EB0B01BDE8F04D4B
:1007000000F00CB970B521F0004303430CD0C1F3E5
:100710000A550024D5EB040564EB0403D617AD1A83
:10072000B34102DB0020014670BD201841EB0251AD
:1007300070BDC10F80EAE0700844CA07962300210B
:1007400000F0A0B896230022114600F09BB800F0FC
:10075000004220F00040C10DC0F3160040F400003C
:100760007F2901DA00207047962903DCC1F1960148
:10077000C84001E096398840002AF4D040427047D2
:1007800020F00040C10DC0F3160040F400007F29A6
:1007900001DA00207047962903DCC1F19601C840B8
:1007A000704796398840704700F0004230F00040B2
:1007B0000AD0C10D01F56071C0F3160042EA015183
:1007C000C20840071143704700200146704701F0FE
:1007D000004330B421F0004150EA010206D00A0D76
:1007E000A2F56072C1F31301002A02DC30BC0020C4
:1007F0007047440F44EAC104C100E01830BC00EB6C
:10080000C25000F036B80000002801DBC0F1004003
:10081000002901DBC1F1004181427047002801DB62
:10082000C0F10040002901DBC1F10041884270475E
:10083000202A04DB203A00FA02F1002070479140A0
:10084000C2F1200320FA03F3194390407047202A95
:1008500006DBCB17203A41FA02F043EAE07306E0E8
:1008600041FA02F3D040C2F12002914008431946F8
:1008700070470029A8BF7047401C490008BF20F0FE
:100880000100704710B4B0FA80FC00FA0CF050EA96
:10089000010404BF10BC704749B1CCF1200421FA17
:1008A00004F411FA0CF118BF012121430843A3EB12
:1008B0000C01CB1D4FEA00614FEA102042BF00201F
:1008C00010BC704700EBC35010440029A4BF10BCFB
:1008D0007047401C490008BF20F0010010BC704761
:1008E00010B541000CD0C0F3C751962908DC7E2911
:1008F00009DC06DB410204D000F0004040F07E50ED
:1009000010BD002010BDC1F19604C4F1200100FA11
:1009100001F1E040FFF7ADFFA04010BD10B5141E7F
:1009200073F1000408DA401C41F1000192185B41A8
:100930001A4301D120F0010010BD2DE9F04D92467F
:100940009B4611B1B1FA81F202E0B0FA80F2203296
:100950009046FFF76DFF04460F4640EA0A0041EA61
:100960000B0153465A46084313D0114653EA01007F
:1009700019D0C8F140025046FFF722FC05460E464A
:10098000504659464246FFF753FF084305D0012021
:1009900004E020463946BDE8F08D0020054346EAD4
:1009A000E0762C4337430A986305E40AA0EB08007D
:1009B0000022FD0A44EA47540A3002D500200146CD
:1009C000E9E7010510196941DDE9084500196941A8
:1009D000BDE8F04DA2E7000030B5041E71F100043F
:1009E00004DB4FF00044404264EB0101141E73F13C
:1009F000000405DB1C464FF00043524263EB040346
:100A00008B4208BF824230BD064C074D06E0E068CD
:100A100040F0010394E8070098471034AC42F6D345
:100A2000FFF768FBFC6F00081C7000082DE9F04D13
:100A300000231A461B1A8A4103DB00200146BDE849
:100A4000F08DC1F30A52C1F3130141F480154FF048
:100A5000000BD10702D100186D41521E0027044639
:100A600040F2FF11384601EB620A3E4680460246DC
:100A700000204FF48011FFF7A3FBC2197141BB188E
:100A800046EB0100B4EB030C75EB000C04D3E41A45
:100A900065EB000517460E46241908F101006D416B
:100AA00080463428E3DDF91946EB0600091BA8410E
:100AB00003D24FF0FF32134601E0002213461BEB36
:100AC000070046EB0A51BDE8F04DFFF727BF70B5B0
:100AD0008C1810F8015B15F0070301D110F8013BE9
:100AE0002A1106D110F8012B03E010F8016B01F870
:100AF000016B5B1EF9D12B0705D40023521E0DD4C8
:100B000001F8013BFAE710F8013BCB1A921C03E015
:100B100013F8015B01F8015B521EF9D5A142D8D34D
:100B2000002070BD10B503F06AFA03F0A5FA642046
:100B300005F03CF903F063FA642005F037F903F09F
:100B40009BFA642005F032F903F059FA642005F0AD
:100B50002DF903F091FA642005F028F9BDE8104062
:100B600003F04DBA70B5044600688168C943C907EF
:100B700017D1816821F00101816000F0BFFD0546B9
:100B80000AE000BF00F0BAFD401B022804D920682B
:100B90008068C043C00706D020688068C043C00793
:100BA000F0D0002070BDA06A40F01000A062E06AA2
:100BB00040F00100E062012070BD7047FEE70000D8
:100BC00070B51A4E05463078C007B0EBC57F0BD024
:100BD0001748E90703D00121017016A002E00021A7
:100BE000017018A004F06AFB1A4C680706D520783B
:100BF00040F00100207018A004F060FB307805F090
:100C0000080100F0080088420DD02807207804D59C
:100C100040F04000207015A003E020F0400020705C
:100C200015A004F04BFB357070BD000004030020DC
:100C3000F1020020756E6C6F636B20204F4B2121F9
:100C4000210D0A006C6F636B20204F4B2121210D79
:100C50000A0000009002002074756F6C756F79694E
:100C600020204F4B2121210D0A0000007775202004
:100C70004F4B2121210D0A00796F7520204F4B2108
:100C800021210D0A000000002DE9F04387B00F4636
:100C9000016800914168019180680290B2F90000FA
:100CA00099461646A0F2DC50FFF743FD5A4C214608
:100CB000FFF756FB0390B6F90200A0F2DC50FFF7F5
:100CC00038FD2146FFF74CFB0490B6F90600A0F270
:100CD000DC504042FFF72DFD2146FFF741FB4F4C12
:100CE00005900025207828B1059820F00040B0F14B
:100CF000814F00DA05954A480078C043400603D486
:100D0000694603A804F0A8FA4648009A039902F03D
:100D1000A5FE4448019A3C30049902F09FFEDFF89A
:100D2000088178684146FFF7E9FA02463D48416B81
:100D3000B43002F093FE3D493868FFF7DFFA02460F
:100D400038483C30416BB43002F088FE4146B86808
:100D5000FFF7D4FA07463348783001680598FFF763
:100D6000CDFA01463A46324802F078FEB6F9040060
:100D7000B42835DDB9F1000F32D0FFF7DAFC2C4989
:100D8000804678394F6B3946FFF7B2FA28498146D9
:100D90003C394E6B3146FFF7ABFA25494D6B29467E
:100DA000FFF754FA606040463946FFF74FFA0746AE
:100DB0003146FFF79DFA2946FFF79AFAA0603846B8
:100DC0003146FFF743FA2946FFF740FAE06048460C
:100DD0003146FFF73BFA2946FFF78AFA206104E023
:100DE0006560A560E56028462561FFF7B0FC07B2A5
:100DF000E068FFF7ACFC06B2A068FFF7A8FC05B2FC
:100E00006068FFF7A4FC00B23B463246294602F078
:100E1000FDFD07B0BDE8F08300004041F002002076
:100E200090020020D82C0020A34C6542A34C65C240
:100E3000042E0020704700001148002140F26C721F
:100E4000018041808180C180018141818181C18196
:100E5000018241828182C182018341838183C18376
:100E60000184418482840622C28401854185818572
:100E7000C185018641868186C18601874187704789
:100E8000982C002010B5FFF7D7FFBDE810403E2298
:100E90000149024803F0D8BB982C002000F8000854
:100EA00010B5042000F01CFB00224FF4807118489C
:100EB00000F01FFC072003F0B5FA044680060AD5AF
:100EC0000F2003F00BFB2021272003F0E9FAFF217C
:100ED000E12003F0E5FA600608D50E4803F006FAB3
:100EE00003F0E8F84021272003F0DAFAE0060AD5FB
:100EF0000F2003F0F3FA1021272003F0D1FAFF218D
:100F0000E12003F0CDFA05490348086010BD000058
:100F100000080140082800200200000614040140D7
:100F200072B6FEE7044B0022DA61044A136943F00B
:100F30000103136101807047D806002000200240A1
:100F400014480022C168CB06134904D5CA6942F08F
:100F50000202CA611022C3685B0705D5CB6943F062
:100F60000103CB6142F00402C369DB0707D0CB6900
:100F700043F00403CB61C16921F00101C161A2F515
:100F80008071013901D0C2607047C16921F001014F
:100F9000C161704700200240D806002070B50546A8
:100FA00000F0ACFB0646114C09E0681C07D025B1E7
:100FB00000F0A4FB801BA84201D9032070BDE068AB
:100FC000C007F2D1E068800601D52020E060E0682B
:100FD000C00605D4E069C00702D1E068400703D528
:100FE000FFF7AEFF012070BD002070BD0020024061
:100FF0002DE9F0410C461546064650F824701AE0DB
:101000006D1EAC4205DA56F825003946FFF706FC9E
:10101000F6D956F8250046F8240000E0641CAC42DE
:1010200005DA56F824003946FFF7EEFBF6D956F8F4
:10103000240046F82500AC42E3DB46F82470204645
:10104000BDE8F041FFF775BB064A0021D1610649B2
:101050000A6942F002020A614861086940F04000F2
:1010600008617047382800200020024010B502F0C7
:10107000C6FF02F0B8FF642004F098FE02F0BFFF44
:10108000642004F093FE02F0AEFF642004F08EFEB4
:1010900002F0B5FF642004F089FE02F0A4FF642092
:1010A00004F084FEBDE8104002F0A9BFF8B50024AA
:1010B000009490F824202546012A12D0012280F8BD
:1010C00024204A681F23072A0DD20668776B521E18
:1010D00002EB820293409F430B6893401F43776368
:1010E00019E00220F8BD06680D2A0AD2376BD21F1C
:1010F00002EB820293409F430B6893401F43376388
:1011000009E0F76A0D3A02EB820293409F430B68B5
:1011100093401F43F7620A68072306680A2A0AD326
:10112000F7680A3A02EB420293409F438B68934070
:101130001F43F76008E0376902EB420293409F4388
:101140008B6893401F4337610A68102A01D0112A27
:1011500020D1124B02689A4217D193681B0219D40E
:10116000936843F4000393600968102912D10C4975
:101170000C4A0968B1FBF2F101EB8101490000E082
:10118000491E00910029FBD104E0816A41F0200151
:101190008162012480F824502046F8BD00240140DB
:1011A0003800002040420F002DE9F0414FF00007C9
:1011B00004003D467ED0A06A002628B9E66284F885
:1011C0002460204600F07EF82046FFF7CBFCA16AA1
:1011D000C90600D420B1A06A40F01000A06269E006
:1011E000A16A21F4885141F00201A1626268E169BB
:1011F000237B0A4347EA43010A43A1684FF48077FF
:10120000B94209D0012907D05FF0000194F814C059
:10121000BCF1010F02D00AE03946F7E7F3B1A36A47
:1012200043F02003A362E36A43F00103E36223680F
:10123000D3F804C02CF4694C4CEA010CC3F804C088
:1012400021688B68DFF870C003EA0C0313438B60DE
:10125000A168B9420BD0012909D00CE0DFF85CC0CD
:10126000A3690CEB43330B4343F40061DFE7218AAE
:101270000D05A5F580152168CB6A23F470032B4377
:10128000CB62216889680E4B1940914208D1E66211
:10129000A16A21F0020141F00101A162BDE8F081E3
:1012A000A06A20F0020040F01000A062E06A40F066
:1012B0000100E0620120F1E7FDF7E1FF00E0FFFF40
:1012C000FE0E1FFF00B585B0002100910191029133
:1012D000039100680E49884218D10E48816941F493
:1012E00000718161816901F400710491816941F0AB
:1012F000040181618069694600F0040004900220C5
:10130000009003200190044800F0F6F805B000BDFD
:1013100000240140001002400008014010B590F880
:1013200021100022022905D00421816380F82020A9
:10133000012010BD01680B6823F00E030B600168EB
:101340000B6823F001030B6090F84030C46B01215F
:1013500001FA03F3636080F8211080F82020104622
:1013600010BD000010B590F821100024022903D010
:101370000421816301243DE001680A6822F00E0225
:101380000A6001680A6822F001020A601A4A0168CC
:10139000914201D1012121E0174A1432914201D139
:1013A00010211BE0144A2832914201D1891515E021
:1013B000114A3C32914201D189140FE00E4A503259
:1013C000914202D14FF4803108E00B4A64329142DD
:1013D00002D14FF4801101E04FF08071064A083AC3
:1013E0005160012180F82110002180F82010416B0C
:1013F00001B18847204610BD0800024070B5044680
:1014000000F07CF90546601C02D0044800780444D2
:1014100000F074F9401BA042FAD370BD2C000020EC
:101420000348016941F0800101610020704700001C
:10143000002002402DE9F05F07461C488846002442
:10144000017E15461E46012909D0012181460176FB
:101450004CF2503A5046FFF7A1FD18B122E00220AD
:10146000BDE8F09F012F02D0022F00D00427D34601
:10147000DFF83CA0220128463146FEF7A1FE81B2EA
:1014800008EB4400FFF74EFD5846FFF787FDDAF8FA
:10149000102022F00102CAF8102018B9641CE4B22E
:1014A000BC42E7D3002289F81820D9E7D8060020EB
:1014B00000200240064900200A69120607D5054AA5
:1014C0004A60054A4A600969090600D5012070474B
:1014D0000020024023016745AB89EFCD7047000033
:1014E000044910B50A68024202D00860FFF7F6FF0F
:1014F00010BD0000140401402DE9F84FDFF8B89149
:101500000024A9F1040B23460F2709F1040AABF1CB
:10151000040EC9E00125A5402A40AA427DD1674EAC
:10152000D1F804C0ACEB0608B44532D014DCBCF1F1
:10153000030F3AD009DCBCF1000F2AD0BCF1010F37
:101540001CD0BCF1020F31D11DE0BCF1110F17D03E
:10155000BCF1120F2AD119E0B8F5881F19D006DCAA
:10156000B8F5803F15D0B8F5801F1FD111E0B8F550
:10157000001F0ED0B8F5041F18D10AE0CB6815E0A3
:10158000CB681B1D12E0CB6808330FE0CB680C332F
:101590000CE08B682BB1012B4FF0080303D04561A1
:1015A00004E0042302E0056100E00023FF2A01D8E3
:1015B000064601E000F104064FEA840501D9A5F1D1
:1015C0002005D6F8008007FA05FC28EA0C0803FA83
:1015D00005F548EA0508C6F800804D68ED0062D5BB
:1015E000374DAE6946F00106AE61AD6924F00306E1
:1015F00005F001050095334D06EB050CDCF80850AD
:10160000A607360F07FA06F825EA0805DFF8B880BE
:10161000404503D14FF0000817E044E0DFF8AC800C
:10162000404502D14FF001080FE0DFF8A4804045AB
:1016300002D14FF0020808E0DFF89880404502D15F
:101640004FF0030801E04FF0040808FA06F848EAF2
:101650000508CCF808804D68D9F80060ED024D46C9
:1016600001D5164300E096432E604D68DAF800601D
:10167000AD02554601D5164300E096432E604D68F5
:10168000DBF80060AD035D4601D5164300E09643EC
:101690002E604D68DEF80060ED03754601D51643F7
:1016A00000E096432E60641C0D682A46E5407FF4F6
:1016B00031AFBDE8F88F00000804014000001110B0
:1016C000001002400000014000080140000C0140F1
:1016D00000100140001401408068084000D0012043
:1016E0007047C26821EA02030A4043EA02410161ED
:1016F00070470AB1016170470904FBE7014880683F
:10170000704700002C0000200248816802781144D4
:10171000816070472C000020074810B5016841F037
:1017200010010160032000F07BF80F2000F006F8A4
:1017300000F024F8002010BD0020024070B50D4DCF
:1017400004464FF47A712878B1FBF0F00A49096831
:10175000B1FBF0F000F0F0FC48B9102C07D20022E9
:101760002146501E00F03CF800206C6070BD012046
:1017700070BD00002C000020380000200F4808B584
:10178000816941F001018161816901F001010091EC
:10179000C16941F08051C161C069002200F08050F0
:1017A00000900F21901E00F01BF80548416821F0C1
:1017B000E06141F00071416008BD0000001002408E
:1017C00000000140002809DB00F01F0201219140C8
:1017D0004009800000F1E020C0F8001170470000CF
:1017E000F0B40E4B1B680C46C3F30223C3F107058C
:1017F000042D00D90425191D072901D2002300E07A
:10180000DB1E012606FA05F1491E214099409E4043
:10181000761E16403143F0BC03F07FBD0CED00E0B6
:10182000064900F0070208684FF6FF03184040EA37
:101830000220034A10430860704700000CED00E0EE
:101840000000FA052DE9F84305460078354CC0073D
:1018500054D0E0690026C00008D4E06940F0805010
:10186000E061E069012600F0805000902E48016898
:10187000C90512D40168804641F480710160FFF708
:101880003DFF074605E000BFFFF738FFC01B642897
:1018900023D8D8F80000C005F6D5206A10F44070AF
:1018A00021D0A98801F4407181421CD0206A1F49CF
:1018B000012220F440700A6000220A602062C00702
:1018C00011D0FFF71BFF074641F2883808E000BF40
:1018D000FFF714FFC11B414502D90320BDE8F8837F
:1018E000206A8007F4D5206A696820F440700843B4
:1018F00020621EB1E06920F08050E0612878800706
:1019000005D56068A96820F44040084360602878E5
:10191000C00605D56068E96820F48000084360606F
:101920000020DBE70010024000700040400442420B
:101930002DE9F0470F46050061D0434E306800F0B6
:101940000700B84209D2306820F007003843306001
:10195000306800F00700B84251D128683B4C81073D
:1019600012D5400703D5606840F4E06060602878D5
:10197000000703D5606840F4605060606068A96843
:1019800020F0F000084360602878C00728D068681D
:10199000012810D02168022810D0890700292EDAEA
:1019A000616821F0030101436160FFF7A7FE8046F3
:1019B00041F288390DE021688903EFE78901EDE7FD
:1019C000FFF79CFEA0EB0801494502D90320BDE8C2
:1019D000F0876068696800F00C00B0EB810FEFD110
:1019E000306800F00700B8420BD9306820F00700DB
:1019F00038433060306800F00700B84201D0012061
:101A0000E5E72878400705D56068E96820F4E060DC
:101A1000084360602878000706D56068296920F4CB
:101A2000605040EAC100606000F038F86168084A20
:101A3000C1F30311515CC8400649086006480068BC
:101A4000FFF77CFE0020C2E70020024000100240A9
:101A5000E66D0008380000203000002004480549E9
:101A600000684968044AC1F30221515CC8407047CC
:101A70003800002000100240F66D000804480549B7
:101A800000684968044AC1F3C221515CC8407047EC
:101A90003800002000100240F66D00080E4A516820
:101AA0000E4801F00C03042B11D0082B0FD10C4869
:101AB000C1F38343C903C05C0AD55168084AC1F326
:101AC0004041921E515C054A5043B0FBF1F0704713
:101AD00004494843704700000010024000127A0099
:101AE000D66D000800093D002DE9F84F040070D0C4
:101AF0002078C04DC00749D06868C0F38100012834
:101B000007D06868C0F38100022809D16868C00363
:101B100006D52868800339D560680028E7D035E00D
:101B20006068B0F5803F0BD010B1B0F5A02F11D098
:101B3000286820F480302860286820F4802002E0A3
:101B4000286840F480302860606890B1FFF7D6FDC7
:101B500006460AE0286840F480202860F0E700BFCD
:101B6000FFF7CCFD801B642873D828688003F7D565
:101B70000CE0FFF7C3FD064605E000BFFFF7BEFD22
:101B8000801B6428F0D828688003F7D420789A4E08
:101B900080074FF001094FF0000839D5686810F050
:101BA0000C0F07D06868C0F38100022809D168686B
:101BB000C00306D42868800714D52069012808D1FD
:101BC00010E02069B0B1C6F80090FFF797FD074616
:101BD00005E00AE1FFF792FDC01B0228C4D828687F
:101BE0008007F7D52868616920F0F80040EAC10055
:101BF00028600DE0C6F80080FFF780FD074604E08E
:101C0000FFF77CFDC01B022823D828688007F7D483
:101C1000207800072CD57948A169D9B1C0F8009087
:101C2000FFF76CFD074604E0FFF768FDC01B0228C4
:101C30000FD8686A8007F7D571484FF4FA510068E9
:101C4000B0FBF1F0009000BF0098411E0091FAD265
:101C50000EE080E0C0F80080FFF750FD074604E08A
:101C6000FFF74CFDC01B022875D8686A8007F7D4BF
:101C70002078400760D5E8690027C00008D4E869EB
:101C800040F08050E861E869012700F08050009042
:101C90005C480168C90513D40168834641F480712A
:101CA0000160FFF72BFD824606E000BFFFF726FD2F
:101CB000A0EB0A0064284ED8DBF80000C005F5D57B
:101CC000E06801280AD008B1052813D0286A20F05E
:101CD00001002862286A20F0040002E0286A40F02F
:101CE00001002862E06841F2883B98B1FFF706FDE9
:101CF00082460BE0286A40F004002862EEE700BF4D
:101D0000FFF7FCFCA0EB0A0159455AD8286A800766
:101D1000F6D50CE0FFF7F2FC824605E0FFF7EEFC9B
:101D2000A0EB0A0159454CD8286A8007F6D41FB1A8
:101D3000E86920F08050E861E06988B36968C1F320
:101D40008101022944D00228C6F8608004D0FFF740
:101D5000D5FC044638E034E0FFF7D0FC074604E049
:101D6000FFF7CCFCC01B02282BD828688001F7D4D1
:101D7000206AB0F5803F05D16868A16820F4003082
:101D800008436860D4E908010843696821F47411C4
:101D900008436860C6F86090FFF7B0FC044606E0B0
:101DA00025E000BFFFF7AAFC001B022809D828681D
:101DB0008001F7D51BE000BFFFF7A0FC001B022845
:101DC00002D90320BDE8F88F28688001F4D40EE022
:101DD0000128F7D06868226A00F48031914204D16A
:101DE000616A00F47010884201D00120EAE7002007
:101DF000E8E7000000100240000042428004424236
:101E0000380000200070004070B5040009D0606AFE
:101E1000002540B125616561A56294F8510040B18B
:101E20000CE0012070BD6068B0F5827FF4D0E56100
:101E3000F2E784F85050204600F040F8022084F881
:101E400051002068016821F040010160A0882189CB
:101E500000F4827001F404410843A18901F4006197
:101E60000843217C01F002010843217D01F00101BA
:101E70000843218B01F400710843217F01F03801F0
:101E8000084394F8201001F080010843218D01F4EB
:101E90000051084321680860A069042101EA10404C
:101EA000216848602068C16921F40061C1616565ED
:101EB000012084F85100002070BD000030B585B0CD
:101EC0000024009401940294039400681549884208
:101ED00025D11548C16941F48041C161C16901F44E
:101EE00080410491816941F00801816180690F4D51
:101EF00000F0080004904FF4204000900220019070
:101F00000320039069462846FFF7F6FA4FF4804015
:101F1000CDE90004694628460294FFF7EDFA05B0C2
:101F200030BD00000038004000100240000C0140AD
:101F30002DE9FF4F81B01D46934604464FF001093D
:101F40000E9EFFF7DBFB074694F8510061680128FD
:101F500006D0B1F5827F3CD1A168C9BB042838D135
:101F60000298002871D0BBF1000FFBD0002DF9D0F2
:101F700094F8500001282CD04FF0010A84F850A0AA
:101F800094F85100042802D0052084F851004FF045
:101F90000008C4F85480C4F838B0E587A5870299D2
:101FA0002163E586A586C4F84080C4F84480206893
:101FB0000168490603D4016841F040010160E0680E
:101FC000B0F5006F606808D0F0B3012D49D081E012
:101FD000FFE7022005B0BDE8F08F08B1012D39D12F
:101FE000206B21680088C860206B801C2063E08E15
:101FF000401EE0862EE02068816889070FD5E18EBB
:1020000069B1B9F1010F0AD1216B0988C160206B58
:10201000801C2063E08E401EE0864FF0000920689F
:102020008168C9070CD0E18F51B1C068A16B0880ED
:10203000A06B801CA063E08F401EE0874FF0010979
:10204000FFF75CFBC01B01E00BE067E0B04201D38F
:10205000701C50D1E08E0028CDD1E08F0028CAD16D
:102060003EE0206B216800780873206B401C2063E1
:10207000E08E401EE0862DE02068816889070FD53C
:10208000E18E69B1B9F1010F0AD1216B09780173B1
:10209000206B401C2063E08E401EE0864FF000095C
:1020A00020688168C9070CD0E18F51B1C068A16B6D
:1020B0000870A06B401CA063E08F401EE0874FF0CB
:1020C0000109FFF71BFBC01BB04202D3701C01D0FB
:1020D00011E086B1E08E0028CED1E08F0028CBD170
:1020E0003A463146204602F02BFA50B12020606576
:1020F00084F8508012E084F851A084F850800320C6
:1021000068E7A06818B92068C1688068009084F802
:1021100051A084F85080606D0028F1D0012059E76B
:102120004FF0E0210428086903D020F00400086182
:10213000704740F00400FAE710B5401EB0F1807F10
:1021400001D3012010BD4FF0E02460610F21601722
:1021500003F0E3F80020A06107202061002010BDFB
:1021600070B590F83C20012A26D0012480F83C402C
:10217000022280F83D2003685A689D6822F07006AC
:102180000A6832435A600D4B02689A4208D0B2F195
:10219000804F05D00A4B9A4202D00A4B9A4204D192
:1021A000496825F080031943916080F83D40002183
:1021B00080F83C10084670BD022070BD002C014024
:1021C000000400400008004010B5040003D094F85B
:1021D0003D0010B107E0012010BD002084F83C0054
:1021E000204600F01FF8022084F83D00211D2068E1
:1021F00002F05EFC012084F8460084F83E0084F87A
:102200003F0084F8400084F8410084F8420084F8DC
:10221000430084F8440084F8450084F83D00002021
:1022200010BD000008B500680649884208D106487C
:10223000C16941F00201C161C06900F00200009073
:1022400008BD0000000400400010024070B50446C4
:1022500090F83C000025012817D0012684F83C6046
:10226000022084F83D002068826822F0770222F480
:102270007F4282600868502838D00DDC20284FD07B
:1022800005DC90B3102811D14AE0022070BD30283F
:1022900046D040280AD13BE060282FD070280DD0CE
:1022A000B0F5805F03D0B0F5005F12D0012584F84F
:1022B0003D60002084F83C00284670BDCB68D1E921
:1022C0000121206802F03DFC2068816841F077011F
:1022D00009E0CB68D1E90121206802F032FC2068D6
:1022E000816841F480418160E1E719E0CA6849688A
:1022F000206802F0DBFC5021206806E0CA684968CB
:10230000206802F0E4FC6021206802F024FCCEE7A3
:10231000CA684968206802F0C9FC40212068F4E7D7
:10232000226801461046F0E710B586B00021009102
:1023300001910291039100681349884221D1134809
:10234000816941F004018161816901F00401049116
:10235000816941F0080181618069022400F0080070
:102360000490C020CDE90004694609480394FFF7B2
:10237000C3F80320CDE90004694606480394FFF73B
:10238000BBF806B010BD0000000400400010024081
:1023900000080140000C014070B5044690F83C0074
:1023A00000260D4601280FD0012084F83C006AB1B8
:1023B000042A1DD0082A2FD00C2A3FD00126002045
:1023C00084F83C00304670BD022070BD206802F0E9
:1023D000CBFB2068816941F0080181612068816937
:1023E00021F004018161206881692A69114311E0AB
:1023F000206802F0E1FB2068816941F4006181619D
:102400002068816921F480618161206881692A697D
:1024100041EA02218161D2E7206802F0F9FB2068DD
:10242000C16941F00801C1612068C16921F004015E
:10243000C1612068C1692A69114311E0206802F076
:1024400013FC2068C16941F40061C1612068C16961
:1024500021F48061C1612068C1692A6941EA0221D1
:10246000C161ACE710B5040003D094F83D0010B191
:1024700007E0012010BD002084F83C00204600F059
:102480001EF8022084F83D00211D206802F010FB98
:10249000012084F8460084F83E0084F83F0084F868
:1024A000400084F8410084F8420084F8430084F836
:1024B000440084F8450084F83D00002010BD7047BA
:1024C00010B50446022249B104290ED0082913D0C0
:1024D00094F84100012816D0012010BD94F83E0068
:1024E0000128F9D184F83E200FE094F83F0001283C
:1024F000F2D184F83F2008E094F840000128EBD1A5
:1025000084F8402001E084F841200122206802F094
:102510000BFB0F492068884203D1426C42F4004211
:1025200042642068884208D0B0F1804F05D0094944
:10253000884202D00849884204D1816801F007012D
:10254000062903D0016841F001010160002010BD9F
:10255000002C014000040040000800407047704714
:10256000F8B5016804460868CA684B6910F00F0F97
:102570004FF0000559D003F0010602F4907737437D
:1025800065D0C10705D0D10503D5616C41F00101CB
:102590006164410705D5D90703D0616C41F00201A0
:1025A0006164810705D5D90703D0616C41F004014E
:1025B0006164010707D502F02001314303D0616C4B
:1025C00041F008016164616C00293AD0800604D5AD
:1025D000900602D5204602F09CFC20684069616CA0
:1025E000C0F38010090700D460B3204602F06AFCF3
:1025F00020684069400621D52068143050E8001F4B
:1026000021F0400140E80012002AF5D1E06BA8B1AA
:102610006D494163E06BFEF7A5FE002811D0E06B29
:10262000416B01B0BDE8F040084783060FD5930623
:102630000DD52046BDE8F84002F06BBC2046FFF700
:102640008EFFF8BD2046FFF78AFF6564F8BD266B54
:102650002023012E7CD1C6067AD5D60678D5086807
:102660004868009048694FF00206400640D5E16B8B
:10267000086840680004000CE8D0A28D8242E5D9C9
:10268000E085886920282DD020680C3050E8001F94
:1026900021F4807140E80012002AF5D1206814303E
:1026A00050E8001F21F0010140E80012002AF5D196
:1026B0002068143050E8001F21F0400140E800126B
:1026C000002AF5D184F84230256320680C3050E8A8
:1026D000001F21F0100140E80012002AF5D1E06B44
:1026E000FEF71CFE6663A08DE18D401A81B22AE0E0
:1026F000A08DE18D401A81B2E08D0028A6D000297E
:10270000A4D022680C3252E8000F20F4907042E806
:102710000007002FF5D12068143050E8002F22F078
:10272000010240E80027002FF5D184F842302563EC
:1027300020680C3050E8002F22F0100240E80023FF
:10274000002BF5D166632046FFF708FFF8BDFFE7D1
:1027500005062BD5150629D594F841002128F5D179
:10276000A068B0F5805F01D12069B0B1206A411C3A
:102770002162216800784860E08C401E0004000C53
:10278000E084E3D12068C16821F08001C160206845
:10279000C16841F04001C160D8E7206A0088C0F3F9
:1027A00008004860206A801C2062E5E74006CDD51D
:1027B0005006CBD5CA68204622F04002CA6084F891
:1027C000413000F0D4F8C1E7B54E000870B5040000
:1027D00004D094F84100002510B106E0012070BD3E
:1027E00084F84050204600F023F8242084F841006B
:1027F0002068C16821F40051C160204602F0EAFB64
:102800002068016921F4904101612068416921F04B
:102810002A0141612068C16841F40051C1606564CA
:10282000202084F8410084F842006563002070BDD8
:1028300030B585B00024009401940294039400689C
:10284000184988422CD11848816941F4804181613E
:10285000816901F480410491816941F00401816141
:102860008069124D00F0040004904FF40070009055
:10287000022001900320039069462846FEF73CFEA3
:102880002815CDE90004694628460294FEF734FE77
:10289000002206212520FEF7A3FF2520FEF792FF48
:1028A00005B030BD00380140001002400008014072
:1028B00090F84230202B01D00220704721B11AB18C
:1028C0000023036302F0E2BB0120704770472DE94B
:1028D000F843044690F84100984616460D462028D5
:1028E00002D00220BDE8F88385B17EB1002060648B
:1028F000212084F84100FEF701FFA6848146E6848A
:10290000A0682027B0F5805F02D003E00120E9E74E
:10291000206910B12E4600250EE000260CE0802133
:10292000204602F0CEFBA8B9C6B116F8010B21680B
:102930004860E08C401EE084E08C4B464FF0000283
:10294000CDF800800028EAD14FF04001204602F087
:10295000B8FB40B184F841700320C3E735F8020B9F
:10296000C0F30800E3E784F841700020BAE770473D
:10297000FEE7000070B5104D4FF4004400222146E0
:102980002846FEF7B6FE01F0D7FB002208210B48CF
:10299000FEF7AFFE022003F017FA01222146284677
:1029A000FEF7A7FE022003F00FFA21462846BDE8F5
:1029B00070400022FEF79DBE00080140000C01405F
:1029C00003490120C1F8BC010249C1F88C017047DC
:1029D000000021420080214270B5104D4FF40044A8
:1029E000002221462846FEF784FE01F0A5FB0122C5
:1029F00008210B48FEF77DFE022003F0E5F90122D5
:102A000021462846FEF775FE022003F0DDF9214637
:102A10002846BDE870400022FEF76BBE000801406A
:102A2000000C01402DE9F0478046002401F068FBCE
:102A3000164FDFF85C9000254FF400460022314627
:102A40003846FEF756FE022003F0BEF90122314659
:102A50003846FEF74EFE6006040E08214846FEF793
:102A60003BFE08B1641CE4B2012003F0ADF96D1C1B
:102A7000EDB2082DE2D3B8F1000F02D0FFF77AFFD4
:102A800001E0FFF7A9FF2046BDE8F08700080140FC
:102A9000000C014070B515460E46044600F0F8F8EB
:102AA000204600F089F800F041F918B100F016F95D
:102AB000012070BD304600F07FF800F037F900F0DB
:102AC000E7F8641CE0B200F077F800F02FF900207E
:102AD000FFF7A8FF287000F001F9002070BD2DE974
:102AE000F0411F46154688460646002400F0D0F8FF
:102AF000304600F061F800F019F920B100F0EEF86E
:102B00000120BDE8F081404600F056F800F00EF9D3
:102B100000F0BEF8761CF0B200F04EF800F006F9B6
:102B20006E1E09E0B44201D0012000E00020FFF752
:102B300079FF3855641CE4B2AC42F3D300F0CEF810
:102B40000020DEE72DE9F04782461848002401689E
:102B500021F470410160016841F400410160144EAC
:102B6000DFF85090254627464FF00108C6F8BC71A3
:102B7000022003F029F9C6F8BC816006040ED9F8DA
:102B80000C0108B1641CE4B2012003F01DF96D1CB6
:102B9000EDB2082DEAD3BAF1000F04D000F0A0FE88
:102BA0002046BDE8F08700F0BFFEF9E7000C0140C9
:102BB00000002142008021422DE9F041054601F04C
:102BC000BBFA174F4FF40046002231463846FEF755
:102BD00090FDDFF850800024280601D5012200E096
:102BE000002208214046FEF784FD6806050E0220FB
:102BF00003F0EAF8012231463846FEF77AFD02205A
:102C000003F0E2F8002231463846FEF772FD02205A
:102C100003F0DAF8641CE4B2082CDDD3BDE8F081DF
:102C200000080140000C01402DE9F0470646154818
:102C3000016821F470410160016841F44051016074
:102C4000114D0027C5F8BC71DFF840803C464FF0BD
:102C50000109F109C8F88C117006060E022003F074
:102C6000B3F8C5F8BC91022003F0AEF8C5F8BC710A
:102C7000022003F0A9F8641CE4B2082CE9D3BDE8F3
:102C8000F0870000000C014000002142008021423A
:102C900070B501F051FA0F4C012208212046FEF7D1
:102CA00028FD01220C4ED50329463046FEF721FDB2
:102CB000042003F089F8002208212046FEF719FDC0
:102CC000042003F081F829463046BDE87040002218
:102CD000FEF70FBD000C01400008014070B501F087
:102CE0002BFA104D4FF40044002221462846FEF7EF
:102CF00000FD0D4E002208213046FEF7FAFC0420AC
:102D000003F062F8012221462846FEF7F2FC012278
:102D100008213046FEF7EDFCBDE87040042003F0CA
:102D200053B8000000080140000C01402DE9F041BB
:102D3000002401F0E5F9154D012208212846FEF78F
:102D4000D8FC012003F040F80122114FD603314690
:102D50003846FEF7CEFC012003F036F808E0641C8C
:102D6000E4B2FA2C04D9FFF7B9FF0120BDE8F081E5
:102D700008212846FEF7B0FC0028F0D10022314699
:102D80003846FEF7B6FC0020F0E70000000C0140DA
:102D9000000801402DE9F04113480024016821F4A6
:102DA00070410160016841F4004101600F4D01264E
:102DB000C5F88C61304603F007F80D4FC7F8BC61C9
:102DC000012003F001F808E0641CE4B2FA2C04D9F5
:102DD00000F0F4FD0120BDE8F081D5F80C010028D9
:102DE000F2D1C7F8BC01F6E7000C01400080214297
:102DF0000000214270B515460E460446FFF748FF15
:102E00002046FFF7D9FEFFF791FF50B93046FFF794
:102E1000D3FEFFF78BFF2846FFF7CEFEFFF786FFB6
:102E200018B1FFF75BFF012070BDFFF757FF0020CF
:102E300070BD00002DE9F04FA3B016460C460546C4
:102E40002422FE4913A8FDF7DDF9D4E900ABA768F9
:102E50002868009068680590DFF8E493A8680290FD
:102E6000D9F804104C4608460991FDF747FA0E9030
:102E7000A16806910998FDF741FA0A90E16809985E
:102E80008846FDF73BFA1090216909980C46FDF73A
:102E900035FA069911900846FDF730FA0F90414631
:102EA0000698FDF72BFA0D9021460698FDF726FAB5
:102EB000414612900846FDF721FA06902146404609
:102EC000FDF71CFA214609900846FDF717FA08900D
:102ED00059465046FDF712FA3946FDF70FFA10F041
:102EE000FF4F7CD039460846FDF708FA8046594620
:102EF0000846FDF703FA044651460846FDF7FEF979
:102F00002146FDF7A3F94146FDF7A0F902F0C8FFFD
:102F1000044601465046FDF7F1F904902146584613
:102F2000FDF7ECF9039021463846FDF7E7F90190EB
:102F300010991298FDF7DCF90121FDF74FFA804650
:102F40002190DDE90910FDF781F90121FDF746FA2D
:102F500007461F90DDE90E01FDF7CAF9209006999A
:102F6000FDF7C6F90899FDF771F904461E90394638
:102F70000198FDF7C3F9824621460398FDF7BEF993
:102F80005146FDF7B5F9834621460498FDF7B6F999
:102F9000044641460198FDF7B1F92146FDF7A8F92D
:102FA0000C9041460398FDF7A9F904463946049868
:102FB000FDF7A4F92146FDF79BF98246A149584641
:102FC000FDF79CF94C46D9F81410FDF73FF98046FF
:102FD00060619C490C98FDF791F9A16900E073E1EB
:102FE000FDF734F98146A06196495046FDF786F910
:102FF000E169FDF72BF90746E0614FF07F51584634
:10300000FDF77CF90099FDF721F94146FDF71EF91E
:1030100000904FF07F510C98FDF770F90599FDF77E
:1030200015F94946FDF712F983464FF07F51504696
:10303000FDF764F90299FDF709F93946FDF706F93C
:103040008246014620690490FDF758F98146E06800
:1030500059460790FDF752F9A768804687F000406F
:103060000099FDF74BF94146FDF742F94946FDF756
:103070003FF97449FDF742F96168FDF7E7F88146C9
:10308000606059460498FDF739F901905146079858
:10309000FDF734F9804648460099FDF72FF941467F
:1030A000FDF7D4F80199FDF723F96649FDF726F9F4
:1030B0003946FDF7CBF8A060804600990498FDF7EB
:1030C0001DF90B9051464046FDF718F90746594641
:1030D0004846FDF713F93946FDF70AF90B99FDF754
:1030E000B5F85849FDF70AF90799FDF7AFF8E06020
:1030F00007460099FDF702F9009059464046FDF752
:10310000FDF8834651464846FDF7F8F85946FDF765
:103110009DF80099FDF7ECF84A49FDF7EFF804999E
:10312000FDF794F801462061FDF7E8F8824639463C
:103130000846FDF7E3F8074641460846FDF7DEF886
:10314000804649460846FDF7D9F84146FDF77EF826
:103150003946FDF77BF85146FDF778F802F0A0FEFE
:10316000074601466068FDF7C9F860603946A06807
:10317000FDF7C4F8A0603946E068FDF7BFF8E060ED
:1031800039462069FDF7BAF82061DDE90E01FDF747
:103190005DF80699FDF7ACF80899FDF7A9F81390CA
:1031A00011990D98FDF752F80121FDF717F91490C8
:1031B0002198159011990D98FDF79AF80121FDF7C6
:1031C0000DF9169006992098FDF740F80899FDF73B
:1031D0008FF817901F98189010991298FDF736F8ED
:1031E0000121FDF7FBF81990DDE90901FDF780F8F1
:1031F0000121FDF7F3F81A901E981B901249A86858
:10320000FDF77CF81149FDF779F8B06001210698C7
:10321000FDF7E4F804464FF0404529460F98FDF7C6
:103220006DF82146FDF764F84FF07E51FDF70EF87A
:10323000FDF7BAFA0C460746012109E0006E0008C6
:10324000100300200AD7A33BA34C65426F12833AB8
:103250000A98FDF7C3F8804601210998FDF7BEF8EA
:103260004146FCF7F3FFFDF79FFA3A46234602F08A
:10327000FDFB6F083A46164BFDF763F9FDF7A7FA19
:10328000306001211098FDF7A9F8044629461298EC
:10329000FDF734F82146FCF7D9FFFDF785FA02F077
:1032A0009DF93A460B4BFDF74CF9FDF790FA70602B
:1032B000094A002013A900BF51F8203042F82030FD
:1032C000401CC0B20928F7D323B0BDE8F08F00003E
:1032D00066A64C4066A64CC0F42E002010B502E055
:1032E00003A001F0EBFF00F002F90028F8D010BDB8
:1032F0000D4D505536303530206E6F20636F6E6E39
:103300006563742E2E2E0D0A0000000010B5FFF725
:10331000E5FF80216B2000F0D8F8642002F046FD24
:1033200001216B2000F0D1F80021382000F0CDF809
:1033300018211B2000F0C9F808211C2000F0C5F856
:1033400004211A2000F0C1F80021192000F0BDF876
:103350000221BDE81040372000F0B7B8F0B5194C95
:103360000025668876B96560A5600123E560638005
:10337000158065F30F00558065F31F4065F30F015D
:1033800000239580676806B23E446660A76807EB35
:10339000204708B2A760E168C01A0144E160608874
:1033A000C82803D0401C60800020F0BD96FBF0F3DD
:1033B000138097FBF0F391FBF0F0538090806580D1
:1033C0000120F0BD900200201CB52F4801884ABAA8
:1033D0002E490B88D31A8A1D138043884C885BBA08
:1033E0001B1B5380838889885BBA591A9180018995
:1033F0004ABA2649891F0B88D31A01F11202138099
:1034000043894C885BBA1B1B53808089898840BAEA
:10341000401AA2F1220490802078C043C00717D13F
:10342000D4F822000090E18CADF804100023123A89
:103430000199FFF793FF58B1207820F00100207028
:1034400000F0B4FBFDF712FE207840F0020020707F
:103450002078C043800716D4E0690090218CADF835
:10346000041042F20403094A0199FFF777FF00288C
:1034700009D0207820F00200207000F097FBBDE812
:103480001C40FDF74FBB1CBD28280020A6020020D1
:103490000E21024A3B2000F00DB800002828002031
:1034A0000A4610B50146D020FFF7F4FA002800D0F4
:1034B000012010BD13460A4610B50146D020FFF783
:1034C0000EFB002800D0012010BD0A4610B50146B1
:1034D000D020FFF78FFC002800D0012010BD08B5D8
:1034E00069467520FFF7DCFF9DF8000008BD10B5A8
:1034F000FFF7F5FF682801D0002010BD012010BDA6
:103500003EB500211148009101910F4A02910260DD
:1035100081600173017501244FF460220461C2616E
:103520004160FDF741FE08B1FDF7FAFC022000946E
:10353000CDE9014069460548FDF7B8FD002801D0F6
:10354000FDF7EEFC3EBD000000240140AC0500206C
:1035500010B5CEB01C223C496846FCF753FE002152
:10356000684602F0EFFC394C37491C2220601C31C0
:1035700007A8FCF747FE002107A802F0E3FC324948
:1035800060601C2238310EA8FCF73CFE00210EA81A
:1035900002F0D8FC2C49A0601C22543115A8FCF77D
:1035A00031FE002115A802F0CDFC2749E0601C2265
:1035B00070311CA8FCF726FE00211CA802F0C2FCFA
:1035C000214920611C228C3123A8FCF71BFE00211D
:1035D00023A802F0B7FC1C4960611C22A8312AA86C
:1035E000FCF710FE00212AA802F0ACFC1649A061ED
:1035F0001C22C43131A8FCF705FE002131A802F0DD
:10360000A1FC1149E0611C22E03138A8FCF7FAFD69
:10361000002138A802F096FC0B4920621C22FC31E4
:103620003FA8FCF7EFFD00213FA802F08BFC606291
:103630001C22074946A8FCF7E5FD002146A802F038
:1036400081FCA0624EB010BDA06C000800000020FC
:10365000B86D00082DE9F04786B000253E4800957A
:10366000019502950395816941F01001816181699D
:1036700001F010010491816941F0200181618169AB
:1036800001F020010491816941F0040181618169A7
:1036900001F004010491816941F0080181618069B0
:1036A0002E4E00F008004FF4C04404900122214641
:1036B0003046FEF71EF8DFF8A8A0002241F258219C
:1036C0005046FEF716F8DFF89C904FF401480022B0
:1036D00041464846FEF70DF8009401240327CDE942
:1036E0000247694630460194FDF706FF042000902A
:1036F0001D48CDE9010469465046FDF7FDFE41F243
:10370000180002268DE8710069465046FDF7F4FE68
:1037100001AACDF8008082E8700069464846FDF7AE
:10372000EBFE2020CDE90005694602945046FDF7E6
:10373000E3FE4FF410708DE8D10069465046FDF766
:10374000DBFE002205210820FEF74AF80820FEF7DC
:1037500039F806B0BDE8F0870010024000100140C3
:10376000000C01400008014000002110104810B575
:103770000E4901604FF48271416000218160C16097
:103780004FF400720161C0E905121822C0E9072157
:10379000416281620A21C162FEF736FB002803D034
:1037A000BDE81040FDF7BCBB10BD00000038004074
:1037B000DC05002010B58EB000240794089409940D
:1037C0000A940B941C2168460C94FCF734FD334892
:1037D000314901604FF43471C0E901144FF4FA61CA
:1037E000C0E9031480218161FEF7EEFC08B1FDF70A
:1037F00097FB4FF48050079007A92848FEF726FD55
:1038000008B1FDF78DFB2548FEF72CFE08B1FDF74A
:1038100087FB0B940BA921480C94FEF7A1FC08B17F
:10382000FDF77EFB6020CDE900040294002269468A
:103830001A480494FEF7B0FD08B1FDF771FB0422AD
:1038400069461648FEF7A8FD08B1FDF769FB082296
:1038500069461248FEF7A0FD08B1FDF761FB0C2296
:1038600069460E48FEF798FD08B1FDF759FB0021A7
:103870000A48FEF725FE04210848FEF721FE08212C
:103880000648FEF71DFE0C210448FEF719FE03480A
:10389000FEF74AFD0EB010BD0004004034060020C3
:1038A0000E4810B50C4901604FF4E1314160002130
:1038B00081600C22C160C0E904128161C161FEF720
:1038C00085FF08B1FDF72CFB04490122BDE810403B
:1038D00014390248FEF7ECBF003801409006002082
:1038E00070B50E4C0025C4F8BC510D48016821F498
:1038F00070410160016841F4405101600948C0F81D
:103900008C51022004F5DE7402F05EFA0120206082
:10391000022002F059FA256070BD0000000021422B
:10392000000C01400080214270B50E4C0025C4F807
:10393000BC510D48016821F470410160016841F4F7
:103940004051016009480126C0F88C61022004F54D
:10395000DE7402F039FA2660022002F035FA2560A2
:1039600070BD000000002142000C01400080214297
:1039700070B50F48016821F470410160016841F49D
:10398000405101600B4C0120C4F88C010A4DC5F870
:10399000BC01042004F5C67405F5DE7502F014FAC6
:1039A00000262660042002F00FFA2E6070BD000091
:1039B000000C0140008021420000214270B50F48F8
:1039C000016821F470410160016841F440510160D7
:1039D0000B4C0020C4F8BC010A4DC5F88C01042032
:1039E00004F5DE7405F5C67502F0EEF901202060DD
:1039F0002860BDE87040042002F0E6B9000C0140E8
:103A00000000214200802142FEE7000010B54FF483
:103A10007A74A04200DD2046A14200DD2146A24288
:103A200000DD2246A34200DD2346002800DA002004
:103A3000002900DA0021002A00DA0022002B00DA37
:103A40000023044C2060201D0160001D0260001D49
:103A5000036010BD34040040FEE700002DE9F04192
:103A600090460A46044641461046FCF741FCE06099
:103A70000646A169FCF73CFC0546606131462068BA
:103A8000FCF73CFC0746A06294F83800FCF75AFEAD
:103A90006168FCF733FC2169FCF730FC0646E06204
:103AA0002946A068FCF72AFC0546206331463846C3
:103AB000FCF7CCFB2946FCF7C9FB60631B480025DB
:103AC000007801282DD11A48B0F90400B42828DB69
:103AD0004046216AFCF7A2FE06D3206A414680F0E8
:103AE0000040FCF79BFE02D284F838501AE0012017
:103AF00084F83800D4E90310FCF7A8FB2061616A60
:103B0000FCF78CFE01D2606A2061606A216980F056
:103B10000040FCF783FE05D2606A80F0004020611F
:103B200000E02561E068A061BDE8F081F1020020BD
:103B30000803002010B53E220F49104800F076FD22
:103B400001F0D8F80C484FF6FF71428A8A420CD136
:103B500082898A4209D1008B884206D1FDF792F909
:103B6000BDE8104006A001F0A9BB0BA001F0A6FB28
:103B7000BDE81040FDF786B9982C002000F8000839
:103B8000466C6173682052656164204572726F7281
:103B90002121210D0A000000466C617368205265E6
:103BA0006164204F4B2121210D0A000010B500F067
:103BB00035F8BDE810403E220149024800F044BDFE
:103BC000982C002000F8000810B50122402104487C
:103BD000FDF78FFDBDE81040C820FDF70FBC0000C9
:103BE000000C014010B50C4C20212046FDF774FD5F
:103BF00000280FD13220FDF701FC20212046FDF7DF
:103C00006BFD0028F9D020460022BDE8104040217D
:103C1000FDF76FBD10BD0000000C014070B562489B
:103C2000624C644D01882180418861808088A08039
:103C30005F48614E0188E1804188218180886081F0
:103C400031462868FCF75AFBFCF79AFDA081314603
:103C50006868FCF753FBFCF793FDE0813146A868E8
:103C6000FCF74CFBFCF78CFD544D20823146286854
:103C7000FCF744FBFCF784FD608231466868FCF782
:103C80003DFBFCF77DFDA0823146A868FCF736FBC2
:103C9000FCF776FD4A4DE08231462868FCF72EFBA2
:103CA000FCF76EFD208331466868FCF727FBFCF7C4
:103CB00067FD60833146A868FCF720FBFCF760FDD8
:103CC000404DA08331462868FCF718FBFCF758FDEF
:103CD000E08331466868FCF711FBFCF751FD208456
:103CE0003146A868FCF70AFBFCF74AFD364D6084B4
:103CF00031462868FCF702FBFCF742FDA084314600
:103D00006868FCF7FBFAFCF73BFDE0843146A868E5
:103D1000FCF7F4FAFCF734FD2C4D20853146286879
:103D2000FCF7ECFAFCF72CFD608531466868FCF77F
:103D3000E5FAFCF725FDA0853146A868FCF7DEFA18
:103D4000FCF71EFD224DE08531462868FCF7D6FAC7
:103D5000FCF716FD208631466868FCF7CFFAFCF7C1
:103D60000FFD60863146A868FCF7C8FAFCF708FD2D
:103D7000184DA08631462868FCF7C0FAFCF700FD14
:103D8000E08631466868FCF7B9FAFCF7F9FC208751
:103D90003146A868FCF7B2FAFCF7F2FC60870E48DF
:103DA0000078A08770BD0000A6020020982C00209B
:103DB000A0020020D82C002000007A44142D0020FE
:103DC000502D00208C2D0020C82D0020042E002016
:103DD000402E00207C2E00208002002030B51749A4
:103DE0000020184B81F83800154A174DC1E9082307
:103DF000174985F83800154CC5E90841154D85F877
:103E00003800C5E90823144D85F83800C5E9084194
:103E1000124D85F83800C5E90823114A82F83800A8
:103E2000C2E908410F4A82F83800106250620E4A17
:103E300082F838000D48C2E9080130BD8C2D002001
:103E40000000164300009644D82C002000000C42CD
:103E500000004843C82D0020142D0020042E00200F
:103E6000502D0020402E00207C2E00200000C84253
:103E70002DE9FC5FFFF70CFBFFF7A6FA0C22454982
:103E8000454800F0E1FC434C444D29462068FCF7CE
:103E900035FA434E3146FCF731FA83462060294615
:103EA0006068FCF72BFA3146FCF728FA6060019055
:103EB0002946A068FCF722FA3146FCF71FFA394D73
:103EC000A0600090B5F90000FCF733FC364F39468E
:103ED000FCF714FAA4F10C063060B5F90200FCF707
:103EE00028FC3946FCF70AFA7060B5F90400FCF7C3
:103EF00020FC3946FCF702FADFF8B080B06098F891
:103F0000010088B304F10C05DFF8A4902868494645
:103F1000FCF7F4F9DFF89CA0064651465846FCF73A
:103F2000EDF93146FCF792F907462060494668688A
:103F3000FCF7E4F9064651460198FCF7DFF93146F3
:103F4000FCF784F9064660604946A868FCF7D6F994
:103F5000814651460098FCF7D1F94946FCF776F9BD
:103F6000A0602F60C5E901600A482168183011F08F
:103F7000FF4F016062684260A368836008D012F05E
:103F8000FF4F05D013F0FF4F02D0012188F8001039
:103F9000BDE8FC9FD02E0020AC02002040DAFF38A4
:103FA0000AE81C41B202002045798B3A1003002038
:103FB000CDCCCC3D6666663F2DE9F04114460D46FA
:103FC0000646A1420DDAFDF713F8FCF7C0FB0746E1
:103FD000421E29463046FFF7EFFF2246791C304645
:103FE000ECE7BDE8F08110B500240021FF2208466F
:103FF00001F024F9641CE4B2042CF6D310BD10B512
:10400000002400221146104601F018F9641CE4B2A5
:10401000042CF6D310BD00002DE9F041154C00260C
:10402000A078411CA170102803D3A6706078401CB2
:104030006070104F00253F1D2078042800D926709D
:104040006078217807EB801050F82120C2F30741F7
:10405000C2F30720D2B201F0F1F820786D1C401CA9
:10406000EDB22070042DE7D36078072800D1667088
:10407000BDE8F081BC00002010B5002400221146EC
:10408000FF2001F0DBF8641CE4B2042CF6D310BD71
:1040900070B505465FF0000405FA04F0C00702D0D1
:1040A00001F092F801E001F059F8641CE4B2082C28
:1040B000F2D370BD10B50F490F4C01200870E07AA3
:1040C000A52815D12078C10709D00C486188C18086
:1040D000A1888180E18801802189418004E0000776
:1040E00002D56078FCF76CFD0449A07A091F88703E
:1040F00010BD0000F0020020082800200803002066
:1041000000B585B00020019002900948816941F016
:10411000080181618069694600F008000490082068
:104120000090032003900348FDF7E6F905B000BDB9
:1041300000100240000C014000B585B00020029044
:104140000A48816941F0080181618069694600F08F
:1041500008000490082000900120019003200390A3
:104160000348FDF7C9F905B000BD0000001002408A
:10417000000C014010B502E003A001F09FF800F030
:104180006BF90028F8D010BD0D205349323452315C
:10419000206E6F20636F6E6E6563742E2E2E0D0A77
:1041A0000000000070B51F4D4FF4807400222146BE
:1041B0002846FDF79EFA0321232000F071F905221D
:1041C0001949302000F008F9052217492A2000F08B
:1041D00003F91A21242000F063F90121222000F0C4
:1041E0005FF90121212000F05BF92021312000F04E
:1041F00057F90D490522491D2A2000F0EDF81E212E
:10420000252000F04DF92721262000F049F90F2044
:1042100000F064F921462846BDE870400122FDF710
:1042200068BA0000000801408302002010B5114C5C
:104230002078322810D94FF0E0208069FBF7DAFFB0
:10424000FBF7CEFF322190FBF1F201FB1200207050
:10425000BDE81040FFF7AABC0649C91C0A79824292
:1042600006D00871491D0871BDE81040FFF79ABFDC
:1042700010BD00008002002010B5FFF77BFF012277
:1042800011030548FDF735FABDE8104000224FF450
:1042900080710248FDF72DBA000C01400008014072
:1042A0002DE9F047DFF8409016460D4604464FF4DE
:1042B0008058002241464846FDF71BFA204602F08E
:1042C000C1F90746002405E0FF2002F0BBF905F81C
:1042D000010B641CB442F7DB012241464846FDF75E
:1042E00008FA3846BDE8F087000C014070B50C4E66
:1042F00004464FF48075002229463046FDF7F9F94F
:10430000202221466120FFF7CBFFFF21E22000F0B1
:10431000C7F829463046BDE870400122FDF7E9B9EB
:10432000000801400F4810B50078002818D00E484A
:104330000E4C007890B1A0786178884202D100F0EC
:10434000FFFE0BE00A48007840B94FF4804109486D
:10435000FDF7C7F94FF4FA70FDF750F8A0786070D8
:1043600010BD0000F0020020F10200200403002034
:10437000A40000200010014070B5154E04464FF413
:104380008075002229463046FDF7B3F90522114910
:10439000302000F021F805220E492A2000F01CF8F8
:1043A00020222146A02000F017F80E21202000F046
:1043B00077F87E21272000F073F801222946304645
:1043C000FDF797F9BDE870400A2001F0FDBC000040
:1043D00000080140830200202DE9F047DFF84090FB
:1043E00016460D4604464FF4805800224146484682
:1043F000FDF77FF9204602F025F90746002404E086
:10440000287802F01FF9641C6D1CB442F8DB01220D
:1044100041464846FDF76DF93846BDE8F087000093
:10442000000C014070B50B4E04464FF4805500223D
:1044300029463046FDF75DF9204602F003F9FF20DA
:1044400002F000F90446012229463046FDF751F9F1
:10445000204670BD000C01401CB50FA10522D1E91A
:104460000001CDE9000169463020FFF7B5FF0522C4
:1044700069461020FFF714FF002069460A5CA52A50
:1044800003D1401CC0B20528F8D3052801D0002074
:104490001CBD01201CBD0000A5A5A5A5A500000010
:1044A0002DE9F0410C4E0F4604464FF48055002292
:1044B00029463046FDF71DF9204602F0C3F80446B0
:1044C000384602F0BFF8012229463046FDF711F9BF
:1044D0002046BDE8F0810000000C014070B5174D8A
:1044E0004FF480740E284FF000022146284613D066
:1044F000FDF7FFF80F212020FFF7D2FF7E212720B4
:10450000FFF7CEFF012221462846FDF7F2F8BDE86D
:104510007040C82001F058BCFDF7EBF80E212020B8
:10452000FFF7BEFF7E212720FFF7BAFF214628466E
:10453000BDE870400122FDF7DCB800000008014032
:10454000F8B515460E460B4600920446012202219C
:1045500000F010F840B93346002280212046009533
:1045600000F008F8002804D0606D40F0200060657D
:104570000320F8BD2DE9F8431E46914688460446BF
:10458000089DFDF7BBF8401B351AFDF7B7F8074645
:1045900025480068C0F3CB30684338E0701C37D042
:1045A000FDF7ACF8C01BA84203D215B1009860B368
:1045B0002CE02068416821F0E00141606068B0F5BE
:1045C000827F0BD1A068B0F5004F02D0B0F5806FAC
:1045D00004D12068016821F040010160A06AB0F5B3
:1045E000005F09D12068016821F400510160206852
:1045F000016841F400510160012084F8510000205D
:1046000084F850000320BDE8F8830025401E009088
:104610002068816838EA010004D000214945BDD1F5
:104620000020F0E70121F9E73800002010B5002351
:1046300006E000BF30F8024B21F813405B1C9BB230
:104640009342F7D310BD00002DE9F05FA0F10064A4
:1046500015468A468346B4F5803F5FD2FCF72AFFB1
:10466000A70AC4F34806C6F50074A54200D82C4634
:10467000DFF8AC904FF0006000EB872080464FF4ED
:1046800000722749FFF7D2FF00204FF6FF7106E0C6
:10469000331839F813208A4203D1401C80B2A0425B
:1046A000F6D3A0422ED24046FCF7CEFC4CF250305E
:1046B000FCF774FC1B48016921F002010161002034
:1046C000494606E03AF810208319401C21F81320CF
:1046D00080B2A042F6D3124940464FF4007200BFA8
:1046E00000F022F8A54215D0281B0AEB440A0BEB78
:1046F000440B002685B24FF400747F1CA542B9D844
:104700002C46B7E74CF25030FCF748FC22465146A5
:104710005846E5E7BDE8F05FFCF782BEBDE8F09FD4
:1047200058280020002002402DE9F04116460F468F
:10473000054600240AE000BF37F81420002329466C
:104740000120FCF777FE641CA4B2AD1CB442F3D385
:10475000BDE8F081F8B5344802783448017812B1E8
:1047600041F0100101E021F01001314C0170FF21F6
:104770002170007860702F482F4D304E8088ADF842
:1047800000009DF80100A0709DF80000E070314627
:10479000A868FBF7B3FDFBF7DAFFADF800009DF862
:1047A000010020719DF80000607131466868FBF7D8
:1047B000A5FDFBF7CCFFADF800009DF80100A0714E
:1047C0009DF80000E07131462868FBF797FDFBF784
:1047D000BEFFADF800009DF8010020729DF80000BA
:1047E000607217483146C069FBF788FDFBF7AFFFE1
:1047F000ADF800009DF80100A0729DF80000E07285
:10480000104831468068FBF779FDFBF7A0FFADF853
:1048100000009DF8010020739DF8000060732046A1
:10482000BDE8F840FFF7A8BDF1020020900200208B
:10483000E827002008030020B82E00200000C8420E
:10484000582C0020A80000202DE9FE4F074600202C
:1048500002900190009014460E46B7F90000FBF755
:1048600068FFDFF8E080DFF8D8A098F804504AF835
:104870002500B7F90200FBF75CFF0AF1500949F87F
:104880002500B7F90400FBF754FF09F1500747F87A
:1048900025006D1CE8B288F80400A04203D298F805
:1048A0000500002849D14FF0000B88F805B0621EC2
:1048B00059462348FFF780FB2148621E00215030F3
:1048C000FFF77AFB1E48621E0021A030FFF774FB41
:1048D000CA460125B946671E14E0194850F825104C
:1048E0000298FBF7B3FC02905AF825100198FBF7E9
:1048F000ADFC019059F825100098FBF7A7FC6D1C42
:10490000EDB20090BD42E8DB98F80410A14201D35B
:1049100088F804B0A01EFBF70CFF0446214602985D
:10492000FBF71EFD306021460198FBF719FD706012
:1049300021460098FBF714FDB060BDE8FE8F000033
:10494000B82F002030030020FFF792FA0A2001F070
:10495000EDFAF9E74FF4FA74FFF75EFB204601F039
:10496000E5FAF9E74FF47A74204601F0DFFAFBE745
:10497000054C064A064923780648FCF785F90A20C3
:1049800001F0D4FAF5E70000F1020020080300204E
:10499000C42E0020B82E0020044A05490548FEF721
:1049A00049FA0A2001F0C2FAF6E70000B82E00200A
:1049B000D02E0020C42E0020064D4FF400544FF49A
:1049C000FA7621462846FCF78CFE304601F0AEFA16
:1049D000F7E70000001001404FF49674204601F004
:1049E000A5FAFBE7FFF7FEF8142001F09FFAF9E7BC
:1049F0004FF4C874FFF71AFC204601F097FAF9E764
:104A0000FFF790FCC82001F091FAF9E74FF4967493
:104A1000FFF7A0FE204601F089FAF9E710B5FCF790
:104A200073FE02F067F8012803D0BDE8104001F0E2
:104A3000F3BF10BD30B593B028216846FBF7FBFBF0
:104A400014210AA8FBF7F7FB002501200F9510950C
:104A50001195010412958DE8230004904FF4E010A5
:104A6000CDE90810022407946846FDF73DF808B127
:104A700072B6FEE70AA90F2081E831004FF480608A
:104A8000CDE90D0502210AA8FCF752FF08B172B664
:104A9000FEE74FF4004011900F940FA8FCF7D2FEF0
:104AA000002801D072B6FEE713B030BD7047000099
:104AB000F0B50268194B1A4C1A4D4FF080479842D6
:104AC00005D0B84203D0A04201D0A84203D122F0C1
:104AD00070064A683243984205D0B84203D0A042DB
:104AE00001D0A84203D122F44074CA6822434C6921
:104AF00022F08002224302608A68C2620A688262EF
:104B0000984201D109690163012141610169C90725
:104B100003D0016921F001010161F0BD002C0140C9
:104B2000000400400008004010B501F01F030121FF
:104B3000046A99408C430462016A9A4011430162FD
:104B400010BD10B5846842EA032224F47F440A436E
:104B50002243826010BD826822F070020A4342F054
:104B6000070181607047000030B5036A026A22F0D5
:104B7000010202624268846924F073050C682C43C8
:104B800023F002058B682B430A4DA8420BD123F07A
:104B90000805CB6822F440722B434D6923F00403CF
:104BA00015438A692A43426084614968416303620C
:104BB00030BD0000002C014030B5026A036A23F0CA
:104BC00010030362436884690D6824F4E64444EAF0
:104BD00005248D6822F0200242EA05120B4DA842FE
:104BE0000ED1CD6822F0800242EA05124D6923F40D
:104BF000406343EA85038D6922F0400243EA85035E
:104C00004360846149688163026230BD002C0140C9
:104C100030B5036A026A22F4807202624268C46993
:104C200023F4007324F073050C682C438D6843EA69
:104C300005230C4DA8420ED1CD6823F4006343EA4E
:104C400005234D6922F4405242EA05128D6923F48E
:104C5000806342EA05124260C4614968C16303622D
:104C600030BD0000002C014030B5046A026A22F415
:104C7000805202624268C3690D6823F4E64343EA46
:104C800005238D6824F4005444EA0534064DA842F7
:104C900004D14D6922F4804242EA85124260C36128
:104CA00049680164046230BD002C014010B5036AFC
:104CB000046A24F001040462846924F0F00444EAE4
:104CC000021423F00A020A438461026210BD10B587
:104CD000036A046A24F010040462846923F0A003C8
:104CE00024F4704444EA023243EA01118261016211
:104CF00010BD000070B5624C624821880180618857
:104D00004180A18881806048E188018021894180BB
:104D100061898180A089FBF715FD5C4E3146FBF768
:104D20001FFB5B4D2860E089FBF70CFD3146FBF76C
:104D300017FB6860208AFBF705FD3146FBF710FB87
:104D4000A860608AFBF7FEFC3146FBF709FB514D7A
:104D50002860A08AFBF7F6FC3146FBF701FB686090
:104D6000E08AFBF7EFFC3146FBF7FAFAA860208BEC
:104D7000FBF7E8FC3146FBF7F3FA474D2860608B00
:104D8000FBF7E0FC3146FBF7EBFA6860A08BFBF722
:104D9000D9FC3146FBF7E4FAA860E08BFBF7D2FCC4
:104DA0003146FBF7DDFA3D4D2860208CFBF7CAFC4D
:104DB0003146FBF7D5FA6860608CFBF7C3FC3146DF
:104DC000FBF7CEFAA860A08CFBF7BCFC3146FBF7E2
:104DD000C7FA334D2860E08CFBF7B4FC3146FBF793
:104DE000BFFA6860208DFBF7ADFC3146FBF7B8FADF
:104DF000A860608DFBF7A6FC3146FBF7B1FA294DA0
:104E00002860A08DFBF79EFC3146FBF7A9FA68608D
:104E1000E08DFBF797FC3146FBF7A2FAA860208EE5
:104E2000FBF790FC3146FBF79BFA1F4D2860608E24
:104E3000FBF788FC3146FBF793FA6860A08EFBF71E
:104E400081FC3146FBF78CFAA860E08EFBF77AFC18
:104E50003146FBF785FA154D2860208FFBF772FC71
:104E60003146FBF77DFA6860608FFBF76BFC3146DB
:104E7000FBF776FA0E49A86094F83C00087070BD04
:104E8000982C0020A6020020A002002000007A44F6
:104E9000D82C0020142D0020502D00208C2D002017
:104EA000C82D0020042E0020402E00207C2E002043
:104EB0008002002010B5406A0021C185C184FDF741
:104EC0004EFB10BD01680C3151E8002F22F49072A6
:104ED00041E80023002BF5D10168143151E8002F7F
:104EE00022F0010241E80023002BF5D1016B0129DA
:104EF00009D101680C3151E8002F22F0100241E87D
:104F00000023002BF5D1202180F8421000210163FD
:104F1000704708B590F84210222901D0022008BD40
:104F200082684FF480539A4201D1016921B1816AAC
:104F30009A421BD04AB10AE00268816A5268C2F301
:104F400008020A80816A891C08E0026972B102685D
:104F5000526802F07F020A70816A491C8162C18D29
:104F6000491E0904090CC18503D01BE00268526880
:104F7000F1E70168CA6822F02002CA600168CA68C5
:104F800022F48072CA6001684A6922F001024A6113
:104F9000202180F8421000214163026B012A03D0D6
:104FA000FDF794FC002008BD016301680C3151E855
:104FB000002F22F0100241E80023002BF5D10168F8
:104FC0000A68D20602D50A6849680091818DFDF70A
:104FD000C5FAE7E770B5044600680169E26821F4A4
:104FE0004051114301612169A06808436169084388
:104FF0002168CA6841F20C639A430243CA60206880
:105000004169A26921F44071114341611E49206840
:10501000884202D1FCF732FD01E0FCF71FFD00EBF6
:10502000C00101EB0012606864218000B2FBF0F364
:10503000B3FBF1F36FF018067343B2FBF0F5B2FB6C
:10504000F0F605EB8305322303EB0515B5FBF1F50F
:10505000B6FBF1F605F0F00505EB0615B2FBF0F630
:10506000B2FBF0F0B0FBF1F06FF01802504306EB2A
:10507000800003EB0010B0FBF1F0216800F00F009E
:105080002844886070BD000000380140816282853C
:10509000C28500214164222180F84210016921B1BA
:1050A0000168CA6842F48072CA6001684A6942F0C5
:1050B00001024A610068C16841F02001C16000201E
:1050C00070472DE9F843984617460D460446089E5A
:1050D00024E0701C22D0FCF711FBA0EB0800B042CA
:1050E0001AD8CEB12068C168490717D5802D15D0D0
:1050F000402D13D00168C94309070FD4016800256A
:10510000406800902046FFF7DDFE0820606484F8C8
:1051100040500120BDE8F8830320FBE720680068C9
:1051200035EA000004D00020B842D2D00020F1E7D8
:105130000120F9E70148FDF713BA000090060020AE
:1051400004488188891F09B28180962901DC962153
:105150008180704708030020FEE7000070B501223F
:10516000184D540221462846FCF7C3FA00BF00BF81
:1051700000BF00BF00BF00BF002221462846FCF749
:10518000B8FA00BF00BF00BF00BF00BF00BF00BF34
:1051900000BF00BF00BF00BF00BF00BF00BF00BF17
:1051A00000BF00BF00BF00BF00BF00BF00BF00BF07
:1051B00000BF00BF00BF00BF00BF00BF00BF00BFF7
:1051C00000BF70BD000C014070B501221A4D5402A1
:1051D00021462846FCF78DFA00BF00BF00BF00BF84
:1051E00000BF00BF00BF00BF00BF00BF00BF00BFC7
:1051F00000BF00BF00BF00BF00BF00BF00BF00BFB7
:1052000000BF00BF00BF00BF00BF00BF00BF00BFA6
:1052100000BF00BF00BF00BF002221462846FCF7A8
:1052200068FA00BF00BF00BF00BF00BF00BF00BFE3
:1052300000BF00BF00BF70BD000C014070B5144638
:105240000D46FEF725FF2846FEF722FF2046BDE863
:105250007040FEF71DBF00002DE9F0470446886846
:10526000154920F00040FBF749F8054600F0D6FC50
:105270008146284601F022F9D4E9007680460146AD
:105280003046FBF73BF8054649463846FBF736F80B
:105290002946FAF7DBFF206041463846FBF72EF837
:1052A000054649463046FBF729F82946FBF720F822
:1052B0006060BDE8F087000039FA8E3C014A02497F
:1052C00000F07AB9FD5D000844030020490050EA6F
:1052D000C12018BF04204A0D18BF40F0010040F261
:1052E000FF72B2EB515F08BF40F00200012808BF17
:1052F000052070474100080218BF04200A0E18BF9D
:1053000040F001004FF07F4232EA010108BF40F057
:105310000200012808BF052070470907090E002870
:1053200004DB00F1E02080F80014704700F00F006B
:1053300000F1E02080F8141D70472DE9F0414F1E68
:1053400000EBC7010446D1E9000115461E4637F0BF
:1053500006020DD02A463346FBF7F3F87F1E04EB16
:10536000C703D3E90023FBF745F837F00602F1D174
:10537000022F25D0042F13D0062F18BFBDE8F081CF
:105380002A463346FBF7DDF8D4E90A23FBF732F867
:105390002A463346FBF7D5F8D4E90823FBF72AF869
:1053A0002A463346FBF7CDF8D4E90623FBF722F86B
:1053B0002A463346FBF7C5F8D4E90423FBF71AF86D
:1053C0002A463346FBF7BDF8D4E90223FBF712F86F
:1053D0002A463346FBF7B5F8D4E90023BDE8F0418F
:1053E000FBF708B80122FBF78DB9FBF703B80022E1
:1053F000134610461146FBF716B90000024A00207A
:105400001107FBF77FB9000001FDFFFF0121FAF74B
:10541000E5BF00210846FAF7A3BF6FF05E01080759
:10542000FAF7DCBF2DE9F04D0D4614464FF07F41F1
:10543000B1EB440F9EBF4FF0FF312960BDE8F08D06
:105440004FF0004040EA0421C4F3C750783810F010
:105450001F024A4B4FEA601CC2F120067B44C4F392
:10546000C750A0F178004FEA601003EB800053F8BA
:105470002C3008BFD0E901C612D0D0F804C0934048
:105480002CFA06F73B4387680CFA02FC27FA06F869
:10549000C06807FA02F2F0404CEA080C42EA000643
:1054A000A3FB0132ACFB01C0A6FB016101EB0C06C2
:1054B0008E4234BF4FF0010C4FF0000CC118614414
:1054C000BCF1000F02D0814202D903E0814201D237
:1054D000012000E00020104400F120024FEA921861
:1054E0008006CA0C40EA42304F03C5F80080FBF743
:1054F00020F982463846FBF725F96FF01201FAF7DA
:105500006DFF07463046FBF71DF96FF02501FAF7EE
:1055100065FF834639465046FAF798FE5946FAF732
:1055200095FE00F500666FF30B0651463046FAF71C
:10553000DFFE3946FAF7DCFE5946FAF7DCFE104981
:10554000FAF7DCFE07460F493046FAF7D7FE394630
:10555000FAF77CFE07460C493046FAF7CFFE39468B
:10556000FAF774FE14F0004F08BFBDE8F08DC8F1E3
:10557000805180F000402960BDE8F08DB81A00002D
:10558000DB0FC92F22AAFD290000C92F02E008C89D
:10559000121F08C1002AFAD170477047002001E0AD
:1055A00001C1121F002AFBD17047000001490860A9
:1055B00070470000480300202DE9F04116460F46D1
:1055C0000446002503E03946B047641C6D1C207872
:1055D0000028F8D12846BDE8F08100002DE9F04D03
:1055E0008D4F21F0004A86B005460C46BA452ADBAD
:1055F000AAEB070028430AD08848824501DC1AD16B
:10560000CDB106B02846BDE8F04DFFF7EBBE844AA9
:10561000844B2846FAF795FF07460E46824A834B8D
:1056200028462146FAF78DFF06B03A463346BDE8D4
:10563000F04DFAF7DFBE0120FFF7B8FF06B0BDE876
:10564000F04DFFF7D4BE7A48824542DABAF1795F6D
:105650000BDA2846FFF73AFE042808BFFFF7CEFE14
:10566000284606B02146BDE8F08D2A460B46104676
:10567000FAF767FF834602466E480E460B46062140
:105680007844FFF75AFE5A463346FAF75AFF8046E7
:1056900069488A465A46334604217844FFF74DFE4E
:1056A0005A463346FAF74DFF00223B46FAF7A2FE70
:1056B00002460B4640465146FAF7B5FF2A462346B6
:1056C000FAF73FFF06B02A462346BDE8F04DFAF749
:1056D00091BE284624F0004100223D463B46FAF7A1
:1056E0002DFF4FF0FF32FBF70DF8064602465348F8
:1056F0000F460B4606217844FFF71FFE32463B4615
:10570000FAF71FFFCDE900014D4832463B46042120
:105710007844FFF712FE32463B46FAF712FF0022AA
:105720002B46FAF767FE834602913046394600F071
:1057300099FF804643480D46504517DCDDE90001DE
:105740005A46029BFAF76FFF42462B46FAF7F9FEDC
:1057500042462B46FAF74EFE0122FAF7D3FF304AB3
:10576000304BFAF7E8FE304A304B4CE04FF0000A7D
:1057700052460B464046FAF73DFECDE9031052462D
:105780002B4610461946FAF7DCFE32463B46FAF73E
:10579000D5FEDDE90332FAF746FF06460F46DDE99E
:1057A00000015A46029BFAF73EFF83460091012210
:1057B00030463946FAF7A6FF194A1A4BFAF7BEFEE9
:1057C00006460F46012240462946FAF79BFF5A46F5
:1057D000009BFAF7B6FE32463B46FAF7ACFE0646A9
:1057E0000F46012250462946FAF78CFF0E4DDFF88E
:1057F00058802A464346FAF7A1FE32463B46FAF75E
:105800009DFE2A464346FAF799FE002CD8BF81F048
:10581000004106B0BDE8F08D0000F03F0000F07FD1
:10582000075C143326A6913C182D4454FB21F93F04
:105830000000E03FA4170000BA1700002E17000078
:10584000441700003333EF3FFB21E93F2DE9F84FC8
:1058500004460D4621F0004000917349814211DC5D
:105860007249884201DC06D12CB120462946BDE8A8
:10587000F84FFFF7B7BD6E48002DCCBF6D496E499C
:10588000BDE8F88F6D49814211DD6D498142D8BF75
:105890004FF0FF366DDD20462946FFF717FD04283F
:1058A00008BFFFF7ABFD20462946BDE8F88F6549E4
:1058B000654F25F00045814233DD6449814219DDA1
:1058C000002632464FF0804320462946FAF792FDE3
:1058D00080468A46012220462946FAF713FF002215
:1058E0003B46FAF728FE42465346FAF79CFE04462A
:1058F0000D463EE001260022BA463B462046294698
:10590000FAF778FD80460F46002253462046294686
:10591000FAF711FE42463B46FAF785FE04460D466D
:1059200027E04B4981421BDDDFF828A10226002237
:10593000534620462946FAF704FE00223B46FAF772
:1059400059FD80460F460022534620462946FAF765
:10595000F2FD42463B46FAF766FE04460D4608E075
:10596000032622462B4600203B49FAF75CFE0446FC
:105970000D4622462B4610461946FAF7E2FD8B46A5
:10598000824602460B46FAF7DCFD074602463348DC
:1059900088460B4606217844FFF7CFFC52465B460B
:1059A000FAF7CFFD82462E488B463A4643460521FC
:1059B0007844FFF7C2FC3A464346FAF7C2FD024676
:1059C0000B46002E504659460CDAFAF713FD2246D4
:1059D0002B46FAF7B6FD01B022462B46BDE8F04F44
:1059E000FAF7ACBDFAF706FD22462B46FAF7A9FDF9
:1059F0001C4A7A4402EBC603D3E90023FAF79BFD65
:105A000022462B46FAF797FD174A7A4402EBC60363
:105A1000D3E90023FAF792FD009A002AB8BF81F07B
:105A20000041BDE8F88F0000000010440000F07F46
:105A3000182D4454FB21F93FFB21F9BF0000DC3F46
:105A40000000203E0000F33F0000F03F0000E63F72
:105A5000008003400000F83F0000F0BF4615000042
:105A600004150000A21400006A1400002DE9F04D96
:105A70009446CCF1000423F000464CEA0404594F4C
:105A800046EAD4749A46884621F00042BC4206D8C1
:105A9000454240EA050442EAD474BC4204D9BDE858
:105AA000F04D6246FFF7A1BCAAF14055A5F17F6514
:105AB00055EA0C040BD0022404EAAA744A4DDFF81C
:105AC0002CE144EAD87452EA000B04D00CE0BDE8A3
:105AD000F04DFFF7BBBE002C14BF012CBDE8F08DCC
