:020000040800F2
:10000000901B002021020008071D00087D19000830
:10001000051D0008E30300081D2300080000000080
:10002000000000000000000000000000890100083E
:10003000F103000800000000CD0100080D200008B9
:100040003B0200083B0200083B0200083B0200089C
:100050003B0200083B0200083B020008F3030008D3
:100060003B0200083B0200083B020008E5030008D1
:100070003B0200083B0200083B0200083B0200086C
:100080003B0200083B0200083B0200083B0200085C
:100090003B0200083B0200083B0200083B0200084C
:1000A0003B0200083B0200083B0200083B0200083C
:1000B0003B0200083B020008B52000083B02000894
:1000C0003B0200083B0200083B0200083B0200081C
:1000D0003B020008112300083B0200083B02000815
:1000E0003B0200083B0200083B02000800F002F857
:1000F00000F03AF80AA090E8000C82448344AAF188
:100100000107DA4501D100F02FF8AFF2090EBAE885
:100110000F0013F0010F18BFFB1A43F0010318473B
:100120007035000090350000103A24BF78C878C1BF
:10013000FAD8520724BF30C830C144BF04680C60ED
:10014000704700000023002400250026103A28BF35
:1001500078C1FBD8520728BF30C148BF0B60704739
:100160001FB51FBD10B510BD00F0D6F81146FFF742
:10017000F7FF02F0E4F800F0F4F803B4FFF7F2FF41
:1001800003BC00F0FBF80000224B19680868B0E8D7
:10019000F00F80F30988BFF36F8F4FF0000080F3FA
:1001A00011884EF00D0E70470000000006480068F0
:1001B000006880F3088862B661B6BFF34F8FBFF363
:1001C0006F8F00DF00BF00BF08ED00E0EFF3098094
:1001D000BFF36F8F0F4B1A6820E9F00F106008B55E
:1001E0004FF0500080F31188BFF34F8FBFF36F8F34
:1001F00002F04AFC4FF0000080F31188BDE808408F
:1002000019680868B0E8F00F80F30988BFF36F8FB2
:10021000704700BF1C000020EFF30580704700000E
:100220000948804709480047FEE7FEE7FEE7FEE78A
:10023000FEE7FEE7FEE7FEE7FEE7FEE704480549C6
:10024000054A064B70470000B1200008ED00000889
:1002500090150020901B0020901700209017002080
:1002600010B5203AC0F00B80B1E81850203AA0E851
:100270001850B1E81850A0E81850BFF4F5AF5FEA85
:10028000027C24BFB1E81850A0E8185044BF18C938
:1002900018C0BDE810405FEA827C24BF51F8043BDF
:1002A00040F8043B08BF7047D20728BF31F8023B33
:1002B00048BF11F8012B28BF20F8023B48BF00F8C7
:1002C000012B70474FF0000200B513469446964646
:1002D000203922BFA0E80C50A0E80C50B1F1200159
:1002E000BFF4F7AF090728BFA0E80C5048BF0CC007
:1002F0005DF804EB890028BF40F8042B08BF704765
:1003000048BF20F8022B11F0804F18BF00F8012BD6
:100310007047704770477047754600F02BF8AE463F
:1003200005006946534620F00700854618B020B501
:10033000FFF784FFBDE820404FF000064FF00007B4
:100340004FF000084FF0000B21F00701AC46ACE87D
:10035000C009ACE8C009ACE8C009ACE8C0098D46EA
:10036000704710B50446AFF300802046BDE810404A
:10037000FFF703BF004870473015002001491820DF
:10038000ABBEFEE7260002007047000070B50446D1
:1003900000688168C943C90717D1816821F001014C
:1003A000816000F0D7FB05460AE000BF00F0D2FBF9
:1003B000401B022804D920688068C043C00706D0CB
:1003C00020688068C043C007F0D0002070BDA06ADC
:1003D00040F01000A062E06A40F00100E0620120FD
:1003E00070BDFEE7014800F0C9B900001403002009
:1003F0007047704772B6FEE7F8B50024009490F895
:1004000024202546012A12D0012280F824204A689F
:100410001F23072A0DD20668776B521E02EB820259
:1004200093409F430B6893401F43776319E002207A
:10043000F8BD06680D2A0AD2376BD21F02EB820282
:1004400093409F430B6893401F43376309E0F76A6B
:100450000D3A02EB820293409F430B6893401F4387
:10046000F7620A68072306680A2A0AD3F7680A3A75
:1004700002EB420293409F438B6893401F43F76017
:1004800008E0376902EB420293409F438B68934038
:100490001F4337610A68102A01D0112A20D1124B5C
:1004A00002689A4217D193681B0219D4936843F4E7
:1004B000000393600968102912D10C490C4A09689D
:1004C000B1FBF2F101EB8101490000E0491E00910E
:1004D0000029FBD104E0816A41F0200181620124FE
:1004E00080F824502046F8BD002401401800002068
:1004F00040420F002DE9F0414FF0000704003D4657
:100500007ED0A06A002628B9E66284F824602046DE
:1005100000F07EF82046FFF739FFA16AC90600D433
:1005200020B1A06A40F01000A06269E0A16A21F445
:10053000885141F00201A1626268E169237B0A43AC
:1005400047EA43010A43A1684FF48077B94209D0D2
:10055000012907D05FF0000194F814C0BCF1010F2D
:1005600002D00AE03946F7E7F3B1A36A43F020036B
:10057000A362E36A43F00103E3622368D3F804C093
:100580002CF4694C4CEA010CC3F804C021688B6858
:10059000DFF870C003EA0C0313438B60A168B94213
:1005A0000BD0012909D00CE0DFF85CC0A3690CEB8B
:1005B00043330B4343F40061DFE7218A0D05A5F5C2
:1005C00080152168CB6A23F470032B43CB6221682A
:1005D00089680E4B1940914208D1E662A16A21F068
:1005E000020141F00101A162BDE8F081A06A20F0A2
:1005F000020040F01000A062E06A40F00100E062FA
:100600000120F1E7FDF7E1FF00E0FFFFFE0E1FFF15
:1006100070B586B0002506460095019502950395B4
:100620000068194988422DD11849886940F4007042
:100630008861886900F400700490886940F00400C3
:1006400088618869694600F0040004900F200090DA
:10065000032001900E4800F07BF90F4C0D48C4E9CF
:1006600000058020C4E90250400020618000C4E9F8
:1006700005052046E56100F02BF908B1FFF7BAFE49
:100680003462666206B070BD002401400010024072
:1006900000080140080002401403002010B590F843
:1006A00021100022022905D00421816380F8202036
:1006B000012010BD01680B6823F00E030B60016878
:1006C0000B6823F001030B6090F84030C46B0121EC
:1006D00001FA03F3636080F8211080F820201046AF
:1006E00010BD000010B590F821100024022903D09D
:1006F0000421816301243DE001680A6822F00E02B2
:100700000A6001680A6822F001020A601A4A016858
:10071000914201D1012121E0174A1432914201D1C5
:1007200010211BE0144A2832914201D1891515E0AD
:10073000114A3C32914201D189140FE00E4A5032E5
:10074000914202D14FF4803108E00B4A6432914269
:1007500002D14FF4801101E04FF08071064A083A4F
:100760005160012180F82110002180F82010416B98
:1007700001B18847204610BD080002402DE9F05F16
:10078000C16B0C6801680B68D0F840C0042202FA03
:100790000CF2494DDFF824A1494E4A4FDFF828B149
:1007A000DFF828E122422CD05A072AD50A6892069F
:1007B00003D40A6822F004020A600168A94201D148
:1007C000042219E0514501D1402215E0B14202D185
:1007D0004FF4806210E0B94202D14FF480420BE046
:1007E000594502D14FF4802206E0714502D14FF401
:1007F000800201E04FF080622F4908394A60C16AE7
:100800003BE04FF0020808FA0CF818EA040F4FF02A
:1008100000094FF0010235D05FEA837832D50B68CA
:100820009B0605D40B6823F00A030B6080F8212097
:100830000168A94201D1022219E0514501D12022CB
:1008400015E0B14202D14FF4007210E0B94202D17A
:100850004FF400520BE0594502D14FF4003206E04C
:10086000714502D14FF4001201E04FF000721249BD
:1008700008394A6080F82090816A00291AD0BDE8C2
:10088000F05F0847082505FA0CF5254212D01B0732
:1008900010D50B6823F00E030B6090F84010C36B6B
:1008A00002FA01F15960826380F8212080F82090DB
:1008B000016BE2E7BDE8F09F080002401C00024027
:1008C0003000024044000240580002406C000240E8
:1008D00030B528B308C8134914221944B1FBF2F10A
:1008E0008900C16310498163022141771A6843F688
:1008F000F0718A43D0E900142143D0E902452C432A
:1009000021430469214344692143846921431143FC
:10091000196000214163012242770177084630BD0A
:10092000012030BDF8FFFDBF0000024070B5044655
:1009300000F010F90546601C02D004480078044419
:1009400000F008F9401BA042FAD370BD0C00002053
:100950002DE9F84FDFF8B8910024A9F1040B2346E4
:100960000F2709F1040AABF1040EC9E00125A540E7
:100970002A40AA427DD1674ED1F804C0ACEB0608EC
:10098000B44532D014DCBCF1030F3AD009DCBCF121
:10099000000F2AD0BCF1010F1CD0BCF1020F31D1E5
:1009A0001DE0BCF1110F17D0BCF1120F2AD119E0D4
:1009B000B8F5881F19D006DCB8F5803F15D0B8F51A
:1009C000801F1FD111E0B8F5001F0ED0B8F5041F2D
:1009D00018D10AE0CB6815E0CB681B1D12E0CB688C
:1009E00008330FE0CB680C330CE08B682BB1012B84
:1009F0004FF0080303D0456104E0042302E00561E1
:100A000000E00023FF2A01D8064601E000F10406B9
:100A10004FEA840501D9A5F12005D6F8008007FA30
:100A200005FC28EA0C0803FA05F548EA0508C6F8AB
:100A300000804D68ED0062D5374DAE6946F0010685
:100A4000AE61AD6924F0030605F001050095334D54
:100A500006EB050CDCF80850A607360F07FA06F877
:100A600025EA0805DFF8B880404503D14FF00008BB
:100A700017E044E0DFF8AC80404502D14FF00108B8
:100A80000FE0DFF8A480404502D14FF0020808E0F3
:100A9000DFF89880404502D14FF0030801E04FF0A5
:100AA000040808FA06F848EA0508CCF808804D68FA
:100AB000D9F80060ED024D4601D5164300E096439B
:100AC0002E604D68DAF80060AD02554601D5164338
:100AD00000E096432E604D68DBF80060AD035D4694
:100AE00001D5164300E096432E604D68DEF80060A5
:100AF000ED03754601D5164300E096432E60641C55
:100B00000D682A46E5407FF431AFBDE8F88F00005C
:100B100008040140000011100010024000000140D4
:100B200000080140000C0140001001400014014089
:100B30008068084000D001207047C26821EA0203A3
:100B40000A4043EA0241016170470AB101617047FE
:100B50000904FBE701488068704700000C00002092
:100B60000248816802781144816070470C000020BF
:100B7000074810B5016841F010010160032000F042
:100B8000A7F80F2000F006F800F050F8002010BD84
:100B90000020024030B505461F4887B0C16941F0CA
:100BA0000401C161C06906A900F00400009001A819
:100BB00000F0ACF90498B0B100F0C8F94000174952
:100BC000174AB0FBF1F11748491E0260416040F23C
:100BD000E7320021C0E903218160816100F020FC3F
:100BE000040003D015E000F0B1F9E8E70D4800F08B
:100BF00045FC04000DD11E2000F03CF8102D07D25A
:100C0000002229461E2000F043F80748056000E056
:100C1000012407B0204630BD0010024040420F00C2
:100C200000080040F8030020100000200F4808B51D
:100C3000816941F001018161816901F00101009147
:100C4000C16941F08051C161C069002200F080504B
:100C500000900F21901E00F01BF80548416821F01C
:100C6000E06141F00071416008BD000000100240E9
:100C700000000140002809DB00F01F020121914023
:100C80004009800000F1E020C0F80011704700002A
:100C9000F0B40E4B1B680C46C3F30223C3F10705E7
:100CA000042D00D90425191D072901D2002300E0D5
:100CB000DB1E012606FA05F1491E214099409E409F
:100CC000761E16403143F0BC01F029BB0CED00E06C
:100CD000064900F0070208684FF6FF03184040EA93
:100CE0000220034A10430860704700000CED00E04A
:100CF0000000FA052DE9F84305460078354CC00799
:100D000054D0E0690026C00008D4E06940F080506B
:100D1000E061E069012600F0805000902E480168F3
:100D2000C90512D40168804641F480710160FFF763
:100D300011FF074605E000BFFFF70CFFC01B64284A
:100D400023D8D8F80000C005F6D5206A10F440700A
:100D500021D0A98801F4407181421CD0206A1F492A
:100D6000012220F440700A6000220A602062C0075D
:100D700011D0FFF7EFFE074641F2883808E000BFC8
:100D8000FFF7E8FEC11B414502D90320BDE8F88307
:100D9000206A8007F4D5206A696820F4407008430F
:100DA00020621EB1E06920F08050E0612878800761
:100DB00005D56068A96820F4404008436060287841
:100DC000C00605D56068E96820F4800008436060CB
:100DD0000020DBE700100240007000404004424267
:100DE0002DE9F0470F46050061D0434E306800F012
:100DF0000700B84209D2306820F00700384330605D
:100E0000306800F00700B84251D128683B4C810798
:100E100012D5400703D5606840F4E0606060287830
:100E2000000703D5606840F4605060606068A9689E
:100E300020F0F000084360602878C00728D0686878
:100E4000012810D02168022810D0890700292EDA45
:100E5000616821F0030101436160FFF77BFE80467A
:100E600041F288390DE021688903EFE78901EDE758
:100E7000FFF770FEA0EB0801494502D90320BDE849
:100E8000F0876068696800F00C00B0EB810FEFD16B
:100E9000306800F00700B8420BD9306820F0070036
:100EA00038433060306800F00700B84201D00120BC
:100EB000E5E72878400705D56068E96820F4E06038
:100EC000084360602878000706D56068296920F427
:100ED000605040EAC100606000F058F86168084A5C
:100EE000C1F30311515CC840064908600648006818
:100EF000FFF750FE0020C2E7002002400010024031
:100F0000322E000818000020100000200F2202607E
:100F10000C4A536803F003034360536803F0F00383
:100F20008360536803F4E063C36052684FF4E06386
:100F300003EAD20202610448006800F0070008607A
:100F4000704700000010024000200240044805499C
:100F500000684968044AC1F30221515CC8407047E7
:100F60001800002000100240422E000804480549E5
:100F700000684968044AC1F3C221515CC840704707
:100F80001800002000100240422E00080E4A51684E
:100F90000E4801F00C03042B11D0082B0FD10C4884
:100FA000C1F38343C903C05C0AD55168084AC1F341
:100FB0004041921E515C054A5043B0FBF1F070472E
:100FC00004494843704700000010024000127A00B4
:100FD000222E000800093D002DE9F84F040070D0D2
:100FE0002078C04DC00749D06868C0F3810001284F
:100FF00007D06868C0F38100022809D16868C0037F
:1010000006D52868800339D560680028E7D035E028
:101010006068B0F5803F0BD010B1B0F5A02F11D0B3
:10102000286820F480302860286820F4802002E0BE
:10103000286840F480302860606890B1FFF78AFD2E
:1010400006460AE0286840F480202860F0E700BFE8
:10105000FFF780FD801B642873D828688003F7D5CC
:101060000CE0FFF777FD064605E000BFFFF772FDD5
:10107000801B6428F0D828688003F7D420789A4E23
:1010800080074FF001094FF0000839D5686810F06B
:101090000C0F07D06868C0F38100022809D1686886
:1010A000C00306D42868800714D52069012808D118
:1010B00010E02069B0B1C6F80090FFF74BFD07467D
:1010C00005E00AE1FFF746FDC01B0228C4D82868E6
:1010D0008007F7D52868616920F0F80040EAC10070
:1010E00028600DE0C6F80080FFF734FD074604E0F5
:1010F000FFF730FDC01B022823D828688007F7D4EB
:10110000207800072CD57948A169D9B1C0F80090A2
:10111000FFF720FD074604E0FFF71CFDC01B022877
:101120000FD8686A8007F7D571484FF4FA51006804
:10113000B0FBF1F0009000BF0098411E0091FAD280
:101140000EE080E0C0F80080FFF704FD074604E0F1
:10115000FFF700FDC01B022875D8686A8007F7D426
:101160002078400760D5E8690027C00008D4E86906
:1011700040F08050E861E869012700F0805000905D
:101180005C480168C90513D40168834641F4807145
:101190000160FFF7DFFC824606E000BFFFF7DAFCE4
:1011A000A0EB0A0064284ED8DBF80000C005F5D596
:1011B000E06801280AD008B1052813D0286A20F079
:1011C00001002862286A20F0040002E0286A40F04A
:1011D00001002862E06841F2883B98B1FFF7BAFC51
:1011E00082460BE0286A40F004002862EEE700BF68
:1011F000FFF7B0FCA0EB0A0159455AD8286A8007CE
:10120000F6D50CE0FFF7A6FC824605E0FFF7A2FC4E
:10121000A0EB0A0159454CD8286A8007F6D41FB1C3
:10122000E86920F08050E861E06988B36968C1F33B
:101230008101022944D00228C6F8608004D0FFF75B
:1012400089FC044638E034E0FFF784FC074604E0FC
:10125000FFF780FCC01B02282BD828688001F7D438
:10126000206AB0F5803F05D16868A16820F400309D
:1012700008436860D4E908010843696821F47411DF
:1012800008436860C6F86090FFF764FC044606E017
:1012900025E000BFFFF75EFC001B022809D8286884
:1012A0008001F7D51BE000BFFFF754FC001B0228AC
:1012B00002D90320BDE8F88F28688001F4D40EE03D
:1012C0000128F7D06868226A00F48031914204D185
:1012D000616A00F47010884201D00120EAE7002022
:1012E000E8E7000000100240000042428004424251
:1012F000180000200070004070B5040009D0606A3A
:10130000002540B125616561A56294F8510040B1A6
:101310000CE0012070BD6068B0F5827FF4D0E5611B
:10132000F2E784F85050204600F040F8022084F89C
:1013300051002068016821F040010160A0882189E6
:1013400000F4827001F404410843A18901F40061B2
:101350000843217C01F002010843217D01F00101D5
:101360000843218B01F400710843217F01F038010B
:10137000084394F8201001F080010843218D01F406
:101380000051084321680860A069042101EA104067
:10139000216848602068C16921F40061C161656508
:1013A000012084F85100002070BD000030B585B0E8
:1013B0000024009401940294039400681449884224
:1013C00023D11448816941F480518161816901F41C
:1013D00080510491816941F00401816180690E4D61
:1013E00000F004000490A02000900220019003204F
:1013F000039069462846FFF7ABFA4020CDE9000488
:10140000694628460294FFF7A3FA05B030BD0000F4
:101410000030014000100240000801407047704752
:1014200010B5040003D094F83D0010B107E001208E
:1014300010BD002084F83C00204600F01EF8022079
:1014400084F83D00211D206800F03AFE012084F858
:10145000460084F83E0084F83F0084F8400084F899
:10146000410084F8420084F8430084F8440084F882
:10147000450084F83D00002010BD704790F83D10F5
:10148000012901D001207047022180F83D10016838
:10149000CA6842F00102CA6000680B49884208D05D
:1014A000B0F1804F05D00949884202D008498842EE
:1014B00004D1816801F00701062903D0016841F0D9
:1014C0000101016000207047002C01400004004031
:1014D0000008004070472DE9F04104460068C668E6
:1014E00005694FF00007A90713D5B10711D5F91EFB
:1014F000016101202077206880698007204602D0A2
:10150000FFF7E8FF04E000F07EF8204600F07CF8EA
:101510002777680716D5700714D521686FF0040087
:101520000861022020772068806910F4407F2046FF
:1015300002D0FFF7CFFF04E000F065F8204600F08E
:1015400063F82777280715D5300713D521686FF082
:1015500008000861042020772068C06980072046C1
:1015600002D0FFF7B7FF04E000F04DF8204600F08E
:101570004BF82777E80616D5F00614D521686FF0EA
:1015800010000861082020772068C06910F4407FAF
:10159000204602D0FFF79EFF04E000F034F820461A
:1015A00000F032F82777E80708D0F00706D0216866
:1015B0006FF001000861204600F028F8280608D5E1
:1015C000300606D521686FF0800008612046FFF7DD
:1015D00025FF680608D5700606D521686FF0400023
:1015E0000861204600F01CF8A8060AD5B00608D508
:1015F00021686FF0200008612046BDE8F041FFF748
:101600000EBFBDE8F08170477047000000680349D5
:10161000884201D1FFF7A4BA7047000000080040DB
:101620007047704770470000F8B5016804460868C5
:10163000CA684B6910F00F0F4FF0000559D003F046
:10164000010602F49077374365D0C10705D0D10574
:1016500003D5616C41F001016164410705D5D907EB
:1016600003D0616C41F002016164810705D5D9079F
:1016700003D0616C41F004016164010707D502F0F9
:101680002001314303D0616C41F008016164616C59
:1016900000293AD0800604D5900602D5204600F0F5
:1016A0007AFD20684069616CC0F38010090700D49E
:1016B00060B3204600F048FD20684069400621D50F
:1016C0002068143050E8001F21F0400140E800126B
:1016D000002AF5D1E06BA8B16D494163E06BFFF7DB
:1016E00001F8002811D0E06B416B01B0BDE8F0407B
:1016F000084783060FD593060DD52046BDE8F84070
:1017000000F049BD2046FFF78DFFF8BD2046FFF7EA
:1017100089FF6564F8BD266B2023012E7CD1C606A7
:101720007AD5D60678D508684868009048694FF0A1
:101730000206400640D5E16B086840680004000CD2
:10174000E8D0A28D8242E5D9E085886920282DD095
:1017500020680C3050E8001F21F4807140E800122E
:10176000002AF5D12068143050E8001F21F0010153
:1017700040E80012002AF5D12068143050E8001F1C
:1017800021F0400140E80012002AF5D184F84230EF
:10179000256320680C3050E8001F21F0100140E85C
:1017A0000012002AF5D1E06BFEF778FF6663A08D8A
:1017B000E18D401A81B22AE0A08DE18D401A81B2FC
:1017C000E08D0028A6D00029A4D022680C3252E86F
:1017D000000F20F4907042E80007002FF5D1206838
:1017E000143050E8002F22F0010240E80027002FBB
:1017F000F5D184F84230256320680C3050E8002F82
:1018000022F0100240E80023002BF5D16663204649
:10181000FFF707FFF8BDFFE705062BD5150629D50D
:1018200094F841002128F5D1A068B0F5805F01D17E
:101830002069B0B1206A411C2162216800784860AB
:10184000E08C401E0004000CE084E3D12068C168F5
:1018500021F08001C1602068C16841F04001C16091
:10186000D8E7206A0088C0F308004860206A801C1E
:101870002062E5E74006CDD55006CBD5CA682046A4
:1018800022F04002CA6084F8413000F076F8C1E7E7
:101890003921000870B5040004D094F841000025F7
:1018A00010B106E0012070BD84F84050204600F0E1
:1018B00023F8242084F841002068C16821F40051F5
:1018C000C160204600F0C8FC2068016921F4904105
:1018D00001612068416921F02A0141612068C168E5
:1018E00041F40051C1606564202084F8410084F80F
:1018F00042006563002070BD30B585B000240094BF
:101900000194029403940068184988422CD1184825
:10191000816941F480418161816901F480410491D0
:10192000816941F0040181618069124D00F0040079
:1019300004904FF400700090022001900320039067
:1019400069462846FFF704F82815CDE900046946E2
:1019500028460294FEF7FCFF002205212520FFF710
:1019600097F92520FFF786F905B030BD0038014012
:10197000001002400008014070477047FEE7000079
:1019800070B501220B4DD40221462846FFF7DDF841
:101990000122960231462846FFF7D7F80022314649
:1019A0002846FFF7D2F821462846BDE870400022BD
:1019B000FFF7CBB8000C014070B5094C0122D102F1
:1019C0002046FFF7C2F82515002229462046FFF7DA
:1019D000BCF829462046BDE870400122FFF7B5B8A3
:1019E000000C014070B50122064DD4022146284664
:1019F000FFF7ABF821462846BDE870400022FFF70C
:101A0000A4B80000000C01402DE9F041144F044639
:101A10004FF40066002231463846FFF796F800255D
:101A20004FF4806804F08000802816D000224146E0
:101A30003846FFF78AF86006040E01223146384620
:101A4000FFF783F8002231463846FFF77EF86D1C19
:101A5000EDB2082DE6D3BDE8F0810122E7E70000F2
:101A6000000C014010B50446FFF78AFF7820FFF70D
:101A7000CBFFFFF7B7FF0020FFF7C6FFFFF7B2FF6E
:101A80002046FFF7C1FFFFF7ADFFBDE81040FFF7AD
:101A900093BF10B50446FFF773FF7820FFF7B4FF3C
:101AA000FFF7A0FF4020FFF7AFFFFFF79BFF2046A7
:101AB000FFF7AAFFFFF796FFBDE81040FFF77CBFD6
:101AC0003EB5002410480094019402940D498460AE
:101AD000016004730475012505614FF460214460C1
:101AE000C161FEF707FD08B1FEF784FCCDE90045B2
:101AF000694605480294FEF77FFC002801D0FEF7F6
:101B000079FC3EBD00240140E4020020094808B5EC
:101B1000416941F0010141614069002200F001008A
:101B2000009005210B20FFF7B3F8BDE808400B201B
:101B3000FFF7A0B80010024010B596B01C22114962
:101B40006846FEF78DFB0021684600F021FC0E4C34
:101B50000C491C2220601C3107A8FEF781FB0021E4
:101B600007A800F015FC074960601C2238310EA858
:101B7000FEF776FB00210EA800F00AFCA06016B06C
:101B800010BD0000CC2D0008000000202DE9F0431E
:101B900085B0002537480095019502950395816928
:101BA00041F010018161816901F0100104918169A6
:101BB00041F020018161816901F020010491816976
:101BC00041F004018161816901F00401049181699E
:101BD00041F0080181618069274F00F008004FF44F
:101BE000C0440490012221463846FEF7AEFFDFF8DC
:101BF0008C80002210214046FEF7A7FFDFF880907E
:101C0000002244F603414846FEF79FFF009401245A
:101C10000326CDE90246694638460194FEF798FE50
:101C2000102002278DE8B10069464046FEF790FE7D
:101C300001AA009682E8B00069464846FEF788FE91
:101C4000B0028DE8710069464846FEF781FEA003A8
:101C500003968DE8910069464846FEF779FEE00359
:101C6000CDE90005694602944846FEF771FE05B0CD
:101C7000BDE8F08300100240001001400008014060
:101C8000000C0140104810B50E4901604FF48271FC
:101C9000416000218160C1604FF400720161C0E9C0
:101CA00005121822C0E90721416281620A21C1623E
:101CB000FFF722FB002803D0BDE81040FEF79ABBD7
:101CC00010BD000000300140580300200C4810B542
:101CD0000A4901604FF4E1314160002181600C222A
:101CE000C160C0E904128161C161FFF7D3FD002822
:101CF00003D0BDE81040FEF77DBB10BD00380140A9
:101D0000B0030020FEE7FEE770B506460024002180
:101D100004F1B00000F003F90021084600F0FFF8DC
:101D20000021102000F0FBF800250121304600F0D2
:101D3000F6F86D1CEDB2802DF7D3641CE4B2082CCC
:101D4000E5D370BD10B56420FEF7F0FD0021AE2094
:101D500000F0E5F80021084600F0E1F8002110202D
:101D600000F0DDF80021402000F0D9F80021B0207B
:101D700000F0D5F80021812000F0D1F80021FF20EB
:101D800000F0CDF80021A12000F0C9F80021A62024
:101D900000F0C5F80021A82000F0C1F800213F2084
:101DA00000F0BDF80021C82000F0B9F80021D320D0
:101DB00000F0B5F80021084600F0B1F80021D52068
:101DC00000F0ADF80021802000F0A9F80021D82013
:101DD00000F0A5F80021052000F0A1F80021D9208D
:101DE00000F09DF80021F12000F099F80021DA20A0
:101DF00000F095F80021122000F091F80021DB207E
:101E000000F08DF80021302000F089F800218D20AD
:101E100000F085F80021142000F081F80021AF20A7
:101E200000F07DF86420FEF781FDBDE81040002041
:101E3000FFF76ABF10B50A460446002102F1B00060
:101E400000F06DF8102040EA1410002100F067F84F
:101E500004F00F00BDE81040002100F060B8000061
:101E60002DE9F041203A00240D468046D6B27F2865
:101E700003D900208D1C8046EDB2102B294610D0CE
:101E8000FFF7D8FF164906EB460001EB400501219C
:101E9000285D00F044F8641CE4B2062CF7D3BDE8DA
:101EA000F081FFF7C7FF0F4F04EB06100121385CEC
:101EB00000F035F8641CE4B2082CF5D36D1CE9B2CF
:101EC0004046FFF7B7FF002404EB06103844012119
:101ED000007A00F024F8641CE4B2082CF4D3DEE7A6
:101EE0004A2E0008723000082DE9F0419846174646
:101EF0000E46044600250DE0434631462046FFF7D6
:101F0000AFFF0834E4B2782C02D90024B61CF6B234
:101F10006D1CEDB27A5D002AEED1BDE8F081C0B251
:101F200009B1FFF7B6BDFFF79DBD000010B5012256
:101F300091030448FEF709FEBDE81040C820FEF7F3
:101F4000F5BC0000000C014070B50D4D4FF400448D
:101F500021462846FEF7ECFD002810D13220FEF77E
:101F6000E5FC21462846FEF7E3FD0028F9D0284687
:101F7000BDE8704000224FF48041FEF7E6BD70BD21
:101F8000000C01400021102308A20846FFF7ACFF17
:101F900010230AA202210020FFF7A6FF10230BA2A4
:101FA00004210020FFF7A0FFECE7000041757468F2
:101FB0006F723A44595F465245450000446174656A
:101FC0003A323032342F30392F3239004C61623A94
:101FD000204D756C74692D6C6576656C0000000091
:101FE000064D4FF480444FF4FA7621462846FEF71A
:101FF000A4FD304600F0C0F9F7E7000000100140F2
:10200000FFF7A2FF012000F0B7F9F9E710B5502063
:1020100080F31188BFF34F8FBFF36F8F00F00EFE78
:1020200018B104494FF080500860002080F31188F7
:1020300010BD000004ED00E030B593B028216846E3
:10204000FEF740F914210AA8FEF73CF9002501200B
:102050000F9510951195010412958DE823000490B9
:102060004FF4E010CDE90810022407946846FEF70B
:10207000B3FF08B172B6FEE70AA90F2081E831006C
:102080004FF48060CDE90D0502210AA8FEF7A8FEF5
:1020900008B172B6FEE74FF4004011900F940FA8FC
:1020A000FEF728FE002801D072B6FEE713B030BD5F
:1020B000704700000148FFF70EBA0000F803002047
:1020C000F0B50268194B1A4C1A4D4FF080479842F0
:1020D00005D0B84203D0A04201D0A84203D122F0DB
:1020E00070064A683243984205D0B84203D0A042F5
:1020F00001D0A84203D122F44074CA6822434C693B
:1021000022F08002224302608A68C2620A68826208
:10211000984201D109690163012141610169C9073F
:1021200003D0016921F001010161F0BD002C0140E3
:10213000000400400008004010B5406A0021C1853D
:10214000C184FFF76FFA10BD01680C3151E8002F10
:1021500022F4907241E80023002BF5D1016814317C
:1021600051E8002F22F0010241E80023002BF5D1B5
:10217000016B012909D101680C3151E8002F22F0CF
:10218000100241E80023002BF5D1202180F84210F5
:1021900000210163704708B590F84210222901D050
:1021A000022008BD82684FF480539A4201D1016930
:1021B00021B1816A9A421BD04AB10AE00268816A61
:1021C0005268C2F308020A80816A891C08E0026929
:1021D00072B10268526802F07F020A70816A491C7B
:1021E0008162C18D491E0904090CC18503D01BE021
:1021F00002685268F1E70168CA6822F02002CA60EA
:102200000168CA6822F48072CA6001684A6922F0D3
:1022100001024A61202180F8421000214163026BD3
:10222000012A03D0FFF7A8FB002008BD0163016865
:102230000C3151E8002F22F0100241E80023002B5E
:10224000F5D101680A68D20602D50A68496800918A
:10225000818DFFF7E6F9E7E770B50446006801698C
:10226000E26821F44051114301612169A0680843EB
:10227000616908432168CA6841F20C639A430243CA
:10228000CA6020684169A26921F44071114341612B
:102290001E492068884202D1FEF768FE01E0FEF781
:1022A00055FE00EBC00101EB001260686421800064
:1022B000B2FBF0F3B3FBF1F36FF018067343B2FB1C
:1022C000F0F5B2FBF0F605EB8305322303EB0515C1
:1022D000B5FBF1F5B6FBF1F605F0F00505EB0615DB
:1022E000B2FBF0F6B2FBF0F0B0FBF1F06FF01802C9
:1022F000504306EB800003EB0010B0FBF1F02168C7
:1023000000F00F002844886070BD000000380140D4
:102310000148FFF789B90000B0030020FEE7090774
:10232000090E002804DB00F1E02080F8001470475B
:1023300000F00F0000F1E02080F8141D7047FEF758
:1023400017FCFFF779FEFFF721FCFFF7DFFBFFF734
:1023500099FCFFF7BBFCFFF7B3FBFFF7E7FDFFF7C7
:10236000F1FCFFF7E9FB00F00EF8FEE70146002064
:10237000842900D0C81C704710B500B9012000F0B6
:102380001FFB002010BD10B500F040FB002010BD69
:102390007FB50D4604464169B0F9080081B1A169D5
:1023A00071B1FFF7E3FFD4E905128DE80700D4E926
:1023B00000102B46226900F016FC039004B070BD9B
:1023C000FFF7D4FF03A9CDE90001208A2B4682B292
:1023D000D4E9001000F0DAFB012801D00020EDE77D
:1023E0000398EBE72DE9F041184C0F460546E668E7
:1023F0002068001D00F01CFA38B9206890F82C10F5
:1024000001208840216981432161681C07D137B1CF
:102410002168BDE8F0410E48091D00F04DBA206862
:102420003544B5424560216805D2A06BBDE8F04156
:10243000091D00F029BA606B091D00F025FAA06A99
:10244000854200D2A562BDE8F08100001C0000209A
:102450001C0500202DE9F041054600F039FA2E4C0C
:10246000A068401CA06020682C4F10B1606940B388
:102470002DE02560A068012829D1002606EB860002
:1024800007EB800000F0F2F9761C072EF6D3234804
:102490008C3000F0EBF92148A03000F0E7F91F483C
:1024A000B43000F0E3F91D48C83000F0DFF91B48F4
:1024B000DC3000F0DBF919488C3060631430A06325
:1024C00005E02068E96AC06A884200D82560606A31
:1024D000401C6062E96A0120226988401043206143
:1024E00001EB810007EB8000291D00F0E5F900F009
:1024F0000FFA606900280CD02068E96AC06A884237
:1025000007D207494FF080500860BFF34F8FBFF3E9
:102510006F8FBDE8F08100001C0000204004002007
:1025200004ED00E010B5044690F85D0058B10128B4
:102530000CD002280FD0502080F31188BFF34F8FAA
:10254000BFF36F8FFEE7206B00F0F6F92046BDE881
:10255000104000F0F1B910BD10484FF4805142070F
:1025600006D0C01D0D4920F00700411AC1F5805169
:102570000B4A00230144C2E900030839183A21F04C
:10258000070111604B600B600B1AC0E900139360E8
:102590004FF000405360506170470000300500204C
:1025A00070000020144E154CA6F1C8074FF080585B
:1025B000DFF84C9012E000BF00F08AF9F068C568BF
:1025C000281D00F035F9A068401EA0606068401E1C
:1025D000606000F09DF92846FFF7A4FF60680028BE
:1025E000EAD138680128F9D9C9F80080BFF34F8FC4
:1025F000BFF36F8FF2E70000080500201C000020E9
:1026000004ED00E02DE9F0479A46DDE909848146B2
:102610006FF00303206B03EB82021044089E20F04E
:102620000707780707D0502080F31188BFF34F8F3A
:10263000BFF36F8FFEE7002561B1002023180A5C0D
:1026400083F834200A5C12B1401C1928F6D384F8B0
:102650004C5001E084F83450072E00D30626E66281
:10266000C4E91465201D00F00CF904F1180000F015
:1026700008F92461C6F107006462A061A56584F8C9
:102680005C5052464946384600F0C0F82060B8F128
:10269000000F01D0C8F80040BDE8F08730B51149FF
:1026A00000E011460A688242FBD34B685C18844202
:1026B00003D1406818444860084643681C18944297
:1026C00009D1084C183C2468A24209D052681A4427
:1026D00042600A6812680260814200D0086030BD22
:1026E0000460F9E7700000200648416B096829B1D1
:1026F000416BC968C9684968816270474FF0FF3112
:10270000FAE700001C00002008484068401C4FF019
:10271000500080F3118804D0BFF34F8FBFF36F8F49
:10272000FEE7BFF34F8FBFF36F8FFEE77800002007
:102730002DE9F0410546002700F09EF9324E306841
:1027400008B9FFF709FF706905424ED1C5B30835D6
:1027500068070ED005F00700C0F1080005446807BF
:1027600007D0502080F31188BFF34F8FBFF36F8FD6
:10277000FEE72DB37068854237D8234818300146EC
:102780000C6801E020460C466168A94202D221682B
:102790000029F7D131688C4227D007682168016091
:1027A00060680837411B10290FD96019420708D00B
:1027B000502080F31188BFF34F8FBFF36F8FFEE778
:1027C00013E041606560FFF769FF61687068401A57
:1027D0007060B268904200D2B0607069014300201E
:1027E000C4E90001F068401CF06000F08DFA780741
:1027F00007D0502080F31188BFF34F8FBFF36F8F46
:10280000FEE73846BDE8F0815800002010B5031FF0
:102810004FF080741C601B1F21F001011960191F0B
:10282000024B0B60143940380A6010BD09270008BC
:10283000D0E9013201699A60D0E901235A604A68FF
:10284000824201D182684A60002202610868401E0B
:102850000860086870470000034B036003F16000E4
:1028600008608020106070478400002000F108019B
:102870004FF0FF32C0E90112C16001610021016027
:10288000704700210161704730B50B685A1C02D0B7
:1028900000F1080202E0026904E02246546825685B
:1028A0009D42FAD953684B6099608A605160086113
:1028B0000168491C016030BD42684A6093688B60C2
:1028C00093685960916008610168491C0160704714
:1028D000502080F31188BFF34F8FBFF36F8F0A49E9
:1028E0004868401C486001280CD10848006810F076
:1028F000FF0F07D0502080F31188BFF34F8FBFF335
:102900006F8FFEE7704700007800002004ED00E0C4
:102910000849486828B1401E486001D180F31188F9
:102920007047502080F31188BFF34F8FBFF36F8F34
:10293000FEE700007800002070B500282AD0164D70
:10294000A0F1080460686969084207D1502080F34B
:102950001188BFF34F8FBFF36F8FFEE722683AB144
:10296000502080F31188BFF34F8FBFF36F8FFEE7C6
:102970008843606000F080F86068696808446860B7
:102980002046FFF78BFE2869401C2861BDE8704097
:1029900000F0BAB970BD0000580000204FF0E020F0
:1029A00000210161816105494FF47A720968B1FB28
:1029B000F2F1491E416107210161704718000020B2
:1029C00010B5020014D00F48006B38B1502080F3CE
:1029D0001188BFF34F8FBFF36F8FFEE700F04CF805
:1029E00000211046FFF7FEFC00F08EF9002807D109
:1029F00005494FF080500860BFF34F8FBFF36F8FD2
:102A000010BD00001C00002004ED00E010B586B0F1
:102A10000024039405AA04A903A80494FFF71CFF4B
:102A2000DDE903010094CDE9011000230EA1104857
:102A3000059A00F0D8F80F490028C86211D050203C
:102A400080F31188BFF34F8FBFF36F8F4FF0FF30CC
:102A5000886201204861CC6006B0BDE8104000F0FB
:102A600041B806B010BD000049444C4500000000CC
:102A7000A52500081C0000200248016B491C0163C9
:102A8000704700001C0000201448016B11B10121A7
:102A9000C16170470021C1610169B1FA81F1C1F1E1
:102AA0001F0101EB81020E4951F822306BB101EB9D
:102AB000820101F108034A6852684A609A4201D1D2
:102AC00052684A60D16801607047502080F31188D5
:102AD000BFF34F8FBFF36F8FFEE700001C00002095
:102AE000400400201CB5264908780190FF2008709A
:102AF00008788DF800009DF800009DF8002000F097
:102B0000F000904207D0502080F31188BFF34F8F20
:102B1000BFF36F8FFEE79DF800001A4C00F05000E5
:102B200020700720A06005E09DF8002052008DF87D
:102B30000020401E9DF800201206F5D4A060032856
:102B400007D0502080F31188BFF34F8FBFF36F8FF2
:102B5000FEE74FF44070A060019808700A480168D1
:102B600041F470010160016841F070410160FFF7BC
:102B700015FF00206060FDF719FB00201CBD000060
:102B800000E400E07800002020ED00E02DE9FF5F88
:102B90008346DDE90E87994616468A469000FFF780
:102BA000C7FD05001CD06020FFF7C2FD040014D053
:102BB0000020256384F85D00CDE90240CDE900875F
:102BC0004B46324651465846FFF71CFD2046FFF75C
:102BD00041FC012004B0BDE8F09F2846FFF7ACFEA1
:102BE0004FF0FF30F6E7F0B585B0DDE90B640A9DE4
:102BF000A6B1DCB1602700972663022684F85D60E9
:102C0000002604AFCDE90246CDE90057FFF7FAFCF4
:102C10002046FFF71FFC049805B0F0BD502080F35C
:102C20001188BFF34F8FBFF36F8FFEE7502080F303
:102C30001188BFF34F8FBFF36F8FFEE72DE9F0418F
:102C40002F4C0026206B28B1A069401CA0613046A3
:102C5000BDE8F081E5686D1CE56013D1606B00682C
:102C600038B1502080F31188BFF34F8FBFF36F8FBF
:102C7000FEE7606BA16B6163A063206A401C206269
:102C8000FFF732FDA06ADFF87C80854209D3606BD4
:102C90000068A0B1606BC068C7687868854211D2CF
:102CA000A0622068C06A00EB800158F8210001286A
:102CB00000D90126E0690028C9D00126C7E74FF0F6
:102CC000FF30EDE7381DFFF7B3FDB86A18B107F123
:102CD0001800FFF7ADFDF96A012022698840104312
:102CE000206101EB810108EB8100391DFFF7E4FD54
:102CF000F86A2168C96A8842C9D30126C7E700007B
:102D00001C000020400400202DE9F0472C4D002439
:102D10002746286B38B1FFF7DBFD286B401E286380
:102D2000286B40B146E0502080F31188BFF34F8FED
:102D3000BFF36F8FFEE7A968224E0120D1B3A6F141
:102D4000B40980463068E8B1F068C46804F118003E
:102D5000FFF76EFD201DFFF76BFDE06A2A6908FA98
:102D600000F11143296100EB800109EB8100211D75
:102D7000FFF7A2FDE06A2968C96A8842E2D3C5F874
:102D80001C80DFE70CB1FFF7AFFCAC6944B14646ED
:102D9000FFF754FF00B1EE61641EF9D10020A86175
:102DA000E86938B10849012738070860BFF34F8F39
:102DB000BFF36F8FFFF7ACFD3846BDE8F08700002A
:102DC0001C000020F404002004ED00E07036000830
:102DD000012000080000000000000000800000004A
:102DE000000000000000000064360008E11F000839
:102DF000FDFF000000000000800000000000000057
:102E0000000000007C360008851F0008FDFF000060
:102E10000000000080000000000000000000000032
:102E2000010202030405060708090A0B0C0D0E0F28
:102E3000101000000000000000000102030406075B
:102E40000809000000000102030400000000000067
:102E50000000002F000000000700070000147F148E
:102E60007F1400242A7F2A1200626408132300368C
:102E70004955225000000503000000001C224100BB
:102E8000000041221C000014083E08140008083EFF
:102E90000808000000A060000008080808080000FA
:102EA00060600000002010080402003E5149453EC9
:102EB0000000427F400000426151494600214145E7
:102EC0004B31001814127F10002745454539003C4E
:102ED0004A4949300001710905030036494949361C
:102EE00000064949291E000036360000000056360B
:102EF00000000008142241000014141414140000EF
:102F00004122140800020151090600324959513E7C
:102F1000007C1211127C007F49494936003E414134
:102F20004122007F4141221C007F49494941007FE5
:102F300009090901003E4149497A007F0808087FD4
:102F40000000417F4100002040413F01007F081404
:102F50002241007F40404040007F020C027F007F02
:102F60000408107F003E4141413E007F09090906E7
:102F7000003E4151215E007F09192946004649491A
:102F800049310001017F0101003F4040403F001FE7
:102F90002040201F003F4038403F00631408146366
:102FA00000070870080700615149454300007F4150
:102FB000410000552A552A55000041417F00000478
:102FC00002010204004040404040000001020400B1
:102FD000002054545478007F484444380038444416
:102FE000442000384444487F0038545454180008A2
:102FF0007E0901020018A4A4A47C007F08040478C0
:103000000000447D4000004080847D00007F102847
:1030100044000000417F4000007C04180478007CDC
:103020000804047800384444443800FC242424185C
:103030000018242418FC007C080404080048545498
:10304000542000043F444020003C4040207C001CB1
:103050002040201C003C4030403C004428102844C4
:10306000001CA0A0A07C004464544C44141414140C
:103070001414000000000000000000000000000028
:103080000000000000F800000000000000333000E5
:10309000000000100C06100C0600000000000000EC
:1030A000000040C07840C0784000043F04043F0462
:1030B0000400007088FC08300000001820FF211E6A
:1030C0000000F008F000E018000000211C031E21A1
:1030D0001E0000F00888700000001E21232419271C
:1030E000211010160E00000000000000000000007B
:1030F0000000000000E01804020000000007182093
:10310000400000020418E000000000402018070002
:103110000000404080F0804040000202010F0102A8
:103120000200000000F0000000000101011F010189
:103130000100000000000000000080B070000000EE
:10314000000000000000000000000001010101017A
:10315000010100000000000000000030300000000D
:1031600000000000000080601804006018060100E4
:10317000000000E010080810E000000F10202010F0
:103180000F00001010F8000000000020203F202059
:1031900000000070080808887000003028242221F0
:1031A00030000030088888483000001820202011A6
:1031B0000E000000C02010F8000000070424243F87
:1031C000240000F808888808080000192120201130
:1031D0000E0000E0108888180000000F1120201158
:1031E0000E0000380808C83808000000003F000042
:1031F00000000070880808887000001C222121222D
:103200001C0000E010080810E0000000312222112C
:103210000F00000000C0C0000000000000303000BF
:10322000000000000080000000000000806000003E
:103230000000000080402010080000010204081077
:103240002000404040404040400004040404040486
:103250000400000810204080000000201008040234
:103260000100007048080808F00000000030360136
:103270000000C030C828E810E000071827242314F5
:103280000B000000C038E0000000203C23020227B1
:10329000382008F8888888700000203F20202011FE
:1032A0000E00C03008080808380007182020201039
:1032B000080008F808080810E000203F202020102F
:1032C0000F0008F88888E8081000203F20202320FD
:1032D000180008F88888E8081000203F2000030044
:1032E0000000C03008080838000007182020221EFF
:1032F000020008F808000008F808203F2101012119
:103300003F20000808F8080800000020203F202087
:10331000000000000808F8080800C08080807F00D6
:10332000000008F888C028180800203F200126382F
:10333000200008F8080000000000203F2020202086
:10334000300008F8F800F8F80800203F003F003F80
:10335000200008F830C00008F808203F20000718B7
:103360003F00E01008080810E0000F102020201097
:103370000F0008F808080808F000203F21010101AB
:103380000000E01008080810E0000F18242438504E
:103390004F0008F8888888887000203F2000030CC0
:1033A00030200070880808083800003820212122C9
:1033B0001C00180808F8080818000000203F20002A
:1033C000000008F808000008F808001F202020204E
:1033D0001F000878880000C83808000007380E0170
:1033E0000000F80800F80008F800033C0700073C5C
:1033F0000300081868808068180820302C03032C0C
:1034000030200838C800C83808000000203F2000DD
:10341000000010080808C83808002038262120209D
:103420001800000000FE020202000000007F404081
:103430004000000C30C00000000000000001063811
:10344000C00000020202FE000000004040407F0079
:10345000000000000402020204000000000000005E
:10346000000000000000000000008080808080805C
:103470008080000202040000000000000000000044
:103480000000000080808080000000192422222299
:103490003F2008F8008080000000003F112020112C
:1034A0000E000000008080800000000E112020200F
:1034B0001100000000808088F800000E112020100C
:1034C0003F200000808080800000001F22222222F6
:1034D0001300008080F0888888180020203F20207A
:1034E00000000000808080808000006B94949493A2
:1034F000600008F8008080800000203F210000204C
:103500003F2000809898000000000020203F2020ED
:103510000000000000809898000000C08080807F3C
:10352000000008F8000080808000203F24022D3039
:103530002000000808F8000000000020203F2020A4
:1035400000008080808080808000203F20003F201D
:10355000003F8080008080800000203F210000200C
:103560003F200000808080800000001F202020205D
:103570001F00808000808000000080FFA1202011BB
:103580000E000000008080808000000E112020A02E
:10359000FF80808080008080800020203F212000EC
:1035A00001000000808080808000003324242424D7
:1035B0001900008080E0808000000000001F2020B3
:1035C00000008080000000808000001F202020106C
:1035D0003F20808080000080808000010E3008063F
:1035E000010080800080008080800F300C030C3050
:1035F0000F0000808000808080000020312E0E317E
:103600002000808080000080808080818E7018067D
:10361000010000808080808080000021302C2221E9
:10362000300000000000807C020200000000003F2B
:10363000404000000000FF00000000000000FF000C
:1036400000000002027C800000000040403F0000BB
:103650000000000601010202040400000000000056
:10366000000000004C45445F5461736B0000000093
:103670005057525F5461736B000000004F4C45443B
:10368000646973706C61795F5461736B0000000052
:10369000B036000800000020840000002801000867
:1036A00034370008840000200C1B0000440100088F
:1036B0000000000000000000000000000100000009
:1036C000100000000000000000127A00000000005E
:1036D00000000000000000000000000000000000EA
:1036E00000000000000000000000000000000000DA
:1036F00000000000000000000000000000000000CA
:1037000000000000000000000000000000000000B9
:1037100000000000000000000000000000000000A9
:10372000000000000000000000000000AAAAAAAAF1
:043730000000000095
:04000005080000ED02
:00000001FF
