:020000040800F2
:10000000F81D0020990100089D2A000851260008CB
:10001000192A000849060008F1380008000000000D
:1000200000000000000000000000000001010008C6
:1000300047070008000000004501000839350008A6
:10004000B3010008B3010008B3010008B3010008C0
:10005000B3010008B3010008B301000885090008D6
:10006000B3010008B3010008B3010008110700083C
:10007000B3010008B3010008B3010008B301000890
:10008000B3010008B3010008B3010008B301000880
:10009000B3010008B3010008B3010008B301000870
:1000A000B3010008B3010008B3010008B301000860
:1000B000B3010008B3010008E1350008B3010008EE
:1000C000B3010008B3010008B3010008B301000840
:1000D000B3010008E5380008B3010008B3010008C7
:1000E000B3010008B3010008B3010008DFF80CD029
:1000F00000F0E6F900480047D93D0008F81D00204F
:10010000224B19680868B0E8F00F80F30988BFF344
:100110006F8F4FF0000080F311884EF00D0E704786
:100120000000000006480068006880F3088862B696
:1001300061B6BFF34F8FBFF36F8F00DF00BF00BF0B
:1001400008ED00E0EFF30980BFF36F8F0F4B1A68E3
:1001500020E9F00F106008B54FF0500080F31188CF
:10016000BFF34F8FBFF36F8F04F006FA4FF000001C
:1001700080F31188BDE8084019680868B0E8F00FFE
:1001800080F30988BFF36F8F704700BF30000020F5
:10019000EFF3058070470000064880470648004797
:1001A000FEE7FEE7FEE7FEE7FEE7FEE7FEE7FEE727
:1001B000FEE7FEE7DD350008ED000008202A04DB3D
:1001C000203A21FA02F00021704721FA02F3D040D0
:1001D000C2F12002914008431946704740EA0103EA
:1001E0009B0703D009E008C9121F08C0042AFAD2ED
:1001F00003E011F8013B00F8013B521EF9D27047B1
:10020000D2B201E000F8012B491EFBD27047002258
:10021000F6E710B513460A4604461946FFF7F0FF05
:10022000204610BDF0B480EA0102D40F4200B2EBC8
:10023000410F02D20246084611464A0042D0C30D81
:10024000DDB2C1F3C752AD1A202D35DAC1F3160164
:1002500041F4000204B15242C5F1200602FA06F14F
:100260002A411044B3EBD05F23D0C4B1012DA0EBE1
:10027000C35009DCF0BC4FF0004202EAC352DBB2CB
:1002800000F5000000F0EDB8400000F1807000EBD8
:10029000C350A0F1807040EAD170490009E04908DC
:1002A00041EAC071A0EBC35000F50000400800EB2C
:1002B000C350F0BC00F0CCB86142012202EB410116
:1002C000001BF6E7F0BC704781F00041AAE780F020
:1002D0000040A7E780EA010210B502F000434000A9
:1002E00022D04A001FD0010E01EB1261C0F356006C
:1002F000C2F3560240F4000042F40002A0FB0220C8
:1003000000047F39140400D0401C50EA124001D48C
:100310004000491EC2B20C0604EBD010401C40083D
:10032000802A02D003E0002010BD20F00100002947
:1003300000DA0020184310BD30B480EA010202F058
:10034000004530F0004221F0004013D090B1C30DC1
:10035000D40DC2F31601C0F31600E41A41F40001F3
:1003600040F400027D34914201D3641C00E0490056
:10037000002C02DA30BC002070474FF4000000234C
:10038000914201D3891A034340084FEA4101F7D152
:1003900051B1914202D14FF0004105E002D24FF03D
:1003A000010101E06FF0010103EBC450284430BCAF
:1003B00000F04EB8C10F80EAE0700844CA079623E7
:1003C000002100F04EB820F00040C10DC0F316002F
:1003D00040F400007F2901DA00207047962903DCF1
:1003E000C1F19601C84070479639884070472DE9A1
:1003F000F05F0546002092469B46884606468146A9
:1004000040241BE02846414647462246FFF7D6FED9
:1004100053465A46C01A914110D3114618462246F7
:1004200000F060F82D1A67EB01084F4622460120C4
:10043000002100F057F817EB00094E41201EA4F1EF
:100440000104DFDC484631462A464346BDE8F09FBA
:100450000029A8BF7047401C490008BF20F00100D8
:10046000704710B4B0FA80FC00FA0CF050EA0104B6
:1004700004BF10BC704749B1CCF1200421FA04F448
:1004800011FA0CF118BF012121430843A3EB0C0121
:10049000CB1D4FEA00614FEA102042BF002010BC84
:1004A000704700EBC35010440029A4BF10BC704734
:1004B000401C490008BF20F0010010BC704700003C
:1004C000064C074D06E0E06840F0010394E80700A1
:1004D00098471034AC42F6D3FFF70CFED055000815
:1004E000F0550008202A04DB203A00FA02F100202F
:1004F00070479140C2F1200320FA03F31943904062
:100500007047000070B5044600688168C943C90798
:1005100017D1816821F00101816000F0EBFF0546F1
:100520000AE000BF00F0E6FF401B022804D9206863
:100530008068C043C00706D020688068C043C007F9
:10054000F0D0002070BDA06A40F01000A062E06A08
:1005500040F00100E062012070BD10B50146406A24
:10056000826A12F0500F05D0006A026BBDE810409D
:1005700008461047816A41F4007181620168896808
:10058000C1F3424107290CD1017B51B9816A21F4A1
:1005900080718162816AC90403D4816A41F00101DA
:1005A000816200F055FB10BD10B5406A816A41F0D0
:1005B00040018162C16A41F00401C16200F04AFB5E
:1005C00010BD10B5406A00F044FB10BDF8B5002620
:1005D0000446009600688168C943C9072DD0816828
:1005E00041F001018160164816490068B0FBF1F046
:1005F00000E0401E00900028FBD100F07BFF054684
:1006000016E000BF00F076FF401B022810D92068DA
:100610008068C043C0070BD0A06A40F01000A06201
:10062000E06A40F00100E06284F824600120F8BD37
:1006300020688068C043C007E4D10020F8BD0000F6
:100640002C00002040420F00FEE700000B4810B5D0
:1006500000784FF00603C043C00601D408A200E0B2
:1006600009A20321582002F0D6FB02F0B9FE03F0E4
:100670009FF9BDE8104002F0D1B90000B1000020A0
:10068000556E6C6F636B00004C6F636B2020000035
:1006900008B502F004FA0023144A1946012002F0BA
:1006A000E3FA082312A200211C2002F0B4FB0F4A37
:1006B0000023203A1946792002F0FAFA06230FA205
:1006C00000216F2002F0A7FB0620009002230022E9
:1006D00001216C2002F06AFB01B00823032108A26B
:1006E00010205DF804EB02F096BB0000E454000813
:1006F00020526F626F466C790000000025000000F8
:10070000436F6E6E656374696E672E2E2E00000057
:10071000014800F06DBC00005403002030B590F893
:1007200040500124AC40C56B6C6004686360436852
:10073000102B036803D099600068C26030BD9A60D6
:100740000068C16030BD7047F8B5464C207800287D
:100750007ED002F0E3FB00202070434C4FF00603F4
:10076000B4F90200002808DA40A20721402002F074
:1007700052FB60884042608004E03EA20721402096
:1007800002F049FBB4F904004FF00603002808DA30
:100790003AA20521002002F03EFBA0884042A08042
:1007A00004E038A20521002002F035FBB4F9060070
:1007B0004FF00603002808DA34A20521402002F099
:1007C0002AFBE0884042E08004E032A2052140207C
:1007D00002F021FB02F066FEFFF738FFB4F90A00D1
:1007E000FFF7E8FD2D49FFF76FFD2D49FFF7A4FD49
:1007F0002C49FFF76FFD0625064600952288042345
:100800000321182002F0D2FA0095B4F90420022343
:100810000521202002F0CAFA0095B4F9062002232F
:100820000521602002F0C2FA0095B4F902200223EB
:100830000721602002F0BAFA0095B4F908200223DB
:100840000721202002F0B2FA3046FFF7BCFD00E09D
:1008500006E00246022301216C20009502F0A6FA70
:10086000F8BD0000A6000020BC1500205941573AF1
:100870002D0000005941573A20000000524F4C3AD9
:100880002D000000524F4C3A200000005049543ACD
:100890002D0000005049543A20000000000096430B
:1008A0000000F0420000C84208B502F0F8F800234A
:1008B000234A1946012002F0D7F9082321A200217A
:1008C0001C2002F0A8FA1E4A0023203A194679207B
:1008D00002F0EEF906231EA200216F2002F09BFA1F
:1008E000062000900223632201216C2002F05EFAB0
:1008F000062318A20321002002F08DFA062317A276
:100900000321402002F087FA062316A205210020C9
:1009100002F081FA062315A20521402002F07BFA9D
:10092000062314A20721002002F075FA01B0062365
:10093000072112A240205DF804EB02F06CBA00001F
:10094000E454000820526F626F466C79000000008A
:10095000250000005448523A000000004D4F443A30
:1009600000000000524F4C3A000000005049543A39
:1009700000000000414C543A000000005941573A31
:1009800000000000704772B6FEE70000044B002232
:10099000DA61044A136943F001031361018070476F
:1009A000800400200020024014480022C168CB06C9
:1009B000134904D5CA6942F00202CA611022C36811
:1009C0005B0705D5CB6943F00103CB6142F004021C
:1009D000C369DB0707D0CB6943F00403CB61C1696E
:1009E00021F00101C161A2F58071013901D0C2601D
:1009F0007047C16921F00101C161704700200240C8
:100A00008004002070B5054600F074FD0646114CC8
:100A100009E0681C07D025B100F06CFD801BA842DE
:100A200001D9032070BDE068C007F2D1E0688006FC
:100A300001D52020E060E068C00605D4E069C00769
:100A400002D1E068400703D5FFF7AEFF012070BD7B
:100A5000002070BD00200240064A0021D1610649F5
:100A60000A6942F002020A614861086940F04000E8
:100A700008617047D815002000200240F8B5002515
:100A80000446009590F8240001280BD0012084F83A
:100A900024002046FFF736FD2046FFF797FD0600AD
:100AA00002D050E00220F8BDA06A20F4885040F047
:100AB0000200A062022000F0EDFD25490968B1FBAB
:100AC000F0F0400000E0401E00900028FBD12068BC
:100AD000816841F00801816000F00CFD074608E0E4
:100AE00000F008FDC01B0A2803D9206880680007B1
:100AF00015D4206880680007F2D42068816841F02E
:100B00000401816000F0F6FC074612E000F0F2FC00
:100B1000C01B0A280DD920688068400709D5A06A43
:100B200020F0020040F01000A06284F82450012060
:100B3000F8BD206880684007E8D4A06A20F0020071
:100B400040F00100A06284F824503046F8BD000057
:100B50002C000020F8B50024009490F824202546AD
:100B6000012A12D0012280F824204A681F23072A74
:100B70000DD20668776B521E02EB820293409F43B0
:100B80000B6893401F43776319E00220F8BD0668A5
:100B90000D2A0AD2376BD21F02EB820293409F4389
:100BA0000B6893401F43376309E0F76A0D3A02EB85
:100BB000820293409F430B6893401F43F7620A6889
:100BC000072306680A2A0AD3F7680A3A02EB4202A8
:100BD00093409F438B6893401F43F76008E0376959
:100BE00002EB420293409F438B6893401F4337615F
:100BF0000A68102A01D0112A20D1124B02689A42A9
:100C000017D193681B0219D4936843F400039360CF
:100C10000968102912D10C490C4A0968B1FBF2F19C
:100C200001EB8101490000E0491E00910029FBD140
:100C300004E0816A41F020018162012480F824509F
:100C40002046F8BD002401402C00002040420F0047
:100C500070477047704700002DE9F0414FF00007E2
:100C600004003D467ED0A06A002628B9E66284F8DA
:100C70002460204600F07EF82046FFF743FCA16A7E
:100C8000C90600D420B1A06A40F01000A06269E05B
:100C9000A16A21F4885141F00201A1626268E16910
:100CA000237B0A4347EA43010A43A1684FF4807754
:100CB000B94209D0012907D05FF0000194F814C0AF
:100CC000BCF1010F02D00AE03946F7E7F3B1A36A9D
:100CD00043F02003A362E36A43F00103E362236865
:100CE000D3F804C02CF4694C4CEA010CC3F804C0DE
:100CF00021688B68DFF870C003EA0C0313438B6034
:100D0000A168B9420BD0012909D00CE0DFF85CC022
:100D1000A3690CEB43330B4343F40061DFE7218A03
:100D20000D05A5F580152168CB6A23F470032B43CC
:100D3000CB62216889680E4B1940914208D1E66266
:100D4000A16A21F0020141F00101A162BDE8F08138
:100D5000A06A20F0020040F01000A062E06A40F0BB
:100D60000100E0620120F1E7FDF7E1FF00E0FFFF95
:100D7000FE0E1FFF70B586B0002506460095019552
:100D80000295039500681A4988422ED1194988694D
:100D900040F400708861886900F4007004908869EC
:100DA00040F0040088618869694600F004000490FE
:100DB0000F200090032001900F4800F099FA104C8A
:100DC0000E48C4E900058020C4E9025040002061BB
:100DD000800060612020C4E90605204600F0B2F9D9
:100DE00008B1FFF7D0FD3462666206B070BD000046
:100DF00000240140001002400008014008000240A9
:100E0000540300202DE9F047894604463B49006819
:100E10003B4F0E1D9046884201D0B84207D1306842
:100E200010F4702F03D001252846BDE8F08794F810
:100E3000240001280CD0012084F824002046FFF76C
:100E4000C5FB05004FF0000004D084F82400EBE758
:100E50000220EAE7A16A40F60162914341F4807101
:100E6000A1622168B94218D1326812F4702F14D0EF
:100E7000A16A41F48011A1623168490505D5A16AD2
:100E800021F4005141F48051A162A16AC9040AD53C
:100E9000E16A21F00601E16206E0A26A22F4801212
:100EA000A2624968E9E7E06284F82400216A1548F3
:100EB0008862216A1448C862216A1448086321685C
:100EC0006FF0020008602068816841F480718160E1
:100ED000216843464A464C31206A00F061F9206897
:100EE0008168C1F342410729816803D041F4801130
:100EF000816099E741F4A001FAE700000024014075
:100F0000002801405B050008C3050008A90500088A
:100F100010B590F821100022022905D00421816328
:100F200080F82020012010BD01680B6823F00E031B
:100F30000B6001680B6823F001030B6090F84030F0
:100F4000C46B012101FA03F3636080F8211080F87B
:100F50002020104610BD000010B590F8211000248C
:100F6000022903D00421816301243DE001680A685D
:100F700022F00E020A6001680A6822F001020A608B
:100F80001A4A0168914201D1012121E0174A143225
:100F9000914201D110211BE0144A2832914201D123
:100FA000891515E0114A3C32914201D189140FE0B4
:100FB0000E4A5032914202D14FF4803108E00B4A80
:100FC0006432914202D14FF4801101E04FF0807100
:100FD000064A083A5160012180F82110002180F86A
:100FE0002010416B01B18847204610BD0800024027
:100FF0002DE9F05FC16B0C6801680B68D0F840C048
:10100000042202FA0CF2494DDFF824A1494E4A4F5E
:10101000DFF828B1DFF828E122422CD05A072AD580
:101020000A68920603D40A6822F004020A60016882
:10103000A94201D1042219E0514501D1402215E015
:10104000B14202D14FF4806210E0B94202D14FF4B4
:1010500080420BE0594502D14FF4802206E07145F1
:1010600002D14FF4800201E04FF080622F4908392D
:101070004A60C16A3BE04FF0020808FA0CF818EA2F
:10108000040F4FF000094FF0010235D05FEA83787A
:1010900032D50B689B0605D40B6823F00A030B605E
:1010A00080F821200168A94201D1022219E05145AE
:1010B00001D1202215E0B14202D14FF4007210E0BC
:1010C000B94202D14FF400520BE0594502D14FF41E
:1010D000003206E0714502D14FF4001201E04FF0FA
:1010E0000072124908394A6080F82090816A00290C
:1010F0001AD0BDE8F05F0847082505FA0CF525422F
:1011000012D01B0710D50B6823F00E030B6090F86C
:101110004010C36B02FA01F15960826380F821200C
:1011200080F82090016BE2E7BDE8F09F08000240E4
:101130001C000240300002404400024058000240BF
:101140006C00024030B528B308C813491422194472
:10115000B1FBF2F18900C16310498163022141773B
:101160001A6843F6F0718A43D0E900142143D0E9AC
:1011700002452C4321430469214344692143846986
:101180002143114319600021416301224277017715
:10119000084630BD012030BDF8FFFDBF0000024011
:1011A00070B5044690F82000002501280CD00120DD
:1011B00084F8200094F821600020012E06D084F8E5
:1011C00020000225284670BD022070BD022684F84A
:1011D0002160A0632068066826F0010606602046AC
:1011E000FFF79CFAE06A00282068016802D041F00D
:1011F0000E0106E021F0040101602068016841F061
:101200000A0101602068016841F001010160D9E72D
:1012100070B5044600F06EF90546601C02D0044823
:101220000078044400F066F9401BA042FAD370BD78
:10123000200000200348016941F080010161002085
:1012400070470000002002402DE9F05F07461C486F
:1012500088460024017E15461E46012909D0012139
:10126000814601764CF2503A5046FFF7CBFB18B15D
:1012700022E00220BDE8F09F012F02D0022F00D013
:101280000427D346DFF83CA0220128463146FEF76A
:1012900095FF81B208EB4400FFF778FB5846FFF753
:1012A000B1FBDAF8102022F00102CAF8102018B9B8
:1012B000641CE4B2BC42E7D3002289F81820D9E7C5
:1012C0008004002000200240064900200A6912061E
:1012D00007D5054A4A60054A4A600969090600D5EA
:1012E000012070470020024023016745AB89EFCD04
:1012F0002DE9F84FDFF8B8910024A9F1040B23463B
:101300000F2709F1040AABF1040EC9E00125A5403D
:101310002A40AA427DD1674ED1F804C0ACEB060842
:10132000B44532D014DCBCF1030F3AD009DCBCF177
:10133000000F2AD0BCF1010F1CD0BCF1020F31D13B
:101340001DE0BCF1110F17D0BCF1120F2AD119E02A
:10135000B8F5881F19D006DCB8F5803F15D0B8F570
:10136000801F1FD111E0B8F5001F0ED0B8F5041F83
:1013700018D10AE0CB6815E0CB681B1D12E0CB68E2
:1013800008330FE0CB680C330CE08B682BB1012BDA
:101390004FF0080303D0456104E0042302E0056137
:1013A00000E00023FF2A01D8064601E000F1040610
:1013B0004FEA840501D9A5F12005D6F8008007FA87
:1013C00005FC28EA0C0803FA05F548EA0508C6F802
:1013D00000804D68ED0062D5374DAE6946F00106DC
:1013E000AE61AD6924F0030605F001050095334DAB
:1013F00006EB050CDCF80850A607360F07FA06F8CE
:1014000025EA0805DFF8B880404503D14FF0000811
:1014100017E044E0DFF8AC80404502D14FF001080E
:101420000FE0DFF8A480404502D14FF0020808E049
:10143000DFF89880404502D14FF0030801E04FF0FB
:10144000040808FA06F848EA0508CCF808804D6850
:10145000D9F80060ED024D4601D5164300E09643F1
:101460002E604D68DAF80060AD02554601D516438E
:1014700000E096432E604D68DBF80060AD035D46EA
:1014800001D5164300E096432E604D68DEF80060FB
:10149000ED03754601D5164300E096432E60641CAB
:1014A0000D682A46E5407FF431AFBDE8F88F0000B3
:1014B000080401400000111000100240000001402B
:1014C00000080140000C01400010014000140140E0
:1014D0008068084000D001207047C26821EA0203FA
:1014E0000A4043EA0241016170470AB10161704755
:1014F0000904FBE7014880687047000020000020D5
:101500000248816802781144816070472000002001
:10151000074810B5016841F010010160032000F098
:10152000A7F80F2000F006F800F050F8002010BDDA
:101530000020024030B505461F4887B0C16941F020
:101540000401C161C06906A900F00400009001A86F
:1015500000F0FEF90498B0B100F01AFA4000174903
:10156000174AB0FBF1F11748491E0260416040F292
:10157000E7320021C0E903218160816100F06AFD4A
:10158000040003D015E000F003FAE8E70D4800F08E
:101590008FFD04000DD11E2000F03CF8102D07D265
:1015A000002229461E2000F043F80748056000E0AD
:1015B000012407B0204630BD0010024040420F0019
:1015C0000008004038040020240000200F4808B51F
:1015D000816941F001018161816901F0010100919E
:1015E000C16941F08051C161C069002200F08050A2
:1015F00000900F21901E00F01BF80548416821F073
:10160000E06141F00071416008BD0000001002403F
:1016100000000140002809DB00F01F020121914079
:101620004009800000F1E020C0F800117047000080
:10163000F0B40E4B1B680C46C3F30223C3F107053D
:10164000042D00D90425191D072901D2002300E02B
:10165000DB1E012606FA05F1491E214099409E40F5
:10166000761E16403143F0BC02F002BA0CED00E0E9
:10167000064900F0070208684FF6FF03184040EAE9
:101680000220034A10430860704700000CED00E0A0
:101690000000FA0510B501460020234C012922D094
:1016A000022939D010291DD161682268D20119D5CB
:1016B0001E48C1F38342C903805C0AD561681B4A96
:1016C000C1F34041921E515C194AB2FBF1F148430B
:1016D00001E0184948436168490203D440000321EE
:1016E000B0FBF1F010BD226AC2F30121012903D140
:1016F000920701D5C80310BD022905D1626A92077D
:1017000002D549F6404010BD0329FCD12168890368
:10171000F9D54FF2244010BD00F04AF96168C1F3D9
:101720008131491C4900DBE70010024024490008D0
:1017300000127A0000093D002DE9F84305460078C3
:10174000354CC00754D0E0690026C00008D4E069D9
:1017500040F08050E061E069012600F08050009088
:101760002E480168C90512D40168804641F4807191
:101770000160FFF7BFFE074605E000BFFFF7BAFEB6
:10178000C01B642823D8D8F80000C005F6D5206A0D
:1017900010F4407021D0A98801F4407181421CD01E
:1017A000206A1F49012220F440700A6000220A606A
:1017B0002062C00711D0FFF79DFE074641F288382E
:1017C00008E000BFFFF796FEC11B414502D9032088
:1017D000BDE8F883206A8007F4D5206A696820F4A0
:1017E0004070084320621EB1E06920F08050E06143
:1017F0002878800705D56068A96820F44040084330
:1018000060602878C00605D56068E96820F480002B
:10181000084360600020DBE70010024000700040D9
:10182000400442422DE9F0470F46050061D0434E87
:10183000306800F00700B84209D2306820F0070095
:1018400038433060306800F00700B84251D1286852
:101850003B4C810712D5400703D5606840F4E06037
:1018600060602878000703D5606840F460506060CD
:101870006068A96820F0F000084360602878C0071D
:1018800028D06868012810D02168022810D0890764
:1018900000292EDA616821F0030101436160FFF73E
:1018A00029FE804641F288390DE021688903EFE77F
:1018B0008901EDE7FFF71EFEA0EB0801494502D9BB
:1018C0000320BDE8F0876068696800F00C00B0EBA9
:1018D000810FEFD1306800F00700B8420BD93068B3
:1018E00020F0070038433060306800F00700B8424D
:1018F00001D00120E5E72878400705D56068E96850
:1019000020F4E060084360602878000706D560682E
:10191000296920F4605040EAC100606000F058F886
:101920006168084AC1F30311515CC8400649086068
:1019300006480068FFF7FEFD0020C2E700200240D5
:1019400000100240344900082C0000202400002030
:101950000F2202600C4A536803F00303436053688C
:1019600003F0F0038360536803F4E063C3605268DC
:101970004FF4E06303EAD20202610448006800F019
:10198000070008607047000000100240002002407D
:101990000448054900684968044AC1F30221515CC2
:1019A000C84070472C000020001002404449000845
:1019B0000448054900684968044AC1F3C221515CE2
:1019C000C84070472C000020001002404449000825
:1019D0000E4A51680E4801F00C03042B11D0082B5D
:1019E0000FD10C48C1F38343C903C05C0AD55168C9
:1019F000084AC1F34041921E515C054A5043B0FB76
:101A0000F1F070470449484370470000001002405D
:101A100000127A001249000800093D002DE9F84F34
:101A2000040070D02078C04DC00749D06868C0F36A
:101A30008100012807D06868C0F38100022809D11D
:101A40006868C00306D52868800339D56068002817
:101A5000E7D035E06068B0F5803F0BD010B1B0F54D
:101A6000A02F11D0286820F480302860286820F446
:101A7000802002E0286840F480302860606890B1DF
:101A8000FFF738FD06460AE0286840F48020286009
:101A9000F0E700BFFFF72EFD801B642873D828688D
:101AA0008003F7D50CE0FFF725FD064605E000BFF3
:101AB000FFF720FD801B6428F0D828688003F7D446
:101AC00020789A4E80074FF001094FF0000839D571
:101AD000686810F00C0F07D06868C0F38100022816
:101AE00009D16868C00306D42868800714D5206926
:101AF000012808D110E02069B0B1C6F80090FFF7C6
:101B0000F9FC074605E00AE1FFF7F4FCC01B0228D8
:101B1000C4D828688007F7D52868616920F0F800E4
:101B200040EAC10028600DE0C6F80080FFF7E2FC43
:101B3000074604E0FFF7DEFCC01B022823D8286814
:101B40008007F7D4207800072CD57948A169D9B14E
:101B5000C0F80090FFF7CEFC074604E0FFF7CAFC90
:101B6000C01B02280FD8686A8007F7D571484FF468
:101B7000FA510068B0FBF1F0009000BF0098411EE0
:101B80000091FAD20EE080E0C0F80080FFF7B2FCCE
:101B9000074604E0FFF7AEFCC01B022875D8686A50
:101BA0008007F7D42078400760D5E8690027C00097
:101BB00008D4E86940F08050E861E869012700F046
:101BC000805000905C480168C90513D401688346C1
:101BD00041F480710160FFF78DFC824606E000BF92
:101BE000FFF788FCA0EB0A0064284ED8DBF8000061
:101BF000C005F5D5E06801280AD008B1052813D042
:101C0000286A20F001002862286A20F0040002E01F
:101C1000286A40F001002862E06841F2883B98B1F0
:101C2000FFF768FC82460BE0286A40F00400286257
:101C3000EEE700BFFFF75EFCA0EB0A0159455AD85A
:101C4000286A8007F6D50CE0FFF754FC824605E0D1
:101C5000FFF750FCA0EB0A0159454CD8286A8007D1
:101C6000F6D41FB1E86920F08050E861E06988B3DC
:101C70006968C1F38101022944D00228C6F8608056
:101C800004D0FFF737FC044638E034E0FFF732FCBD
:101C9000074604E0FFF72EFCC01B02282BD828685B
:101CA0008001F7D4206AB0F5803F05D16868A1684B
:101CB00020F4003008436860D4E9080108436968EB
:101CC00021F4741108436860C6F86090FFF712FCB5
:101CD000044606E025E000BFFFF70CFC001B0228CD
:101CE00009D828688001F7D51BE000BFFFF702FC88
:101CF000001B022802D90320BDE8F88F2868800164
:101D0000F4D40EE00128F7D06868226A00F480312C
:101D1000914204D1616A00F47010884201D0012020
:101D2000EAE70020E8E7000000100240000042421D
:101D3000800442422C0000200070004070B5040076
:101D400009D0606A002540B125616561A56294F8FB
:101D5000510040B10CE0012070BD6068B0F5827F99
:101D6000F4D0E561F2E784F85050204600F040F8E6
:101D7000022084F851002068016821F040010160D0
:101D8000A088218900F4827001F404410843A189EC
:101D900001F400610843217C01F002010843217D28
:101DA00001F001010843218B01F400710843217FF8
:101DB00001F03801084394F8201001F08001084335
:101DC000218D01F40051084321680860A0690421B5
:101DD00001EA1040216848602068C16921F400616F
:101DE000C1616565012084F85100002070BD0000CC
:101DF00030B585B0002400940194029403940068E7
:101E00001449884223D11448816941F48051816189
:101E1000816901F480510491816941F0040181617B
:101E200080690E4D00F004000490A0200090022074
:101E300001900320039069462846FFF759FA402095
:101E4000CDE90004694628460294FFF751FA05B02F
:101E500030BD000000300140001002400008014089
:101E60002DE9FF4F81B01D46934604464FF001090E
:101E70000E9EFFF73FFB074694F85100616801286A
:101E800006D0B1F5827F3CD1A168C9BB042838D106
:101E90000298002871D0BBF1000FFBD0002DF9D0C3
:101EA00094F8500001282CD04FF0010A84F850A07B
:101EB00094F85100042802D0052084F851004FF016
:101EC0000008C4F85480C4F838B0E587A5870299A3
:101ED0002163E586A586C4F84080C4F84480206864
:101EE0000168490603D4016841F040010160E068DF
:101EF000B0F5006F606808D0F0B3012D49D081E0E3
:101F0000FFE7022005B0BDE8F08F08B1012D39D1FF
:101F1000206B21680088C860206B801C2063E08EE5
:101F2000401EE0862EE02068816889070FD5E18E8B
:101F300069B1B9F1010F0AD1216B0988C160206B29
:101F4000801C2063E08E401EE0864FF00009206870
:101F50008168C9070CD0E18F51B1C068A16B0880BE
:101F6000A06B801CA063E08F401EE0874FF001094A
:101F7000FFF7C0FAC01B01E00BE067E0B04201D3FD
:101F8000701C50D1E08E0028CDD1E08F0028CAD13E
:101F90003EE0206B216800780873206B401C2063B2
:101FA000E08E401EE0862DE02068816889070FD50D
:101FB000E18E69B1B9F1010F0AD1216B0978017382
:101FC000206B401C2063E08E401EE0864FF000092D
:101FD00020688168C9070CD0E18F51B1C068A16B3E
:101FE0000870A06B401CA063E08F401EE0874FF09C
:101FF0000109FFF77FFAC01BB04202D3701C01D069
:1020000011E086B1E08E0028CED1E08F0028CBD140
:102010003A463146204601F07FF850B120206065F5
:1020200084F8508012E084F851A084F85080032096
:1020300068E7A06818B92068C1688068009084F8D3
:1020400051A084F85080606D0028F1D0012059E73C
:102050007047704710B5040003D094F83D0010B1EC
:1020600007E0012010BD002084F83C00204600F06D
:102070001EF8022084F83D00211D206801F0B6FA08
:10208000012084F8460084F83E0084F83F0084F87C
:10209000400084F8410084F8420084F8430084F84A
:1020A000440084F8450084F83D00002010BD7047CE
:1020B00090F83D10012901D001207047022180F8DD
:1020C0003D100168CA6842F00102CA6000680B490D
:1020D000884208D0B0F1804F05D00949884202D02B
:1020E0000849884204D1816801F00701062903D01C
:1020F000016841F00101016000207047002C01409F
:10210000000400400008004070472DE9F0410446FB
:102110000068C66805694FF00007A90713D5B10725
:1021200011D5F91E016101202077206880698007A0
:10213000204602D0FFF7E8FF04E000F07EF82046DA
:1021400000F07CF82777680716D5700714D521684A
:102150006FF004000861022020772068806910F485
:10216000407F204602D0FFF7CFFF04E000F065F883
:10217000204600F063F82777280715D5300713D5D8
:1021800021686FF008000861042020772068C0698A
:102190008007204602D0FFF7B7FF04E000F04DF8BB
:1021A000204600F04BF82777E80616D5F00614D540
:1021B00021686FF010000861082020772068C0694E
:1021C00010F4407F204602D0FFF79EFF04E000F0AD
:1021D00034F8204600F032F82777E80708D0F007F7
:1021E00006D021686FF001000861204600F028F851
:1021F000280608D5300606D521686FF080000861F2
:102200002046FFF725FF680608D5700606D5216829
:102210006FF040000861204600F01CF8A8060AD5BF
:10222000B00608D521686FF0200008612046BDE89F
:10223000F041FFF70EBFBDE8F08170477047000026
:1022400000680349884201D1FFF75AB9704700007E
:10225000000800407047704770470000F8B50168FB
:1022600004460868CA684B6910F00F0F4FF000056C
:1022700059D003F0010602F49077374365D0C107C7
:1022800005D0D10503D5616C41F0010161644107BE
:1022900005D5D90703D0616C41F002016164810763
:1022A00005D5D90703D0616C41F0040161640107D1
:1022B00007D502F02001314303D0616C41F00801E1
:1022C0006164616C00293AD0800604D5900602D57D
:1022D000204601F010FA20684069616CC0F380105C
:1022E000090700D460B3204601F0DEF92068406998
:1022F000400621D52068143050E8001F21F040012D
:1023000040E80012002AF5D1E06BA8B16D494163A5
:10231000E06BFEF721FE002811D0E06B416B01B0AD
:10232000BDE8F040084783060FD593060DD520463B
:10233000BDE8F84001F0DFB92046FFF78DFFF8BD9A
:102340002046FFF789FF6564F8BD266B2023012E28
:102350007CD1C6067AD5D60678D50868486800903C
:1023600048694FF00206400640D5E16B08684068B6
:102370000004000CE8D0A28D8242E5D9E08588698E
:1023800020282DD020680C3050E8001F21F48071E7
:1023900040E80012002AF5D12068143050E8001FF0
:1023A00021F0010140E80012002AF5D12068143024
:1023B00050E8001F21F0400140E80012002AF5D14A
:1023C00084F84230256320680C3050E8001F21F06B
:1023D000100140E80012002AF5D1E06BFEF798FDED
:1023E0006663A08DE18D401A81B22AE0A08DE18D57
:1023F000401A81B2E08D0028A6D00029A4D022681E
:102400000C3252E8000F20F4907042E80007002FD1
:10241000F5D12068143050E8002F22F0010240E886
:102420000027002FF5D184F84230256320680C3056
:1024300050E8002F22F0100240E80023002BF5D1D5
:1024400066632046FFF707FFF8BDFFE705062BD5BB
:10245000150629D594F841002128F5D1A068B0F5DA
:10246000805F01D12069B0B1206A411C21622168DE
:1024700000784860E08C401E0004000CE084E3D14A
:102480002068C16821F08001C1602068C16841F006
:102490004001C160D8E7206A0088C0F308004860A6
:1024A000206A801C2062E5E74006CDD55006CBD5DA
:1024B000CA68204622F04002CA6084F8413000F029
:1024C000C6F8C1E79936000870B5040004D094F846
:1024D0004100002510B106E0012070BD84F8405095
:1024E000204600F023F8242084F841002068C168C9
:1024F00021F40051C160204601F05EF920680169B5
:1025000021F4904101612068416921F02A01416173
:102510002068C16841F40051C1606564202084F8DE
:10252000410084F842006563002070BD30B585B07D
:10253000002400940194029403940068184988428E
:102540002CD11848816941F480418161816901F48D
:1025500080410491816941F0040181618069124DDB
:1025600000F0040004904FF40070009002200190ED
:102570000320039069462846FEF7BAFE2815CDE9E8
:102580000004694628460294FEF7B2FE00220521A7
:102590002520FFF74DF82520FFF73CF805B030BDAA
:1025A00000380140001002400008014070472DE94A
:1025B000F843044690F84100984616460D462028F8
:1025C00002D00220BDE8F88385B17EB100206064AE
:1025D000212084F84100FEF78DFFA6848146E68421
:1025E000A0682027B0F5805F02D003E00120E9E772
:1025F000206910B12E4600250EE000260CE0802157
:10260000204601F035F9A8B9C6B116F8010B2168CA
:102610004860E08C401EE084E08C4B464FF00002A6
:10262000CDF800800028EAD14FF04001204601F0AB
:102630001FF940B184F841700320C3E735F8020B5D
:10264000C0F30800E3E784F841700020BAE7704760
:10265000FEE7000070B501220B4DD402214628464A
:10266000FEF743FF0122960231462846FEF73DFF62
:10267000002231462846FEF738FF21462846BDE8AD
:1026800070400022FEF731BF000C014070B5094CCC
:102690000122D1022046FEF728FF251500222946F7
:1026A0002046FEF722FF29462046BDE87040012261
:1026B000FEF71BBF000C014070B50122064DD4028D
:1026C00021462846FEF711FF21462846BDE8704006
:1026D0000022FEF70ABF0000000C01402DE9F04186
:1026E000144F04464FF40066002231463846FEF788
:1026F000FCFE00254FF4806804F08000802816D08E
:10270000002241463846FEF7F0FE6006040E012224
:1027100031463846FEF7E9FE002231463846FEF7DC
:10272000E4FE6D1CEDB2082DE6D3BDE8F081012278
:10273000E7E70000000C014010B50446FFF78AFFF0
:102740007820FFF7CBFFFFF7B7FF0020FFF7C6FFAA
:10275000FFF7B2FF2046FFF7C1FFFFF7ADFFBDE86F
:102760001040FFF793BF10B50446FFF773FF7820C2
:10277000FFF7B4FFFFF7A0FF4020FFF7AFFFFFF721
:102780009BFF2046FFF7AAFFFFF796FFBDE810402A
:10279000FFF77CBFFEB500242048009401941E4939
:1027A0000294016089158160012505730475042672
:1027B00006614FF460214460C161FEF74DFA08B133
:1027C000FEF7E1F807200094CDE90150694613486F
:1027D000FEF7C0F908B1FEF7D6F80224CDE900549F
:1027E00069460E48FEF7B6F908B1FEF7CCF800943A
:1027F0000324694609480194FEF7ACF908B1FEF7D5
:10280000C2F8CDE9004669460448FEF7A3F900285E
:1028100001D0FEF7B8F8FEBD0024014024030020DB
:10282000094808B5416941F0010141614069002250
:1028300000F00100009005210B20FEF7F9FEBDE835
:1028400008400B20FEF7E6BE0010024010B596B01F
:102850001C2211496846FDF7C1FC0021684601F0C1
:10286000FFFA0E4C0C491C2220601C3107A8FDF712
:10287000B5FC002107A801F0F3FA074960601C22AB
:1028800038310EA8FDF7AAFC00210EA801F0E8FAE5
:10289000A06016B010BD0000BC4800080800002071
:1028A0002DE9F04385B00025374800950195029544
:1028B0000395816941F010018161816901F0100186
:1028C0000491816941F020018161816901F0200159
:1028D0000491816941F004018161816901F0040181
:1028E0000491816941F0080181618069274F00F0FE
:1028F00008004FF4C0440490012221463846FEF7F8
:10290000F4FDDFF88C80002210214046FEF7EDFD3B
:10291000DFF88090002244F603414846FEF7E5FDCB
:10292000009401240326CDE9024669463846019405
:10293000FEF7DEFC102002278DE8B1006946404614
:10294000FEF7D6FC01AA009682E8B0006946484628
:10295000FEF7CEFCB0028DE8710069464846FEF7EE
:10296000C7FCA00303968DE8910069464846FEF730
:10297000BFFCE003CDE90005694602944846FEF736
:10298000B7FC05B0BDE8F083001002400010014024
:1029900000080140000C0140104810B50E490160CC
:1029A0004FF48271416000218160C1604FF4007278
:1029B0000161C0E905121822C0E907214162816264
:1029C0000A21C162FFF7BAF9002803D0BDE8104020
:1029D000FDF7D9BF10BD0000003001409803002072
:1029E0000C4810B50A4901604FF4E1314160002103
:1029F00081600C22C160C0E904128161C161FFF7EE
:102A000063FD002803D0BDE81040FDF7BCBF10BD3A
:102A100000380140F0030020FEE7000070B51C48BC
:102A20001C4D00240078C0434106687814D4002867
:102A30002CD000F051F808E00423174A1946202052
:102A400000F05AF93C2001F093F92046641CA4B22E
:102A50001428F1D3002014E0002817D100F03CF82E
:102A600009E00D4A0423803A1946202000F044F979
:102A70003C2001F07DF92046641CA4B21428F0D358
:102A800001206870BDE87040FDF70EBF70BD00000A
:102A9000B1000020A700002044540008FEE770B5F4
:102AA0000024002104F1B00000F0D0F90021084614
:102AB00000F0CCF90021102000F0C8F90025012118
:102AC000002000F0C3F96D1CEDB2802DF7D3641C1B
:102AD000E4B2082CE5D370BD70B50224002104F1E6
:102AE000B00000F0B3F90021084600F0AFF9002172
:102AF000102000F0ABF900250121002000F0A6F91C
:102B00006D1CEDB2802DF7D3641CE4B2082CE5D324
:102B100070BD70B506460024002104F1B00000F03D
:102B200095F90021084600F091F90021102000F0ED
:102B30008DF900250121304600F088F96D1CEDB2B9
:102B4000802DF7D3641CE4B2082CE5D370BD10B51A
:102B50006420FEF75DFB0021AE2000F077F9002134
:102B6000084600F073F90021102000F06FF90021F1
:102B7000402000F06BF90021B02000F067F900213F
:102B8000812000F063F90021FF2000F05FF90021AF
:102B9000A12000F05BF90021A62000F057F90021E8
:102BA000A82000F053F900213F2000F04FF9002148
:102BB000C82000F04BF90021D32000F047F9002194
:102BC000084600F043F90021D52000F03FF900212C
:102BD000802000F03BF90021D82000F037F90021D7
:102BE000052000F033F90021D92000F02FF9002151
:102BF000F12000F02BF90021DA2000F027F9002164
:102C0000122000F023F90021DB2000F01FF9002141
:102C1000302000F01BF900218D2000F017F9002171
:102C2000142000F013F90021AF2000F00FF9642008
:102C3000FEF7EEFABDE810400020FFF76ABF10B5BE
:102C40000A460446002102F1B00000F0FFF810200F
:102C500040EA1410002100F0F9F804F00F00BDE87C
:102C60001040002100F0F2B82DE9F0411D46174652
:102C70000E468046FFF7E3FF002407EB45150121D0
:102C8000285D00F0E3F8641CE4B2102CF7D3761C46
:102C9000F1B24046FFF7D3FF002428190121007C40
:102CA00000F0D4F8641CE4B2102CF6D3BDE8F08137
:102CB0002DE9F0411D4617460E468046FFF7BFFF3F
:102CC000002407EB45150121285D00F0BFF8641CC6
:102CD000E4B2072CF7D3761CF1B24046FFF7AFFF02
:102CE000002428190121007C00F0B0F8641CE4B233
:102CF000072CF6D3BDE8F0812DE9F0411D461746BB
:102D000088460646002409E006EB0410C0B22346BC
:102D10003A464146FFF7A8FF641CE4B2AC42F3D345
:102D2000BDE8F0812DE9F041203A00240D468046AF
:102D3000D6B27F2803D900208D1C8046EDB2102B1F
:102D4000294610D0FFF77BFF164906EB460001EB42
:102D500040050121285D00F079F8641CE4B2062CDE
:102D6000F7D3BDE8F081FFF76AFF0F4F04EB0610C1
:102D70000121385C00F06AF8641CE4B2082CF5D339
:102D80006D1CE9B24046FFF75AFF002404EB061021
:102D900038440121007A00F059F8641CE4B2082C90
:102DA000F4D3DEE74C490008744B00082DE9F05FCE
:102DB0000026DDF828901D4692468B468046344614
:102DC0004FEA590723E0281B401EC1B20A2001F038
:102DD00033F8BAFBF0F00A21B0FBF1F201FB12006C
:102DE00026B9691E8C4201DA38B101263030C2B2F0
:102DF00007FB0480C0B24B4604E007FB0480C0B26E
:102E00004B4630225946FFF78DFF641CE4B2AC42BA
:102E1000D9D3BDE8F09F2DE9F041984617460E46FC
:102E2000044600250DE0434631462046FFF77AFF71
:102E30000834E4B2782C02D90024B61CF6B26D1C1A
:102E4000EDB27A5D002AEED1BDE8F081C0B209B1E1
:102E5000FFF789BCFFF770BC10B506220349044890
:102E600000F02AFABDE8104000F0FCBBB0150020CD
:102E700000F8000810B500F037F8BDE81040062251
:102E80000149024800F026BAB015002000F80008F9
:102E900010B5012291030448FEF727FBBDE810405E
:102EA000C820FEF7B5B90000000C014070B50D4D0B
:102EB0004FF4004421462846FEF70AFB002810D1B3
:102EC0003220FEF7A5F921462846FEF701FB00282F
:102ED000F9D02846BDE8704000224FF48041FEF74B
:102EE00004BB70BD000C014008480179084801800E
:102EF00008490979418008490A8882804A88C28045
:102F00008A880281C9884181704700009C000020A6
:102F1000B0150020A100002016000020194810B5AF
:102F20000178FF292CD1184A4178517041884ABA5A
:102F300016490A800279120213B2427913436422BD
:102F400093FBF2F34B808379C4791B021BB22343BA
:102F500093FBF2F3CB80037A447A1B021BB2234328
:102F600093FBF2F38B80837AC47A1B021BB2234358
:102F700093FBF2F20A81027B407B40EA02224A8103
:102F800010BD000090150020B0000020BC150020EE
:102F900010B5084C6078002807D0FDF779FB207841
:102FA00020B1FDF781FC0020607010BDBDE810402D
:102FB00000F002B89800002010B5384C0022012122
:102FC0002046FEF792FA0321232000F059F905224A
:102FD0003349302000F02EF931490522491D2A20BD
:102FE00000F028F91A21242000F04AF901212120BB
:102FF00000F046F90121222000F042F92721262085
:1030000000F03EF91E21252000F03AF92021312060
:1030100000F036F90F21202000F032F9032000F0F3
:1030200095F801461FA000F013FD042000F08EF873
:10303000014620A000F00CFD022000F087F80146B8
:1030400020A000F005FD012000F080F8014621A03D
:1030500000F0FEFC062000F079F8014620A000F008
:10306000F7FC052000F072F8014621A000F0F0FC0A
:10307000112000F06BF8014620A000F0E9FC0020D0
:1030800000F064F8014621A000F0E2FC2046012295
:10309000BDE810401146FEF728BA0000000C0140C0
:1030A0009C00002053455455505F41573A25780DF8
:1030B0000A00000053455455505F524554523A257A
:1030C000780D0A00454E5F5258414444523A2578E3
:1030D0000D0A0000454E5F41413A25780D0A000077
:1030E00052465F53455455503A25780D0A0000006A
:1030F00052465F43483A25780D0A000052585F5007
:10310000575F50303A25780D0A000000434F4E4675
:1031100049473A25780D0A00F8B515460E460B4684
:10312000009204460122022100F028F840B93346FB
:10313000002280212046009500F020F8002804D0CD
:10314000606D40F0200060650320F8BD70B50A4D49
:103150000446002210212846FEF7C7F9204601F058
:10316000CFF8002001F0CCF80446012210212846B7
:10317000FEF7BBF9204670BD000801402DE9F84379
:103180001E46914688460446089DFEF7B3F9401B4B
:10319000351AFEF7AFF9074625480068C0F3CB3073
:1031A000684338E0701C37D0FEF7A4F9C01BA84272
:1031B00003D215B1009860B32CE02068416821F07B
:1031C000E00141606068B0F5827F0BD1A068B0F586
:1031D000004F02D0B0F5806F04D12068016821F063
:1031E00040010160A06AB0F5005F09D12068016864
:1031F00021F4005101602068016841F40051016030
:10320000012084F85100002084F850000320BDE81C
:10321000F8830025401E00902068816838EA01008C
:1032200004D000214945BDD10020F0E70121F9E794
:103230002C0000202DE9F0410F4F14460D460646A4
:10324000002210213846FEF750F9304601F058F8B8
:103250000A4E307005E0287801F052F8641EE4B29E
:103260006D1C002CF7D1012210213846FEF73DF9E4
:103270003078BDE8F0810000000801401E00002009
:1032800070B50B4D0E460446002210212846FEF76D
:103290002CF9204601F034F8064C2070304601F03D
:1032A0002FF8012210212846FEF71FF9207870BD63
:1032B000000801401E00002010B5002306E000BFFA
:1032C00030F8024B21F813405B1C9BB29342F7D3BA
:1032D00010BD00002DE9F05FA0F1006415468A469C
:1032E0008346B4F5803F5FD2FDF7EEFFA70AC4F333
:1032F0004806C6F50074A54200D82C46DFF8AC900D
:103300004FF0006000EB872080464FF400722749A1
:10331000FFF7D2FF00204FF6FF7106E0331839F8AF
:1033200013208A4203D1401C80B2A042F6D3A042AF
:103330002ED24046FDF790FB4CF25030FDF762FB79
:103340001B48016921F0020101610020494606E0A5
:103350003AF810208319401C21F8132080B2A042B3
:10336000F6D3124940464FF4007200BF00F022F835
:10337000A54215D0281B0AEB440A0BEB440B002690
:1033800085B24FF400747F1CA542B9D82C46B7E72C
:103390004CF25030FDF736FB224651465846E5E7E1
:1033A000BDE8F05FFDF746BFBDE8F09FF8150020CF
:1033B000002002402DE9F04116460F460546002444
:1033C0000AE000BF37F81420002329460120FDF74A
:1033D0003BFF641CA4B2AD1CB442F3D3BDE8F08142
:1033E00010B52E4C2078C043C00718D1FFF774FBEE
:1033F0000FE000BFFFF792FD0323294A194628205A
:10340000FFF77AFC264A0423E03A05212020FFF743
:1034100073FC2078C043C007ECD0FDF745FA207854
:10342000C043800718D4FFF757FB0FE0FFF776FD86
:103430001B4A0323603A19462820FFF75DFC184A0F
:103440000423E03A05212020FFF756FC2078C043F2
:103450008007EBD5FDF728FA2078C04340071BD43E
:10346000FFF73AFB10E000BFFFF758FD0C4A0323BB
:10347000603219462820FFF73FFC094A0423E03A4E
:1034800005212020FFF738FC2078C0434007EBD50A
:10349000BDE81040FDF708BA10BD0000B1000020E3
:1034A00044520008104811490068884201DA00239C
:1034B00014E00F49884201DA01230FE00D498842E8
:1034C00001DA02230AE00C49884201DA032305E00D
:1034D000B0F17E5F01DA042300E005230021074AF2
:1034E0000120FFF7C1BB0000AC000020CDCC4C3E5A
:1034F000CDCCCC3E9A99193FCDCC4C3FE45400083A
:10350000FDF722F9FFF744FDFAE70000064D4FF4FE
:1035100080444FF4FA7621462846FDF7DEFF304618
:1035200000F092FCF7E7000000100140FFF7BEFC3E
:10353000012000F089FCF9E710B5502080F31188D4
:10354000BFF34F8FBFF36F8F01F0F0F818B104494C
:103550004FF080500860002080F3118810BD0000FB
:1035600004ED00E030B593B028216846FCF74FFE2B
:1035700014210AA8FCF74BFE002501200F95109599
:103580001195010412958DE8230004904FF4E0108A
:10359000CDE90810022407946846FEF73FFA08B107
:1035A00072B6FEE70AA90F2081E831004FF480606F
:1035B000CDE90D0502210AA8FEF734F908B172B66B
:1035C000FEE74FF4004011900F940FA8FEF7B4F8F7
:1035D000002801D072B6FEE713B030BD704700007E
:1035E0000148FEF792BD000038040020F0B50268E3
:1035F000194B1A4C1A4D4FF08047984205D0B842EB
:1036000003D0A04201D0A84203D122F070064A683C
:103610003243984205D0B84203D0A04201D0A8421C
:1036200003D122F44074CA6822434C6922F080021C
:10363000224302608A68C2620A688262984201D1AB
:1036400009690163012141610169C90703D0016969
:1036500021F001010161F0BD002C01400004004097
:10366000000800400848094A01781171084A817829
:103670001171828807490A80C2884A8002898A803B
:103680004089C88070470000B01500209C000020D1
:10369000A10000201600002010B5406A0021C1855D
:1036A000C184FEF7D9FD10BD01680C3151E8002F2F
:1036B00022F4907241E80023002BF5D10168143107
:1036C00051E8002F22F0010241E80023002BF5D140
:1036D000016B012909D101680C3151E8002F22F05A
:1036E000100241E80023002BF5D1202180F8421080
:1036F00000210163704708B590F84210222901D0DB
:10370000022008BD82684FF480539A4201D10169BA
:1037100021B1816A9A421BD04AB10AE00268816AEB
:103720005268C2F308020A80816A891C08E00269B3
:1037300072B10268526802F07F020A70816A491C05
:103740008162C18D491E0904090CC18503D01BE0AB
:1037500002685268F1E70168CA6822F02002CA6074
:103760000168CA6822F48072CA6001684A6922F05E
:1037700001024A61202180F8421000214163026B5E
:10378000012A03D0FEF712FF002008BD0163016883
:103790000C3151E8002F22F0100241E80023002BE9
:1037A000F5D101680A68D20602D50A684968009115
:1037B000818DFEF750FDE7E770B5044600680169AA
:1037C000E26821F44051114301612169A068084376
:1037D000616908432168CA6841F20C639A43024355
:1037E000CA6020684169A26921F4407111434161B6
:1037F0001E492068884202D1FEF7DAF801E0FEF7A0
:10380000C7F800EBC00101EB001260686421800082
:10381000B2FBF0F3B3FBF1F36FF018067343B2FBA6
:10382000F0F5B2FBF0F605EB8305322303EB05154B
:10383000B5FBF1F5B6FBF1F605F0F00505EB061565
:10384000B2FBF0F6B2FBF0F0B0FBF1F06FF0180253
:10385000504306EB800003EB0010B0FBF1F0216851
:1038600000F00F002844886070BD0000003801405F
:103870002DE9F843984617460D460446089E24E075
:10388000701C22D0FDF736FEA0EB0800B0421AD81B
:10389000CEB12068C168490717D5802D15D0402DBD
:1038A00013D00168C94309070FD401680025406897
:1038B00000902046FFF7F8FE0820606484F840502E
:1038C0000120BDE8F8830320FBE72068006835EAA3
:1038D000000004D00020B842D2D00020F1E701203F
:1038E000F9E700000148FEF7B9BC0000F003002032
:1038F000FEE700002DE9F041FCF7CAFE234C00274B
:10390000251D6E1D207840B1A7702879E178884286
:103910003AD0BDE8F041FFF7ADBAA078411CA170E4
:103920000A2807D2FFF798FA2879E070FFF744FBDE
:1039300032201AE02879401CC0B228713179491C24
:10394000C9B23171322803D9322901D92F713771A7
:103950000E490522091D3020FFF76CFC0B4905229A
:1039600009312A20FFF766FC642000F001FA0848BC
:103970004FF00803007808B106A200E008A2032176
:103980001020FFF748FABDE7BDE8F081980000205D
:103990001400002043616C6962726174696F6E008B
:1039A000436F6E6E656374696E672E2E2E00000085
:1039B00070B52248224D00240078C0438106287843
:1039C0001AD4002838D1FFF787F80EE008231DA28B
:1039D00003213020FFF71FFA03231C4A052128206A
:1039E000FFF78AF93C2000F0C3F92046641CA4B21A
:1039F0001428EBD301201AE000281DD0FFF76CF843
:103A00000FE008230FA203213020FFF704FA0F4A2A
:103A10000323603205212820FFF76EF93C2000F0D7
:103A2000A7F92046641CA4B21428EAD30020287009
:103A3000BDE87040FCF738BF70BD0000B100002049
:103A4000A7000020576946690000000004530008E1
:103A50000FB4054B10B503A9044A029800F028F8EA
:103A600010BC5DF814FB0000C13D0008C000002040
:103A70000907090E002804DB00F1E02080F800149B
:103A8000704700F00F0000F1E02080F8141D70472F
:103A900002E008C8121F08C1002AFAD17047704717
:103AA000002001E001C1121F002AFBD17047000075
:103AB0002DE9FF4F8DB09B460F460446002606E0D9
:103AC00025280BD05A460F999047641C761C207805
:103AD0000028F5D111B03046BDE8F08F0025A8468A
:103AE0000122984900E0054314F8013F203B02FA07
:103AF00003F00842F7D120782E2817D114F8010FCF
:103B000045F004052A280ED06FF02F022078A0F18E
:103B1000300109290AD808EB880102EB410100EBCA
:103B20000108641CF2E757F8048B641C20786C28A9
:103B30000DD004DC4C2812D06A2811D104E074287E
:103B40000DD07A280CD10AE045F4001507E0617821
:103B500045F48015814202D1641C05F58015641C72
:103B60002278692A45D008DC002AB3D0582A69D0C7
:103B7000632A10D0642A08D13BE0702A67D0732AE8
:103B800013D0752A5CD0782A5CD010465A460F991B
:103B90009047761CD3E017F8040B8DF80000002046
:103BA0008DF80100E946012003E057F8049B4FF02F
:103BB000FF3069074FF0000501D40AE06D1C454550
:103BC0000DDA8542FADB19F805100029F6D106E076
:103BD0006D1C8542FCDB19F805100029F8D12E4434
:103BE00004E019F8010B5A460F9990476D1EF8D260
:103BF000A5E00A200021CDE90801C5F30250022802
:103C00000DD001CFC117031E71F100030DDA4FF083
:103C1000000CD0EB0C006CEB01012D2308E0FF1D24
:103C200027F00707F7E80201EDE72B0504D52B2362
:103C30008DF8283001233BE0EB0739D02023F7E74C
:103C40000A2000E010200021CDE9080107E0102043
:103C5000002145F00405CDE908014FF00808C5F33F
:103C6000025002280FD001CF00214FF0000A2B078D
:103C70001FD5702A0DD0DDE908C38CF0100C5CEA6A
:103C8000030C0CD015E0FF1D27F00707F7E8020131
:103C9000EBE740228DF828204FF0010A0BE050EAB4
:103CA000010306D030238DF828308DF82920022317
:103CB0009A46582A04D024A20DF120090B9209E05B
:103CC00026A2F9E7DDE90823FCF791FB0B9B9B5C3F
:103CD00009F8013D50EA0102F4D1ADEB09002030B2
:103CE0000890680701D44FF001080899884502DD63
:103CF000A8EB010000E000208046002506E00AA8AD
:103D00005A46405D0F9990476D1C761C5545F6DB71
:103D100004E030205A460F999047761CB8F1000114
:103D2000A8F10108F5DC05E019F8010B5A460F99D6
:103D30009047761C0899481E08900029F4DC641C02
:103D4000C5E60000092801003031323334353637FA
:103D500038396162636465660000000030313233D7
:103D60003435363738394142434445460000000077
:103D700070B5054600244FF47A7603E0304600F033
:103D800005F8641CAC42F9D370BD000070B54FF06B
:103D9000E024002265690949A36909684843A169CB
:103DA0009942FCD002D2A3EB010302E0A5EB01068D
:103DB00033441A440B468242F1D370BDBC0000204C
:103DC00013B54FF6FF73012269460248FEF7EFFB79
:103DD00000981CBDF0030020FDF79AFBFFF7C2FB23
:103DE000FEF75EFDFEF71CFDFEF7D6FDFEF7F8FDC3
:103DF000FEF7D0FCFFF74CF8FEF7A9FEFFF7DCF862
:103E00000848FCF73BFE042207490648FCF7FAFF86
:103E1000FFF770FDFCF748FDFEF718FD00F01BF8FA
:103E2000FEE70000240300200000002001460020DF
:103E3000842900D0C81C70470246012000E050438E
:103E4000491EC9B2FBD2704710B500B9012000F07D
:103E50002FFB002010BD10B500F050FB002010BD5E
:103E60007FB50D4604464169B0F9080081B1A169EA
:103E700071B1FFF7DBFFD4E905128DE80700D4E943
:103E800000102B46226900F026FC039004B070BDA0
:103E9000FFF7CCFF03A9CDE90001208A2B4682B2AF
:103EA000D4E9001000F0EAFB012801D00020EDE782
:103EB0000398EBE72DE9F041184C0F460546E668FC
:103EC0002068001D00F02CFA38B9206890F82C10FA
:103ED00001208840216981432161681C07D137B1E5
:103EE0002168BDE8F0410E48091D00F05DBA206868
:103EF0003544B5424560216805D2A06BBDE8F0416C
:103F0000091D00F039BA606B091D00F035FAA06A8E
:103F1000854200D2A562BDE8F0810000300000209B
:103F20007C0500202DE9F041054600F049FA2E4CB1
:103F3000A068401CA06020682C4F10B1606940B39D
:103F40002DE02560A068012829D1002606EB860017
:103F500007EB800000F002FA761C072EF6D3234808
:103F60008C3000F0FBF92148A03000F0F7F91F4831
:103F7000B43000F0F3F91D48C83000F0EFF91B48E9
:103F8000DC3000F0EBF919488C3060631430A0632A
:103F900005E02068E96AC06A884200D82560606A46
:103FA000401C6062E96A0120226988401043206158
:103FB00001EB810007EB8000291D00F0F5F900F00E
:103FC0001FFA606900280CD02068E96AC06A88423C
:103FD00007D207494FF080500860BFF34F8FBFF3FF
:103FE0006F8FBDE8F081000030000020A0040020A9
:103FF00004ED00E010B5044690F85D0058B10128CA
:104000000CD002280FD0502080F31188BFF34F8FBF
:10401000BFF36F8FFEE7206B00F006FA2046BDE885
:10402000104000F001BA10BD10484FF48051420713
:1040300006D0C01D0D4920F00700411AC1F580517E
:104040000B4A00230144C2E900030839183A21F061
:10405000070111604B600B600B1AC0E900139360FD
:104060004FF0004053605061704700009005002001
:1040700084000020144E154CA6F1C8074FF080585C
:10408000DFF84C9012E000BF00F09AF9F068C568C4
:10409000281D00F045F9A068401EA0606068401E21
:1040A000606000F0ADF92846FFF7A4FF60680028C3
:1040B000EAD138680128F9D9C9F80080BFF34F8FD9
:1040C000BFF36F8FF2E7000068050020300000208A
:1040D00004ED00E02DE9F0479A46DDE909848146C8
:1040E0006FF00303206B03EB82021044089E20F064
:1040F0000707780707D0502080F31188BFF34F8F50
:10410000BFF36F8FFEE7002561B1002023180A5C22
:1041100083F834200A5C12B1401C1928F6D384F8C5
:104120004C5001E084F83450072E00D30626E66296
:10413000C4E91465201D00F01CF904F1180000F01A
:1041400018F92461C6F107006462A061A56584F8CE
:104150005C5052464946384600F0C0F82060B8F13D
:10416000000F01D0C8F80040BDE8F08730B5114914
:1041700000E011460A688242FBD34B685C18844217
:1041800003D1406818444860084643681C189442AC
:1041900009D1084C183C2468A24209D052681A443C
:1041A00042600A6812680260814200D0086030BD37
:1041B0000460F9E7840000200648416B096829B1D2
:1041C000416BC968C9684968816270474FF0FF3127
:1041D000FAE700003000002008484068401C4FF01B
:1041E000500080F3118804D0BFF34F8FBFF36F8F5F
:1041F000FEE7BFF34F8FBFF36F8FFEE78C00002009
:104200002DE9F0410546002700F0AEF9324E306846
:1042100008B9FFF709FF706905424ED1C5B30835EB
:1042200068070ED005F00700C0F1080005446807D4
:1042300007D0502080F31188BFF34F8FBFF36F8FEB
:10424000FEE72DB37068854237D823481830014601
:104250000C6801E020460C466168A94202D2216840
:104260000029F7D131688C4227D0076821680160A6
:1042700060680837411B10290FD96019420708D020
:10428000502080F31188BFF34F8FBFF36F8FFEE78D
:1042900013E041606560FFF769FF61687068401A6C
:1042A0007060B268904200D2B06070690143002033
:1042B000C4E90001F068401CF06000F09DFA780746
:1042C00007D0502080F31188BFF34F8FBFF36F8F5B
:1042D000FEE73846BDE8F0816C00002010B5031FF2
:1042E0004FF080741C601B1F21F001011960191F21
:1042F000024B0B60143940380A6010BDD9410008E8
:1043000001B582B04FF47A700090012301AA02A98E
:104310000248FDF7A5FD9DF804000EBD980300209E
:10432000D0E9013201699A60D0E901235A604A68F4
:10433000824201D182684A60002202610868401E00
:104340000860086870470000034B036003F16000D9
:104350000860802010607047C400002000F1080150
:104360004FF0FF32C0E90112C1600161002101601C
:10437000704700210161704730B50B685A1C02D0AC
:1043800000F1080202E0026904E022465468256850
:104390009D42FAD953684B6099608A605160086108
:1043A0000168491C016030BD42684A6093688B60B7
:1043B00093685960916008610168491C0160704709
:1043C000502080F31188BFF34F8FBFF36F8F0A49DE
:1043D0004868401C486001280CD10848006810F06B
:1043E000FF0F07D0502080F31188BFF34F8FBFF32A
:1043F0006F8FFEE7704700008C00002004ED00E0A6
:104400000849486828B1401E486001D180F31188EE
:104410007047502080F31188BFF34F8FBFF36F8F29
:10442000FEE700008C00002070B500282AD0164D51
:10443000A0F1080460686969084207D1502080F340
:104440001188BFF34F8FBFF36F8FFEE722683AB139
:10445000502080F31188BFF34F8FBFF36F8FFEE7BB
:104460008843606000F080F86068696808446860AC
:104470002046FFF77BFE2869401C2861BDE870409C
:1044800000F0BAB970BD00006C0000204FF0E020D1
:1044900000210161816105494FF47A720968B1FB1D
:1044A000F2F1491E41610721016170472C00002093
:1044B00010B5020014D00F48006B38B1502080F3C3
:1044C0001188BFF34F8FBFF36F8FFEE700F04CF8FA
:1044D00000211046FFF7EEFC00F08EF9002807D10E
:1044E00005494FF080500860BFF34F8FBFF36F8FC7
:1044F00010BD00003000002004ED00E010B586B0D3
:104500000024039405AA04A903A80494FFF71CFF40
:10451000DDE903010094CDE9011000230EA110484C
:10452000059A00F0D8F80F490028C86211D0502031
:1045300080F31188BFF34F8FBFF36F8F4FF0FF30C1
:10454000886201204861CC6006B0BDE8104000F0F0
:1045500041B806B010BD000049444C4500000000C1
:1045600075400008300000200248016B491C0163BF
:1045700070470000300000201448016B11B1012188
:10458000C16170470021C1610169B1FA81F1C1F1D6
:104590001F0101EB81020E4951F822306BB101EB92
:1045A000820101F108034A6852684A609A4201D1C7
:1045B00052684A60D16801607047502080F31188CA
:1045C000BFF34F8FBFF36F8FFEE700003000002076
:1045D000A00400201CB5264908780190FF2008702F
:1045E00008788DF800009DF800009DF8002000F08C
:1045F000F000904207D0502080F31188BFF34F8F16
:10460000BFF36F8FFEE79DF800001A4C00F05000DA
:1046100020700720A06005E09DF8002052008DF872
:104620000020401E9DF800201206F5D4A06003284B
:1046300007D0502080F31188BFF34F8FBFF36F8FE7
:10464000FEE74FF44070A060019808700A480168C6
:1046500041F470010160016841F070410160FFF7B1
:1046600015FF00206060FBF75DFD00201CBD000011
:1046700000E400E08C00002020ED00E02DE9FF5F69
:104680008346DDE90E87994616468A469000FFF775
:10469000B7FD05001CD06020FFF7B2FD040014D068
:1046A0000020256384F85D00CDE90240CDE9008754
:1046B0004B46324651465846FFF70CFD2046FFF761
:1046C00031FC012004B0BDE8F09F2846FFF7ACFEA6
:1046D0004FF0FF30F6E7F0B585B0DDE90B640A9DD9
:1046E000A6B1DCB1602700972663022684F85D60DE
:1046F000002604AFCDE90246CDE90057FFF7EAFCFA
:104700002046FFF70FFC049805B0F0BD502080F361
:104710001188BFF34F8FBFF36F8FFEE7502080F3F8
:104720001188BFF34F8FBFF36F8FFEE72DE9F04184
:104730002F4C0026206B28B1A069401CA061304698
:10474000BDE8F081E5686D1CE56013D1606B006821
:1047500038B1502080F31188BFF34F8FBFF36F8FB4
:10476000FEE7606BA16B6163A063206A401C20625E
:10477000FFF722FDA06ADFF87C80854209D3606BD9
:104780000068A0B1606BC068C7687868854211D2C4
:10479000A0622068C06A00EB800158F8210001285F
:1047A00000D90126E0690028C9D00126C7E74FF0EB
:1047B000FF30EDE7381DFFF7B3FDB86A18B107F118
:1047C0001800FFF7ADFDF96A012022698840104307
:1047D000206101EB810108EB8100391DFFF7E4FD49
:1047E000F86A2168C96A8842C9D30126C7E7000070
:1047F00030000020A00400202DE9F0472C4D0024BB
:104800002746286B38B1FFF7DBFD286B401E286375
:10481000286B40B146E0502080F31188BFF34F8FE2
:10482000BFF36F8FFEE7A968224E0120D1B3A6F136
:10483000B40980463068E8B1F068C46804F1180033
:10484000FFF76EFD201DFFF76BFDE06A2A6908FA8D
:1048500000F11143296100EB800109EB8100211D6A
:10486000FFF7A2FDE06A2968C96A8842E2D3C5F869
:104870001C80DFE70CB1FFF79FFCAC6944B14646F2
:10488000FFF754FF00B1EE61641EF9D10020A8616A
:10489000E86938B10849012738070860BFF34F8F2E
:1048A000BFF36F8FFFF7ACFD3846BDE8F08700001F
:1048B000300000205405002004ED00E0B055000851
:1048C0002D350008000000000000000080000000FE
:1048D0000000000000000000A45500080D3500088D
:1048E000FDFF00000000000080000000000000004C
:1048F00000000000BC55000801350008FDFF000065
:104900000000000080000000000000000000000027
:10491000010202030405060708090A0B0C0D0E0F1D
:104920001010010202030405060708090A0B0C0D0A
:104930000E0F101000000000000000000102030430
:10494000060708090000000001020304000000003F
:1049500000000000002F0000000007000700001406
:104960007F147F1400242A7F2A1200626408132314
:1049700000364955225000000503000000001C22AB
:104980004100000041221C000014083E08140008E9
:10499000083E0808000000A0600000080808080899
:1049A000000060600000002010080402003E514931
:1049B000453E0000427F40000042615149460021CF
:1049C00041454B31001814127F10002745454539E9
:1049D000003C4A4949300001710905030036494944
:1049E000493600064949291E0000363600000000FD
:1049F0005636000000081422410000141414141448
:104A000000004122140800020151090600324959F0
:104A1000513E007C1211127C007F49494936003E0C
:104A200041414122007F4141221C007F49494941C7
:104A3000007F09090901003E4149497A007F0808C1
:104A4000087F0000417F4100002040413F01007F7E
:104A500008142241007F40404040007F020C027F4A
:104A6000007F0408107F003E4141413E007F09095C
:104A70000906003E4151215E007F09192946004682
:104A8000494949310001017F0101003F4040403F59
:104A9000001F2040201F003F4038403F00631408A3
:104AA000146300070870080700615149454300007E
:104AB0007F41410000552A552A55000041417F00A1
:104AC0000004020102040040404040400000010296
:104AD0000400002054545478007F4844443800387F
:104AE0004444442000384444487F00385454541807
:104AF00000087E0901020018A4A4A47C007F080419
:104B000004780000447D4000004080847D00007FE8
:104B1000102844000000417F4000007C0418047805
:104B2000007C0804047800384444443800FC242401
:104B300024180018242418FC007C080404080048E9
:104B40005454542000043F444020003C4040207C0A
:104B5000001C2040201C003C4030403C00442810F9
:104B60002844001CA0A0A07C004464544C441414AD
:104B700014141414000000000000000000000000E5
:104B800000000000000000F80000000000000033FA
:104B90003000000000100C06100C060000000000A1
:104BA0000000000040C07840C0784000043F04048A
:104BB0003F040400007088FC08300000001820FF4B
:104BC000211E0000F008F000E018000000211C0386
:104BD0001E211E0000F00888700000001E21232402
:104BE0001927211010160E00000000000000000020
:104BF00000000000000000E01804020000000007B0
:104C00001820400000020418E000000000402018B6
:104C100007000000404080F0804040000202010F89
:104C200001020200000000F0000000000101011F6D
:104C300001010100000000000000000080B07000D1
:104C40000000000000000000000000000001010161
:104C500001010101000000000000000000303000F0
:104C600000000000000000008060180400601806CA
:104C70000100000000E010080810E000000F102004
:104C800020100F00001010F8000000000020203F4E
:104C900020200000007008080888700000302824D8
:104CA0002221300000300888884830000018202079
:104CB00020110E000000C02010F80000000704249E
:104CC000243F240000F808888808080000192120E3
:104CD00020110E0000E0108888180000000F11203D
:104CE00020110E0000380808C83808000000003FF6
:104CF000000000000070880808887000001C222155
:104D000021221C0000E010080810E0000000312201
:104D100022110F00000000C0C000000000000030A1
:104D200030000000000000800000000000008060F3
:104D30000000000000008040201008000001020474
:104D4000081020004040404040404000040404045B
:104D50000404040000081020408000000020100817
:104D600004020100007048080808F000000000304C
:104D700036010000C030C828E810E00007182724DA
:104D800023140B000000C038E0000000203C230288
:104D90000227382008F8888888700000203F2020EB
:104DA00020110E00C030080808083800071820201D
:104DB0002010080008F808080810E000203F202014
:104DC00020100F0008F88888E8081000203F2020F5
:104DD0002320180008F88888E8081000203F2000E9
:104DE00003000000C0300808083800000718202021
:104DF000221E020008F808000008F808203F2101E0
:104E000001213F20000808F8080800000020203F8A
:104E10002020000000000808F8080800C0808080FA
:104E20007F00000008F888C028180800203F2001F3
:104E30002638200008F8080000000000203F20204D
:104E40002020300008F8F800F8F80800203F003F64
:104E5000003F200008F830C00008F808203F20007C
:104E600007183F00E01008080810E0000F1020208D
:104E700020100F0008F808080808F000203F210162
:104E800001010000E01008080810E0000F182424B9
:104E900038504F0008F8888888887000203F20002C
:104EA000030C3020007088080808380000382021E2
:104EB00021221C00180808F8080818000000203FEC
:104EC0002000000008F808000008F808001F202053
:104ED00020201F000878880000C838080000073824
:104EE0000E010000F80800F80008F800033C070075
:104EF000073C0300081868808068180820302C03DD
:104F0000032C30200838C800C83808000000203FB3
:104F10002000000010080808C838080020382621A2
:104F200020201800000000FE020202000000007FA6
:104F300040404000000C30C00000000000000001B4
:104F40000638C00000020202FE000000004040409F
:104F50007F000000000004020202040000000000C4
:104F60000000000000000000000000008080808041
:104F70008080808000020204000000000000000029
:104F800000000000000080808080000000192422C2
:104F900022223F2008F8008080000000003F1120FE
:104FA00020110E000000008080800000000E112003
:104FB00020201100000000808088F800000E1120E1
:104FC00020103F200000808080800000001F2222EF
:104FD00022221300008080F0888888180020203F5B
:104FE000202000000000808080808000006B94946E
:104FF0009493600008F8008080800000203F21002A
:1050000000203F2000809898000000000020203FF2
:1050100020200000000000809898000000C08080E0
:10502000807F000008F8000080808000203F24027C
:105030002D302000000808F8000000000020203F6C
:10504000202000008080808080808000203F200021
:105050003F20003F8080008080800000203F2100B2
:1050600000203F200000808080800000001F202062
:1050700020201F00808000808000000080FFA12091
:1050800020110E000000008080808000000E1120A2
:1050900020A0FF80808080008080800020203F2131
:1050A00020000100000080808080800000332424E4
:1050B00024241900008080E0808000000000001F90
:1050C000202000008080000000808000001F202041
:1050D00020103F20808080000080808000010E3002
:1050E0000806010080800080008080800F300C0363
:1050F0000C300F0000808000808080000020312E66
:105100000E312000808080000080808080818E7041
:105110001806010000808080808080000021302CF3
:105120002221300000000000807C0202000000000C
:10513000003F404000000000FF00000000000000B1
:10514000FF0000000002027C800000000040403FA1
:10515000000000000006010102020404000000003B
:105160000000000010D0FF9010804828090E082889
:10517000488800000300FF00018080432C102C436E
:1051800080800000020CE04020F84F4849FE48486B
:1051900048080000047F000000FF2222223F222254
:1051A0002220000000F8888888880808FF08090A7B
:1051B000C8080000601F0010201F8040211618261C
:1051C00041F800000808F80808081010FF10101037
:1051D000F000000030101F088848300E0140804069
:1051E0003F0000001010FF1010F00000F808080841
:1051F000F800000040300F40807F00007F2020201A
:105200007F0000004042CC0004F49494FF9494F496
:105210000400000040201F20484442415F414244B6
:105220004840000000FC242424FC252624FC2424DF
:1052300024040000308F80844C55252525554C8052
:1052400080800000FE0222DA0620D808090E0888B5
:1052500028180000FF08100807003F44444241405E
:1052600078000000F808FF08F8003EAA6A3E2AAA63
:105270003E00000063211F11394829098DFB0908F0
:105280002C5800008060F807001CE0010600E01EBA
:10529000000000000000FF00804020130C1320409D
:1052A00080800000104C4754545454545454D40437
:1052B00004000000000000000000000000000F30AB
:1052C00040F0000000FE0282828282FA82828282A4
:1052D00082020000601F40404040407F40404458F0
:1052E000404000004042CC0040404040FF40404031
:1052F0004040000000007F2010000000FF00000080
:10530000000000000000E28282828282828282FEAD
:105310000000000000003F4040404040404040400E
:105320004078000080828282FE8282828282FE82B7
:1053300082828000008040300F0000000000FF00EB
:1053400000000000000000FC44444445464444443E
:10535000447C00004020180700FC4444444444447A
:1053600044FC00000000E28282828282828282FE0D
:105370000000000000003F404040404040404040AE
:1053800040780000001011161010F01010141310C7
:105390000000000081414121110D030D1121414107
:1053A00081810000F80122202222A2FA2222220278
:1053B000FE000000FF0008040211201F00004080D2
:1053C0007F00000004040484E43C2724242424E413
:1053D0000404040004020100FF0909090949897F46
:1053E000000000000000106004180000FF00000032
:1053F00000000000818141412111090701050911C7
:1054000021C101001010D0FF9014E4AFA4A4A4AFF8
:10541000E4040000040300FF00894B2A1A0E1A2A34
:105420004B888000101090909090901010FF1010FA
:1054300011161000002060203F10101000030C1007
:105440002040F8000040424242C27E42C2424242F4
:1054500040400000804020100C0300003F404040CE
:10546000407000000000106004180000FF00000001
:105470000000000081814141211109070105091146
:1054800021C101001010D0FF9014E4AFA4A4A4AF78
:10549000E4040000040300FF00894B2A1A0E1A2AB4
:1054A0004B888000101090909090901010FF10107A
:1054B00011161000002060203F10101000030C1087
:1054C0002040F800C04070507040C0000000000054
:1054D000000000007F55405540557F00000000004F
:1054E00000000000040C14FC140C040000000080F8
:1054F00000E000000000007F00600078007E007F78
:10550000007F0000040C14FC140C04000000008058
:10551000000000000000007F00600078007E007F37
:1055200000000000040C14FC140C04000000000037
:10553000000000000000007F00600078007E000096
:1055400000000000040C14FC140C04000000000017
:10555000000000000000007F0060007800000000F4
:1055600000000000040C14FC140C040000000000F7
:10557000000000000000007F00600000000000004C
:1055800000000000040C14FC140C44800000000017
:10559000008040000000007F00004020110A040A43
:1055A000112040004C45445F5461736B00000000C3
:1055B0005057525F5461736B000000004F4C4544DC
:1055C000646973706C61795F5461736B00000000F3
:1055D000F055000800000020C4000000903A0008C8
:1055E000B4560008C4000020341D0000A03A000892
:1055F00000000000000000000000000000000000AB
:10560000000000000000000000000000000000009A
:1056100001000000100000000000000000127A00ED
:10562000000000000000000000000000000000007A
:10563000000000000000000000000000000000006A
:10564000000000000000000000000000000000005A
:10565000000000000000000000000000000000004A
:10566000000000000000000000000000000000003A
:10567000000000000000000000000000000000002A
:10568000AAAAAAAA000000000000000034431010DB
:10569000FF34431010FF0000000000000000000075
:1056A00000000000000000000000000000000000FA
:0456B00000000000F6
:04000005080000ED02
:00000001FF
